:020000040800F2
:10000000180500209D010008BD1D0008F91B00080F
:10001000B91D00082507000805250008000000009C
:10002000000000000000000000000000451E000865
:100030002907000800000000411E0008A51E000856
:10004000B7010008B7010008B7010008B7010008B0
:10005000B7010008B7010008B7010008B7010008A0
:10006000B7010008B7010008B7010008B701000890
:10007000B7010008B7010008B7010008B701000880
:10008000B7010008B7010008B7010008B701000870
:10009000B7010008B7010008B7010008B701000860
:1000A000B7010008B7010008B7010008B701000850
:1000B000B7010008B7010008B7010008B701000840
:1000C000B7010008B7010008B7010008B701000830
:1000D000B7010008B7010008B7010008B701000820
:1000E000B7010008B7010008B7010008B701000810
:1000F000B7010008B7010008B7010008B701000800
:10010000B7010008B7010008B7010008B7010008EF
:10011000B7010008B7010008B7010008B7010008DF
:10012000B7010008B7010008B7010008B7010008CF
:10013000B7010008B7010008B7010008B7010008BF
:10014000B7010008B7010008B7010008B7010008AF
:10015000B7010008B7010008B7010008B70100089F
:10016000B7010008B7010008B7010008B70100088F
:10017000B7010008B7010008B7010008000000003F
:10018000B7010008B7010008DFF80CD000F048FA0A
:10019000004800470126000818050020064880474F
:1001A00006480047FEE7FEE7FEE7FEE7FEE7FEE75C
:1001B000FEE7FEE7FEE7FEE7711F00088901000881
:1001C0002DE9F05F0546002092469B46884606468C
:1001D000814640241BE0284641464746224600F01F
:1001E00057F853465A46C01A914110D31146184643
:1001F000224600F03EF82D1A67EB01084F462246D2
:100200000120002100F035F817EB00094E41201EB7
:10021000A4F10104DFDC484631462A464346BDE8E6
:10022000F09FD2B201E000F8012B491EFBD27047CB
:100230000022F6E710B513460A4604461946FFF7B2
:10024000F0FF204610BD30B50B46014600202022AD
:10025000012409E021FA02F59D4205D303FA02F5D3
:10026000491B04FA02F52844151EA2F10102F1DC33
:1002700030BD202A04DB203A00FA02F1002070474A
:100280009140C2F1200320FA03F3194390407047D4
:10029000202A04DB203A21FA02F00021704721FADB
:1002A00002F3D040C2F12002914008431946704742
:1002B0002DE9FE4F804681EA0300C00F0C460090F6
:1002C00021F0004123F00045B8EB0200A94105D21E
:1002D0004046214690461C460B46024623F000400D
:1002E000104347D0270DC7F30A00C3F30A51029009
:1002F000401A019040286BDAC3F3130040F4801BCE
:100300000098924620B10023D2EB030A63EB0B0B5B
:1003100001985946C0F140025046FFF7AAFF064631
:100320000D4650465946019A00F08CF910EB080032
:100330006141002487EA115284EAE7731A4340D0EE
:10034000009A62B3019A012A4FEA075215DC001B9A
:1003500061EB02014FF0004202EA0752CDE9004290
:10036000001C41F5801132462B4600F08CF903B099
:10037000BDE8F08F40462146F9E7001B61EB020122
:10038000001C41F5801300185B412018A2F50017EE
:1003900047EB030140EAD570B6196D4111E06D08D5
:1003A0004FEA360645EAC0754FEA0752001B61EB7B
:1003B0000201001C41F5801149084FEA3000001984
:1003C000514132462B4603B0BDE8F04F00F04CB926
:1003D0000098012240000023D0EB020263EBE0739F
:1003E000009821464FEAE074B8EB000061EB04018D
:1003F000E9E783F000435BE781F0004158E72DE92E
:10040000FE4F81EA030404F0004421F0004100940F
:100410004FF0000B23F0004350EA01045ED052EA93
:1004200003045BD0C3F30A54C1F30A552C44A4F26D
:10043000F3340194A0FB0254C1F3130141F4801181
:10044000C3F3130343F4801301FB024400FB034E88
:10045000840A970A44EA815447EA8357A4FB076851
:1004600002958D0A05FB07854FEA932C04FB0C547B
:100470002705029D4FEA065847EA1637B5EB0805EF
:100480006EEB070C870E920E47EA811742EA831241
:10049000A7FB0201B6EB0B0164EB00042B0D43EA52
:1004A0000C335E1844EB1C50DA465146E7FB020160
:1004B000C5F313044FEA0B3343EA14534FEA0432F3
:1004C000019C43EA0603A4F10C040294009CCDE9CC
:1004D00000B400F0D8F803B0BDE8F08F002001466A
:1004E000F9E72DE9F04D81EA030404F0004B21F017
:1004F000004514464FF0000A23F0004150EA05027F
:1005000020D054EA01021DD0C5F30A570246C5F3B4
:100510001303C1F31300C1F30A5640F4801543F4EA
:100520008013A7EB0608101BD64608F2FD3873EBC4
:10053000050002D308F1010801E092185B41B8F10F
:10054000000F03DA00200146BDE8F08D00204FF4D3
:100550008011064684460EE0171B73EB050705D392
:10056000121B63EB050306434CEA010C49084FEAF2
:10057000300092185B4150EA0107EDD152EA0300C6
:1005800012D082EA040083EA0501084305D0101B5B
:10059000AB4106D20122002306E000224FF00043C7
:1005A00002E06FF0010253101AEB06004CEB085109
:1005B00010EB0A0041EB0B01BDE8F04D00F054B820
:1005C000C1F30A52C1F3130140F2FF3341F4801129
:1005D0009A4202DA00200146704740F233439A42C1
:1005E000A2F2334202DC5242FFF752BEFFF741BE95
:1005F00030B5041E71F1000404DB4FF000444042AA
:1006000064EB0101141E73F1000405DB1C464FF07E
:100610000043524263EB0403994208BF904230BD4D
:10062000064C074D06E0E06840F0010394E807003F
:1006300098471034AC42F6D3FFF7AAFD502F0008BC
:10064000702F0008202A06DBCB17203A41FA02F06F
:1006500043EAE07306E041FA02F3D040C2F120021F
:10066000914008431946704710B5141E73F10004F9
:1006700008DA401C41F1000192185B411A4301D194
:1006800020F0010010BD2DE9F04D92469B4611B1BE
:10069000B1FA81F202E0B0FA80F220329046FFF720
:1006A000E8FD04460F4640EA0A0041EA0B015346C2
:1006B0005A46084313D0114653EA010019D0C8F135
:1006C00040025046FFF7E4FD05460E4650465946A7
:1006D0004246FFF7CEFD084305D0012004E0204646
:1006E0003946BDE8F08D0020054346EAE0762C430C
:1006F00037430A986305E40AA0EB08000022FD0ACC
:1007000044EA47540A3002D500200146E9E70105D2
:1007100010196941DDE9084500196941BDE8F04D4E
:10072000A2E70000FFE7FEE7704700007047000007
:1007300091B00A46034610900F9100200D900C9046
:100740000B900E9009920893FFE70E980F2800F285
:10075000D481FFE70E98012101FA00F00D900F9867
:1007600000680D9908400C900C980D99884240F053
:10077000BF81FFE70F984068022805D0FFE70F9878
:100780004068122826D1FFE710980E996FF00302F7
:1007900002EA51010844006A0B900E9800F007002D
:1007A00080000F2101FA00F00B9921EA00000B9064
:1007B0000F9800690E9901F00701890088400B9994
:1007C00008430B900B9810990E9B02EA53021144B8
:1007D0000862FFE7109800680B900E984000032114
:1007E00001FA00F00B9921EA00000B900F98406885
:1007F00000F003000E99490088400B9908430B90C4
:100800000B98109908600F98406801280FD0FFE7F7
:100810000F98406802280AD0FFE70F984068112817
:1008200005D0FFE70F98406812282FD1FFE71098F6
:1008300080680B900E984000032101FA00F00B999C
:1008400021EA00000B900F98C0680E99490088407B
:100850000B9908430B900B9810998860109840688A
:100860000B900E98012101FA00F00B9921EA00008B
:100870000B900F984068C0F300100E9988400B99B8
:1008800008430B900B9810994860FFE71098C068D8
:100890000B900E984000032101FA00F00B9921EA19
:1008A00000000B900F9880680E99490088400B99C2
:1008B00008430B900B981099C8600F984068C000CF
:1008C000002840F11481FFE7FFE700200A9043F67B
:1008D0004400C4F20200016841F4804101600068F4
:1008E00000F480400A900A980790FFE70E9820F0E5
:1008F000030043F60801C4F2010140580B900E9822
:1009000000F0030080000F2101FA00F00B9921EAAA
:1009100000000B9010980021C4F20201884203D11C
:10092000FFE7002006905EE0109840F20041C4F21C
:100930000201884203D1FFE70120059050E01098A2
:1009400040F60001C4F20201884203D1FFE7022011
:10095000049042E0109840F60041C4F2020188423F
:1009600003D1FFE70320039034E0109841F2000127
:10097000C4F20201884203D1FFE70420029026E07E
:10098000109841F20041C4F20201884203D1FFE70E
:100990000520019018E0109841F60001C4F2020110
:1009A000884203D1FFE7062000900AE0109841F644
:1009B0000041C4F202010822884208BF07220092C7
:1009C000FFE700980190FFE701980290FFE7029887
:1009D0000390FFE703980490FFE704980590FFE772
:1009E00005980690FFE70698C0B20E9901F0030142
:1009F000890088400B9908430B900B980E9921F0C1
:100A0000030143F60802C4F20102885043F6004095
:100A1000C4F2010000680B900C980B9921EA0000C9
:100A20000B900F984068C003002805D5FFE70C988D
:100A30000B9908430B90FFE70B9843F60041C4F273
:100A40000101086043F60440C4F2010000680B9005
:100A50000C980B9921EA00000B900F9840688003D6
:100A6000002805D5FFE70C980B9908430B90FFE78A
:100A70000B9843F60441C4F20101086043F60840B4
:100A8000C4F2010000680B900C980B9921EA000059
:100A90000B900F984068C002002805D5FFE70C981E
:100AA0000B9908430B90FFE70B9843F60841C4F2FB
:100AB0000101086043F60C40C4F2010000680B908D
:100AC0000C980B9921EA00000B900F984068800267
:100AD000002805D5FFE70C980B9908430B90FFE71A
:100AE0000B9843F60C41C4F201010860FFE7FFE7F1
:100AF000FFE70E9801300E9027E611B07047000016
:100B000040F21010C2F200000068704740F2080086
:100B1000C2F20000007840F21011C2F200010A682F
:100B2000104408607047000080B582B043F6004072
:100B3000C4F20200016841F400710160016841F4EF
:100B400080610160016841F480710160032000F060
:100B500095F80020019000F007F8009000F040F8B0
:100B6000019802B080BD000080B584B001460290BB
:100B700040F20400C2F20000006840F20802C2F233
:100B8000000212784FF47A73B3FBF2F2B0FBF2F08A
:100B9000019100F095FD002804D0FFE701208DF8B9
:100BA0000F0018E002980F280DD8FFE702994FF0C8
:100BB000FF30002200F03CF8029840F20C01C2F233
:100BC0000001086003E001208DF80F0003E0002021
:100BD0008DF80F00FFE79DF80F0004B080BD000006
:100BE00084B0FFE70020039043F64400C4F2020003
:100BF000016841F480410160006800F48040039086
:100C000003980190FFE7FFE70020029043F64000C1
:100C1000C4F20200016841F080510160006800F0F8
:100C20008050029002980090FFE704B070470000E7
:100C300080B58AB013468C4686468DF82700089109
:100C40000792002006900593CDF810C0CDF80CE077
:100C500001F05AFC06909DF927000699089A079B17
:100C60000290084611461A4601F0AAF8029901902E
:100C70000846019901F050FC0AB080BD80B582B0F1
:100C8000014601900198009101F06CFC02B080BD1A
:100C900080B588B00A46034606900591069800285C
:100CA0000392029304D1FFE701208DF81F0025E194
:100CB000059843F60041C4F20201096801F00F01F2
:100CC000884212D9FFE7059843F60041C4F20201B9
:100CD0000870086800F00F000599884204D0FFE70B
:100CE00001208DF81F0009E1FFE7069800688007E2
:100CF00000282AD5FFE7069800684007002809D594
:100D0000FFE743F60800C4F20200016841F4E05135
:100D10000160FFE7069800680007002809D5FFE793
:100D200043F60800C4F20200016841F4604101602A
:100D3000FFE743F60800C4F20200016821F0F00169
:100D4000069A926811430160FFE706980068C007A1
:100D5000002870D0FFE706984068012811D1FFE70E
:100D600043F60000C4F20200006800F400300021E5
:100D7000B1EB504F04D1FFE701208DF81F00BDE01B
:100D80002CE006984068022805D0FFE706984068E6
:100D9000032811D1FFE743F60000C4F20200006807
:100DA00000F000700021B1EB506F04D1FFE701208B
:100DB0008DF81F00A2E010E043F60000C4F202002C
:100DC000006800F002000021B1EB500F04D1FFE7F2
:100DD00001208DF81F0091E0FFE7FFE743F60800D0
:100DE000C4F20200016821F00301069A526811431F
:100DF0000160FFF785FE0490FFE743F60800C4F2A8
:100E00000200006800F00C0006994968B0EB810F01
:100E100010D0FFE7FFF774FEDDF810E0A0EB0E0046
:100E200041F2893E704504D3FFE703208DF81F008F
:100E300064E0E2E7FFE7059843F60041C4F20201EF
:100E4000096801F00F01884212D2FFE7059843F6C6
:100E50000041C4F202010870086800F00F00059913
:100E6000884204D0FFE701208DF81F0046E0FFE72D
:100E700006980068400700280CD5FFE743F60800F5
:100E8000C4F20200016821F4E051069AD2681143CD
:100E90000160FFE706980068000700280DD5FFE70E
:100EA00043F60800C4F20200016821F46041069A8A
:100EB000126941EAC2010160FFE700F053F843F60E
:100EC000080EC4F2020EDEF800E05FFA8EFE4FEA72
:100ED0001E1E42F62A71C0F6000111F80E10C8401D
:100EE00040F20401C2F20001086000200190FFF707
:100EF0003BFE01998DF81F100090FFE79DF81F0041
:100F000008B080BD40F20400C2F2000000687047E3
:100F100080B5FFF7F7FF43F6080EC4F2020EDEF8C5
:100F200000E0CEF3822E42F63A71C0F6000111F8CD
:100F30000E10C84080BD000080B5FFF7E3FF43F608
:100F4000080EC4F2020EDEF800E01FFA8EFE4FEA31
:100F50005E3E42F63A71C0F6000111F80E10C8402C
:100F600080BD000080B586B00020059004900390FD
:100F7000029043F60800C4F20200006800F00C0082
:100F800001460028019108D0FFE7019804280AD003
:100F9000FFE7019808280CD04FE042F20040C0F271
:100FA000F40002904FE047F64000C0F27D1002903E
:100FB00049E043F60400C4F20200016801F03F0179
:100FC000059100684002002813D5FFE743F60400AE
:100FD000C4F202000068C0F3881047F64001C0F276
:100FE0007D11A0FB0101059A0023FFF7E9F80490A9
:100FF00012E043F60400C4F202000068C0F3881057
:1010000042F20041C0F2F401A0FB0101059A002365
:10101000FFF7D6F80490FFE743F60400C4F202009D
:10102000006800F44030022101EBD03003900498B6
:101030000399B0FBF1F0029005E042F20040C0F2EB
:10104000F4000290FFE7029806B080BD80B588B03A
:101050000146069006980028029104D1FFE701207E
:101060008DF81F0027E306980068C007002800F0ED
:10107000AB80FFE743F60800C4F20200006800F00E
:101080000C00042813D0FFE743F60800C4F2020066
:10109000006800F00C0008281FD1FFE743F60400A9
:1010A000C4F2020000684002002816D5FFE743F6AC
:1010B0000000C4F20200006800F400300021B1EB2F
:1010C000504F09D0FFE706984068002804D1FFE799
:1010D00001208DF81F00EEE275E0FFE706984068FA
:1010E000B0F5803F09D1FFE743F60000C4F20200EB
:1010F000016841F48031016020E006984068B0F555
:10110000A02F0DD1FFE743F60000C4F202000168F2
:1011100041F480210160016841F4803101600CE0FC
:1011200043F60000C4F20200016821F4803101603E
:10113000016821F480210160FFE7FFE7FFE70698DF
:10114000406800281FD0FFE7FFF7DAFC0590FFE7B3
:1011500043F60000C4F20200006800F400300021F1
:10116000B1EB504F0ED1FFE7FFF7CAFCDDF814E0FA
:10117000A0EB0E00652804D3FFE703208DF81F00C5
:1011800099E2E5E71EE0FFF7BBFC0590FFE743F6B9
:101190000000C4F20200006800F400300021B1EB4E
:1011A000504F0ED0FFE7FFF7ABFCDDF814E0A0EBEB
:1011B0000E00652804D3FFE703208DF81F007AE2B4
:1011C000E5E7FFE7FFE7FFE70698006880070028EC
:1011D00040F19B80FFE743F60800C4F2020000687C
:1011E00010F00C0F13D0FFE743F60800C4F2020022
:1011F000006800F00C0008282CD1FFE743F604003B
:10120000C4F2020000684002002823D4FFE743F63E
:101210000000C4F20200006800F002000021B1EBFF
:10122000500F09D0FFE70698C068012804D0FFE7F7
:1012300001208DF81F003EE243F60000C4F20200D8
:10124000016821F0F801069A126941EAC2010160C1
:10125000FFE759E00698C068002830D0FFE700207B
:10126000C4F2472001210160FFF74AFC0590FFE727
:1012700043F60000C4F20200006800F00200002102
:10128000B1EB500F0ED1FFE7FFF73AFCDDF814E0A9
:10129000A0EB0E00032804D3FFE703208DF81F0006
:1012A00009E2E5E743F60000C4F20200016821F01C
:1012B000F801069A126941EAC201016023E00020A8
:1012C000C4F2472000210160FFF71AFC0590FFE7F8
:1012D00043F60000C4F20200006800F002000021A2
:1012E000B1EB500F0ED0FFE7FFF70AFCDDF814E07A
:1012F000A0EB0E00032804D3FFE703208DF81F00A6
:10130000D9E1E5E7FFE7FFE7FFE706980068000798
:10131000002850D5FFE706984069002825D0FFE750
:1013200040F68060C4F2472001210160FFF7E8FB2E
:101330000590FFE743F67400C4F20200006800F075
:1013400002000021B1EB500F0ED1FFE7FFF7D8FBF1
:10135000DDF814E0A0EB0E00032804D3FFE7032020
:101360008DF81F00A7E1E5E724E040F68060C4F2B5
:10137000472000210160FFF7C3FB0590FFE743F61C
:101380007400C4F20200006800F002000021B1EB1A
:10139000500F0ED0FFE7FFF7B3FBDDF814E0A0EB32
:1013A0000E00032804D3FFE703208DF81F0082E11D
:1013B000E5E7FFE7FFE7069800684007002840F1EF
:1013C000D680FFE700208DF8130043F64000C4F2FA
:1013D00002000068C000002816D4FFE7FFE70020E5
:1013E000039043F64000C4F20200016841F08051CE
:1013F0000160006800F08050039003980190FFE7BF
:1014000001208DF81300FFE747F20000C4F200004E
:101410000068C005002824D4FFE747F20000C4F2AA
:101420000000016841F480710160FFF769FB0590DD
:10143000FFE747F20000C4F200000068C005002882
:101440000ED4FFE7FFF75CFBDDF814E0A0EB0E0025
:10145000032804D3FFE703208DF81F002BE1E8E702
:10146000FFE7FFE706988068012809D1FFE743F608
:101470007000C4F20200016841F0010101601FE048
:101480000698806805280DD1FFE743F67000C4F286
:101490000200016841F004010160016841F00101AE
:1014A00001600CE043F67000C4F20200016821F014
:1014B00001010160016821F004010160FFE7FFE71D
:1014C000FFE706988068002821D0FFE7FFF718FBA8
:1014D0000590FFE743F67000C4F20200006800F0D8
:1014E00002000021B1EB500F10D1FFE7FFF708FB1E
:1014F000DDF814E0A0EB0E0041F2893E704504D304
:10150000FFE703208DF81F00D5E0E3E720E0FFF7B9
:10151000F7FA0590FFE743F67000C4F20200006896
:1015200000F002000021B1EB500F10D0FFE7FFF7F1
:10153000E7FADDF814E0A0EB0E0041F2893E7045B9
:1015400004D3FFE703208DF81F00B4E0E3E7FFE7D3
:101550009DF81300012809D1FFE743F64000C4F2CB
:101560000200016821F080510160FFE7FFE7069863
:101570008069002800F09B80FFE743F60800C4F272
:101580000200006800F00C00082800F08B80FFE7E4
:1015900006988069022860D1FFE76020C4F24720E6
:1015A00000210160FFF7ACFA0590FFE743F6000069
:1015B000C4F20200006800F000700021B1EB506F2F
:1015C0000ED0FFE7FFF79CFADDF814E0A0EB0E0069
:1015D000032804D3FFE703208DF81F006BE0E5E745
:1015E0000698C169026A436AD0F828C0114341EAEB
:1015F00083114FEACC324FF6FF739A43A2F5803243
:101600001143C06A41EA006043F60401C4F20201DA
:1016100008606020C4F2472001210160FFF770FAE2
:101620000590FFE743F60000C4F20200006800F0F6
:1016300000700021B1EB506F0ED1FFE7FFF760FAA9
:10164000DDF814E0A0EB0E00032804D3FFE703202D
:101650008DF81F002FE0E5E723E06020C4F247206B
:1016600000210160FFF74CFA0590FFE743F6000008
:10167000C4F20200006800F000700021B1EB506F6E
:101680000ED0FFE7FFF73CFADDF814E0A0EB0E0008
:10169000032804D3FFE703208DF81F000BE0E5E7E4
:1016A000FFE703E001208DF81F0004E0FFE70020C2
:1016B0008DF81F00FFE79DF81F0008B080BD0000F7
:1016C00080B582B0014601900198009100F0BCFB0A
:1016D00002B080BD80B584B0014602900298002817
:1016E000019104D1FFE701208DF80F0041E002983D
:1016F0008069002801D0FFE700E0FFE7029890F83A
:101700003900002808D1FFE70298002180F838103E
:10171000029800F033F8FFE70298242180F839108E
:1017200002980068C16821F40051C160029800F07D
:1017300057FC02980068016921F490410161029808
:101740000068416921F02A01416102980068C1687E
:1017500041F40051C16002980021C16302984FF02A
:10176000200E80F839E0029880F83AE08DF80F10EA
:10177000FFE79DF80F0004B080BD000080B5ACB05D
:1017800001462B9000202A9029902890279026909F
:101790002B98006841F20002C4F2010290421C91B1
:1017A0004ED1FFE7FFE70020259043F64400C4F246
:1017B0000200016841F010010160006800F01000B3
:1017C000259025981B90FFE7FFE70020249043F623
:1017D0003000C4F20200016841F0010101600068BC
:1017E00000F00100249024981A90FFE74FF4C060A5
:1017F0002690022027900121289103212991072278
:101800002A920023C4F202030DF1980C1990184695
:101810001891614617921693CDF854C0FEF788FFD1
:101820004FF48050269019982790002128911899FC
:101830002991179A2A9216981599FEF779FF19E1BE
:101840002B98006844F20041C4F2000188424BD159
:10185000FFE7FFE70020239043F64000C4F20200B8
:10186000016841F400310160006800F40030239009
:1018700023981490FFE7FFE70020229043F6300002
:10188000C4F20200016841F001010160006800F04B
:101890000100229022981390FFE7022026902790C3
:1018A000002128910321299107222A920023C4F2C2
:1018B00002030DF1980C1290184611916146109296
:1018C0000F93CDF838C0FEF733FF0C202690129806
:1018D00027900121289111992991109A2A920F9805
:1018E0000E99FEF725FFC4E02B98006844F600012E
:1018F000C4F2000188424FD1FFE7FFE700202190AA
:1019000043F64000C4F20200016841F48021016006
:10191000006800F48020219021980D90FFE7FFE7F8
:101920000020209043F63000C4F20200016841F02C
:1019300002010160006800F00200209020980C90E5
:10194000FFE74FF440602690022027900121289164
:101950000321299107222A9240F20043C4F2020394
:101960000DF1980C0B9018460A9161460992089364
:10197000CDF81CC0FEF7DCFE4FF4804026900B989B
:101980002790002128910A992991099A2A9208986A
:101990000799FEF7CDFE6BE02B98006841F20041FD
:1019A000C4F20101884262D1FFE7FFE700201F90E7
:1019B00043F64400C4F20200016841F020010160D6
:1019C000006800F020001F901F980690FFE7FFE7D7
:1019D00000201E9043F63000C4F20200016841F07E
:1019E00040010160006800F040001E901E980590C4
:1019F000FFE7FFE700201D9043F63000C4F202002D
:101A0000016841F004010160006800F004001D90CD
:101A10001D980490FFE74FF48070269002202790D5
:101A2000002128910321299108222A9241F60003DE
:101A3000C4F202030DF1980C03901846029161461E
:101A40000192CDF800C0FEF773FEC02026900398E7
:101A500027900121289102992991019A2A9240F612
:101A60000000C4F202000099FEF762FEFFE7FFE704
:101A7000FFE7FFE72CB080BDB0B58CB09C46964622
:101A80000C4605460A900991ADF8222007930020E4
:101A900005900A9890F839002028CDF810C0CDF8AC
:101AA0000CE00294019540F09F80FFE70998002820
:101AB00005D0FFE7BDF82200002804D1FFE7012090
:101AC0008DF82F0094E0FFE70A9890F8380001287D
:101AD00004D1FFE702208DF82F0089E00A98012148
:101AE00080F83810FFE7FFE70A980021C1630A98E1
:101AF000212180F83910FFF703F80590BDF8220086
:101B00000A998884BDF822000A99C884FFE70A98D8
:101B1000C08C00284AD0FFE70A98C18C0139C184E3
:101B20000A988068B0F5805F27D1FFE70A98059B87
:101B300007996A4611608021002200F085FC002888
:101B400004D0FFE703208DF82F0051E0099806909C
:101B5000069800886FF35F200A99096848600A9820
:101B60000069002804D1FFE709980230099003E0DA
:101B7000099801300990FFE717E00A98059B07993B
:101B80006A4611608021002200F05EFC002804D02B
:101B9000FFE703208DF82F002AE00998411C0991E6
:101BA00000780A9909684860FFE7B0E70A98059B42
:101BB00007996A4611604021002200F045FC002888
:101BC00004D0FFE703208DF82F0011E00A982021B0
:101BD00080F83910FFE70A98002180F83810FFE7F5
:101BE00000208DF82F0003E002208DF82F00FFE782
:101BF0009DF82F000CB0B0BDFFE7FEE78AB0FFE70D
:101C00000020099043F63000C4F20200016841F060
:101C100004010160006800F0040009900998049034
:101C2000FFE7FFE70020089043F63000C4F202000F
:101C3000016841F080010160006800F080000890B8
:101C400008980390FFE7FFE70020079043F6300075
:101C5000C4F20200016841F001010160006800F077
:101C60000100079007980290FFE7FFE70020069029
:101C700043F63000C4F20200016841F00201016045
:101C8000006800F00200069006980190FFE7FFE769
:101C90000020059043F63000C4F20200016841F0D4
:101CA00040010160006800F0400005900598009038
:101CB000FFE70AB07047000080B540F21000C2F2A2
:101CC000000041F20001C4F2010101604FF4E13172
:101CD000416000218160C16001610C2242614FF4CA
:101CE00080728261C161FFF7F5FC002803D0FFE735
:101CF000FEF71CFDFFE780BD80B540F25000C2F248
:101D0000000044F20041C4F2000101604FF4E131EF
:101D1000416000218160C16001610C2242614FF489
:101D200080728261C161FFF7D5FC002803D0FFE714
:101D3000FEF7FCFCFFE780BD80B540F29000C2F2E8
:101D4000000044F60001C4F2000101604FF4E131EB
:101D5000416000218160C16001610C2242614FF449
:101D600080728261C161FFF7B5FC002803D0FFE7F4
:101D7000FEF7DCFCFFE780BD80B540F2D000C2F288
:101D8000000041F20041C4F2010101604FF4E13171
:101D9000416000218160C16001610C2242614FF409
:101DA00080728261C161FFF795FC002803D0FFE7D4
:101DB000FEF7BCFCFFE780BDFFE7FEE770470000D1
:101DC00080B58BB013468C4686460A9009910892DE
:101DD0000A9800F0070007900798C0F1070005284F
:101DE0000493CDF80CC0CDF808E003D3FFE704203E
:101DF000019004E00798C0F107000190FFE7019807
:101E0000069007980430062803D8FFE700200090CA
:101E100003E0079803380090FFE7009805900998C1
:101E20000699012202FA01F101390840059988401A
:101E3000089B02FA01F10139194008430BB080BD3B
:101E4000704700007047000080B584B001460290E2
:101E500002980138B0F1807F019103D3FFE70120A0
:101E600003901BE0029801384EF21401CEF20001FB
:101E700008604FF0FF300F2100F04EFB4EF21800CB
:101E8000CEF20000002101604EF21000CEF2000000
:101E90004FF0070EC0F800E00391FFE7039804B08D
:101EA00080BD000080B5FEF731FE80BD80B596B0E4
:101EB0000AA83021FEF7BCF900200990089007908D
:101EC00006900590FFE70020049043F64000C4F21E
:101ED0000200016841F080510160006800F080500C
:101EE000049004980290FFE7FFE70020039047F278
:101EF0000000C4F20000016841F480410160006804
:101F000000F48040039003980190FFE702200A90BC
:101F100001210D9110210E911090002111910821A5
:101F20001291A82113911490042015900AA8FFF78C
:101F30008DF8002803D0FFE7FEF7F8FBFFE70F203E
:101F4000059002200690002007904FF4A0500890C2
:101F50004FF48050099005A80521FEF799FE00284E
:101F600003D0FFE7FEF7E2FBFFE716B080BD0000FD
:101F70004EF68850CEF20000016841F47001016015
:101F800043F60000C4F20200016841F00101016063
:101F900043F60801C4F2020100220A6001684FF60C
:101FA000FF73CFF6F6631940016043F60401C4F2F3
:101FB000020143F21003C2F200430B60016821F4F6
:101FC0008021016043F60C00C4F2020002604EF66C
:101FD0000850CEF200004FF0006101607047000031
:101FE00070B5B8B00146379037980068006920F4A2
:101FF0004050379A1368D268104318613798826846
:102000000369D0F814C0C0691A4342EA0C021043B5
:10201000369037980068C06849F20C629043369A4F
:102020001043379A1268D06037980068406920F4EE
:102030004070379A13689269104358613798C069A5
:10204000B0F5004F359140F00081FFE73798006808
:1020500041F20001C4F20101884209D0FFE737983C
:10206000006841F20041C4F20101884276D1FFE7E5
:10207000FEF762FF4FF0190E00FB0EF0379949682A
:102080004900B0FBF1F048F21F51C5F2EB11A0FB83
:1020900001026FF00F0303EA5202CDF8D0E0339152
:1020A00032903192FEF748FF34994843379A52688C
:1020B0005200B0FBF2F03090FEF73EFF34994843F7
:1020C000379A52685200B0FBF2F0339AA0FB020339
:1020D0005B094FF0640EDDF8C0C003FB1EC34FF078
:1020E000320C0CEBC303A3FB0234F82505EA5414AD
:1020F000319D05EB44042F90CDF8B8E0CDF8B4C085
:102100002C932B94FEF718FF34994843379A526862
:102110005200B0FBF2F02A90FEF70EFF34994843CC
:10212000379A136852685200B0FBF2F0339AA0FB62
:10213000020C4FEA5C1CDDF8B8E02A9C0CFB1E4C3C
:102140002D9C04EBCC0CACFB02C5C5F342152B9EB9
:1021500035449D602990CDF8A0C075E0FEF7D8FE0B
:102160004FF0190E00FB0EF0379949684900B0FB9B
:10217000F1F048F21F51C5F2EB11A0FB01026FF024
:102180000F0303EA5202CDF89CE026912590249299
:10219000FEF7BEFE27994843379A52685200B0FBBB
:1021A000F2F02390FEF7B4FE27994843379A52681D
:1021B0005200B0FBF2F0269AA0FB02035B094FF03D
:1021C000640EDDF88CC003FB1EC34FF0320C0CEB29
:1021D000C303A3FB0234F82505EA5414249D05EB40
:1021E00044042290CDF884E0CDF880C01F931E9463
:1021F000FEF78EFE27994843379A52685200B0FB8B
:10220000F2F01D90FEF784FE27994843379A136831
:1022100052685200B0FBF2F0269AA0FB020C4FEA83
:102220005C1CDDF884E01D9C0CFB1E4C209C04EB28
:10223000CC0CACFB02C5C5F342151E9E35449D6017
:102240001C90CDF86CC0FFE7FCE03798006841F2C5
:102250000001C4F20101884209D0FFE73798006805
:1022600041F20041C4F20101884275D1FFE7FEF757
:1022700063FE4FF0190E00FB0EF037994968890094
:10228000B0FBF1F048F21F51C5F2EB11A0FB0102C7
:102290006FF00F0303EA5202CDF868E0199118902D
:1022A0001792FEF749FE1A994843379A52689200EE
:1022B000B0FBF2F01690FEF73FFE1A994843379AAA
:1022C00052689200B0FBF2F0199AA0FB02035B097E
:1022D0004FF0640EDDF858C003FB1EC34FF0320C04
:1022E0000CEB0313A3FB0234F02505EA5414179DED
:1022F0002C441590CDF850E0CDF84CC012931194B9
:10230000FEF71AFE1A994843379A52689200B0FBBA
:10231000F2F01090FEF710FE1A994843379A1368AE
:1023200052689200B0FBF2F0199AA0FB020C4FEA3F
:102330005C1CDDF850E0109C0CFB1E4C139C04EB65
:102340000C1CACFB02C5C5F34315119E35449D60C2
:102350000F90CDF838C074E0FEF7DAFD4FF0190E9B
:1023600000FB0EF0379949688900B0FBF1F048F2A4
:102370001F51C5F2EB11A0FB01026FF00F0303EA3E
:102380005202CDF834E00C910B900A92FEF7C0FD9A
:102390000D994843379A52689200B0FBF2F00990C9
:1023A000FEF7B6FD0D994843379A52689200B0FB8C
:1023B000F2F00C9AA0FB02035B094FF0640EDDF80B
:1023C00024C003FB1EC34FF0320C0CEB0313A3FB22
:1023D0000234F02505EA54140A9D2C440890CDF8E7
:1023E0001CE0CDF818C005930494FEF791FD0D99FB
:1023F0004843379A52689200B0FBF2F00390FEF720
:1024000087FD0D994843379A136852689200B0FBD4
:10241000F2F00C9AA0FB020C4FEA5C1CDDF81CE009
:10242000039C0CFB1E4C069C04EB0C1CACFB02C575
:10243000C5F34315049E35449D600290CDF804C059
:10244000FFE7FFE738B070BD70B58AB0DDF838C07F
:102450009E4614460D460646089007918DF81B20AF
:102460000593CDF810C0CDF80CE0029401950096CC
:10247000FFE708980068006807990840401AB0FA1A
:1024800080F040099DF81B10884233D1FFE70E9879
:10249000013000282DD0FFE70E9800280BD0FFE771
:1024A000FEF72EFBDDF814E0A0EB0E00DDF838E0BF
:1024B00070451DD9FFE708980068C16821F4D07104
:1024C000C16008980068416921F0010141610898E4
:1024D000202180F83910089880F83A10FFE7089812
:1024E000002180F83810FFE703208DF8270005E071
:1024F000FFE7BEE700208DF82700FFE79DF82700E3
:102500000AB070BDFFE7FEE74EF60C50CEF20000B9
:102510000068C0F30220704784B00A4603468DF875
:102520000F0002919DF90F000028019200930ADB31
:10253000FFE7029800019DF90F104EF20042CEF223
:10254000000288540BE0029800019DF80F1001F082
:102550000F014EF61452CEF200028854FFE704B089
:102560007047000084B001460390039800F0070014
:1025700001904EF60C50CEF2000002680292029AD0
:102580004FF6FF031A400292029A019B42EA03228D
:102590000023C0F2FA531A430292029A0260009199
:1025A00004B0704780B58AB00A4603460990089186
:1025B00009988DF81F0040F29000C2F200000DF162
:1025C0001F014FF0010C4FF00A0E06910592624672
:1025D00004937346CDF80CC0CDF808E0FFF74CFA31
:1025E00040F2D001C2F20001019008460699039A18
:1025F000029BFFF741FA0999009008460AB080BD96
:1026000080B584B000200390FEF78EFA0290FFF7A9
:102610004DFCFFF7F3FAFFF74FFBFFF76DFBFFF7FA
:102620008BFBFFF7A9FBFFE742F64270C0F6000004
:1026300000F002F80190F7E70FB4054B10B503A9BD
:10264000044A029800F0DAF810BC5DF814FB0000B0
:10265000A52500080000002002E008C8121F08C1DC
:10266000002AFAD170477047002001E001C1121F13
:10267000002AFBD1704700002DE9FF5F82B00021E6
:10268000DDE90430020DDDF840B0034318D044F614
:102690001050A2F2FF3242431514119801281FD0A6
:1026A000A5EB0B00401C5FEA000A4FF000064E4FFE
:1026B000DFF83891B046504615D5CAF1000413E052
:1026C000119801244AA3012801D16FEA0B01029855
:1026D000119AC0E90031C0E9024206B0BDE8F09F9E
:1026E000CBF10000DFE704460021404A491842EBE5
:1026F0000450CDE9001012E0E00707D032463B4617
:1027000040464946FDF77BFE8046894632463B46B9
:1027100010461946FDF773FE06460F466410002C5E
:10272000EAD1DDE90401DDE90023BAF1000F06DAA0
:10273000FDF765FE42464B46FDF761FE05E0FDF7FD
:10274000D0FE42464B46FDF7CCFE04460E46002224
:10275000284BFDF74DFF03D84FF0FF30014607E04F
:102760000022254B20463146FDF7A2FDFDF728FF4C
:10277000102409E0002C0ADB0A220023FDF720FDCB
:10278000039B30321A55641E50EA0102F2D1641CD8
:10279000039AC4F111031444119A012A03D00122AF
:1027A00008430DD10AE0084304D000204FF0110B7C
:1027B000119072E7A3EB0B056D1E0DE05B4504DD88
:1027C0004FF0000205F1010504E003DA4FF00002CA
:1027D000A5F10105002AECD002981199C0E9023157
:1027E000C0E9004579E70000000014400000F03F18
:1027F000300000000000F0430000E03F2DE9FF4FF3
:1028000095B09B468946064600250FE2252877D1DC
:1028100000242746F84A0121059400E0044316F8F5
:10282000013F203B01FA03F01042F7D130782A280B
:1028300011D06FF02F033078A0F13002092A16D89A
:10284000059A44F0020402EB820203EB42021044B8
:10285000761C0590EFE759F8042B0592002A03DA5D
:10286000504244F40054059044F00204761C307841
:102870002E2816D116F8010F44F004042A280DD092
:102880006FF02F023078A0F13003092B09D807EB45
:10289000870302EB4303C718761CF3E759F8047B60
:1028A000761C30786C280FD006DC4C2817D06828AE
:1028B0000DD06A2814D104E0742810D07A280FD1E2
:1028C0000DE044F400140AE044F4801401E044F400
:1028D00040147278824202D104F58014761C761C72
:1028E000307866280BD013DC582877D009DC002814
:1028F00075D04528F6D04628F4D047281AD19DE156
:1029000018E0632835D0642879D0652812D195E184
:10291000702873D008DC6728F1D069286FD06E2842
:102920000DD06F2806D1B5E073282CD0752875D04E
:10293000782874D05A46179990476D1C75E1C4F3F6
:102940000250022809D003280DD0D9F8001004281D
:102950000DD00D6009F1040967E1D9F80010EA17FC
:10296000C1E90052F6E7D9F800100D80F2E70D70CA
:10297000F0E719F8041B8DF8001000208DF8010015
:10298000EA46012003E059F804AB4FF0FF3061073D
:102990004FF0000102D40DE008F101018846B94270
:1029A0000FDA8045F8DB1AF808100029F4D108E0A6
:1029B00008F1010188468142FADB1AF80810002963
:1029C000F6D105985B46A0EB080721463846179AD2
:1029D00000F094FA284400EB080507E04DE029E1F7
:1029E0000DE01AF8010B5A4617999047B8F1010803
:1029F000F7D25B4621463846179A13E142E00A2295
:102A00000092C4F302524FF0000A022A08D059F88B
:102A100004CB032A4FEAEC710AD00DE029E02AE04A
:102A200009F1070121F00702F2E802C1914609E02D
:102A30000FFA8CFC4FEAEC71042A03D14FFA8CFC9C
:102A40004FEAEC71002907DA0A460021DCF1000C9C
:102A500061EB02012D2202E0220504D52B228DF824
:102A60000420012203E0E20701D02022F7E790468C
:102A700059E00A2102E010220DE010214FF0000A77
:102A800000910BE010224FF0000A44F004040827E4
:102A9000009203E008224FF0000A0092C4F30252B1
:102AA000022A05D059F804CB0021032A08D009E0F6
:102AB00009F1070121F00702F2E802C1914605E0A1
:102AC0001FFA8CFC042A01D10CF0FF0C4FF0000817
:102AD000220728D5702806D0009B83F0100353EA04
:102AE0000A0305D00EE040228DF80420012208E000
:102AF0005CEA010206D030228DF804208DF8050032
:102B000002229046009B83F0080353EA0A030AD18D
:102B10005CEA010201D1620705D530228DF804205C
:102B20004FF001087F1E582804D034A003900EA84F
:102B300002900DE036A0F9E753466046009AFDF793
:102B40003FFB84460398825C0298401E029002700C
:102B50005CEA0100F0D1029806A9081A00F1200AE7
:102B6000600702D524F4803400E00127574502DDD8
:102B7000A7EB0A0000E0002000EB0A010090059896
:102B80004144401A0590E00306D45B462146179A5B
:102B9000059800F0B3F90544002706E001A85A465D
:102BA000C05D179990476D1C7F1C4745F6DBE0031D
:102BB0000CD55B462146179A059800F09FF905440D
:102BC00004E030205A46179990476D1C0099481E22
:102BD00000900029F5DC08E0029802995A46007836
:102BE000491C0291179990476D1CBAF10001AAF196
:102BF000010AF1DC65E100000928010030313233BF
:102C00003435363738396162636465660000000028
:102C10003031323334353637383941424344454612
:102C20000000000000F058F90544761C30780028B8
:102C30007FF4ECAD19B02846BDE8F08F620700D4F0
:102C4000062709F1070222F0070CFCE80223E146FF
:102C500003F000485FEA080C02D00FF2702C0DE080
:102C60005FEA045C02D50FF2682C07E05FEAC47CDF
:102C700002D00FF2602C01E0AFF2700C4FF0FF3881
:102C800023F00043CDF850C065280CD006DC452861
:102C900009D046281DD047283DD13DE0662818D0F0
:102CA00067287ED138E00021112F01DB112000E0E0
:102CB000781CCDE9000106A90EA8FFF7DDFCDDE9CF
:102CC0000F010E9A03910021009207F1010A04916D
:102CD0004DE04FF000400097CDE9011006A90EA885
:102CE000FFF7CAFCDDE90F0203920E9B1199002247
:102CF000DDF80CA00093049211B9791C00EB010AD5
:102D0000B7EB0A0004D4C0F1FF3007F1010A0490C8
:102D1000AAEB0700019044E0012F00DA012700210F
:102D2000112F01DD112000E03846CDE9000106A990
:102D30000EA8FFF7A1FCDDE90F010E9A0391002117
:102D400004910092BA4621070CD40399514500DA48
:102D50008A46BAF1010F05DD009AAAF10101515C22
:102D6000302908D0B84202DA10F1040F06DA012146
:102D7000CDE9011015E0AAF10101E9E7002805DC21
:102D8000049901440491AAEB000102E0411C514561
:102D900000DD8A460499401A401C01904FF0004023
:102DA0000290200704D40198504501DBCDF804803F
:102DB00000208DF84F0002980DF14F07B0F1004F41
:102DC00025D02B200E9002984FF0020800280CDA34
:102DD000404202902D200E9007E00A210298FDF754
:102DE00032FA3031029007F8011DB8F10001A8F164
:102DF0000108F2DC02980028EFD1791E0E980870C5
:102E0000307800F0200040F0450007F8020D12A8CD
:102E1000C01B00F107081498007800B1012000EBF6
:102E20000A01019801EBE07105984144401A401EE7
:102E30000590E00306D45B462146179A059800F0FA
:102E40005DF805441498007818B15A4617999047D0
:102E50006D1CE00324D55B462146179A059800F0C7
:102E60004DF805441CE00498002807DBDDE9030168
:102E7000884203DD0098405C179901E017993020E3
:102E80005A469047049805F10105401C04900198AA
:102E9000401E019004D12E205A46179990476D1C70
:102EA000BAF10001AAF1010ADDDC05E017F8010B17
:102EB0005A46179990476D1CB8F10001A8F1010816
:102EC000F4DC5B462146179A0598ABE62D0000001E
:102ED0002B000000200000002DE9F04104460025F1
:102EE0001E461746880404D405E039462020B04722
:102EF0006D1C641EF9D52846BDE8F0812DE9F0412E
:102F0000044600251E469046C80301D5302700E040
:102F10002027880404D505E041463846B0476D1C9B
:102F2000641EF9D52846BDE8F081000000000000CD
:102F30000000010203040607080900000000010266
:102F4000030468656C6C6F20776F726C640000001E
:102F5000702F000800000020100000005826000814
:102F6000802F0008100000200805000068260008D7
:102F7000000000000024F400010000001000000028
:040000050800018965
:00000001FF
