:020000040800F2
:10000000D04801209D0100085B390008212F00081D
:10001000593900088D0900088949000800000000CE
:10002000000000000000000000000000E1410008A6
:100030002D0A000800000000413B0008AD43000805
:10004000B7010008B7010008B7010008B7010008B0
:10005000B7010008B7010008B7010008B7010008A0
:10006000B7010008B7010008B7010008B701000890
:10007000B7010008B7010008B7010008B701000880
:10008000B7010008B7010008B7010008B701000870
:10009000B7010008B7010008B7010008B701000860
:1000A000B7010008B7010008B7010008B701000850
:1000B000B7010008B7010008B7010008B701000840
:1000C000B7010008B7010008B7010008B701000830
:1000D000B70100087B490008B7010008B701000814
:1000E000B7010008B7010008B7010008B701000810
:1000F000B7010008B7010008B7010008B701000800
:10010000B7010008B7010008B7010008B7010008EF
:10011000B7010008B7010008B7010008B7010008DF
:10012000210A0008B7010008B7010008B70100085C
:10013000B7010008B7010008B7010008B7010008BF
:10014000B7010008B7010008B7010008B7010008AF
:10015000B7010008B7010008B7010008B70100089F
:10016000B7010008B7010008B7010008B70100088F
:10017000B7010008B7010008B7010008000000003F
:10018000B7010008B7010008DFF80CD000F062FBEF
:100190000048004729700008D048012006488047E1
:1001A00006480047FEE7FEE7FEE7FEE7FEE7FEE75C
:1001B000FEE7FEE7FEE7FEE73F440008890100088E
:1001C0002DE9F05F0546002092469B46884606468C
:1001D000814640241BE0284641464746224600F01F
:1001E00052FA53465A46C01A914110D31146184646
:1001F000224600F039FA2D1A67EB01084F462246D5
:100200000120002100F030FA17EB00094E41201EBA
:10021000A4F10104DFDC484631462A464346BDE8E6
:10022000F09FD2B201E000F8012B491EFBD27047CB
:100230000022F6E710B513460A4604461946FFF7B2
:10024000F0FF204610BD421C10F8011B0029FBD115
:10025000801A70472DE9FE4F804681EA0300C00FE7
:100260000C46009021F0004123F00045B8EB02005D
:10027000A94105D24046214690461C460B460246FF
:1002800023F00040104347D0270DC7F30A00C3F303
:100290000A510290401A019040286BDAC3F3130010
:1002A00040F4801B0098924620B10023D2EB030A51
:1002B00063EB0B0B01985946C0F14002504600F029
:1002C000D3F906460D4650465946019A00F0EBF91F
:1002D00010EB08006141002487EA115284EAE773B9
:1002E0001A4340D0009A62B3019A012A4FEA07529A
:1002F00015DC001B61EB02014FF0004202EA0752DD
:10030000CDE90042001C41F5801132462B4600F039
:1003100022FA03B0BDE8F08F40462146F9E7001B02
:1003200061EB0201001C41F5801300185B412018AD
:10033000A2F5001747EB030140EAD570B6196D41ED
:1003400011E06D084FEA360645EAC0754FEA0752DC
:10035000001B61EB0201001C41F5801149084FEAC6
:1003600030000019514132462B4603B0BDE8F04F32
:1003700000F0E2B90098012240000023D0EB020215
:1003800063EBE073009821464FEAE074B8EB00009D
:1003900061EB0401E9E783F000435BE781F0004192
:1003A00058E72DE9FE4F81EA030404F0004421F0F0
:1003B000004100944FF0000B23F0004350EA010489
:1003C0005ED052EA03045BD0C3F30A54C1F30A556A
:1003D0002C44A4F2F3340194A0FB0254C1F31301A2
:1003E00041F48011C3F3130343F4801301FB02446F
:1003F00000FB034E840A970A44EA815447EA835774
:10040000A4FB076802958D0A05FB07854FEA932C2C
:1004100004FB0C542705029D4FEA065847EA16379D
:10042000B5EB08056EEB070C870E920E47EA8117B5
:1004300042EA8312A7FB0201B6EB0B0164EB000456
:100440002B0D43EA0C335E1844EB1C50DA46514640
:10045000E7FB0201C5F313044FEA0B3343EA1453DD
:100460004FEA0432019C43EA0603A4F10C0402940F
:10047000009CCDE900B400F06EF903B0BDE8F08F48
:1004800000200146F9E72DE9F04D81EA030404F06C
:10049000004B21F0004514464FF0000A23F00041C4
:1004A00050EA050220D054EA01021DD0C5F30A57D4
:1004B0000246C5F31303C1F31300C1F30A5640F417
:1004C000801543F48013A7EB0608101BD64608F2EC
:1004D000FD3873EB050002D308F1010801E0921822
:1004E0005B41B8F1000F03DA00200146BDE8F08D52
:1004F00000204FF48011064684460EE0171B73EB74
:10050000050705D3121B63EB050306434CEA010CF8
:1005100049084FEA300092185B4150EA0107EDD1DB
:1005200052EA030012D082EA040083EA050108437C
:1005300005D0101BAB4106D20122002306E00022A9
:100540004FF0004302E06FF0010253101AEB060077
:100550004CEB085110EB0A0041EB0B01BDE8F04DEC
:1005600000F0EAB80EB5C10F80EAE0700844CA078F
:10057000002140F233438DE80E000A460B4600F09E
:10058000EAF803B000BD0EB540F2334102910021FC
:10059000CDE900110A460B4600F0DDF803B000BDBE
:1005A00070B5C1F30A5201F000450024C1F31301F4
:1005B00040F2FF3341F480119A4201DA002070BD0D
:1005C00040F233439A42A2F2334203DC524200F03B
:1005D0005AF800E090402C43F1D0404270BD00F04A
:1005E000004230F000400AD0C10D01F56071C0F347
:1005F000160042EA0151C20840071143704700202B
:100600000146704701F0004330B421F0004150EA48
:10061000010206D00A0DA2F56072C1F31301002A8F
:1006200002DC30BC00207047440F44EAC104C10022
:10063000E01830BC00EBC25000F047B830B50B46B4
:10064000014600202022012409E021FA02F59D4202
:1006500005D303FA02F5491B04FA02F52844151ED6
:10066000A2F10102F1DC30BD202A04DB203A00FABD
:1006700002F1002070479140C2F1200320FA03F3F9
:10068000194390407047202A04DB203A21FA02F0F7
:100690000021704721FA02F3D040C2F120029140BC
:1006A000084319467047202A06DBCB17203A41FA47
:1006B00002F043EAE07306E041FA02F3D040C2F1EF
:1006C000200291400843194670470029A8BF70478F
:1006D000401C490008BF20F00100704710B4B0FA78
:1006E00080FC00FA0CF050EA010404BF10BC704713
:1006F00049B1CCF1200421FA04F411FA0CF118BF2D
:10070000012121430843A3EB0C01CB1D4FEA0061FB
:100710004FEA102042BF002010BC704700EBC350CE
:1007200010440029A4BF10BC7047401C490008BFFA
:1007300020F0010010BC704710B5141E73F10004C6
:1007400008DA401C41F1000192185B411A4301D1C3
:1007500020F0010010BD2DE9F04D92469B4611B1ED
:10076000B1FA81F202E0B0FA80F220329046FFF74F
:100770007BFF04460F4640EA0A0041EA0B0153465C
:100780005A46084313D0114653EA010019D0C8F164
:1007900040025046FFF777FF05460E465046594641
:1007A0004246FFF761FF084305D0012004E02046E0
:1007B0003946BDE8F08D0020054346EAE0762C433B
:1007C00037430A986305E40AA0EB08000022FD0AFB
:1007D00044EA47540A3002D500200146E9E7010502
:1007E00010196941DDE9084500196941BDE8F04D7E
:1007F000A2E7C1F30A52C1F3130140F2FF3341F4FF
:1008000080119A4202DA00200146704740F23343D9
:100810009A42A2F2334202DC5242FFF734BFFFF7A2
:1008200023BF000030B5041E71F1000404DB4FF05B
:100830000044404264EB0101141E73F1000405DB27
:100840001C464FF00043524263EB0403994208BF39
:10085000904230BD064C074D06E0E06840F00103D1
:1008600094E8070098471034AC42F6D3FFF790FCA9
:1008700040D3000860D300080146806B036C026C13
:1008800013F0500F07D0D20648BF00F017BB806BA3
:10089000C26C0846104742F40071016401688A681E
:1008A00012F0405F19D1027EBAB9CA6A12F4700F11
:1008B00002D08A68520510D44A6822F020024A60A9
:1008C000016C21F480710164016CC90448BF00F01F
:1008D000F3BA016C41F00101016400F0EDBA806BE4
:1008E00040210164416C41F00401416400F0E6BA2A
:1008F000806B00F0E2BA014643F2E050C2F2000021
:1009000001F0BDBB80B543F2E050C2F2000001F03F
:10091000C8FB043818BF012080BD81B001208DF8CC
:1009200003009DF8030001281EBF012001B070479D
:1009300043F2E050C2F2000001B001F0C6BB80B546
:1009400082B09C4613460A46014643F2E050C2F28A
:100950000000CDF800C001F013FD002818BF0120F1
:1009600002B080BD80B582B09C4613460A4601465F
:1009700043F2E050C2F20000CDF800C001F0E8FD03
:10098000002818BF012002B080BD0000FEE7000073
:1009900080B543F2C40043F22451C2F20000C2F217
:1009A0000001012205F0AEFB98B143F2C40043F20E
:1009B0002451C2F20000C2F20001012205F0A2FBA4
:1009C000014606A006F064FD0BA007F015FA00BF73
:1009D000FEE710A0BDE8804007F00EBA5364436103
:1009E0007264204D6F756E74204572726F72203A7A
:1009F0002025640D0A000000506C6561736520724B
:100A000065626F6F742073797374656D2121210D98
:100A100000000000534443617264206F6B210D009D
:100A200043F28050C2F2000000F064BC7047000046
:100A300010B58AB049F22830C0F6000090E81E10C8
:100A400040690DF1100E8EE81E101EA109901D4880
:100A50004A68CDE901020889897AADF80C0049F2AB
:100A60000F308DF80E10C0F60000002105F0B1FD2A
:100A700048B149F20F30C0F60000002105F0A9FD91
:100A8000F0B104AC06E049F20F30C0F6000001AC52
:100A900005F00AFE3220782100224FF478430094BA
:100AA00000F042F84FF4FA6000F0DCFD4FF6FF7002
:100AB00002F01EFC43F22850C2F200003421017003
:100AC0000AB010BD44454C455445204F4B21000011
:100AD00070470022AFF3008080B543F22C5EC2F273
:100AE000000E9EF809300BB1012080BD9EF8093040
:100AF000844600200EF803009EF809300EEB8303B5
:100B0000C3F804C09EF8093073441A729EF8092095
:100B1000531C30328EF809300A7042F63A72A1F84E
:100B20000120C87080BD00002DE9F04F89B0089306
:100B3000129B90461A780491002A009000F0C7801A
:100B400008984FF0800BB8EB000018BF0120009D03
:100B500080F0010950B2B0F1FF3F079506DD0D2A84
:100B600074D10498009D10300490ABE005F10807A3
:100B700000210193039700BF029101EB011049F29C
:100B8000D121C0F6000111F81010914253D149F261
:100B9000D121C0F6000101EB400A01999AF8010049
:100BA0004978884247D10021480005900AEB41006E
:100BB000574690F902A0049800244618069100BFF9
:100BC0002BFA04F000EA0A00B0FA80F1490911EAB0
:100BD000090F09D1002805EB0400089A80B2B1B2D0
:100BE00018BF424600F0DBF80134082CE8D1059824
:100BF000BA4640F00100384490F90240039F0025B6
:100C00002BFA05F02040B0FA80F1490911EA090FEA
:100C100009D1002807EB0500089A80B2B1B218BFCD
:100C2000424600F0BCF80135082DE9D10699079D30
:100C300001311029B8D102990131322902D001982D
:100C4000027899E7019B103502333CE04FF60060D3
:100C5000C0F20F0001464FF0000A0027019300EB9D
:100C6000021001F5F871202A88BF00EA010700BFD1
:100C700048F6D8410AEB0700C0F600010C5C049866
:100C8000002500EB0A0600BF2BFA05F02040B0FA61
:100C900080F1490911EA090F09D1089A002818BF03
:100CA00042460798B1B2284480B200F078F8013586
:100CB000082DE9D10AF1010ABAF1100FD8D1079D28
:100CC000019B083501331A78002A7FF443AF09B03D
:100CD000BDE8F08F2DE9F04F83B01E4617460C4655
:100CE000054602F067FC791B8846A6EB040048BF66
:100CF000C1F10008B1F1FF3F4FF0FF3B4FF0FF396A
:100D0000C8BF4FF0010B0028824601D5C0F1000A90
:100D1000B0F1FF3F4FEA4800C8BF4FF00109029011
:100D2000D0454FEA4A0001901BDD01984FF0FF3695
:100D3000A0EB08070298C0F1000A00BF0C9AA8B205
:100D4000A1B200F02CF8B7F1FF3FC8BF4C440198A6
:100D500006F101060744C8BF574446455D44EDDB34
:100D60001AE002984FF0FF36A0EB0A070198C0F195
:100D7000000800BF0C9AA8B2A1B200F010F8B7F1B9
:100D8000FF3FC8BF5D44029806F101060744C8BF93
:100D9000474456454C44EDDB03B0BDE8F08F10B539
:100DA000144602F007FC200A02F01EFCE0B2BDE887
:100DB000104002F019BC000070B581B00022009212
:100DC00090F83C20012A01D1022172E0D1F800E024
:100DD00001221FFA8EFC80F83C204FEA4C0212FAE6
:100DE0008EF2BEF10A0F036832BF03F110041E3AFF
:100DF00003F10C0407252668954026EA05052560C1
:100E00008D68266805FA02F2324322604968062995
:100E100005D801EB81014A1F03F134040BE00C29D2
:100E200001EB810187BFA1F1410203F12C04A1F183
:100E3000230203F130041F252668954026EA0505A4
:100E400042F204312560C4F2010125680CFA02F275
:100E5000A1F541762A43B342226027D1BEF1120F99
:100E600004D10A6842F480020A601FE02EF00102F9
:100E7000102A1BD10A68BEF1100F42F400020A606A
:100E800014D140F21801C2F2000109684DF68362E4
:100E9000C4F21B32A1FB0212910C01EB810149004B
:100EA0000091009911B100990139F9E7002180F80A
:100EB0003C10084601B070BD70477047704700286D
:100EC00048D010B50446006C30B9204600F09DF8BB
:100ED0000020606484F83C00206CC0063CD4206C88
:100EE00041F202118843023042F204312064C4F21C
:100EF0000101086820F4403008600A6894E809108D
:100F00001A43D4F810E00A604168012321F480718B
:100F100041604168C0F6007341EA0E2141604168BA
:100F200021F040714160416841EA0C0141608168F3
:100F300021F400618160E168826811438160A16AE7
:100F40008268994222F070628260826806D122F043
:100F500040510CE001207047012052E011438160B4
:100F6000816821F040518160E16A826811438160AB
:100F7000816821F0020181608168227E94F820302E
:100F800041EA42018160416883B141F400614160FE
:100F900041684EF2000221F460414160616ACFF67F
:100FA000FF72436802EB4131194301E021F4006113
:100FB0004160C16A40F2000C21F47001C162E26933
:100FC0006169CFF6F07CC36A0CEB02521A43C2622D
:100FD000826822F40072826094F83020836843EAC9
:100FE00042228260826822F480628260826842EAE1
:100FF0008121816000206064216C012262F3010183
:101000002164002184F83C1010BD70B586B0044600
:1010100042F2000501A81421C4F20105FFF708F906
:101020002068A84241D1002643F630000096C4F261
:101030000200416941F480714161416901F48071AC
:10104000009100990096016841F00101016000687B
:1010500001A900F0010000900098012001900320F8
:10106000CDE9020605F5604000F010FB43F2805523
:1010700046F21040C2F20005C4F202004FF4806153
:10108000C5E9000605F110004FF400624FF400536B
:10109000C5E902664EC02846C5E9086600F0E8F9D1
:1010A00008B1FFF715FDA563AC6306B070BD000085
:1010B00070B582B004460020019094F83C000128ED
:1010C00001D1022090E013460A460120216884F8ED
:1010D0003C008868C00717D188684DF6836540F0EA
:1010E0000100886040F21800C2F200000068C4F2FB
:1010F0001B35A0FB0505A80C00EB400001900198F2
:1011000010B101980138F9E78868C0076BD0206CEE
:1011100040F20175A84300F58070206448684005DE
:1011200004D5206C012565F30D302064256C00206A
:10113000ED044FF0000544BF656C25F006056564BD
:1011400084F83C00A06B40F6790540F6F10CC0F63F
:101150000005C0F6000CC0E90F5C40F6DF05C0F6E4
:101160000005C5646FF022050D604D6842F200066F
:1011700045F080654D608D68C4F2010645F48075C8
:101180008D604C3100F019FAD6F804132068C906B6
:101190000AD0B04227D1B06810F0405F23D1B068C8
:1011A00040F08040B0601EE0B04214D042F2002116
:1011B000C4F2010188420AD042F20011C4F20101D6
:1011C000884210D1D6F80413C9060CD103E0D6F832
:1011D0000413C90607D4816811F0405F03D1816808
:1011E00041F080418160002002B070BDB0B504467E
:1011F00090F83C00012804BF0220B0BD0120216806
:1012000084F83C008868002520F001008860886828
:10121000C0074FF0000011D1886820F4807088600A
:10122000A06B00F00FF821684A6822F080624A60E3
:10123000216C41F2011291430131216484F83C5048
:10124000B0BD000070B5866D044600F0F0FA94F869
:101250003510022920D105462068216C026822F051
:1012600016020260426922F08002426109B9A16C53
:1012700019B1016821F008010160016821F0010144
:10128000016000BF0068C0070DD000F0D0FA401B1D
:10129000052814D82068F5E780206065002084F8D0
:1012A0003400012070BDE06D3F2101FA00F0B06014
:1012B0000020012184F8340084F8351070BD20200E
:1012C0006065002084F83400032084F8350070BD88
:1012D00090F83510022909D1052180F835100068F1
:1012E000016821F001010160002070478021416503
:1012F00001207047F0B581B004460020009040F214
:101300001800C2F200000268D4E9166048F2B51372
:1013100037680821C1F64E3381403942A2FB0325CC
:101320000CD0226813685B0708D5136823F0040308
:101330001360B160616D41F001016165012181407F
:10134000394208D022685269120604D5B160616D35
:1013500041F00201616504218140394208D02268D0
:101360001268920704D5B160616D41F004016165B6
:1013700010218140394217D020680268120713D526
:10138000B16002680168520306D4C90506D4016839
:1013900021F00801016001E0080301D4216C00E0A4
:1013A000A16C09B120468847E16D202000FA01F2C6
:1013B0003A423BD020680368DB0637D5B26094F828
:1013C00035300268052B19D122F0160202604269FD
:1013D00022F080024261226C0AB9A26C1AB1026842
:1013E00022F0080202603F208840B060002084F8AC
:1013F0003400012084F83500216D34E00168520387
:101400000CD4C9050ED4016821F010010160002040
:1014100084F83400012084F8350003E0080301D487
:10142000616C00E0E16B09B120468847606DE8B16E
:10143000606DC00716D0052084F835002068A90A21
:10144000026822F001020260009A01328A42009290
:1014500002D80268D207F7D1002084F834000120B6
:1014600084F83500E16C09B12046884701B0F0BD31
:101470002DE9F041044600F0DAF9002C4ED0054683
:10148000002084F83400022084F8350021680868C0
:1014900020F00100086000BF0868C00706D000F017
:1014A000C6F9401B052866D82168F5E7086848F2A8
:1014B0003F02CFF21002D4E90135024004F10C0ED4
:1014C0009EE8C1511A432A4310433043384340EA4F
:1014D0000800626A40EA0C00042A40EA0E0320D1A8
:1014E000D4E90A5E206B4EEA0302104308604869A3
:1014F000BEF1000F20F0030040EA050040F0040CAC
:1015000015D0B8F5005F3AD0B8F1000F46D1022DE2
:1015100047D0012D3CD0002D43D008E00120BDE88C
:10152000F0810B60486920F0070040EA020C6FF080
:101530000F004AF6AB2250FA81F0CAF6AA22A0FBAD
:1015400002231A0949F2C923C1F814C0C0F60003E6
:101550009A5C40F2FF335F284FF03F0021EA03011D
:1015600000FA02F088BF0431C4E916128860002333
:10157000012200201CE003222023032018E0032D79
:10158000D5D8012240230120DFE805F0120B12021A
:10159000AEF1C070B0FA80F0400904E0032D04D32E
:1015A000C5D1CEF300600028C1D001224023012024
:1015B000636584F83520BDE8F08170B590F834C0DB
:1015C000BCF1010F4BD04FF0010CD0F858E080F87F
:1015D00034C090F835C0BCF1010F3DD14FF0020C82
:1015E00080F835C04FF0000CC0F854C0D0F800C0EF
:1015F0008468056CC06DDCF80060402C26F4802601
:10160000CCF80060CCF804300B4604BF13460A4601
:101610003F2101FA00F0CCF80830CCF80C20CEF8CD
:101620000800DCF8000040F01600CCF80000DCF800
:10163000140040F08000CCF814002DB1DCF800005C
:1016400040F00800CCF80000DCF8000040F0010099
:10165000CCF80000002070BD002180F8341002207A
:1016600070BD0000B0B5044600F0E1F8054640F258
:101670009200C2F200000078611C18BF044400BF51
:1016800000F0D5F8401BA042FAD3B0BD2DE9F04FD1
:1016900082B000F13E4241F6004502F1FF77C4F20C
:1016A000020543F6004B4FEAB7260822A842C4F2CF
:1016B000010B08BF0722072E4FF0010E4FF0000666
:1016C0004FF000044FF0000838BF4FEAB7220092F5
:1016D0000F680EFA08F917EA090F00F09780D1F8A1
:1016E00004C04CF01007122F13D16FF0030202EA6E
:1016F0005807074404F01C050F22D7F820C002FA4F
:1017000005F30A692CEA0303AA401A433A62D1F8A6
:1017100004C002680323B3406FEA030A9A430CF043
:101720000303B3401A43BCF1120F026014D80EFA3F
:101730000CF212F0061F0FD08268CB6802EA0A0290
:10174000B3401A4382604268CCF3001322EA0902D4
:1017500003FA08F31A434260C2688B6802EA0A027D
:10176000B3401A435FEACC03C2604FD50022019216
:1017700043F64402C4F202021346126804F00C0756
:1017800042F480421A601A684FF6084302F480421D
:101790000192019A28F003025A44CFF6FF739C4647
:1017A000D3580F25BD40AB43009D05FA07F73B43D7
:1017B00042F80C30DBF800204B6842EA0907DD03F1
:1017C00058BF22EA0907CBF80070DBF804209D031C
:1017D00042EA090758BF22EA0907CBF80470DBF890
:1017E0000820DD0242EA090758BF22EA090743F64A
:1017F0000C42CBF80870C4F20102154612689B0235
:1018000042EA090758BF22EA09072F6008F10108D8
:101810000434B8F1100F06F102067FF459AF02B09C
:10182000BDE8F08F002A08BF09048161704743F2C8
:101830005C70C2F200000068704740F2920043F210
:101840005C71C2F20000C2F2000100780A68104424
:101850000860704780B543F60040C4F2020001689A
:1018600041F400710160016841F480610160016828
:1018700041F480710160032000F085F8002000F041
:1018800004F800F02AF8002080BDB0B540F29202C2
:10189000C2F2000240F218011278C2F200014FF4C5
:1018A0007A730968B3FBF2F20446B1FBF2F1084621
:1018B00001F03AF80F2C4FF001050CD858B94FF051
:1018C000FF3021460022002500F032F840F294005B
:1018D000C2F2000004602846B0BD82B0002043F68A
:1018E00040010190C4F202014A6842F480424A6019
:1018F0004A6802F480420192019A0090086840F020
:1019000080500860086800F080500090009802B095
:10191000704700280BD400F01F01012202FA01F1E8
:101920004EF200124009CEF2000242F82010704739
:1019300010B54EF60C5CCEF2000CDCF80030C3F3B0
:10194000022E8EF00704042C28BF0424BEF10303EA
:101950004FF0FF3E0EFA04F438BF0023A143994034
:101960000EFA03F39A4300F00F03043B1143634460
:1019700009010C3300F16042B0F1FF3FC8BF02F52E
:101980006443197010BD4EF60C51CEF200010A6886
:101990004FF6FF031A4060F30A2242F0806040F0E5
:1019A000FD700860704700002DE9F041002800F04C
:1019B0009C8043F60008C4F202080446D8F80004EC
:1019C0000D4600F00F00884208D288F80054D8F87D
:1019D000000400F00F00A84240F0878020688107D3
:1019E00017D5410705D5D8F8081041F4E051C8F8DB
:1019F0000810010705D5D8F8081041F46041C8F86F
:101A00000810D8F80810A26821F0F0011143C8F8B6
:101A10000810C0072FD06068811E022904D2D8F8B0
:101A2000001089010BD460E0012804D1D8F800101F
:101A3000890304D459E0D8F80010890755D5D8F89F
:101A4000081021F003010843C8F80800FFF7EFFE73
:101A5000064641F2883700BFD8F80800616800F0F8
:101A60000C00B0EB810F06D0FFF7E1FE801BB842FF
:101A7000F2D903243AE0D8F8000400F00F00A8429D
:101A800007D988F80054D8F8000400F00F00A842E5
:101A90002BD12068410707D5D8F80810E26821F457
:101AA000E0511143C8F80810000708D5D8F808001D
:101AB000216920F4604040EAC100C8F8080000F045
:101AC0003EF8D8F8081047F61C62C1F30311C0F6BF
:101AD0000002515C0024C84040F21801C2F200012B
:101AE00008600020FFF7D1FE00E001242046BDE899
:101AF000F08140F2180043F60801C2F20000C4F27F
:101B000002010068096847F62C62C1F38221C0F621
:101B10000002515CC840704740F2180043F60801CB
:101B2000C2F20000C4F202010068096847F62C62A4
:101B3000C1F34231C0F60002515CC840704710B595
:101B400043F60404C4F20204606800F00C0142F29F
:101B500000400829C0F2F40007D0042918BF10BDC6
:101B600041F20020C0F27A0010BD216801F03F026E
:101B7000216823684902C3F3881105D4A1FB000141
:101B80000023FEF71DFB06E041F20020C0F27A00C0
:101B90004843B0FBF2F021680222C1F3014102EB9D
:101BA0004101B0FBF1F010BD2DE9F04182B00028F9
:101BB00000F09F800446007843F60006C007C4F298
:101BC00002062ED0B06800F00C00042823D0B068C4
:101BD00000F00C00082802D1706840021BD4656830
:101BE000B5F5803F07D03068B5F5A02F40F01E81D5
:101BF00040F480203060306840F480303060FFF77F
:101C000016FE0546306880030BD4FFF710FE401B1C
:101C10006428F7D9B4E03068800302D560680028F2
:101C200067D0207880072FD5B06810F00C0F07D050
:101C3000B06800F00C00082809D17068400206D492
:101C40003068800719D5E068012816D051E0E068B7
:101C5000002840F20000C4F2472000F0B4800121C7
:101C60000160FFF7E4FD05463068800705D4FFF703
:101C7000DEFD401B0228F7D982E03068216920F0A0
:101C8000F80040EAC10030602078000725D560697F
:101C900088B10020C4F247200121C0F8801EFFF760
:101CA000C6FD0546706F800717D4FFF7C0FD401BC7
:101CB0000228F7D964E00020C4F247200021C0F8D0
:101CC000801EFFF7B4FD0546706F800705D5FFF74E
:101CD000AEFD401B0228F7D952E0207840070AD415
:101CE000A569002D00F0DB80B06800F00C0008282A
:101CF00048D10120D4E0306C4FF00008C0000CD473
:101D0000CDF80480306C4FF0010840F08050306412
:101D1000306C00F080500190019847F20007C4F247
:101D200000073868C00510D4386840F48070386007
:101D3000FFF77DFD054600BF3868C00505D4FFF7F5
:101D400076FD401B0228F7D91AE0A568012D05D0C1
:101D5000306F052D48D140F004003067306F40F0FF
:101D600001003067FFF763FD054641F2883700BF89
:101D7000306F800751D4FFF75AFD401BB842F7D9A6
:101D800003208DE00027C4F2472700203866FFF7C4
:101D90004EFD022D05460BD1306880015FD5FFF75F
:101DA00046FD401B02284FF00300F5D978E000BF44
:101DB0003068800173D5FFF73AFD401B03284FF0D0
:101DC0000300F5D36CE000210160FFF730FD05460C
:101DD000306880077FF558AFFFF729FD401B0228C8
:101DE0004FF00300F4D95BE020F001003067306F62
:101DF00020F004003067FFF71AFD002D0546B4D12E
:101E000041F28837306F800707D5FFF710FD401B80
:101E1000B8424FF00300F5D942E0B8F1000F3FF4AB
:101E20005FAF306C20F08050306459E720F4803090
:101E30003060306820F480203060FFF7F8FC002D1F
:101E400005467FF4DFAE06E0FFF7F1FC401B642897
:101E50004FF0030024D830688003F5D4E1E604F1A4
:101E60001C052FCD084340EA8210D9034FF6FF72BC
:101E70009143A1F5803140EA05600843706001207C
:101E80003866FFF7D4FC04463068800107D4FFF7BA
:101E9000CEFC001B02284FF00300F5D900E0002023
:101EA00002B0BDE8F08180B5D0E9193ED0F844C059
:101EB0009A0F0A70C3F383624A70C3F301628A7097
:101EC0001A0CCA701A0A0A716FF00F0202EA1E5247
:101ED0004B71CA80CA88CEF303531A43CA80CEF32B
:101EE00003420A72CEF3C0324A72CEF380328A7253
:101EF000CEF34032CA72CEF300320A730022BCF134
:101F0000010F4A7341D0BCF1000F40F0AB804FF499
:101F1000406202EA8E020A6190F868200B6943EA87
:101F200082020A61C26E0B6943EA92730B61C2F3CB
:101F3000C2630B75C2F302624A75C26EC2F34253AA
:101F40008B75C2F38243CB75062303EAD2330B763B
:101F500091F818C0C2F3C03343EA0C030B760B6947
:101F600091F818E003F1010C042303FA0EF303FBCC
:101F70000CFEC0F854E091F808C0012303FA0CF3FA
:101F800083655B0A03FB0EF31AE04FF47C1202EA4E
:101F90000E420A6190F86F200B6943EA02220A613F
:101FA00090F86E200B691A430A61C26ED1F810C016
:101FB0004FF4806303EB8C234FF4007CC0E9153CA5
:101FC000C3654FF400730366C2F380334B767E2300
:101FD00003EAD2138B7691F81AC0C2F3C01343EA16
:101FE0000C0302F07F028B76CA76006FC20F0A776D
:101FF000C0F341724A77C0F382628A770C2202EA08
:102000009052CA77CA7FC0F381531A43CA77C0F38C
:10201000405281F82020002281F82120C0F30043A3
:1020200081F82230C0F3C03381F82330C0F380330D
:1020300081F82430C0F3403381F82530C0F30033F9
:1020400081F82630C0F3812381F82730C0F30123C3
:10205000C0B2400881F8283081F82900012081F8B9
:102060002A000AE0016840F2FF528A63816B012274
:1020700041F08051816380F83420104680BD80B5E6
:1020800000F1440E9EE80C5081E80C10426DC1E94D
:1020900003E2D0E91623C1E90523026E0020CA61DC
:1020A00080BD10B5016D04460068090401F064FEAE
:1020B00020B1A16B0843A063002010BD206800215F
:1020C00001F056FDC0F3432010BDB0B110B5044679
:1020D00090F8340020B900202077204600F0FCF86A
:1020E000032084F83400204600F00AF80020012183
:1020F000A063206384F8341010BD012070470000F5
:10210000F0B58FB0044600687621002602910021C8
:10211000002200230096019601F034FD48F2A0074A
:10212000C4F225273E60206801F042FD012502200F
:102130003D60FFF797FA0496206801F08FFD38B1F3
:1021400084F83450A16B0843A06328460FB0F0BD5B
:10215000206801F0A9FDE0B100204FF6FF76A064F1
:102160000498411CB042049160D02068002101F025
:102170002DFD002857D12068002101F033FD0028F3
:1021800051D12068002101F0F3FCB0F1FF3FE7DC02
:1021900020E001204FF6FF76A06400BF0498411CA8
:1021A000B042049142D02068002101F00FFD0028C8
:1021B000C6D120684FF0804101F014FD0028BFD146
:1021C0002068002101F0D4FCB0F1FF3FE6DC4000C4
:1021D00000F180800020606420680125ADF80E5079
:1021E00001F0C2FC28B3606C032825D120680421CB
:1021F00001F0BEFC000DE06404A92046FFF753FE89
:10220000216D20680A04002301F097FD002897D172
:1022100094E88F00D4E90565CDE90076029501F0D8
:10222000B1FC002591E74FF0805089E74FF08070B6
:1022300086E74FF0806083E7206801F08AFD002880
:102240007FF47EAF2068002101F092FC2168606776
:102250000846042101F08CFC2168A067084608218B
:1022600001F086FC2168E06708460C2101F080FC43
:10227000616CC4F880000329B8D020680DF10E010C
:1022800001F086FD00287FF45BAF606C0328ADD0C1
:10229000BDF80E1021652068090401F064FD0028D6
:1022A0007FF44EAF2068002101F062FC2168606677
:1022B0000846042101F05CFC2168A066084608215C
:1022C00001F056FC2168E06608460C2101F050FC44
:1022D00020678BE701207EE72DE9F04387B00446B5
:1022E00042F6004502A81421C4F20105FDF7A0FF43
:1022F0002068A84240D1002643F630000196C4F27F
:102300000200416902AC41F40061416141694FF052
:10231000020801F4006101910199019601684FF0F2
:10232000030941F00401016001680C2701F0040178
:10233000019101990196016841F00801016000686E
:10234000214600F00800019001984FF48850029057
:1023500005F55C40CDE90386CDF814900697FFF7AC
:1023600095F90420CDE9020805F560402146CDE944
:1023700004690697FFF78AF907B0BDE8F08300000B
:102380002DE9F04786B01F4616460D460446FFF776
:102390004EFA75B1804694F8340001280DD1002121
:1023A000A163E06DBA1982420FD9A06B40F00070B2
:1023B00006E0A06B40F0006002E0A06B40F000502F
:1023C000A063012006B0BDE8F087032084F8340044
:1023D0002068626CC1624FF40071012A18BF760256
:1023E00001F02FFC20BB4FF0FF30009078020190ED
:1023F000902002904FF002090020CDF80C9004903C
:1024000020684FF0010A6946CDF814A001F099FB4D
:10241000022F06D3C4F830902068314601F075FCD5
:1024200005E0C4F830A02068314601F07AFC50B1D4
:10243000216840F2FF528A63A16B0843A063012028
:1024400084F83400BEE7DDF8389040F22A3A00BF45
:102450002068426B416B12EA0A0F24D109040CD5A3
:1024600001F0ABFB01262860206801F0A6FB45F8CF
:1024700026000136082EF7D12035B9F1000F05D01E
:10248000FFF7D5F9A0EB08004845E1D3206840F2FA
:10249000FF518163A06B40F00040A063012084F8ED
:1024A000340003208EE7022F10D311F480710DD079
:1024B000616C03290AD001F0BDFC0146206829B1F6
:1024C00040F2FF528263A06B0843B7E7416B0907F4
:1024D00021D4416B890725D4416B890629D4416BEE
:1024E000890210D501F069FBB9F1000F286027D0EF
:1024F000FFF79DF9A0EB0800484521D2206804357C
:10250000416B8902EED440F2FF518163012084F8CF
:102510003400002056E740F2FF518163A06B40F089
:1025200008008BE740F2FF518163A06B40F002008E
:1025300084E740F2FF518163A06B40F020007DE70B
:10254000206840F2FF518163A06B40F0004075E7C6
:102550002DE9F04786B01D4617460E460446FFF7A4
:1025600066F976B1804694F8340001280DD1002137
:10257000A163E06DEA1982420FD9A06B40F00070B0
:1025800006E0A06B40F0006002E0A06B40F000505D
:10259000A063012006B0BDE8F087032084F8340072
:1025A0002068626CC1624FF40071012A18BF7F027B
:1025B00001F047FB78B9022D06D320202063206864
:1025C000394601F046FC05E01020206320683946BA
:1025D00001F04BFC50B1216840F2FF528A63A16BBD
:1025E0000843A063012084F83400D3E74FF0FF30A4
:1025F000009068020190902002900020CDE9030035
:1026000001212068DDF838A00591694601F099FAAA
:1026100040F21A392068426B416B12EA090F21D14E
:1026200049040BD5314601F0CBFA04272068F11993
:1026300001F0C6FA0437202FF8D12036BAF1000F86
:1026400005D0FFF7F4F8A0EB08005045E2D320686E
:1026500040F2FF518163A06BA063012084F8340035
:10266000032097E7022D10D311F480710DD0616C17
:1026700003290AD001F0DEFB0146206829B140F2AF
:10268000FF528263A06B0843ABE7416B09070DD48F
:10269000416B890711D4416B40F2FF52C906826336
:1026A00012D4012084F83400002073E740F2FF5177
:1026B0008163A06B40F0080093E740F2FF51816313
:1026C000A06B40F002008CE7A06B40F0100088E7A0
:1026D00070B5C8B300268662054690F851004FF0E9
:1026E000000C30B9284685F8506000F030F8D5F875
:1026F00028C0022185F8511095E80E40086820F0A6
:102700004000086043EA02002A6940EA0E001043D4
:10271000D5E90523104303F400721043D5E90724DB
:102720001043204340EA0C00086004206A6A00EA73
:10273000134010434860C86920F40060C86101205C
:102740006E6585F8510000E00126304670BDB0B5D9
:1027500086B0044643F2000501A81421C4F2010525
:10276000FDF766FD2068A84226D1002043F630011F
:102770000090C4F202014A6942F480524A614A69F7
:1027800002F480520092009A00900A6842F001021E
:102790000A60096801F0010100910099E0210191AE
:1027A0000221CDE90210032004900520059005F5D3
:1027B000504001A9FEF76AFF06B0B0BD2DE9F04315
:1027C00081B0044690F85000012801D10220A8E011
:1027D0004FF001091D4616460F4684F85090FFF74A
:1027E00026F894F85110012958D18046002F4FF057
:1027F000010000F09180002E00F08E800320002167
:1028000084F8510061652763A686E686A163A187E7
:10281000E187A0682164B0F5004F2068616403D1AE
:10282000016841F4804101600168490603D40168F0
:1028300041F0400101606168731EE268B1FA81F104
:10284000B3FA83F349095B09B2F5006F41EA03016A
:1028500026D131B137F8021BC1602763E18E0139FF
:10286000E186E18E00293FD06E1C00BF8168890798
:1028700008D4FEF7DCFF6EB1A0EB0800A84209D334
:1028800049E000BF216B31F8022BC2602163E08E6A
:102890000138E086E08E38B32068E7E702203BE0AD
:1028A00039B139780173206B01302063E08E013833
:1028B000E086E08EC0B16E1C20688168890707D46D
:1028C000FEF7B5FF6EB1A0EB0800A84209D322E0E5
:1028D000216B09780173206B01302063E08E013891
:1028E000E086E08E0028E7D120462946424601F0E6
:1028F000FFFB08B120206065A06838B90020009077
:102900002068C1680091806800900098606D002880
:1029100018BF012000E00320002184F8519084F8C2
:10292000501001B0BDE8F083411E0020B0EB116FE4
:102930001CBF012070474EF21002CEF2000251601F
:102940004EF62351CEF20001F0230B700721906068
:102950001160704710B590F83C20012A4FF0020238
:1029600016D080F83D2002685368D2F808C023F0E2
:10297000700ED1E900342CF0800143EA0E032143AC
:10298000536091600121002280F83D1080F83C20C6
:10299000104610BDB0B110B5044690F83D0028B9FE
:1029A000002084F83C00204600F00EF8022084F855
:1029B0003D002068211D01F0BDFD012084F83D008F
:1029C000002010BD0120704781B0006840F2004136
:1029D000C4F2000188420ED10020009043F640006E
:1029E000C4F20200016841F002010160006800F0D9
:1029F00002000090009801B070470146022081F863
:102A00003D000868826802F00702062A03D00268C7
:102A100042F0010202600122002081F83D2070474F
:102A200080B590F83C20012A4FF0020200F0C080EF
:102A3000012380F83C3080F83D20D0F800C04FF6EC
:102A40007772DCF8083023EA0202CCF808200B6821
:102A50003F2B1CDD5F2B20DD602B4FD0B3F5005FDB
:102A60006CD0702B40F09E80D1E901E3C968DCF89E
:102A7000082043EA0E0322F47F4243EA0121114376
:102A8000CCF80810DCF8081041F0770188E01F2B23
:102A900028DC5BB3102B29D084E0402B61D0502B75
:102AA00040F08080D1F804E0C968DCF82030DCF820
:102AB000202022F00102CCF82020DCF8182022F09F
:102AC000F00242EA011123F00A0242EA0E02CCF8B7
:102AD0001810CCF82020DCF8081041F0570121F044
:102AE00020015DE0202B01D0302B5BD1DCF80810F9
:102AF00021F07001194341F0070151E0D1F804E0E1
:102B0000C968DCF8203023F01003CCF82030DCF862
:102B10001830DCF8202023F4704322F0A00243EAAE
:102B2000013142EA0E12CCF81810CCF82020DCF863
:102B3000081041F0670121F0100131E0D1E901E313
:102B4000C968DCF8082043EA0E0322F47F4243EA16
:102B500001211143CCF80810DCF8081041F4804141
:102B60001EE0D1F804E0C968DCF82030DCF8202051
:102B700022F00102CCF82020DCF8182022F0F0022C
:102B800042EA011123F00A0242EA0E02CCF81810C0
:102B9000CCF82020DCF8081041F0470121F030018A
:102BA000CCF808100121002280F83D1080F83C206C
:102BB000104680BD7047B0B5054600680168C26820
:102BC000436901F02F04202C07D112F0200404D017
:102BD0002846BDE8B04001F041BD5FEA017C1EBF60
:102BE00003F0010302F4907414EB030424D11140A8
:102BF0000A060DD4490679D5C16821F04001C160AB
:102C00002021284685F83910BDE8B04000F086B98B
:102C100095F83910212969D1AA68296AB2F5805F2F
:102C20005BD10A886FF35F2242602A69002A14BFD1
:102C300001310231296254E0CC0718BF12F48074CC
:102C400003D0EC6B44F00104EC634C0704D51BB1DA
:102C5000EC6B44F00204EC638C0704D51BB1EC6B05
:102C600044F00404EC63BCF1000F04D51BB1EB6B22
:102C700043F00803EB63EB6BC3B31140890603D544
:102C8000284601F0EBFC28684169EA6B01F040013D
:102C900002F00802891838D0C16821F49071C1602F
:102CA000416921F001014161202185F83A10416913
:102CB00049061CD5416921F040014161686BB0B102
:102CC00044F25161C0F600010165FEF701FB68B1F5
:102CD000686B016DBDE8B04008474A1C2A6209785C
:102CE0004160E98C01390A04E98405D0B0BD284669
:102CF000BDE8B040FFF75EBFC16821F08001C16050
:102D0000C16841F04001C160B0BD2846FFF752FFE5
:102D10000020E863B0BD50B310B5044690F8390008
:102D200028B9002084F83800204600F022F824203A
:102D300084F839002068C16821F40051C160204640
:102D400001F0C7FC2068016921F4904101614169EB
:102D500021F02A014161C16841F40051C1600020A5
:102D60002021E06384F8391084F83A1010BD012066
:102D70007047B0B586B0044641F2000501A81421A1
:102D8000C4F20105FDF754FA2068A84230D10020B2
:102D900043F630010090C4F202014A6942F0100289
:102DA0004A614A6902F010020092009A0090086895
:102DB00040F001000860086801A900F001000090DF
:102DC00000984FF4C060019002200290012003900F
:102DD000032004900720059005F57040FEF756FC8F
:102DE000252003210022FEF7A3FD2520FEF791FDFB
:102DF00006B0B0BD034690F83A00202807D14FF046
:102E00000100E9B1E2B193F83800012801D10220B4
:102E100070479962002022219A85DA85D86383F869
:102E20003A10196883F83800CA6842F48072CA60A0
:102E30004A6942F001024A61CA6842F02002CA604F
:102E40007047006841F20001C4F20101884218BFD6
:102E5000704743F2FC6043F22851C2F20000C2F214
:102E600000010122FFF7C6BF2DE9F041044690F8AA
:102E7000390020280BD10E4600294FF001004BD01D
:102E80001746002A48D094F83800012802D10220C1
:102E9000BDE8F081012084F838000020E0632120A3
:102EA0001D4684F83900FEF7C2FCA784E784E18C54
:102EB000804609B3E08C80210138E084A768204671
:102EC00042462B4601F02AFDB7F5805F0CD1D0B900
:102ED0003088216922686FF35F200029506014BF99
:102EE0000136023605E000BF68B916F8010B21680B
:102EF0004860E08C0028DDD12046402142462B4628
:102F000001F00CFD10B10320BDE8F081202084F811
:102F10003900002084F83800BDE8F08170470000D7
:102F2000FEE7000010B582B043F22850C2F2000064
:102F30000078313803286CD8DFE800F0023D4247C2
:102F40004FF6FF7000F0D4F90024012041214FF426
:102F5000A07241230094FDF7BDFE012078214FF4BB
:102F6000A07278230094FDF7B5FE0120AF214FF445
:102F7000A072AF230094FDF7ADFE5520012155222C
:102F8000F0230094FDF7A6FEA0200121A022F0234B
:102F90000094FDF79FFEEB200121EB22F02300942B
:102FA000FDF798FE00F0DCFC00F0C2F802B0BDE8CE
:102FB000104000F031B802B0BDE8104001F0B4B9E3
:102FC00002B0BDE81040FDF733BD40F23C04C2F250
:102FD00000041E200F2100224FF6FF730094FDF71E
:102FE000A3FD40F25804C2F200041E202821002252
:102FF0004FF6FF730094FDF797FD40F27C04C2F298
:1030000000041E20412100224FF6FF730094FDF7BB
:103010008BFD02B010BD00002DE9F04F81B02DED09
:10302000068B82B041F29804C2F20004204601F0FF
:10303000D3FC40F2080B40F20C069FED2A9A9FED5C
:103040002AAA043401254FF01408C2F2000BC2F280
:103050000006B6EE008A4FF000094FF0C80A00BF24
:10306000A808FE2826D8A80730D194ED000ABBF89E
:10307000000020EE080A3188BDEEC00A10EE102ACA
:1030800008EB9507C2F1C803BAB29BB2CDF8009025
:10309000FDF720FE94ED000ACBF8007080EE090ADF
:1030A0000A2030EE0A0ABDEEC00A86ED000AFEF7DD
:1030B000D9FA0BE04FF47A70FEF7D4FA4FF6FF70AE
:1030C000CBF80080C6F800A000F012F90135B5F584
:1030D000806F04F10404C3D102B0BDEC068B01B0D3
:1030E000BDE8F08F00000CC200004843F0B593B07B
:1030F000064610EE100A14460D46FDF770FA03AFAF
:1031000041EC100B08A1384622468DED000B04F06F
:10311000CFF9304629464FF478424FF6FF730097B7
:10312000FDF702FD13B0F0BD25733A2566000000DF
:103130002DE9F04F8BB040F29800C2F200004FF43E
:10314000006101F035FC9FED540B4AF6AB2451ECC5
:10315000100B9FED530BCDE9021051EC100B9FEDBE
:10316000520B01910A9051EC100B9FED510B45F25F
:10317000555843F2C00740F21005DDF80CB0DDF8F9
:1031800004A0CAF6AA24C1F25558C2F20007CDE93C
:103190000810C2F2000551EC100B4FF04609002652
:1031A000CDE90610F008FE2864D8B0B200FB04F1A7
:1031B0004FEAB101414565D8A0FB0401388840F2CF
:1031C000980405902888C2F20004049034F8160090
:1031D000B8464FEA9109FDF7D6F9029D5A462B46AB
:1031E000FDF7DFF80A9A5346FDF74DF9DDE908329D
:1031F000FDF7D7F8DDE90632FDF72CF8FDF7D0F939
:1032000083B2DDE904104AF6AB244A464FF478470E
:10321000CAF6AA240097FDF75DFD40F29800C2F2BD
:10322000000030F81600C8F800904FF046094746F5
:10323000FDF7A9F92B4645F255555A46C1F25555A9
:10324000A846FDF7AEF80A9A40F210055346C2F2BE
:103250000005FDF718F9DDE90832FDF7A2F8DDE910
:103260000632FCF7F7FFFDF79BF928600A20FEF70E
:10327000F9F907E0002038604FF6FF70C5F80090BC
:1032800000F036F80136B6F5006F8BD10BB0BDE813
:10329000F08F00BF00BF00BF6666666666660A40C4
:1032A0000000000000FEAF4000000000000054409D
:1032B000000000000080514080B582B0FF208DF8F2
:1032C000070040F60000C4F2020010210122FEF7C0
:1032D000A9FA3220FEF7C6F943F26460C2F2000098
:1032E0000DF1070101220323FFF768FA02B080BD48
:1032F000F0B581B005460020002140F23F12EF23D7
:10330000002600F02DF92C0AEDB200BFF02700BF17
:10331000204600F069F9284600F066F9013FF7D130
:103320000136B6F5A07FF1D101B0F0BD80B5FFF751
:10333000C3FF00F0FEF8CB2000F07AF9392000F04E
:1033400053F92C2000F050F9002000F04DF9342002
:1033500000F04AF9022000F047F9CF2000F068F9A8
:10336000002000F041F9C12000F03EF9302000F0CB
:103370003BF9E82000F05CF9852000F035F90020E9
:1033800000F032F9782000F02FF9EA2000F050F92F
:10339000002000F029F9002000F026F9ED2000F0CF
:1033A00047F9642000F020F9032000F01DF91220F5
:1033B00000F01AF9812000F017F9F72000F038F931
:1033C000202000F011F9C02000F032F9232000F095
:1033D0000BF9C12000F02CF9102000F005F9C520F0
:1033E00000F026F93E2000F0FFF8282000F0FCF85D
:1033F000C72000F01DF9862000F0F6F8362000F016
:1034000017F9E82000F0F0F83A2000F011F9552003
:1034100000F0EAF8B12000F00BF9002000F0E4F829
:10342000182000F0E1F8B62000F002F9082000F0C2
:10343000DBF8822000F0D8F8272000F0D5F8F22041
:1034400000F0F6F8002000F0CFF8262000F0F0F8A9
:10345000012000F0C9F8E02000F0EAF80F2000F0A9
:10346000C3F8312000F0C0F82B2000F0BDF80C208C
:1034700000F0BAF80E2000F0B7F8082000F0B4F819
:103480004E2000F0B1F8F12000F0AEF8372000F047
:10349000ABF8072000F0A8F8102000F0A5F80320F2
:1034A00000F0A2F80E2000F09FF8092000F09CF830
:1034B000002000F099F8E12000F0BAF8002000F0B8
:1034C00093F80E2000F090F8142000F08DF80320FF
:1034D00000F08AF8112000F087F8072000F084F847
:1034E000312000F081F8C12000F07EF8482000F083
:1034F0007BF8082000F078F80F2000F075F80C2019
:1035000000F072F8312000F06FF8362000F06CF80F
:103510000F2000F069F8112000F08AF87820FEF7FB
:10352000A1F8292000F084F82C20BDE8804000F0AC
:103530007FB810B540F60004C4F202042046102102
:103540000022FEF76FF96420FEF78CF82046102168
:103550000122FEF767F93220BDE81040FEF782B87D
:10356000F0B581B007462A201C4616460D4600F0ED
:103570005FF8380A00F038F8F8B200F035F8300A91
:1035800000F032F8F0B200F02FF82B2000F050F8E5
:10359000280A00F029F8E8B200F026F8200A00F026
:1035A00023F8E0B200F020F82C2001B0BDE8F04094
:1035B00000F03EB8B0B505462A200C4600F038F8B9
:1035C000280A00F011F8E8B200F00EF82B2000F005
:1035D0002FF8200A00F008F8E0B200F005F82C20DF
:1035E000BDE8B04000F024B8B0B540F60004C4F225
:1035F00002040546204620210022FEF713F9A4F517
:10360000006010210122FEF70DF943F26460C2F25E
:103610000000006881688907FCD5C560816889075A
:10362000FCD5204620210122BDE8B040FEF7FAB8C3
:10363000B0B540F60004C4F202040546204620213D
:103640000022FEF7EFF8A4F5006010210022FEF73B
:10365000E9F843F26460C2F20000006881688907FB
:10366000FCD5C56081688907FCD520462021012250
:10367000BDE8B040FEF7D6B8B0B584B043F23850DC
:103680000024C2F2000042F200014FF080534FF0DC
:103690000065C4F20101047680F82040C0E90A53B5
:1036A0000125CDE90244CDE900444FF48032C561E3
:1036B00080F8304080E81600C0E903444461FDF71B
:1036C000FEFB08B1FDF704FA43F23850C2F20000E5
:1036D0006946CDE900450294FDF76EFB08B1FDF7A0
:1036E000F7F904B0B0BD80B582B00020019043F678
:1036F0003000C4F202000168002241F48001016040
:103700000068002100F48000019001983820FEF745
:103710000FF9382002B0BDE88040FEF7FAB880B556
:1037200047F6B46043F22451C0F60000C2F2000133
:10373000FDF7CFF943F24071C2F20001087080BD7D
:103740002DE9F04F87B0002743F630000697019728
:10375000C4F202000168002641F004010160016822
:10376000C4F2020601F00401019101990197016878
:10377000002241F08001016001684FF0100801F063
:103780008001019101990197016841F001010160F7
:10379000016801F00101019101990197016841F06F
:1037A00002010160016801F0020101910199019794
:1037B000016841F0080101600068102100F0080074
:1037C000019001983046FEF72DF806F50065284671
:1037D000302100224FF03009FEF724F806F580640E
:1037E00020464FF4004100224FF4004AFEF71AF839
:1037F000CDF808800DF108084FF0010B3046414626
:10380000CDE903B70597FDF741FF0326284641465A
:10381000CDE9029B04970596FDF738FF2046414607
:10382000CDE902ABCDE90476FDF730FF07B0BDE886
:10383000F08F80B543F2E05042F60041C2F2000042
:10384000C4F2010140F8041B1821FCF7F1FC80BD13
:1038500010B543F2646043F20001C2F20000C4F20A
:1038600001014FF48272002380E80E0000F10C0188
:103870004FF0020C4FF0010E4FF4007481E8085035
:103880000A21C0E90643C0E90833C0E90A31FEF75E
:103890001FFF18B1BDE81040FDF71AB910BD80B583
:1038A00086B043F2BC6040F200420021C2F2000048
:1038B000C4F200024FF4A0434FF0010CCDE9041113
:1038C000CDE90211CDE90011C0E90023C0E9021CD5
:1038D00001618161FFF75EF808B1FDF7F9F84FF477
:1038E0008050029043F2BC60C2F2000002A9FFF7D0
:1038F00097F808B1FDF7ECF8202000900020019027
:1039000043F2BC60C2F200006946FFF723F808B139
:10391000FDF7DEF806B080BD80B543F2FC6041F2F1
:103920000001C2F20000C4F2010141F600020023CE
:103930004FF00C0CC0F2150280E80E00C0E9033312
:10394000C0E905C3C361FFF7E6F918B1BDE88040DF
:10395000FDF7BEB880BD0000FEE770470000000024
:103960002DE9F04FADF5005D81B001AC204601F0CE
:1039700033F843F24471C2F200010868043443F2A0
:1039800050780122C2F20008234600BF93ED000ADE
:1039900001EE100AB8EEC11AB4EEC10AF1EE10FA47
:1039A00009DBBDEEC01A11EE100ABDEEC00A81EDB2
:1039B000000AC8F800200132B2F5806F03F1040359
:1039C000E4D143F2487BD8F80010C2F2000BDBF8D8
:1039D000006043F2547AA1F10A0201F10A030127BF
:1039E000C2F2000A214600BF91ED000A01EE106A02
:1039F000B8EEC11AB4EEC10AF1EE10FA0DDBBA420C
:103A000001DABB4209DCBDEEC01A11EE106ABDEE50
:103A1000C00A8BED000ACAF800700137B7F5806F55
:103A200001F10401E0D143F24C79DAF80070C2F2FE
:103A30000009D9F8005043F2587CA7F10A0107F1B8
:103A40000A060127C2F2000C94ED000A01EE105A9A
:103A5000B8EEC11AB4EEC10AF1EE10FA12DBBA42A6
:103A600001DABB420EDCB94201DABE420ADCBDEE2D
:103A7000C01A11EE105ABDEEC00A89ED000ACCF84A
:103A8000007000BF0137B7F5806F04F10404DBD18B
:103A90006646FCF767FD9FED280B53EC102BFCF7F7
:103AA00080FCFCF7AFFD49F20834C0F6000400EEDC
:103AB000100A002000212246FFF718FB98ED000AAB
:103AC00049F20435C0F60005B8EEC00A8C2000218A
:103AD0002A46FFF70BFBDBF800001421400000EE44
:103AE000100AB8EEC00A00202246FFF7FFFA9AED4E
:103AF000000A8C20B8EEC00A14212A46FFF7F6FA15
:103B0000D9F800002821400000EE100AB8EEC00AE3
:103B100000202246FFF7EAFA96ED000A8C20B8EE64
:103B2000C00A28212A46FFF7E1FA00F05BFB0DF5F9
:103B3000005D01B0BDE8F08F9A999999999901407B
:103B4000704780B5024691E8095050629362086957
:103B50004EEA0C0318434969D36A084323F0F7017E
:103B600001430020D16280BD006800F0030070476F
:103B700081B0084400221430009200900098006840
:103B800001B0704710B58446DDE902401143194386
:103B90002143DDF810E00843DCF8041047F6FF622B
:103BA00040EA0E00914301430020CCF8041010BD00
:103BB0000146032200200A607047D0F88000704759
:103BC000096802460020C2F8801070478160C3680F
:103BD00040F2774161F30B03372141F28832C36031
:103BE00000F050B941F0004141F480118160C1689A
:103BF00040F2694262F30B01C16040F21801C2F267
:103C00000001096844F6D352C1F26202A1FB02121C
:103C1000510A41F288325143C94300BF01310CD2ED
:103C2000426B12F0450FF9D0416B042211F00401F0
:103C300008BF40F2FF52826301E04FF000410846A6
:103C400070478160C3684FF48A6161F30B031021F0
:103C500041F28832C36000F015B900000021816094
:103C6000C1684FF4806262F30B01C16040F2180139
:103C7000C2F20001096844F6D352C1F26202A1FB0C
:103C80000212510A41F288325143C943013124BF23
:103C90004FF000407047426B1206F7D540F2FF51DB
:103CA00081630020704700004FF4D5718160C168C6
:103CB0004FF4896262F30B01C16040F21801C2F255
:103CC0000001096844F6D352C1F26202A1FB02125C
:103CD000510A41F288325143C94300BF013124BF28
:103CE0004FF000407047426B12F0450FF6D0416B29
:103CF000490706D4416B490644BF40218163002037
:103D0000704740218163042070478160C36840F29E
:103D1000524161F30B03122141F28832C36000F07B
:103D2000B1B88160C36840F2514161F30B031121C6
:103D300041F28832C36000F0A5B88260C36840F2E7
:103D4000474161F30B03072141F28832C36000F061
:103D500099B800218160C16840F2C24262F30B0150
:103D6000C16000F027B98160C16840F2C94262F3C6
:103D70000B01C16000F01EB98160C36840F24D4183
:103D800061F30B030D2141F28832C36000F07AB871
:103D900081B000228260C26840F2434363F30B02A9
:103DA000C26040F21802C2F20002126844F6D35315
:103DB000C1F26203A2FB03235A0A41F288335A4339
:103DC000D24300BF013222D2436B13F0450FF9D02A
:103DD000426B52071ED4426BD2071DD10269D2B288
:103DE000032A1ED140F2FF52826300221430009257
:103DF00000900098006810F4604F14D0410416D46D
:103E00004FF48051000458BF4FF4803106E04FF06A
:103E1000004103E0042100E001218163084601B074
:103E200070470121FAE7000C08800021F6E74FF403
:103E30000051F3E700218160C36840F24C414EF22B
:103E4000001261F30B03C0F2F5520C21C36000F0C5
:103E500019B88160C36840F2594161F30B0319211D
:103E600041F28832C36000F00DB88160C3684FF43E
:103E70008B6161F30B03182141F28832C36000F0BB
:103E800001B8000081B040F21803C2F20003D3F879
:103E900000C044F6D353C1F26203ACFB033C0346BB
:103EA0004FEA5C2050430130013846D05A6B12F083
:103EB000450FF9D0586B400742D4586BC00741D129
:103EC0001869C0B2884241D140F2FF509863002087
:103ED00003F114010090009100994EF20802096864
:103EE000CFF6FF5211422FD0002931D4480032D4EE
:103EF000880032D4C80032D4080133D4480134D405
:103F0000C80135D4080236D4480237D4880238D4E0
:103F1000C80239D448033AD488033BD4C8033CD4FC
:103F200008043DD448043ED488043FD408074FF425
:103F3000000058BF4FF4803006E04FF0004003E02F
:103F4000042000E00120986301B070470120FBE7E6
:103F50004FF00070F8E74020F6E78020F4E74FF4D8
:103F60008070F1E74FF40070EEE74FF48060EBE70C
:103F70004FF40060E8E74FF48050E5E74FF400505D
:103F8000E2E74FF48040DFE74FF40040DCE74FF416
:103F90000030D9E74FF48020D6E74FF40020D3E774
:103FA0004FF48010D0E74FF40010CDE74FF48000BD
:103FB000CAE7000040F21801C2F20001096844F6A5
:103FC000D352C1F26202A1FB0212510A41F28832BD
:103FD0005143C94301310ED2426B12F0450FF9D063
:103FE000416B49070AD4416BC90709D140F2FF511F
:103FF0008163002106E04FF0004103E0042100E06E
:104000000121816308467047B0B540F21404C2F242
:10401000000401252570FCF780FC48B92570FCF7E9
:1040200071FC18B9207800F0FE0020702078207014
:104030002078B0BD10B588B040F21400C2F2000084
:104040000078C0070CD1084603290BD81446DFE8D6
:1040500000F018020B116846FCF74DFC06980EE0C4
:1040600003200EE004200CE06846FCF744FC0798AF
:10407000208005E06846FCF73EFC0798400A206077
:10408000002008B010BD000080B5084611461A4651
:104090004FF0FF33FCF753FC10B1012080BD00BF8F
:1040A000FCF730FC0028FBD1002080BD10B540F2A9
:1040B0001404C2F2000401202070FCF723FC18B99C
:1040C000207800F0FE002070207810BD80B50846F2
:1040D00011461A464FF0FF33FCF744FC10B10120A3
:1040E00080BD00BFFCF70EFC0028FBD1002080BD86
:1040F00010B582B040F21803C2F200031B6849F603
:104100008174C1F25E64A3FB043C04464FEA5C5038
:104110004FF47A73584301906068B0F5827F0DD1F7
:1041200013460A462046802100F014F878B1606DED
:1041300040F02000606503200AE000BF019830B124
:10414000019801380190206880680006F6D40020AC
:1041500002B010BD2DE9F041804600681D4683681D
:104160000E461940B1420DD11746541C34B1FDF72B
:104170005EFB411BD8F80000B94206D2816831408D
:10418000B142F3D00020BDE8F081416821F0E001A8
:104190004160D8F80410B1F5827F0BD1D8F808102F
:1041A000B1F5004F02D0B1F5806F03D1016821F065
:1041B00040010160D8F82810B1F5005F07D101680F
:1041C00021F400510160016841F4005101600120B7
:1041D00088F85100002088F850000320BDE8F081E5
:1041E00070470000B0B584B043F25070C2F20000D6
:1041F000006800218DF8081001910091FCF7B2F9D8
:10420000FCF700FA6C4600EE100A0320214602F08B
:10421000DBFC34A0214603F03BF949F20F30C0F635
:104220000000002102F0D5F9A8B32FA003F0E4FDAF
:1042300043F2F42449F20C35C2F20004C0F6000542
:1042400020462946062201F097FF204601F0C7FDCF
:1042500049F2F320C0F6000003F0CEFD20462946C7
:104260000A2201F089FF43F2F424C2F200046946F5
:1042700003AB2046092202F071FA43F23C70C2F20D
:10428000000001680131016023A003F0B5FD204664
:1042900001F0A5FD07E049F20F30C0F60000002153
:1042A00002F097F908B104B0B0BD49F2F320C0F6AE
:1042B000000003F0A1FD43F2F424C2F2000449F22D
:1042C0000C31C0F6000120460A2201F055FF43F2EE
:1042D0003C70C2F20000006800EBC001204601F013
:1042E000D9FDC0E725730000646174612E74787491
:1042F000206E6F7420666F756E64202C646174612B
:104300002E7478742057696C6C2042652043726566
:10431000617465200D00000064617461207772692A
:104320007465206F6B0D0000B0B5A0B049F2283065
:10433000C0F6000090E82E00D0E904400DF1040C16
:104340008CE82E00CDE9054049F20F30C0F60000A0
:10435000002102F03EF950B14FF47840FEF7C8FF5B
:1043600001AD3220782100224FF4784319E043F266
:10437000F424C2F2000449F20C31C0F600012046D8
:10438000012201F0F9FE07AD28466421224601F022
:1043900051FD204601F023FD0120782100224FF637
:1043A000FF730095FCF7C0FB20B0B0BDFDF745BA28
:1043B000B0B592B0002443F64000CDE90A44CDE9FF
:1043C00008440194C4F202000168022541F08051C2
:1043D0000160006800F080500190019847F20000F1
:1043E0000194C4F20000016841F48041016000685A
:1043F00000F4804001900198012006904FF4803035
:1044000007904FF480000C950D9004200E90A8208A
:10441000CDE90F050720119006A8FDF7C5FB0F2079
:10442000CDE901054FF4A050039404904FF480505F
:10443000059001A80521FDF7B7FA12B0B0BD4EF600
:104440000850CEF20000D0F880104FF0000C41F47C
:104450007001C0F8801043F60001C4F202010A683E
:1044600042F001020A60C1F808C00B684FF6FF7203
:10447000CFF6F6621A400A6043F21002C2F200421E
:104480004A600A6822F480220A60C1F80CC04FF02A
:1044900000610160704780B582B000F076FAFCF7E9
:1044A00077FA43F2FC6043F22851C2F20000C2F2F4
:1044B00000010122FEF79EFC40F21C0CC2F2000C2F
:1044C0002820682100224FF6FF73CDF800C0FCF7CA
:1044D0002BFB4FF4FA60FDF7C5F84FF6FF70FEF7BF
:1044E00007FF40F23C0CC2F2000C1E200F210022FC
:1044F0004FF6FF73CDF800C0FCF716FB40F2580CE6
:10450000C2F2000C1E20282100224FF6FF73CDF8C6
:1045100000C0FCF709FB40F27C0CC2F2000C1E202C
:10452000412100224FF6FF73CDF800C0FCF7FCFAE2
:1045300002B080BD10B540F6FF3E0368C4F2000E25
:1045400040F2004C7045C4F2010C0DDCB0F1804F1C
:1045500017D040F20042C4F20002904211D040F65F
:104560000002C4F200020AE040F60042C4F2000277
:10457000904206D0604504D00022C4F2010290426D
:1045800003D14A6823F07003134341F6FF72C4F26B
:10459000000290420DDC70451FDCB0F1804F3FD02F
:1045A00040F20042C4F20002904239D040F60002CC
:1045B00021E043F6FF72C4F2010290421EDC42F297
:1045C0000002C4F2000290422AD00022C4F201028A
:1045D000904225D0604523D026E040F60042C4F248
:1045E000000290421CD041F60002C4F20002904248
:1045F00016D041F60042C4F200020FE044F200027D
:10460000C4F2010290420BD044F60002C4F201024F
:10461000904205D044F20042C4F20102904203D11C
:10462000CA6823F44073134323F080024B69D1F826
:1046300000E08C681A430260C46240F48062C0F8F3
:1046400028E0624504BF096901630121416110BD91
:10465000806B0021C185C184FEF7ACBA90F83A1096
:10466000222918BF70478168B1F5805F08D10268C0
:104670000369816A52687BB1D2B221F8012B0FE045
:10468000016802694968002A826A18BF01F07F0147
:10469000531C8362117004E06FF35F2221F8022B38
:1046A0008162C18D01390A04C18500D0704701685B
:1046B000CA6822F02002CA60CA6822F48072CA6006
:1046C0004A6922F001024A61202180F83A10FEF77F
:1046D000B8BB2DE9F0410446006804F108030ECB95
:1046E0000769194327F440573A4302616269E36955
:1046F0001143C26849F20C671943BA431143C160C0
:104700004169A26921F440711143416148F21F5887
:1047100041F20041B3F5004FC5F2EB1840F4806060
:10472000C4F2010137D188426CD1FDF7F5F9616817
:10473000192778434900B0FBF1F0A0FB08016FF0A6
:104740000F0000EA5106FDF7E7F961687843490078
:10475000B0FBF1F5FDF7E0F9616878434900B0FB83
:10476000F1F0A0FB08014809642100FB115032213F
:1047700001EBC000A0FB08014FF4F87000EA111033
:104780000644FDF7C9F9616878434900B0FBF1F5CB
:10479000FDF7C2F96BE0884272D1FDF7BDF961689F
:1047A000192778438900B0FBF1F0A0FB08016FF0F6
:1047B0000F0000EA5105FDF7AFF961687843890001
:1047C000B0FBF1F6FDF7A8F9616878438900B0FB0A
:1047D000F1F0A0FB08014809642100FB11603221BF
:1047E00001EB0010A0FB0801F02000EA511046196F
:1047F000FDF792F9616878438900B0FBF1F5FDF7A8
:104800008BF971E0FDF775F9616819277843490064
:10481000B0FBF1F0A0FB08016FF00F0000EA5105BA
:10482000FDF767F9616878434900B0FBF1F6FDF7E1
:1048300060F9616878434900B0FBF1F0A0FB080122
:104840004809642100FB1160322101EBC000A0FB8C
:1048500008014FF4F87000EA11104619FDF749F904
:10486000616878434900B0FBF1F5FDF742F96168F2
:1048700078434900B0FBF1F00722291A03233BE0FB
:10488000FDF737F96168192778438900B0FBF1F02B
:10489000A0FB08016FF00F0000EA5105FDF729F9B0
:1048A000616878438900B0FBF1F6FDF722F9616891
:1048B00078438900B0FBF1F0A0FB080148096421AE
:1048C00000FB1160322101EB0010A0FB0801F02079
:1048D00000EA51104619FDF70CF961687843890028
:1048E000B0FBF1F5FDF705F9616878438900B0FB8D
:1048F000F1F00F22291A0423A0FB08756F09642523
:1049000007FB1500084498403230A0FB080102EA7A
:104910005110216830438860BDE8F0812DE9F041F5
:10492000044600681D4603680E461940B1420ED089
:1049300090466F1C3FB16DB1FCF779FFA0EB080109
:104940002068A94206D801683140B142F2D1002066
:10495000BDE8F081C16821F4D071C160416921F0E6
:1049600001014161202084F8390084F83A000020D8
:1049700084F838000320BDE8F08143F2FC60C2F205
:104980000000FEF718B90000FEE710B543F23850FA
:10499000C2F20000FCF793FA43F2BC64C2F20004D6
:1049A0002046FDF7F7FF2046BDE81040FEF725B88A
:1049B00010B543F23854C2F200040A4601462046BC
:1049C000FCF776FB40F2ED30FCF74CFE2046BDE8EC
:1049D0001040FCF70BBC00002DE9F04FADF5A04DE9
:1049E00087B00DF11C0E0EF58049804648464FF405
:1049F0008051FBF71DFC0DF11C0E0EF500563046E4
:104A00004FF40051FBF714FC07A84FF40051FBF7DB
:104A10000FFC01A800F038FF48464FF40061FFF793
:104A2000C7FF9FED1D0B9FED1E1B00275AEC10BB0F
:104A300054EC115B39F8170000EE100AB8EE400A8A
:104A400010EE100AFBF7CBFD5A465346FBF7A9FCC4
:104A50002A462346FBF717FDFBF7D4FD0137B7F5D0
:104A6000006F46F8040BE5D10DF11C0E07AC01A850
:104A70000EF500512246002300F024FF2046414657
:104A80004FF4806200F08CFB0DF5A04D07B0BDE83F
:104A9000F08F00BF00BF00BF6666666666660A40AC
:104AA0000000000000FEAF40FFF7F5FC4FF4FA7085
:104AB000FCF7D8FDFEF736FAFCE70000B0B5E1B12F
:104AC0004FF0000C02EB4C0432F81C300CF1020CDD
:104AD00064888C4523F0030324F0030450F803E0BA
:104AE0000559C55040F804E003440444D3F804E0F9
:104AF00065685D60C4F804E0E4D3B0BD2DE9F04121
:104B00000588984616460C460746012A0CD1E5B39F
:104B1000201D294690ED000A0139B1EE400A80EDD2
:104B2000000A00F10800F5D1FF2D0CDDB5F5806F0E
:104B300010DBB5F5805F22D0B5F5006F11D0B5F56B
:104B4000806F17D021E03F2D10DC102D12D0202DCA
:104B500007D01AE0B5F5807F03D0B5F5007F0ED001
:104B600013E03846214600F007F90EE0402D06D04C
:104B7000802D0AD13846214600F030F805E07A68E9
:104B800020462946012300F0ABFBB8F1000F04D00A
:104B9000BA68B9892046FFF791FF012E1CD100EEBB
:104BA000105A002DB8EE400A08BFBDE8F081B7EEFC
:104BB000001A81EE000A00BF94ED001A94ED012A5C
:104BC000013D20EE011A20EE422A84ED001A84ED08
:104BD000012A04F10804EFD1BDE8F0812DE9F04786
:104BE0002DED088B804600880023D8F8042001EBC7
:104BF000800A4FEA5009B3EBD00F00F0AD80C70830
:104C000001EB890C0AEB890E7C420027C8190AEBDC
:104C100007060CEB07030EEB0705013496ED000ABF
:104C200090ED004A96ED011A90ED015A96ED022A98
:104C300090ED026A96ED033A90ED037AD5ED000A05
:104C4000D5ED011AD5ED022AD5ED033AD3ED004A90
:104C5000D3ED015AD3ED026AD3ED037A34EE00BAF4
:104C600037EE038A36EE029A35EE01AA34EE400A98
:104C700035EE411A36EE422A37EE433A33EEE76A12
:104C800032EEE67A80ED00BA80ED01AA80ED029A5C
:104C900080ED038A34EEA0BA35EEA1AA37EEA38ADE
:104CA00036EEA29A02EB070071EEE51A70EEE40A06
:104CB00007F1100783ED00BA83ED01AA83ED029A94
:104CC00083ED038A90ED008A90ED019A20EE094A67
:104CD00021EE085A21EE091A20EE080A35EE444A60
:104CE00030EE010A21EE891A20EE885A61EE881A08
:104CF00060EE890A86ED014A86ED000A35EE010A6A
:104D000030EEE11A85ED010A85ED001A90ED020AF8
:104D100090ED031A22EE014A23EE005A23EE013AE7
:104D200022EE002A35EE444A32EE032A26EE013AFC
:104D300027EE005A26EE000A27EE011A86ED034AF6
:104D400086ED022A35EE032A31EE400A85ED032A6C
:104D500085ED020A7FF45AAF08464946022300F067
:104D6000BFFAD8F80420504649460223BDEC088B10
:104D7000BDE8F04700F0B4BA2DE9F04F81B02DED59
:104D8000088B92B0B0F800C00590406891ED000A21
:104D900091ED011A4FF000094FF0000B4FEA5C0251
:104DA00006906FF001000F9101EB820300EB9C076E
:104DB00003EB8205A9EB57006FF0030793ED004A60
:104DC00093ED015A95ED002A95ED013A05EB820429
:104DD000119007EB820007EBC20E6FF0070794ED0E
:104DE000007AD4ED010A07EB0216109031EE036A47
:104DF00070EE021A31EE431A30EE420A0E9602EBC2
:104E0000420676EE052A71EE843A31EE442A30EEFF
:104E1000053A31EE041A30EE450A36EE456A71EE77
:104E2000C41A07EB86004FEA9C074FEA860A73EE26
:104E3000873A72EEA02A32EE072A33EE603A31EE5C
:104E4000471A30EE200A0D900197029304959700BF
:104E50000394C1ED003AC1ED012A83ED003A83EDE0
:104E6000012A31EEC73A36EE602AD10085ED003ACC
:104E700085ED012A84ED000A84ED011A0024E0E0AA
:104E80000F98089407920B915A46CB46109900EB65
:104E90000E0400EB01090D990A97CDF830E0CDF82A
:104EA00024A0D4ED002A14ED015ADDF838A0D9ED84
:104EB000001A59ED017A47180839D7ED010A00EBBD
:104EC0000A0ED7ED006A0798AAF1080ADEED014A3A
:104ED0009EED004A71EEA03A37EEA69A73EEA25A02
:104EE00075EEA45AC9ED005A54ED015A9EED008AA0
:104EF00079EE255A75EE885A49ED015AD9469346FE
:104F0000D3ED035A93ED028A09F1080902F1180B57
:104F100026EE25AA27EE08BA27EE257A26EE086A9D
:104F20003BEE0AAA36EE476A32EEE47A85ED02AA33
:104F300085ED036A31EEE06A77EEE60A76EE451A11
:104F400070EE876A71EE841A66EE887A21EEA5AA61
:104F500066EEA55A61EE881A7AEE677A71EEA51AA6
:104F6000C4ED007A44ED011A089CD6ED051AD6ED81
:104F7000045A103462EE216A63EE257A23EE213A58
:104F800022EE252A77EEA66A32EE432A33EEE23A83
:104F9000CCED026A8CED032A39EE452A33EE643AF1
:104FA00032EE442A63EE653A23EE213A62EE212A7C
:104FB00022EE252A73EEE22A33EE422AC7ED012AB9
:104FC00087ED002A0A9F90ED072A90ED063A109887
:104FD000083760EE021A61EE032A21EE021A20EE73
:104FE000030A083872EEA11A30EE410A37EE601A51
:104FF000C8ED021A88ED030A34EE450A21EE034A91
:1050000021EE021A30EE460A20EE025A20EE030A82
:1050100035EE444A30EE010A8EED014A8EED000A6B
:10502000DDF830E010901198AEF1080E01301190CB
:105030000D910B99CDF838A0DDF824A008310AF1C4
:10504000080A0F9B119803EB090203EB010CDD1911
:1050500003EB0A08069B00289CED020A92ED022A47
:1050600095ED024A98ED026A9CED031A92ED033A1F
:1050700095ED035A98ED037A03EB040672EE000AED
:1050800073EE013A33EE411A32EE400A70EE841AA2
:1050900031EE042A70EEC40A30EE453A31EE444A4D
:1050A00071EE861A33EE071A30EEC63AC2ED021AD6
:1050B000D5ED031AD8ED032A73EEA11A71EEA21AE8
:1050C000C2ED031A73EEC51A30EE055A32EE460AE7
:1050D00003EB0B024B4434EE066A31EEC72A35EE81
:1050E000477A7FF4CDAE93ED024A93ED035A0F98C1
:1050F000042367EE050A66EE041A26EE055A27EE2B
:10510000044A34EE054A31EEE06A85ED024A85ED47
:10511000036A019D96ED044A96ED055A294623EE51
:10512000056A22EE047A23EE043A22EE052A33EED3
:10513000022A37EE464A8CED022A8CED034A92EDA4
:10514000062A92ED073A069A21EE034A20EE025A09
:1051500021EE021A20EE030A31EE000A35EE442A4F
:1051600088ED020A88ED032A00F0BAF8059C02983F
:1051700029460423626800F0B3F86268049829465F
:10518000042300F0ADF8626803982946042312B0A6
:10519000BDEC088B01B0BDE8F04F00F0A1B80000F5
:1051A0002DE9F0412DED028B0446002090460D467E
:1051B000B0EB920F6DD04FEA9800474294ED000A91
:1051C00094ED011A21EE011A20EE000A30EE018A58
:1051D000B0EE480A02F080F9B4EEC00AF1EE10FA1F
:1051E00003D7B0EE480A02F077F985ED000A94ED96
:1051F000020A94ED031A21EE011A20EE000A30EEA5
:10520000018AB0EE480A02F067F9B4EEC00AF1EE86
:1052100010FA03D7B0EE480A02F05EF985ED010AF4
:1052200094ED040A94ED051A21EE011A20EE000A0D
:1052300030EE018AB0EE480A02F04EF9B4EEC00A30
:10524000F1EE10FA03D7B0EE480A02F045F985ED09
:10525000020A94ED060A94ED071A21EE011A20EED7
:10526000000A30EE018AB0EE480A02F035F9B4EED9
:10527000C00A05F110062034F1EE10FA03D7B0EEA3
:10528000480A02F029F985ED030A0137354695D120
:1052900000E02E4618F003001ED0454294ED000AAF
:1052A00094ED011A21EE011A20EE000A30EE018A77
:1052B000B0EE480A02F010F9B4EEC00A371DF1EE64
:1052C00010FA03D7B0EE480A02F006F986ED000A9C
:1052D000083401353E46E1D1BDEC028BBDE8F081DA
:1052E0002DE9F04F81B02DED108BA0B09FED050A98
:1052F000CDE903328C46019004301B9102900846A0
:1053000002E000BFF304353F4FEADC064FEACC076A
:105310004FF0000BF30006EB860235010896A3EB75
:10532000DC00D100C0001A9006EB46007601C400F4
:1053300000012246029CCDE91E7CCDE90C01CDE99D
:105340001C6500BF0C9804EB03091F461A9B04EB75
:1053500001082644254404EB020E14ED017ADDF821
:105360007CC0114656ED010A1EED012A18ED013AE6
:1053700019ED014A15ED016A04EB030A20443B468E
:10538000E3441AED011A10ED015A77EE204A74EE4B
:10539000032A37EE607A72EE011A76EE053A32EEA3
:1053A000411A34EE432A36EE455A72EEA15A74EE93
:1053B000A36A34EEE33A72EEE11A76EEA57A76EE5F
:1053C000E55A44ED017A46ED015ADAED005ADEED78
:1053D000006AD8ED007A99ED008A90ED009A95ED7B
:1053E00000AA96ED00BA94ED00CA36EEA5DA38EEC2
:1053F00027EA3AEE09FA7CEE0B8A36EEE54A78EEB9
:10540000673A72EE415A32EE011A3CEE4B6A7EEE7A
:105410000D9A78EE8FAA3EEE4DDA73EE842A78EE7E
:10542000CF6A65EE800A33EEC42A21EE001A7AEEC6
:10543000A9BA73EE0D4A7AEEE99A33EE4D3A62EE6E
:10544000802A76EEE15A71EEA61A22EE002A37EE95
:10545000604AC4ED00BAC6ED009A45ED014A7AEE05
:10546000494A00ED013A37EE203AC5ED005AC0ED49
:10547000001A76EE021A36EE422A74EEA27A34EE62
:10548000E27A73EE275A33EE673A74EE070A34EE87
:10549000474A49ED015A0AED013A35EE013A48ED25
:1054A000010A0EED014A35EE411A31EEC37A33EEB0
:1054B000213A32EE414A31EE021A89ED007A8AED44
:1054C000003ADDE91C651E9F1B980D9988ED004A86
:1054D0008EED001A3C448345FFF434AFBCF1400F1D
:1054E000C0F0C9810398DDF80480002501270792E8
:1054F0000E9380B206900898C0EBC000C0000590E3
:105500000698049CCDF824800A97DFEDDE2A054436
:1055100005EB850305EB45020B95D900D00004EBA4
:10552000C3030431043004EB010E04EB451104EB1A
:10553000000CC5EBC50091ED000A04EB0511DCED94
:10554000006AC446DEED005ADDF81C808DED1A0AB3
:1055500091ED000A04EBC5018DED190A91ED000AE9
:1055600004EBC001C00004308DED180A91ED000A73
:1055700004EB021120448DED170A91ED000A110190
:1055800004EBC20204318DED160A93ED000AEB0024
:1055900004EB01096901043304318DED150A92ED24
:1055A000000A2A012344043222440C448DED140ADB
:1055B00094ED000A8DED130A92ED000A8DED120AAA
:1055C00093ED000A3B468DED110A90ED000A8DED3A
:1055D000100A99ED000A8DED0F0ADDE90C15059F03
:1055E0001D980CEB060B0CEB01090CEB05020CEB08
:1055F000070E9CED02DA9CED03EADDED1A3ADDEDD3
:10560000134A1C9E9BED02FADEED027A92ED029A9D
:1056100099ED02BA0CEB000A0E989AED02CA7DEEE3
:105620000FBA0CEB00040CEB080090ED028A94ED2D
:1056300002AA7CEE0BAA7BEEAADA78EE278A7AEE33
:10564000099A78EE677A3AEE498A79EEA8CA38EE76
:10565000670A78EE277A79EEE88A7DEEACEA7DEE8D
:10566000ECCA20EE220A67EEA27ACCED02EA63EEE3
:10567000AC0A64EEACCADBED03DA9EED039A90ED62
:1056800003AAD2ED03EAD4ED03FA99ED031A9AEDD9
:10569000032A32EE013A3EEE2D4A7AEE099A3FEEA7
:1056A000AE8A32EE411A38EE295A34EE036A34EEED
:1056B000433A38EE698A3BEEEA4A36EE457A36EEF0
:1056C000055A3AEE496A3FEEEE9A39EE46AA64EE82
:1056D000871A39EE066A23EE877ADDED124ADDED90
:1056E000193A8CED035A34EE085A3DEE4F9A34EED7
:1056F000484A26EE222A37EE6C6A30EEA17A73EE23
:10570000680A7CEE4B1A38EE833A3EEE6DCA2AEEFA
:1057100022AA39EE008A39EE400A24EE85BA23EE39
:10572000A0DA23EE855A64EEA00ADDED0F4ADDED26
:10573000163A8BED027A8BED036A31EE02EA31EE16
:10574000A77A31EE421A31EEE72A7CEE4A1A3DEE94
:105750004B6A30EE855A3CEE0ABA38EE0EFA38EE55
:105760004E8A70EE017A30EE410A32EE211A64EE72
:10577000840A23EE83DA8AED025A23EE844ADDEDB1
:10578000183A24EE833A7BEE478A8AED036A37EEB5
:105790000B7A3DEE605ADDED110A33EE043A23EE4A
:1057A000A86A23EE8FDA89ED023ADDED103A89ED31
:1057B000035A20EE8F4A60EEA80A36EE443A3DEED8
:1057C000204ADDED170A23EE885A84ED024A84ED63
:1057D000033A20EE876A60EE880A23EE877A31EE7C
:1057E000C28A30EE874ADDED150A36EE453A25EEDF
:1057F000A75A25EE887A8EED024A8EED033A26EE00
:10580000804A20EE886A60EEA70A36EE452A9DEDB2
:10581000146A30EE873A82ED023A82ED032A26EED0
:10582000015A26EE811A26EE000A30EE010A35EE04
:10583000442A80ED020A80ED032A1E9884441F98B2
:1058400003441B988342FFF4CBAE0A9FDDF824800B
:1058500008980B9D013708F108088742FFF450AE05
:105860000398DDF820C09FED070AC00003901F9841
:105870003F283FF649AD20B0BDEC108B01B0BDE82C
:10588000F08F00BFF304353FC8B14FF400614BF215
:10589000403201824FF48061C0F6000201804FF473
:1058A000E161818147F6C861426149F24032C0F648
:1058B0000001C0F60002C0E90121002000E0FF2045
:1058C00040B27047F0B581B00546008A14460E46D6
:1058D000002B4FEA500028800ED028463146224641
:1058E0001F4601F0BFFB284621463A46012301B07E
:1058F000BDE8F040FFF702B92846314600220123F7
:10590000FFF7FCF828463146224601B0BDE8F040DA
:1059100001F0D4BC10B504460020E0704FF0FF3019
:10592000E062204601F0F7FB08B1042010BD94F8B6
:105930002E0294F82F1240EA01204AF6552188429F
:105940001CBF032010BD94F83000E92805D0EB28D7
:105950001BD194F83200902817D194F8682094F85D
:10596000673094F86610120444F2461042EA0322AB
:10597000C0F254001144814205D0D4F8821000F1E5
:105980004C50814201D1002010BD022010BD00000A
:10599000B0B543F29C0E0022C2F2000E4FF0000C94
:1059A0005EF8023073B10468A3420DD10EEB02031E
:1059B0005C688568AC4207D19C684569AC4203D1FC
:1059C0000FE000BF4FF0010C1032202AE8D1122264
:1059D000BCF1000F18BF0022881E18BF1046C0B2CD
:1059E000B0BD09B11020FAE79889A0F58070B0FA2F
:1059F00080F040090001F2E72DE9F0410468884693
:105A0000074679B13846414601F00BFA02283CBFFF
:105A10000120BDE8F081411C24D0616945468842DF
:105A200006D23AE0E56815B16069854200D30125E8
:105A30002E4600BF60690136864228BF022601D388
:105A4000022D0CD33846314601F0EBF9411C24D02D
:105A500060B1012808BFBDE8F081AE42EAD1002064
:105A6000BDE8F0814FF0FF30BDE8F08120463146BF
:105A70004FF0FF3201F06AFBB8F1000F014606D08B
:105A800029B920464146324601F060FB014631B15A
:105A90000120012908BF4FF0FF30BDE8F081D4E9B3
:105AA0000401E660023988429CBF013820612079F8
:105AB00040F0010020713046BDE8F0812DE9F04F43
:105AC00081B00446C0690426B8B10F4661694FF63B
:105AD000FF72C0F21F0201F1200595420DD8AA46BF
