:020000040800F2
:10000000580400209D0100083F0E0008190D00084B
:100010003D0E0008A9020008B91100080000000008
:10002000000000000000000000000000430E000877
:10003000AB02000800000000410E0008450E000859
:10004000B7010008B7010008B7010008B7010008B0
:10005000B7010008B7010008B7010008B7010008A0
:10006000B7010008B7010008B7010008B701000890
:10007000B7010008B7010008B7010008B701000880
:10008000B7010008B7010008B7010008B701000870
:10009000B7010008B7010008B7010008B701000860
:1000A000B7010008B7010008B7010008B701000850
:1000B000B7010008B7010008B7010008B701000840
:1000C000B7010008B7010008B7010008B701000830
:1000D000B7010008B7010008B7010008B701000820
:1000E000B7010008B7010008B7010008B701000810
:1000F000B7010008B7010008B7010008B701000800
:10010000B7010008B7010008B7010008B7010008EF
:10011000B7010008B7010008B7010008B7010008DF
:10012000B7010008B7010008B7010008B7010008CF
:10013000B7010008B7010008B7010008B7010008BF
:10014000B7010008B7010008B7010008B7010008AF
:10015000B7010008B7010008B7010008B70100089F
:10016000B7010008B7010008B7010008B70100088F
:10017000B7010008B7010008B7010008000000003F
:10018000B7010008B7010008DFF80CD000F07AF8DA
:1001900000480047E1110008580400200648804745
:1001A00006480047FEE7FEE7FEE7FEE7FEE7FEE75C
:1001B000FEE7FEE7FEE7FEE7D50E0008890100082E
:1001C0002DE9F05F0546002092469B46884606468C
:1001D000814640241BE0284641464746224600F01F
:1001E00041F853465A46C01A914110D31146184659
:1001F000224600F028F82D1A67EB01084F462246E8
:100200000120002100F01FF817EB00094E41201ECD
:10021000A4F10104DFDC484631462A464346BDE8E6
:10022000F09FD2B201E000F8012B491EFBD27047CB
:100230000022F6E710B513460A4604461946FFF7B2
:10024000F0FF204610BD202A04DB203A00FA02F11C
:10025000002070479140C2F1200320FA03F31943B4
:1002600090407047202A04DB203A21FA02F0002156
:10027000704721FA02F3D040C2F1200291400843B6
:1002800019467047064C074D06E0E06840F0010350
:1002900094E8070098471034AC42F6D3FFF778FF94
:1002A0003812000858120008FEE770477047000037
:1002B0002DE9F84F5B4A4FF0080A90425A4A08BFAE
:1002C0004FF0070A02444FEAB223072B38BF4FEA28
:1002D000B22A4FF0010B4FF00F094FF000084FF01A
:1002E000000E0022102A08BFBDE8F88F0F680BFA35
:1002F00002F6374200F090804F6847F01004122C4D
:1003000012D16FF0030303EA520303440EF01C04FE
:100310001F6A09FA04FC27EA0C0C0F6907FA04F4B7
:1003200044EA0C041C624F680324056807F00303C9
:1003300004FA08F403FA08F3A5432B436FEA040C0C
:10034000122F036013D80BFA07F313F0061F0ED019
:100350008368CC6803EA0C0304FA08F4234383603F
:10036000C7F3001344689340B44323434360C36816
:100370008C6803EA0C0304FA08F42343C360FB000F
:100380004AD5002300932B4B284F1C461B6822F0B4
:10039000030543F4804323602368BC4603F4804391
:1003A00000933D44009F244F0EF00C0309FA03F420
:1003B000B946EF590AFA03F327EA0404234345F840
:1003C0000930DCF800304D6843EA0604EF0358BFFB
:1003D00023EA0604CCF80040DCF80430AF0343EA1B
:1003E000060458BF23EA0604CCF80440DCF80830C1
:1003F000EF0243EA060458BF23EA06040C4BCCF88C
:1004000008401F461B684FF00F0943EA0604AD027F
:1004100058BF23EA06043C6008F102080EF1040EFE
:1004200001325FE7001C02400000FEBF003C0140BB
:100430000C3C01404438024008FCFFFF05480068BE
:10044000704700BF1F48034900780A6810440860DD
:10045000704700BF5000002080B50B48016841F490
:1004600000710160016841F480610160016841F43C
:1004700080710160032000F05FF8002000F006F8B2
:1004800000F022F8002080BD003C024070B50D4E07
:10049000044630784FF47A71B1FBF0F07649096880
:1004A000B1FBF0F000F088FA01250F2C08D838B91C
:1004B0004FF0FF3021460022002500F021F8746043
:1004C000284670BD0000002082B000200B4901903A
:1004D0004A6842F480424A604A6802F480420192CB
:1004E000019A0090086840F080500860086800F0A9
:1004F00080500090009802B0704700BF4038024022
:10050000B0B5134B4FF0FF351B68C3F30223DC1E5D
:1005100083F0070338BF0024042B28BF042305FA07
:1005200003F3994305FA04F3A1409A431143BDE84C
:10053000B04000F043BE00BF05494FF6FF030A6814
:100540001A4060F30A22034810430860704700BF56
:100550000CED00E00000FA052DE9F041002800F064
:100560008380434B0446D3F80004884600F00F0014
:10057000884207D283F80084D3F8000400F00F000B
:10058000404571D12068810711D5410703D599688D
:1005900041F4E0519960010703D5996841F4604145
:1005A0009960A1689A6822F0F00211439960C0072F
:1005B0002AD06068811E022903D21968890109D4F2
:1005C00052E0012803D11968890303D44CE019686B
:1005D000890749D599681D4621F0030108439860B1
:1005E000FFF72CFF064641F288376068A9682B4662
:1005F00001F00C01B1EB800F06D0FFF71FFF801B4D
:10060000B842F2D9032430E0D3F8000400F00F0020
:10061000404507D983F80084D3F8000400F00F00A8
:10062000404521D12068410705D5E1689A6822F448
:10063000E05211439960000706D52069996821F4BA
:10064000604141EAC00098601C4600F017F8A168BC
:10065000084AC1F30311515C0024C84006490860F0
:100660000020FFF713FF00E001242046BDE8F081E1
:1006700000380240261200080800002010B5134C74
:10068000606800F00C00082804D0042814BF10484B
:10069000104810BD2268206802F03F0240020D4859
:1006A0005CBF42F20040C0F2F40021680023C1F3B5
:1006B0008811A0FB0101FFF783FD21680222C1F32D
:1006C000014102EB4101B0FBF1F010BD04380240E2
:1006D0000024F40040787D012DE9FC41002800F061
:1006E000958004460078B14EC0072ED0B06800F067
:1006F0000C00042823D0B06800F00C00082802D1B8
:10070000706840021BD46768B7F5803F07D0306837
:10071000B7F5A02F40F00E8140F4802030603068A3
:1007200040F480303060FFF789FE05463068800372
:100730000BD4FFF783FE401B6428F7D9A9E030688B
:10074000800302D56068002860D0207880072CD50F
:10075000B06810F00C0F07D0B06800F00C0008284B
:1007600009D17068400206D43068800716D5E06869
:10077000012813D04AE0E1688D48002900F0A980E3
:1007800001210160FFF75AFE05463068800705D455
:10079000FFF754FE401B0228F7D97AE02069316840
:1007A00021F0F80141EAC00030602078000721D52F
:1007B000606978B17E480121C0F8801EFFF73EFED7
:1007C0000546706F800715D4FFF738FE401B0228DE
:1007D000F7D95EE076480021C0F8801EFFF72EFEB4
:1007E0000546706F800705D5FFF728FE401B0228DD
:1007F000F7D94EE0207840070BD4A769002F00F00E
:10080000D180B06800F00C00082845D10120BDE877
:10081000FC81306C4FF00008C0000CD4CDF804808F
:10082000306C4FF0010840F080503064306C00F0C4
:100830008050019001985F4F3868C0050FD4386828
:1008400040F480703860FFF7F9FD05463868C00550
:1008500005D4FFF7F3FD401B0228F7D919E0A7687C
:10086000012F05D0306F052F43D140F004003067D1
:10087000306F40F001003067FFF7E0FD054641F2C0
:100880008837306F80074CD4FFF7D8FD401BB84243
:10089000F7D90320BDE8FC81454900208846086659
:1008A000FFF7CCFD0546022F09D13068800159D5EC
:1008B000FFF7C4FD411B03200229F6D970E0306820
:1008C00080016FD5FFF7BAFD411B03200329F6D342
:1008D00066E000210160FFF7B1FD05463068800742
:1008E0007FF563AFFFF7AAFD411B03200229F5D96D
:1008F00056E020F001003067306F20F004003067D0
:10090000FFF79CFD0546002FB9D141F28837306FC3
:10091000800706D5FFF792FD411B0320B942F6D9A7
:100920003EE0B8F1000F3FF468AF306C20F080502B
:10093000306462E720F480303060306820F480203A
:100940003060FFF77BFD0546002F7FF4EFAE05E03A
:10095000FFF774FD411B0320642921D83068800310
:10096000F6D4F2E61C341FCC084340EA8210D903C7
:100970004FF6FF72914340EA0460A1F580310843CD
:1009800070600120C8F86000FFF758FD0446306829
:10099000800107D4FFF752FD011B03200229F6D97D
:1009A000BDE8FC810020BDE8FC8100BF00380240AA
:1009B0000000474200700040411E0020B0EB116F64
:1009C0001CBF01207047044AF023516003490B709B
:1009D000072190601160704710E000E023ED00E017
:1009E000F0B5024690F83C00012804BF0220F0BD9B
:1009F000002082F83C0001F10807E0CFD1E900C4F3
:100A000026F47C5625F47055354324F4F0442C43E9
:100A10002CF4E0454B692C4327F4C0452C43234379
:100A2000C96923F48043126819435164F0BD10B5BD
:100A300090F83C300222012B14D080F83D2003684E
:100A4000D1E900215C6824F0700422439C685A605C
:100A500024F08002114399600022012180F83C209B
:100A600080F83D10104610BDB0B110B5044690F8A6
:100A70003D0028B9002084F83C00204600F00EF824
:100A8000022084F83D002068211D00F049FA012071
:100A900084F83D00002010BD0120704781B000683F
:100AA000E54988420BD1002000900648016841F0DA
:100AB00001010160006800F001000090009801B0A1
:100AC000704700BF44380240B0B590F83C2004465F
:100AD0000220012A21D084F83D00012084F83C0046
:100AE00020684FF67775024652F8083FAB43136013
:100AF0000B682BB1102B03D0202B18BF302B0DD13E
:100B0000106820F07000184340F0070010600020CB
:100B1000012184F83C0084F83D10B0BD402B17D073
:100B2000502B22D0602B2DD0B3F5005F37D0702B27
:100B3000EDD1D1E90103C968184340EA01201168E9
:100B400021F47F4108431060106840F07700DDE732
:100B50004B68CA68194600F00DFB226852F8080F6E
:100B600040F0470020F03000D0E74B68CA681946D3
:100B700000F000FB226852F8080F40F0570020F008
:100B80002000C3E74B68CA68194600F004FB2268DE
:100B900052F8080F40F0670020F01000B6E7D1E9E6
:100BA0000103C968184340EA0120116821F47F411C
:100BB00008431060106840F48040A7E710B586B085
:100BC000044601A81421FFF733FB21689A488142AB
:100BD00019D10021634A0091136800F5883043F071
:100BE00010031360126802F01002009201220592B5
:100BF000CDE90311022102914FF400710191009996
:100C000001A9FFF755FB06B010BD00BF70B50D463A
:100C100090F83C1004460220012944D084F83D009D
:100C20004FEAB2000126032884F83C6036D8DFE89A
:100C300000F0020A12222068294600F0E9F9206833
:100C400050F8181F0EE02068294600F00BFA2068C3
:100C500050F8181F16E02068294600F035FA206881
:100C600050F81C1F41F008010160016821F00401E7
:100C7000016029690FE02068294600F057FA2068D2
:100C800050F81C1F41F400610160016821F480618B
:100C9000016029690902026811430160002084F89B
:100CA0003C0084F83D6070BDB0B110B5044690F8CA
:100CB0003D0028B9002084F83C00204600F00EF8E2
:100CC000022084F83D002068211D00F029F9012050
:100CD00084F83D00002010BD0120704770470000DF
:100CE00010B504460068012200F082F92068F54A38
:100CF00040F48061914203D1416C41F40041416470
:100D0000816801F00701062903D0016841F0010163
:100D10000160002010BD00BFFEE7000083B000218D
:100D200010480291026842F080020260026802F0FC
:100D300080020292029A0191026842F0100202605F
:100D4000026802F010020192019A0091016841F0DC
:100D500001010160006800F001000090009803B0FC
:100D6000704700BF30380240B0B596B009AC0025DE
:100D700020461C21CDE91455CDE91255CDE9105579
:100D8000FFF756FA01A82021FFF752FA2948914BA4
:100D900041F288315322C0E90032C0E90251C0E972
:100DA00004558561FFF760FE08B1FFF77FFA4FF445
:100DB000805012901F4812A9FFF786FE08B1FFF776
:100DC00075FA1C48FFF770FF08B1FFF76FFA0020B3
:100DD000CDE91000174810A9FFF729FE08B1FFF769
:100DE00065FA40F6C4100A906020099004F10800EA
:100DF0001421FFF71DFA0F48214600220025FFF7B6
:100E000005FF08B1FFF752FA01AC20461421FFF7A5
:100E10000FFA4FF4005008950690FA482146FFF764
:100E2000DFFD08B1FFF742FAF648FFF7C7FE16B03C
:100E3000B0BD00BF1000002000000140FEE7704779
:100E400070477047FFF7FEBAB0B592B000241F4854
:100E5000CDE90A44CDE9084401940168022541F036
:100E600080510160006800F080500190019818489E
:100E70000194016841F480410160006800F4804001
:100E800001900198042011904FF4A87010950F90D4
:100E900019200E904FF48000CDE90C504FF48030B3
:100EA00007900120069006A8FFF716FC4FF480502B
:100EB00005904FF4A05004900F20CDE9025401900A
:100EC00001A80521FFF748FB12B0B0BD4038024031
:100ED0000070004010B50E480F4CD0F8801041F45F
:100EE0007001C0F880100B490A6842F001020A60E4
:100EF00000228A600B6823400B60084B4B600B6834
:100F000023F480230B60CA604FF00061016010BDC4
:100F100008ED00E000380240FFFFF6FE103000242C
:100F2000B0B50268B0F1804F0ED0274B98420BD07D
:100F3000264B984208D0264B984205D08C4B9842BD
:100F400002D0244B984203D14B6822F070021A431E
:100F5000B0F1804F20D01C4B98421DD01B4B9842C3
:100F60001AD01B4B984217D01B4B984214D01B4BE6
:100F7000984211D01A4B98420ED0164B98420BD083
:100F80007B4B984208D0174B984205D0164B98429D
:100F900002D0164B984203D1CB6822F440721A4318
:100FA0004D690B688C6822F080022A430260C4629B
:100FB00083626F4B40F480629A4204BF0969016307
:100FC00001214161B0BD00BF0004004000080040A5
:100FD000000C00400000014000180040001C0040D0
:100FE0000020004000400140004801400044014012
:100FF00010B501F01F010123046A8B4024EA0303AA
:10100000036202FA01F1026A1143016210BD00009D
:10101000F0B5026A564E22F0010202620B688A683D
:10102000046A24F0020422434468856925F07305AC
:101030002B4340F48065B54205D1CF6822F00C0205
:1010400027F004073A43B54205D1D1E9055624F407
:1010500040742C43344344608361496841630262B5
:10106000F0BD00BFF0B5026A414E22F010020262EC
:101070000B688A68046A24F0200444EA0212446877
:10108000856925F4E64545EA032C40F48065B542C0
:1010900007D1CF686FF0400303EA071322F0C002C4
:1010A0001A43B54207D1D1E9053524F4406444EA36
:1010B000830343EA85044460C0F818C0496881632B
:1010C0000262F0BD00040140F0B5026A284E22F42D
:1010D000807202620B688A68046A24F4007444EA2D
:1010E00002224468C56925F0730545EA030C40F403
:1010F0008065B54208D1CF6840F2FF433F0227EA3E
:10110000030322F440621A43B54207D1D1E9053501
:1011100024F4405444EA031343EA05144460C0F83D
:101120001CC04968C1630262F0BD00BF70B5026AAD
:101130000F4E22F4805202620C688A68036A23F41C
:10114000005343EA02324368C56925F4E64545EA9F
:10115000042440F48065B54204D14D6923F48043F2
:1011600043EA85134360C46149680164026270BD4B
:101170000004014010B5036A046A24F0010404620B
:10118000846924F0F00444EA0212826123F00A0226
:101190001143016210BD036A23F0100303628369E7
:1011A00023F4704343EA0232036A826123F0A0020F
:1011B00042EA011101627047FEE7000010B5074CDA
:1011C00000F00F032344044AB0F1FF3FC8BF831867
:1011D0000801187010BD00BF00E400E014ED00E04D
:1011E000FFF73AF9FFF730FEFFF798FDFFF7BCFD78
:1011F000044C00212046FFF773FD20684FF47A71FC
:101200004163FDE71000002002E008C8121F08C17A
:10121000002AFAD170477047002001E001C1121F77
:10122000002AFBD17047000000000000000001020E
:1012300003040607080900005812000800000020F7
:1012400010000000081200086812000810000020BA
:1012500048040000181200080100000010000000FF
:081260000024F400000000006E
:040000050800018965
:00000001FF
