:020000040800F2
:10000000C04701209D01000811690008C14E000889
:100010000D690008250C000841920008000000004E
:10002000000000000000000000000000457F000804
:10003000450E000800000000696C00089D7F000864
:10004000B7010008B7010008B7010008B7010008B0
:10005000B7010008B7010008B7010008B7010008A0
:10006000B7010008B7010008B7010008B701000890
:10007000B7010008B7010008B7010008B701000880
:10008000B7010008B70100084D090008B7010008D2
:10009000B7010008B7010008B7010008B701000860
:1000A000B7010008B7010008B7010008B701000850
:1000B000B7010008B7010008B7010008B701000840
:1000C000B7010008B7010008B7010008B701000830
:1000D000B701000831920008B7010008B701000815
:1000E000B7010008B7010008B7010008B701000810
:1000F000B7010008B7010008B7010008B701000800
:10010000B7010008B7010008B7010008B7010008EF
:10011000B7010008B7010008B7010008B7010008DF
:10012000850C0008B7010008950C0008B70100080D
:10013000B7010008B7010008B7010008B7010008BF
:10014000B7010008B7010008B7010008B7010008AF
:10015000B7010008B7010008B7010008B70100089F
:10016000B7010008B7010008B7010008B70100088F
:10017000B7010008B7010008B7010008000000003F
:10018000B7010008B7010008DFF80CD000F04EFB03
:100190000048004735AD0008C047012006488047A9
:1001A00006480047FEE7FEE7FEE7FEE7FEE7FEE75C
:1001B000FEE7FEE7FEE7FEE7698000088901000828
:1001C0002DE9F05F0546002092469B46884606468C
:1001D000814640241BE0284641464746224600F01F
:1001E0003EFA53465A46C01A914110D3114618465A
:1001F000224600F025FA2D1A67EB01084F462246E9
:100200000120002100F01CFA17EB00094E41201ECE
:10021000A4F10104DFDC484631462A464346BDE8E6
:10022000F09FD2B201E000F8012B491EFBD27047CB
:100230000022F6E710B513460A4604461946FFF7B2
:10024000F0FF204610BD2DE9FE4F804681EA0300F5
:10025000C00F0C46009021F0004123F00045B8EBA0
:100260000200A94105D24046214690461C460B4655
:10027000024623F00040104347D0270DC7F30A0081
:10028000C3F30A510290401A019040286BDAC3F37D
:10029000130040F4801B0098924620B10023D2EB5B
:1002A000030A63EB0B0B01985946C0F1400250461C
:1002B00000F0C6F906460D4650465946019A00F030
:1002C000DEF910EB08006141002487EA115284EA4C
:1002D000E7731A4340D0009A62B3019A012A4FEAA9
:1002E000075215DC001B61EB02014FF0004202EAED
:1002F0000752CDE90042001C41F5801132462B46E1
:1003000000F015FA03B0BDE8F08F40462146F9E74A
:10031000001B61EB0201001C41F5801300185B41DA
:100320002018A2F5001747EB030140EAD570B61973
:100330006D4111E06D084FEA360645EAC0754FEA97
:100340000752001B61EB0201001C41F580114908B6
:100350004FEA30000019514132462B4603B0BDE848
:10036000F04F00F0D5B90098012240000023D0EBF7
:10037000020263EBE073009821464FEAE074B8EBA9
:10038000000061EB0401E9E783F000435BE781F0E3
:10039000004158E72DE9FE4F81EA030404F00044D0
:1003A00021F0004100944FF0000B23F0004350EA8D
:1003B00001045ED052EA03045BD0C3F30A54C1F3D4
:1003C0000A552C44A4F2F3340194A0FB0254C1F367
:1003D000130141F48011C3F3130343F4801301FBB1
:1003E000024400FB034E840A970A44EA815447EA18
:1003F0008357A4FB076802958D0A05FB07854FEA22
:10040000932C04FB0C542705029D4FEA065847EA3B
:100410001637B5EB08056EEB070C870E920E47EA10
:10042000811742EA8312A7FB0201B6EB0B0164EBD2
:1004300000042B0D43EA0C335E1844EB1C50DA46E3
:100440005146E7FB0201C5F313044FEA0B3343EABD
:1004500014534FEA0432019C43EA0603A4F10C044E
:100460000294009CCDE900B400F061F903B0BDE84E
:10047000F08F00200146F9E72DE9F04D81EA0304F1
:1004800004F0004B21F0004514464FF0000A23F021
:10049000004150EA050220D054EA01021DD0C5F304
:1004A0000A570246C5F31303C1F31300C1F30A56FA
:1004B00040F4801543F48013A7EB0608101BD646C2
:1004C00008F2FD3873EB050002D308F1010801E0E2
:1004D00092185B41B8F1000F03DA00200146BDE835
:1004E000F08D00204FF48011064684460EE0171B65
:1004F00073EB050705D3121B63EB050306434CEAB8
:10050000010C49084FEA300092185B4150EA01079C
:10051000EDD152EA030012D082EA040083EA050119
:10052000084305D0101BAB4106D20122002306E090
:1005300000224FF0004302E06FF0010253101AEB6B
:1005400006004CEB085110EB0A0041EB0B01BDE833
:10055000F04D00F0DDB80EB5C10F80EAE070084440
:10056000CA07002140F233438DE80E000A460B46CD
:1005700000F0DDF803B000BD70B5C1F30A5201F020
:1005800000450024C1F3130140F2FF3341F4801110
:100590009A4201DA002070BD40F233439A42A2F23F
:1005A000334203DC524200F05AF800E090402C4302
:1005B000F1D0404270BD00F0004230F000400AD05F
:1005C000C10D01F56071C0F3160042EA0151C20885
:1005D00040071143704700200146704701F0004377
:1005E00030B421F0004150EA010206D00A0DA2F514
:1005F0006072C1F31301002A02DC30BC0020704796
:10060000440F44EAC104C100E01830BC00EBC25002
:1006100000F047B830B50B460146002020220124E7
:1006200009E021FA02F59D4205D303FA02F5491BC0
:1006300004FA02F52844151EA2F10102F1DC30BDD6
:10064000202A04DB203A00FA02F100207047914092
:10065000C2F1200320FA03F3194390407047202A87
:1006600004DB203A21FA02F00021704721FA02F35C
:10067000D040C2F120029140084319467047202A19
:1006800006DBCB17203A41FA02F043EAE07306E0BA
:1006900041FA02F3D040C2F12002914008431946CA
:1006A00070470029A8BF7047401C490008BF20F0D0
:1006B0000100704710B4B0FA80FC00FA0CF050EA68
:1006C000010404BF10BC704749B1CCF1200421FAE9
:1006D00004F411FA0CF118BF012121430843A3EBE4
:1006E0000C01CB1D4FEA00614FEA102042BF0020F1
:1006F00010BC704700EBC35010440029A4BF10BCCD
:100700007047401C490008BF20F0010010BC704732
:1007100010B5141E73F1000408DA401C41F1000109
:1007200092185B411A4301D120F0010010BD2DE960
:10073000F04D92469B4611B1B1FA81F202E0B0FA57
:1007400080F220329046FFF77BFF04460F4640EAD6
:100750000A0041EA0B0153465A46084313D011469A
:1007600053EA010019D0C8F140025046FFF777FF65
:1007700005460E46504659464246FFF761FF08437C
:1007800005D0012004E020463946BDE8F08D002068
:10079000054346EAE0762C4337430A986305E40AAA
:1007A000A0EB08000022FD0A44EA47540A3002D5B3
:1007B00000200146E9E7010510196941DDE9084516
:1007C00000196941BDE8F04DA2E7C1F30A52C1F337
:1007D000130140F2FF3341F480119A4202DA002003
:1007E0000146704740F233439A42A2F2334202DCA0
:1007F0005242FFF734BFFFF723BF000030B5041E9D
:1008000071F1000404DB4FF00044404264EB01014D
:10081000141E73F1000405DB1C464FF000435242E6
:1008200063EB0403994208BF904230BD064C074D6C
:1008300006E0E06840F0010394E8070098471034B0
:10084000AC42F6D3FFF7A4FCA81F0108C81F01089B
:1008500080B584B003900398806B02900298006C7E
:1008600010F0500F3BD1FFE70298016C41F400718A
:10087000016402980068806810F0405F2BD1FFE7A8
:100880000298007E002826D1FFE702980068C06A1F
:1008900010F4700F07D0FFE70298006880684005E9
:1008A000002818D4FFE702980068416821F0200171
:1008B00041600298016C21F4807101640298006C1F
:1008C000C004002806D4FFE70298016C41F0010142
:1008D0000164FFE7FFE7029800F086FD13E002984D
:1008E000006CC006002804D5FFE7029800F09AFDCE
:1008F00008E00298806BC06C03990190084601994A
:100900008847FFE7FFE704B080BD000080B582B0F4
:1009100001900198806B009000984021016400983C
:10092000416C41F004014164009800F07BFD02B08D
:1009300080BD000080B582B001900198806B00906E
:10094000009800F06BFD02B080BD000080B543F25E
:100950000430C2F2000000F069FD43F24C30C2F2F4
:10096000000000F063FD80BD82B0019042F20030D3
:10097000C4F2010000900098416821F440314160C8
:100980000198406800994A681043486001980068DF
:10099000416821F4807141600198016800694A68EA
:1009A00042EA0020486001980068416821F04071E7
:1009B00041600198016880684A6810434860019866
:1009C0000068816821F40061816001980168C06855
:1009D0008A68104388600198806A0121C0F600711E
:1009E000884219D0FFE701980068816821F07061A2
:1009F000816001980168806A8A6810438860019864
:100A00000068816821F04051816001980168C06AE6
:100A10008A68104388600CE001980068816821F0C2
:100A20007061816001980068816821F040518160A7
:100A3000FFE701980068816821F002018160019858
:100A4000017E0068826842EA41018160019890F865
:100A50002000002819D0FFE701980068416841F4A0
:100A60000061416001980068416821F46041416083
:100A700001980168406A4EF20002CFF6FF7202EB65
:100A800040304A681043486006E0019800684168B9
:100A900021F400614160FFE701980068C16A21F418
:100AA0007001C16201980168C0690022CFF6F0723E
:100AB00002EB0050CA6A1043C8620198006881685E
:100AC00021F400718160019890F83010006882680C
:100AD00042EA4121816001980068816821F48061C7
:100AE00081600198016840698A6842EA80208860D4
:100AF00002B0704780B582B00190019943F268401E
:100B0000C2F2000002F0C4FE02B080BD80B543F224
:100B10006840C2F2000002F0E1FE043818BF012074
:100B200080BD000080B582B000208DF8060000F086
:100B30002DF8012804D0FFE701208DF8070021E0FF
:100B400043F26840C2F2000002F0EAFE8DF80600AF
:100B50009DF80600002810D1FFE743F26840C2F27A
:100B600000004FF4006102F06DFC002804D0FFE7A4
:100B700001208DF80600FFE7FFE79DF806008DF8DD
:100B80000700FFE79DF8070002B080BD81B001209B
:100B90008DF803009DF8030001B0704780B586B062
:100BA000059004910392029300208DF807000599A7
:100BB000049A039B0298EC46CCF8000043F268408C
:100BC000C2F2000002F0B8FF002804D0FFE70120C5
:100BD0008DF80700FFE79DF8070006B080BD000014
:100BE00080B586B0059004910392029300208DF8A1
:100BF00007000599049A039B0298EC46CCF8000084
:100C000043F26840C2F2000003F046F9002804D025
:100C1000FFE701208DF80700FFE79DF8070006B009
:100C200080BD0000FFE7FEE780B582B043F2C00060
:100C3000C2F2000043F2F021C2F20001012209F0E9
:100C400009FD002815D0FFE743F2C000C2F2000002
:100C500043F2F021C2F20001012209F0FBFC4DF643
:100C60008271C0F600010190084601990AF0C0F9AE
:100C700006E04DF69C70C0F600000AF0B9F9FFE7F7
:100C800002B080BD80B543F2A830C2F2000001F08E
:100C9000E7F880BD80B543F20840C2F2000001F0E1
:100CA000DFF880BD82B001900198007810384AF6D4
:100CB000AB21CAF6AA21A0FB010109090091009904
:100CC0004BF67012C0F60002515C019AD165009992
:100CD000042907D3FFE701980168042262F30901A0
:100CE000816506E00198016840F2FF329143816519
:100CF000FFE70198806D02B07047000086B0059054
:100D000000208DF813000598806A0390059880698B
:100D1000002823D1FFE70398032802901CD80299EA
:100D2000DFE801F0020E0219059890F82F00C007C5
:100D3000002804D0FFE701208DF81300FFE70CE046
:100D40000598C06AB0F1C07F04D1FFE701208DF89B
:100D50001300FFE701E000E0FFE747E00598806946
:100D6000B0F5005F26D1FFE70398032801901FD854
:100D70000199DFE801F00206021201208DF813004C
:100D800017E0059890F82F00C007002804D0FFE76F
:100D900001208DF81300FFE70BE00598C06AB0F161
:100DA000C07F04D1FFE701208DF81300FFE700E0CA
:100DB000FFE71AE003980328009004D3FFE70098A8
:100DC000032804D00FE001208DF813000CE00598F3
:100DD00090F82F00C007002804D0FFE701208DF80D
:100DE0001300FFE700E0FFE7FFE7FFE79DF81300D0
:100DF00006B0704784B0039002910192009303986B
:100E00000068016821F48021016000980399096855
:100E1000486003988068402809D1FFE7019803994A
:100E200009688860029803990968C86008E0029818
:100E3000039909688860019803990968C860FFE709
:100E400004B07047704700007047000080B582B062
:100E50000190009101980099002200F003F802B07F
:100E600080BD000083B01346029001918DF80320ED
:100E700001208DF8020000208DF8010043F2F820D7
:100E8000C2F20000407A002826DCFFE743F2F82097
:100E9000C2F20000417A002242540299437A00EBE8
:100EA000830359609DF80310437A03441972417A11
:100EB0004B1C43728DF801109DF8010030300199F0
:100EC000087001983A21417001982F218170019892
:100ED000C2708DF80220FFE79DF8020003B0704752
:100EE00085B0049003910292019300200090019834
:100EF000B0F5804F22D1FFE70498029950F8210005
:100F0000009000980021CCF6F07108400090039802
:100F1000016842688368D0F80CC041EA021141EAD6
:100F2000032141EA0C41806908430099084300907D
:100F300000980499029A41F8220006E00498029968
:100F40006FF0704240F82120FFE7002005B07047A5
:100F500083B00290019100200090029801990968E5
:100F600050F82100009000988021CFF6F0710840E1
:100F70000090019841688268C368D0F810C011439E
:100F8000194341EA0C014269114382691143C26964
:100F90001143026A1143426A1143826A1143C26AD1
:100FA0001143C26B1143006B084300990843009042
:100FB00001988068082805D1FFE7009840F04000BC
:100FC0000090FFE700980299019A126841F8220008
:100FD000002003B07047000080B584B003900291F8
:100FE0000192002000900399019A01EB8201496867
:100FF0000091009901F04041009102990A684B6804
:10100000D1F808C0D1F80CE042EA031242EA0C22FF
:1010100042EA0E420B6940F2000CCFF6F07C0CEB7A
:1010200003531A434B69FE3342EA03628969114351
:10103000009A114300910099039A019B02EB8302ED
:10104000516004B080BD000070B590B0DDF850C0B4
:101050009E4614460D460646ADF83E00ADF83C10DF
:10106000ADF83A20ADF83830ADF836C0BDF83600EE
:1010700043F2BC01C2F200010880BDF83E00BDF899
:101080003C10CDF810E003940295019604F08CFE1C
:10109000BDF83A00BDF83E10401A0C90BDF838007B
:1010A000BDF83C10401A0B900C98002803D4FFE7C1
:1010B0000120089006E04FF0FF3008900C98404265
:1010C0000C90FFE70B98002803D4FFE7012007905E
:1010D00006E04FF0FF3007900B9840420B90FFE77F
:1010E0000C9840000A900B98400009900C980B99BE
:1010F000884231DDFFE709980C99401A06900020DC
:101100000590FFE705980C99884224DCFFE7BDF8BD
:101110003E00BDF83C1004F035F9069800280BD4C9
:10112000FFE70A980699081A06900798BDF83C1040
:101130000844ADF83C00FFE709980699084406907A
:101140000898BDF83E100844ADF83E00FFE705984A
:1011500001300590D6E730E00A980B99401A0690C6
:1011600000200590FFE705980B99884224DCFFE7F3
:10117000BDF83E00BDF83C1004F004F906980028C4
:101180000BD4FFE709980699081A06900898BDF84D
:101190003E100844ADF83E00FFE70A98069908445F
:1011A00006900798BDF83C100844ADF83C00FFE7F6
:1011B000059801300590D6E7FFE710B070BD00003C
:1011C00081B0009001B0704785B00390029100207B
:1011D0000190FFE7039890F83C00012804D1FFE755
:1011E00002208DF81300FAE00398012180F83C10EA
:1011F000FFE7FFE7029800680A281CD3FFE7029880
:10120000008800EB40001E38072101FA00F0039926
:101210000968CA6822EA0000C860029881680088EC
:1012200000EB40001E3801FA00F003990968CA6813
:101230001043C86019E00298008800EB40000721C5
:1012400001FA00F0039909680A6922EA00000861BE
:1012500002988168008800EB400001FA00F00399D1
:1012600009680A6910430861FFE702984068062888
:101270001CD8FFE70298406800EB800005381F216A
:1012800001FA00F0039909684A6B22EA00004863FA
:1012900002980188406800EB8000053801FA00F0F0
:1012A000039909684A6B104348633DE0029840681F
:1012B0000C281CD8FFE70298406800EB8000233818
:1012C0001F2101FA00F0039909680A6B22EA000065
:1012D000086302980188406800EB8000233801FA17
:1012E00000F0039909680A6B104308631BE0029839
:1012F000406800EB800041381F2101FA00F003999B
:101300000968CA6A22EA0000C86202980188406837
:1013100000EB8000413801FA00F003990968CA6ABD
:101320001043C862FFE7FFE742F20030C4F2010059
:1013300000900398006842F20001C4F20101884263
:101340000BD1FFE702980068122806D1FFE700984A
:10135000416841F480014160FFE70398006842F270
:101360000001C4F2010188422FD1FFE70298006812
:10137000102805D0FFE702980068112825D1FFE763
:101380000098416841F4000141600298006810280B
:101390001AD1FFE740F21800C2F2000000684DF6D3
:1013A0008361C4F21B31A0FB0101890C01EB8101B7
:1013B00049000191FFE70198002804D0FFE7019858
:1013C00001380190F7E7FFE7FFE7FFE70398002107
:1013D00080F83C10FFE700208DF81300FFE79DF830
:1013E000130005B07047000080B582B001900198ED
:1013F00043F20431C2F2000188420CD1FFE743F20C
:101400000430C2F2000040F28801C2F20001012261
:1014100000F072FAFFE702B080BD000081B00090DA
:1014200001B0704781B0009001B0704780B584B0C2
:101430000390002002900190039800680068C0F3B8
:1014400040000290039800684068C0F3401001908B
:10145000029800284BD0FFE70198002847D0FFE70B
:101460000398006CC006002806D4FFE70398016CBF
:1014700041F400710164FFE703980068806810F090
:10148000405F2BD1FFE70398007E002826D1FFE7BD
:1014900003980068C06A10F4700F07D0FFE7039844
:1014A000006880684005002818D4FFE703980068AA
:1014B000416821F0200141600398016C21F48071A2
:1014C00001640398006CC004002806D4FFE7039869
:1014D000016C41F001010164FFE7FFE70398FFF7AA
:1014E00083FF039800686FF012010160FFE7039823
:1014F00000680068C0F380000290039800684068AC
:10150000C0B2C00901900298002859D0FFE70198A5
:10151000002855D0FFE70398006CC006002806D4C9
:10152000FFE70398016C41F400510164FFE7039861
:101530000068806810F4401F39D1FFE70398006805
:10154000806B10F4401F07D0FFE7039800688068A5
:10155000400500282BD4FFE7039800684068400549
:10156000002824D4FFE703980068806810F0405FEB
:101570001DD1FFE70398007E002818D1FFE70398EC
:101580000068416821F0800141600398016C21F4FA
:10159000805101640398006CC005002806D4FFE761
:1015A0000398016C41F001010164FFE7FFE7039834
:1015B000FFF706FE039800686FF00C010160FFE77B
:1015C00003980068006800F001000290039800682A
:1015D0004068C0F380100190029800281AD0FFE7FD
:1015E0000198002816D0FFE7039800680068C0073C
:1015F00000280ED0FFE70398016C41F480310164AC
:10160000039800F087F8039800686FF0010101600B
:10161000FFE7FFE7039800680068C0F340100290FE
:10162000039800684068C0F3806001900298002829
:1016300017D0FFE70198002813D0FFE70398416C0B
:1016400041F002014164039800686FF020010160DD
:1016500003980091FFF7E6FE039800680099016087
:10166000FFE704B080BD000080B584B00290002088
:101670008DF807000298002804D1FFE701208DF8BB
:101680000F0043E00298806A0121C0F60071884291
:1016900001D0FFE7FFE70298006C00280AD1FFE7BE
:1016A000029800F03BF8029800214164029880F80B
:1016B0003C10FFE70298006CC006002817D4FFE733
:1016C0000298006C40F0020020F4885002990864EF
:1016D0000298FFF749F90298002141640298006CD2
:1016E00040F0010020F002000299086403E00120AC
:1016F0008DF80700FFE7FFE70298002180F83C1013
:10170000FFE79DF807008DF80F00FFE79DF80F0039
:1017100004B080BD81B0009001B0704780B590B03A
:101720000F9000200E900D900C900B900A900F9847
:10173000006842F20001C4F20101884267D1FFE76C
:10174000FFE70020099043F64400C4F2020001685C
:1017500041F480710160006800F48070099009987C
:10176000FFE7FFE70020089043F63000C4F20200D4
:10177000016841F001010160006800F0010008907B
:101780000898FFE701200A9003200B9000200C909E
:101790000021C4F202010AAA05900846114600F091
:1017A000A1FE43F2A830C2F2000046F21041C4F29A
:1017B00002010160059941608160C1604FF480625F
:1017C00002614FF4006242614FF400528261C161D4
:1017D0000162416200F0E6FC002803D0FFE7FFF75A
:1017E00033FBFFE7FFE70F9843F2A831C2F2000195
:1017F00081630F988863FFE7122000210490039112
:10180000039A01F00BF9049801F0FCF872E00F98CC
:10181000006842F20011C4F20101884269D1FFE779
:10182000FFE70020079043F64400C4F2020001687D
:1018300041F400710160006800F40070079007989F
:10184000FFE7FFE70020069043F63000C4F20200F5
:10185000016841F001010160006800F0010006909C
:101860000698FFE702200A9003200B9000200C90BE
:101870000021C4F202010AAA02900846114600F0B3
:1018800031FE43F20840C2F2000046F24041C4F289
:10189000020101604FF00071416002998160C160F6
:1018A0004FF4806202614FF4006242614FF40052D3
:1018B0008261C1610162416200F074FC002803D0C2
:1018C000FFE7FFF7C1FAFFE7FFE70F9843F2084190
:1018D000C2F2000181630F988863FFE712200021A4
:1018E00001900091009A01F099F8019801F08AF8AE
:1018F000FFE7FFE710B080BD80B586B0049003918C
:10190000029200200190FFE7049890F83C00012823
:1019100004D1FFE702208DF81700F6E004980121BA
:1019200080F83C10FFE7FFE7049800688068C00774
:1019300000281FD1FFE704980068816841F0010189
:10194000816040F21800C2F2000000684DF6836129
:10195000C4F21B31A0FB0101890C01EB4101019193
:10196000FFE70198002804D0FFE7019801380190B3
:10197000F7E7FFE7049800688068C007002800F0D8
:10198000C080FFE70498006C40F4807040F2016171
:10199000884304990864049800684068400500285A
:1019A00009D5FFE70498006C40F4805020F4005003
:1019B00004990864FFE70498006CC004002806D569
:1019C000FFE70498416C21F00601416403E00498AC
:1019D00000214164FFE7FFE70498002180F83C10F4
:1019E000FFE742F20030C4F2010000900498806BDF
:1019F00040F65101C0F60001C1630498806B40F6C7
:101A00003511C0F6000101640498806B40F60D1199
:101A1000C0F60001C164049800686FF02201016003
:101A200004980068416841F0806141600498006852
:101A3000816841F48071816004980168806B4C3149
:101A4000039A029B00F06AFC00994968C9060029C4
:101A50003ED1FFE70498006842F20001C4F20101A0
:101A6000884225D0FFE70498006842F20011C4F2D2
:101A70000101884209D1FFE742F20430C4F20100BB
:101A80000068C006002813D0FFE70498006842F2FF
:101A90000021C4F20101884219D1FFE742F204306B
:101AA000C4F20100006800F01F000F280FD8FFE704
:101AB00004980068806810F0405F07D1FFE7049841
:101AC0000068816841F080418160FFE7FFE717E02F
:101AD0000498006842F20001C4F2010188420ED16C
:101AE000FFE704980068806810F0405F07D1FFE7C7
:101AF00004980068816841F080418160FFE7FFE75A
:101B0000FFE700208DF81700FFE79DF8170006B0EB
:101B100080BD000080B584B0029000208DF80700E1
:101B2000FFE7029890F83C00012804D1FFE702206B
:101B30008DF80F0038E00298012180F83C10FFE793
:101B4000FFE702980068816821F001018160029836
:101B500000688068C00700281BD1FFE70298006872
:101B6000816821F4807181600298806B00F0DCF85C
:101B70008DF8070002980068416821F0806141609B
:101B80000298006C40F0010020F48850029908642B
:101B9000FFE7FFE70298002180F83C10FFE79DF87F
:101BA00007008DF80F00FFE79DF80F0004B080BD1F
:101BB00086B0049003910292002001900090FFE70C
:101BC00004984079012804D1FFE702208DF817001E
:101BD00039E0049801214171FFE7FFE704980221F1
:101BE00001710498006800680190029840F6FE7147
:101BF00001FA00F0019921EA0000019003980168C0
:101C00004068084300900098029988400199084371
:101C1000019001980499096808600298C02101FAAE
:101C200000F0049909680A6822EA00000860049834
:101C300001210171FFE7049800214171FFE70020B5
:101C40008DF81700FFE79DF8170006B070470000F9
:101C500080B582B000900098002804D1FFE70120F1
:101C60008DF8070017E000980079002807D1FFE7FA
:101C7000009800214171009800F012F8FFE70098E9
:101C80000221017100980021016100980122027176
:101C90008DF80710FFE79DF8070002B080BD000037
:101CA00080B588B0079000200690059004900390BE
:101CB00002900798006847F20041C4F20001884290
:101CC0002FD1FFE7FFE70020019043F64000C4F268
:101CD0000200016841F000510160006800F000500E
:101CE00001900198FFE7FFE70020009043F63000E5
:101CF000C4F20200016841F001010160006800F0D7
:101D0000010000900098FFE710200290032003904C
:101D1000002004900020C4F2020002A900F0E2FBBF
:101D2000FFE708B080BD000080B584B00290029843
:101D3000806D019000F0D2FD0090029890F835007F
:101D400002280DD0FFE7029880214165FFE7029845
:101D5000002180F83410FFE701208DF80F0058E0D3
:101D600002980068016821F016010160029800687D
:101D7000416921F0800141610298006C002805D181
:101D8000FFE70298806C002807D0FFE70298006800
:101D9000016821F008010160FFE70298006801680E
:101DA00021F001010160FFE7029800680068C007A8
:101DB000002818D0FFE700F091FD0099401A06288E
:101DC00010D3FFE7029820214165FFE70298002128
:101DD00080F83410FFE70298032180F835108DF861
:101DE0000F1016E0E0E70298C06D3F2101FA00F005
:101DF00001998860FFE70298002180F83410FFE71E
:101E00000298012180F83510FFE700208DF80F00BF
:101E1000FFE79DF80F0004B080BD000082B0009085
:101E2000009890F83500022807D0FFE7009880213D
:101E3000416501208DF807000EE00098052180F82B
:101E4000351000980068016821F001010160FFE78A
:101E500000208DF80700FFE79DF8070002B07047EB
:101E600080B586B005900020039040F21800C2F2C1
:101E70000000006848F2B511C1F64E31A0FB010127
:101E8000890A02910599896D019101990968049166
:101E90000499059AD26DD140090700291BD5FFE7A7
:101EA0000598006800684007002813D5FFE70598EB
:101EB0000068016821F0040101600598C06D0821E7
:101EC00001FA00F0019988600598416D41F0010127
:101ED0004165FFE7FFE704980599C96DC840C00751
:101EE000002815D0FFE70598006840690006002823
:101EF0000DD5FFE70598C06D012101FA00F00199A9
:101F000088600598416D41F002014165FFE7FFE7F8
:101F100004980599C96DC8404007002815D5FFE70A
:101F2000059800680068800700280DD5FFE7059830
:101F3000C06D042101FA00F0019988600598416D97
:101F400041F004014165FFE7FFE704980599C96D79
:101F5000C840C00600284BD5FFE705980068006818
:101F60000007002843D5FFE70598C06D102101FA4E
:101F700000F0019988600598006800684003002817
:101F80001CD5FFE7059800680068000300280AD404
:101F9000FFE70598006C002804D0FFE70598016C66
:101FA0008847FFE709E00598806C002804D0FFE728
:101FB0000598816C8847FFE7FFE717E00598006800
:101FC0000068C005002807D4FFE70598006801688D
:101FD00021F008010160FFE70598006C002804D09B
:101FE000FFE70598016C8847FFE7FFE7FFE7FFE79A
:101FF00004980599C96DC8408006002840F1958075
:10200000FFE7059800680068C006002840F18C8052
:10201000FFE70598C06D202101FA00F00199886062
:10202000059890F83500052838D1FFE70598006835
:10203000016821F01601016005980068416921F0EE
:10204000800141610598006C002805D1FFE70598E3
:10205000806C002807D0FFE705980068016821F030
:1020600008010160FFE70598C06D3F2101FA00F00B
:1020700001998860FFE70598002180F83410FFE798
:102080000598012180F835100598006D002804D0CE
:10209000FFE70598016D8847FFE781E00598006834
:1020A0000068400300281CD5FFE705980068006819
:1020B000000300280AD4FFE70598406C002804D0EC
:1020C000FFE70598416C8847FFE709E00598C06B7A
:1020D000002804D0FFE70598C16B8847FFE7FFE7BA
:1020E00021E0059800680068C005002811D4FFE7CA
:1020F00005980068016821F010010160FFE705986C
:10210000002180F83410FFE70598012180F8351090
:10211000FFE70598C06B002804D0FFE70598C16B66
:102120008847FFE7FFE7FFE7FFE70598406D0028D6
:1021300036D0FFE70598406DC007002826D0FFE79E
:102140000598052180F8351005980068016821F090
:1021500001010160FFE70398013003900299884272
:1021600001D9FFE707E0FFE7059800680068C007AE
:102170000028F0D1FFE7FFE70598002180F8341030
:10218000FFE70598012180F83510FFE70598C06C3E
:10219000002804D0FFE70598C16C8847FFE7FFE7F8
:1021A00006B080BD80B586B004900020039000F09A
:1021B00095FB02900498002804D1FFE701208DF8D8
:1021C0001700A7E00498406A002801D0FFE7FFE766
:1021D000FFE70498002180F83410FFE704980221FB
:1021E00080F8351004980068016821F00101016051
:1021F000FFE7049800680068C007002812D0FFE7D6
:1022000000F06CFB0299401A06280AD3FFE70498F5
:10221000202141650498032180F835108DF81710AE
:1022200078E0E6E70498006800680390039848F2B5
:102230003F01CFF210010840039004984168826882
:10224000C368D0F810C01143194341EA0C01426938
:10225000114382691143C2691143006A084303991B
:10226000084303900498406A042808D1FFE70498C3
:10227000C16A006B0843039908430390FFE7039882
:1022800004990968086004980068406903900398FD
:1022900020F0070003900498406A039908430390D4
:1022A0000498406A04281CD1FFE70498806A0399C7
:1022B000084303900498C06A002811D0FFE70498EF
:1022C000FEF71CFD00280AD0FFE704984021416575
:1022D0000498012180F835108DF817101AE0FFE7F7
:1022E000FFE703980499096848610498FEF7DAFC4F
:1022F00001900498C06D3F2101FA00F001998860B7
:102300000498002141650498012280F835208DF859
:102310001710FFE79DF8170006B080BD80B588B0A4
:10232000069005910492039300208DF80B00069807
:10233000806D0190FFE7069890F83400012804D1E1
:10234000FFE702208DF81F004DE00698012180F87C
:102350003410FFE7FFE7069890F83500012833D1E5
:10236000FFE70698022180F83510069800214165A4
:1023700006980599049A039BFEF73CFD0698C06DEC
:102380003F2101FA00F00199886006980068016811
:1023900041F01601016006980068416941F0800132
:1023A00041610698006C002807D0FFE70698006896
:1023B000016841F008010160FFE7069800680168C4
:1023C00041F00101016009E0FFE70698002180F873
:1023D0003410FFE702208DF80B00FFE79DF80B009B
:1023E0008DF81F00FFE79DF81F0008B080BD0000BA
:1023F00080B584B0039000F071FA029003980190C8
:1024000001980130002809D0FFE740F27C00C2F2B9
:1024100000000078019908440190FFE7FFE700F011
:102420005DFA0299401A0199884201D2FFE7F6E766
:1024300004B080BD80B58CB000200B900A9009904C
:102440000890079043F28C00C2F200000068002858
:1024500001D0FFE744E043F28C00C2F2000001210A
:102460000160FFE70020069043F63800C4F2020046
:10247000016841F001010160006800F00100069070
:102480000698FFE74FF68070079002200890002121
:10249000099103220A920C230B9341F2000CC4F21F
:1024A000020C0DF11C0E05906046049171460392DA
:1024B0000293CDF804E000F015F84EF2B3700790E7
:1024C0000598089004990991039A0A92029B0B932C
:1024D00040F60040C4F20200019900F003F8FFE763
:1024E0000CB080BD8EB00D900C9100200A90099028
:1024F00008900B90FFE70B980F2800F2D381FFE7BD
:102500000B98012101FA00F00A900C9800680A99D2
:102510000840099009980A99884240F0BE81FFE777
:102520000C984068022805D0FFE70C9840681228F4
:1025300026D1FFE70D980B996FF0030202EA5101D3
:102540000844006A08900B9800F0070080000F21F3
:1025500001FA00F0089921EA000008900C9800693F
:102560000B9901F0070189008840089908430890F9
:1025700008980D990B9B02EA530211440862FFE789
:102580000D98006808900B984000032101FA00F0B4
:10259000089921EA000008900C98406800F00300B8
:1025A0000B994900884008990843089008980D99AC
:1025B00008600C98406801280FD0FFE70C9840682D
:1025C00002280AD0FFE70C984068112805D0FFE7E1
:1025D0000C98406812282FD1FFE70D98806808906A
:1025E0000B984000032101FA00F0089921EA00004D
:1025F00008900C98C0680B994900884008990843D6
:10260000089008980D9988600D98406808900B987C
:10261000012101FA00F0089921EA000008900C98C5
:102620004068C0F300100B9988400899084308904F
:1026300008980D994860FFE70D98C06808900B98BE
:102640004000032101FA00F0089921EA00000890F7
:102650000C9880680B9949008840089908430890B5
:1026600008980D99C8600C98C079C006002840F100
:102670001381FFE7FFE70020079043F64400C4F210
:102680000200016841F480410160006800F480406C
:1026900007900798FFE70B9820F0030043F6080126
:1026A000C4F20101405808900B9800F0030080002C
:1026B0000F2101FA00F0089921EA000008900D9816
:1026C0000021C4F20201884203D1FFE700200690F6
:1026D0005EE00D9840F20041C4F20201884203D14D
:1026E000FFE70120059050E00D9840F60001C4F28C
:1026F0000201884203D1FFE70220049042E00D98D6
:1027000040F60041C4F20201884203D1FFE70320F2
:10271000039034E00D9841F20001C4F202018842B6
:1027200003D1FFE70420029026E00D9841F200411A
:10273000C4F20201884203D1FFE70520019018E0AE
:102740000D9841F60001C4F20201884203D1FFE76F
:10275000062000900AE00D9841F60041C4F2020103
:102760000822884208BF07220092FFE700980190E4
:10277000FFE701980290FFE702980390FFE70398B4
:102780000490FFE704980590FFE705980690FFE79F
:102790000698C0B20B9901F003018900884008999E
:1027A0000843089008980B9921F0030143F60802AA
:1027B000C4F20102885043F60040C4F201000068F0
:1027C00008900998089921EA000008900C988079EF
:1027D000C007002805D0FFE709980899084308902A
:1027E000FFE7089843F60041C4F20101086043F690
:1027F0000440C4F20100006808900998089921EA91
:10280000000008900C9880798007002805D5FFE724
:102810000998089908430890FFE7089843F604418F
:10282000C4F20101086043F60840C4F201000068E8
:1028300008900998089921EA000008900C9880797E
:10284000C006002805D5FFE70998089908430890B5
:10285000FFE7089843F60841C4F20101086043F617
:102860000C40C4F20100006808900998089921EA18
:10287000000008900C9880798006002805D5FFE7B5
:102880000998089908430890FFE7089843F60C4117
:10289000C4F201010860FFE7FFE7FFE70B98013092
:1028A0000B9028E60EB0704782B013468C4601901C
:1028B000ADF802108DF801209DF80100002805D028
:1028C000FFE7BDF802000199886105E0BDF802004C
:1028D000000401998861FFE702B0704743F24C6041
:1028E000C2F200000068704740F27C00C2F20000B3
:1028F000007843F24C61C2F200010A68104408609B
:102900007047000080B582B043F60040C4F2020078
:10291000016841F400710160016841F48061016067
:10292000016841F480710160032000F097F80020F5
:10293000019000F007F8009000F03EF8019802B016
:1029400080BD000080B582B0009040F21800C2F255
:102950000000006840F27C01C2F2000109784FF4E7
:102960007A72B2FBF1F1B0FBF1F001F06BFC0028E0
:1029700004D0FFE701208DF8070018E000980F2829
:102980000DD8FFE700994FF0FF30002200F046F825
:10299000009840F28001C2F20001086003E00120CB
:1029A0008DF8070003E000208DF80700FFE79DF891
:1029B000070002B080BD000082B0FFE70020019058
:1029C00043F64400C4F20200016841F48041016012
:1029D000006800F4804001900198FFE7FFE70020C5
:1029E000009043F64000C4F20200016841F08051BB
:1029F0000160006800F0805000900098FFE702B08E
:102A00007047000080B582B001468DF807009DF93F
:102A10000700009106F07CFD02B080BD80B588B053
:102A200003468DF81F000691059200200490039341
:102A300006F088FD04909DF91F000499069A059BF5
:102A40000290084611461A4603F064FF029901906D
:102A50000846019906F07EFD08B080BD80B582B0C1
:102A60000190019806F098FD02B080BD80B586B057
:102A7000049003910498002804D1FFE701208DF809
:102A800017001EE1039843F60041C4F202010968F1
:102A900001F00F01884212D9FFE7039843F6004185
:102AA000C4F202010870086800F00F000399884220
:102AB00004D0FFE701208DF8170002E1FFE704983A
:102AC0000078800700282AD5FFE70498007840079F
:102AD000002809D5FFE743F60800C4F202000168A8
:102AE00041F4E0510160FFE70498007800070028F6
:102AF00009D5FFE743F60800C4F20200016841F47B
:102B000060410160FFE743F60800C4F2020001687B
:102B100021F0F001049A926811430160FFE70498E4
:102B20000078C00700286ED0FFE7049840680128AD
:102B300011D1FFE743F60000C4F20200006800F480
:102B400000300021B1EB504F04D1FFE701208DF898
:102B50001700B6E02CE004984068022805D0FFE793
:102B600004984068032811D1FFE743F60000C4F23F
:102B70000200006800F000700021B1EB506F04D13A
:102B8000FFE701208DF817009BE010E043F60000FE
:102B9000C4F20200006800F002000021B1EB500F07
:102BA00004D1FFE701208DF817008AE0FFE7FFE777
:102BB00043F60800C4F20200016821F00301049A00
:102BC000526811430160FFF789FE0290FFE743F668
:102BD0000800C4F20200006800F00C000499496883
:102BE000B0EB810F0ED0FFE7FFF778FE0299401A95
:102BF00041F28931884204D3FFE703208DF81700A2
:102C00005FE0E4E7FFE7039843F60041C4F2020106
:102C1000096801F00F01884212D2FFE7039843F6DA
:102C20000041C4F202010870086800F00F00039927
:102C3000884204D0FFE701208DF8170041E0FFE74C
:102C400004980078400700280CD5FFE743F60800F9
:102C5000C4F20200016821F4E051049AD2681143E1
:102C60000160FFE704980078000700280DD5FFE712
:102C700043F60800C4F20200016821F46041049A9E
:102C8000126941EAC2010160FFE700F049F843F62A
:102C90000801C4F202010968C9B209094BF65812C9
:102CA000C0F60002515CC84040F21801C2F20001B7
:102CB000086000200190FFF745FE01998DF817107C
:102CC000FFE79DF8170006B080BD000040F2180035
:102CD000C2F200000068704780B5FFF7F7FF43F6C7
:102CE0000801C4F202010968C1F382214BF668129F
:102CF000C0F60002515CC84080BD000080B5FFF7FF
:102D0000E5FF43F60801C4F20201096889B2490BE4
:102D10004BF66812C0F60002515CC84080BD00004E
:102D200080B586B00020059004900390029043F691
:102D30000800C4F20200006800F00C000146002800
:102D4000019108D0FFE7019804280AD0FFE7019815
:102D500008280CD04FE042F20040C0F2F40002908C
:102D60004FE047F64000C0F27D10029049E043F684
:102D70000400C4F20200016801F03F0105910068FF
:102D80004002002813D5FFE743F60400C4F2020016
:102D90000068C0F3881047F64001C0F27D11A0FB27
:102DA0000101059A0023FDF70BFA049012E043F6A7
:102DB0000400C4F202000068C0F3881042F200412F
:102DC000C0F2F401A0FB0101059A0023FDF7F8F918
:102DD0000490FFE743F60400C4F20200006800F428
:102DE0004030022101EBD030039004980399B0FBEE
:102DF000F1F0029005E042F20040C0F2F4000290CF
:102E0000FFE7029806B080BD80B586B004900498B4
:102E1000002804D1FFE701208DF817000EE3049885
:102E20000078C007002800F0A780FFE743F60800FD
:102E3000C4F20200006800F00C00042813D0FFE781
:102E400043F60800C4F20200006800F00C000828F5
:102E50001FD1FFE743F60400C4F2020000684002FD
:102E6000002816D5FFE743F60000C4F20200006810
:102E700000F400300021B1EB504F09D0FFE7049877
:102E80004068002804D1FFE701208DF81700D5E243
:102E900071E0FFE704984068B0F5803F09D1FFE793
:102EA00043F60000C4F20200016841F48031016081
:102EB00020E004984068B0F5A02F0DD1FFE743F65D
:102EC0000000C4F20200016841F480210160016841
:102ED00041F4803101600CE043F60000C4F20200CE
:102EE000016821F480310160016821F480210160D2
:102EF000FFE7FFE7FFE70498406800281DD0FFE7E1
:102F0000FFF7ECFC0390FFE743F60000C4F2020079
:102F1000006800F400300021B1EB504F0CD1FFE706
:102F2000FFF7DCFC0399401A652804D3FFE7032070
:102F30008DF8170082E2E7E71CE0FFF7CFFC039073
:102F4000FFE743F60000C4F20200006800F400301E
:102F50000021B1EB504F0CD0FFE7FFF7BFFC039906
:102F6000401A652804D3FFE703208DF8170065E2B7
:102F7000E7E7FFE7FFE7FFE704980078800700280E
:102F800040F19780FFE743F60800C4F202000068B2
:102F900010F00C0F13D0FFE743F60800C4F2020054
:102FA000006800F00C0008282CD1FFE743F604006D
:102FB000C4F2020000684002002823D4FFE743F671
:102FC0000000C4F20200006800F002000021B1EB32
:102FD000500F09D0FFE70498C068012804D0FFE72C
:102FE00001208DF8170029E243F60000C4F2020028
:102FF000016821F0F801049A126941EAC2010160F6
:10300000FFE755E00498C06800282ED0FFE70020B5
:10301000C4F2472001210160FFF760FC0390FFE745
:1030200043F60000C4F20200006800F00200002134
:10303000B1EB500F0CD1FFE7FFF750FC0399401A9A
:10304000032804D3FFE703208DF81700F6E1E7E734
:1030500043F60000C4F20200016821F0F801049A6E
:10306000126941EAC201016021E00020C4F2472058
:1030700000210160FFF732FC0390FFE743F60000F8
:10308000C4F20200006800F002000021B1EB500F12
:103090000CD0FFE7FFF722FC0399401A032804D362
:1030A000FFE703208DF81700C8E1E7E7FFE7FFE738
:1030B000FFE704980078000700284CD5FFE7049844
:1030C0004069002823D0FFE740F68060C4F2472023
:1030D00001210160FFF702FC0390FFE743F6740053
:1030E000C4F20200006800F002000021B1EB500FB2
:1030F0000CD1FFE7FFF7F2FB0399401A032804D332
:10310000FFE703208DF8170098E1E7E722E040F69B
:103110008060C4F2472000210160FFF7DFFB0390CD
:10312000FFE743F67400C4F20200006800F00200FA
:103130000021B1EB500F0CD0FFE7FFF7CFFB039955
:10314000401A032804D3FFE703208DF8170075E128
:10315000E7E7FFE7FFE7049800784007002840F121
:10316000CF80FFE700208DF80B0043F64000C4F24B
:1031700002000068C000002815D4FFE7FFE7002028
:10318000019043F64000C4F20200016841F0805112
:103190000160006800F0805001900198FFE7012075
:1031A0008DF80B00FFE747F20000C4F20000006852
:1031B000C005002822D4FFE747F20000C4F2000057
:1031C000016841F480710160FFF788FB0390FFE71D
:1031D00047F20000C4F200000068C00500280CD4CB
:1031E000FFE7FFF77BFB0399401A032804D3FFE7AF
:1031F00003208DF8170021E1EAE7FFE7FFE70498D5
:103200008068012809D1FFE743F67000C4F202008C
:10321000016841F0010101601FE004988068052801
:103220000DD1FFE743F67000C4F20200016841F0DF
:1032300004010160016841F0010101600CE043F606
:103240007000C4F20200016821F001010160016810
:1032500021F004010160FFE7FFE7FFE704988068C1
:1032600000281FD0FFE7FFF739FB0390FFE743F685
:103270007000C4F20200006800F002000021B1EB0F
:10328000500F0ED1FFE7FFF729FB0399401A41F2D7
:103290008931884204D3FFE703208DF81700CDE081
:1032A000E5E71EE0FFF71AFB0390FFE743F6700027
:1032B000C4F20200006800F002000021B1EB500FE0
:1032C0000ED0FFE7FFF70AFB0399401A41F289315C
:1032D000884204D3FFE703208DF81700AEE0E5E74E
:1032E000FFE79DF80B00012809D1FFE743F64000F6
:1032F000C4F20200016821F080510160FFE7FFE79E
:1033000004988069002800F09580FFE743F60800E4
:10331000C4F20200006800F00C00082800F085806C
:10332000FFE70498806902285CD1FFE76020C4F2BF
:10333000472000210160FFF7D1FA0390FFE743F631
:103340000000C4F20200006800F000700021B1EB40
:10335000506F0CD0FFE7FFF7C1FA0399401A03281A
:1033600004D3FFE703208DF8170067E0E7E7049830
:10337000C169026A436AD0F828C0114341EA831147
:103380004FEACC324FF6FF739A43A2F580321143D5
:10339000C06A41EA006043F60401C4F20201086019
:1033A0006020C4F2472001210160FFF797FA0390E3
:1033B000FFE743F60000C4F20200006800F000706E
:1033C0000021B1EB506F0CD1FFE7FFF787FA0399AB
:1033D000401A032804D3FFE703208DF817002DE0DF
:1033E000E7E721E06020C4F2472000210160FFF7F9
:1033F00075FA0390FFE743F60000C4F2020000688C
:1034000000F000700021B1EB506F0CD0FFE7FFF728
:1034100065FA0399401A032804D3FFE703208DF8C7
:1034200017000BE0E7E7FFE703E001208DF8170046
:1034300004E0FFE700208DF81700FFE79DF8170074
:1034400006B080BDB0B58EB00C900B9100200490FA
:103450000C98032180F834100C98406C032831D06C
:10346000FFE70B98B0F5805F06D1FFE70C98816B02
:1034700041F08051816324E00B98B0F5006F0AD1D0
:10348000FFE70C9804F040FC049004980C998A6BB8
:103490001043886314E00B9800280AD1FFE70C98CA
:1034A00004F0E2FB049004980C998A6B1043886343
:1034B00005E00C98816B41F000618163FFE7FFE755
:1034C000FFE705E00C98816B41F080518163FFE7D5
:1034D0000C98806B00280CD0FFE70C98006840F235
:1034E000FF5181630C98012180F834108DF837105A
:1034F0002BE00C98406805900C98806806900C981A
:10350000C06807900B9808900C98406909900C9837
:1035100080690A900C9800680599069A079BDDF867
:1035200020C0DDF824E00A9C6D46AC60C5F804E0DC
:10353000C5F800C003F0DCFBFFE70C98012180F820
:10354000341000208DF83700FFE79DF837000EB0EB
:10355000B0BD000084B0029001910020009002995B
:1035600091F8671000919DF800108909019A117077
:103570000099C1F38301019A5170009901F0030190
:10358000019A9170029991F8661000910099019A40
:10359000D170029991F8651000910099019A11710A
:1035A000029991F8641000910099019A5171029961
:1035B00091F86B10009100990901019AD18002994C
:1035C00091F86A1000919DF80010019AD38843EA9F
:1035D0001111D180009901F00F01019A1172029925
:1035E00091F8691000919DF80010C909019A517273
:1035F0000099C1F38011019A91720099C1F34011B1
:10360000019AD1720099C1F30011019A11730199C5
:1036100048730298406C002864D1FFE7009800F0DE
:103620000300800201990861029890F868000090F8
:10363000009801990A6942EA80000861029890F8AE
:103640006F0000909DF8000001990A6942EA90100D
:1036500008610098C0F3C20001990875009800F055
:10366000070001994875029890F86E0000909DF847
:1036700000004009019988750098C0F38200019903
:10368000C875009800F00300400001990876029880
:1036900090F86D0000909DF8000001990A7E42EAC2
:1036A000D0100876019800690130029948650198A8
:1036B000007E0230012101FA00F0029A536D584356
:1036C00050650198007A01FA00F002998865029825
:1036D000416D826D520A5143C16502984FF40071E9
:1036E000016648E00298406C012832D1FFE7029859
:1036F00090F868000090009800F03F0000040199E5
:103700000861029890F86F000090009801990A698A
:1037100042EA00200861029890F86E00009000983C
:1037200001990A6910430861029890F86D000090B1
:10373000019800694FF4806101EB8020029948658F
:103740000299C86502984FF400718165029801667C
:1037500010E00298006840F2FF5181630298816B8B
:1037600041F0805181630298012180F834108DF876
:103770000F1088E0FFE70098C0F3801001994876A9
:10378000009800F03F00400001998876029890F878
:103790006C0000909DF8000001998A7E42EAD010EA
:1037A0008876009800F07F000199C876029890F81A
:1037B000730000909DF80000C009019908770098F7
:1037C000C0F34110019948770098C0F38200019935
:1037D0008877009800F0030080000199C87702986C
:1037E00090F8720000909DF800000199CA7F42EAAB
:1037F0009010C8770098C0F34010019981F820001C
:103800000198002180F82110009800F00100019A31
:1038100082F82200029890F8710000909DF8000054
:10382000C009019A82F823000098C0F38010019A21
:1038300082F824000098C0F34010019A82F8250015
:103840000098C0F30010019A82F826000098C0F397
:103850008100019A82F82700009800F00300019A85
:1038600082F82800029890F8700000909DF80000FF
:103870004008019A82F829000198012280F82A2044
:103880008DF80F10FFE79DF80F0004B0704700009F
:1038900082B0019000910198406C009908600198F5
:1038A000806C009948600198C06C0099886001980C
:1038B000006D0099C8600198406D009908610198F9
:1038C000806D009948610198C06D009988610198E8
:1038D000006E0099C861002002B0704780B584B0C6
:1038E000039004208DF80B000020019000900398B5
:1038F000694604F08BF901900198002806D0FFE793
:10390000019803998A6B10438863FFE70098C0F31E
:1039100043208DF80B009DF80B0004B080BD000023
:1039200080B582B000900098002804D1FFE7012004
:103930008DF807001FE0009890F83400002807D1A8
:10394000FFE7009800210177009800F081F8FFE779
:103950000098032180F83410009800F011F80099C5
:1039600000228A6300990A630099012381F83430A8
:103970008DF80720FFE79DF8070002B080BD00002A
:1039800070B590B00E9000200D90079008900990AF
:103990000A900B9076210C910E990968079A089B62
:1039A000DDF824C0DDF828E00B9C0C9D6E46B56068
:1039B0007460C6F800E00690084611461A46634651
:1039C00003F096F948F2A001C4F22521069A0A6094
:1039D0000E9B1B6805901846049103F0B9F901216C
:1039E000049A1160022103900846FEF701FD0E982B
:1039F00004F056F80D900D9800280CD0FFE70E98B3
:103A0000012180F834100D980E9A936B184390633F
:103A10008DF83F1017E00E9803F07AFF0D900D9887
:103A200000280CD0FFE70E98012180F834100D9883
:103A30000E9A936B184390638DF83F1003E00020BB
:103A40008DF83F00FFE79DF83F0010B070BD00000B
:103A500080B58EB00D9000200C900B900A900990CC
:103A600008900D98006842F60041C4F201018842B6
:103A700060D1FFE7FFE70020079043F64400C4F25F
:103A80000200016841F400610160006800F4006018
:103A900007900798FFE7FFE70020069043F6300005
:103AA000C4F20200016841F004010160006800F006
:103AB000040006900698FFE7FFE70020059043F614
:103AC0003000C4F20200016841F0080101600068A2
:103AD00000F0080005900598FFE74FF4F8500890B3
:103AE0000220099000210A9103220B920C230C93CF
:103AF00040F6000CC4F2020C0DF1200E049060465A
:103B00000391714602920193CDF800E0FEF7EAFCC2
:103B1000042008900498099003990A91029A0B9244
:103B2000019B0C9340F60040C4F202000099FEF79E
:103B3000D9FCFFE70EB080BD80B592B0DDF850C073
:103B400010900F910E920D9300200690CDF808C0B2
:103B50000190FEF7C3FE0590019804900F99039120
:103B60000F99002909D1FFE71098816B41F000619E
:103B7000816301208DF8470089E1109890F83400A6
:103B8000012840F07B81FFE71098002181630E98A7
:103B90000D9908441099C96D884209D9FFE710981A
:103BA000816B41F00071816301208DF847006EE167
:103BB0001098032180F83410109800680021C16229
:103BC0001098406C012804D0FFE70E9840020E9038
:103BD000FFE7109800684FF4007103F03BF906907E
:103BE0000698002811D0FFE71098006840F2FF51B6
:103BF0008163069810998A6B10438863109801219D
:103C000080F834108DF8471041E14FF0FF300790F5
:103C10000D98400208909020099002200A90002000
:103C20000B9001200C901098006807A903F01EF873
:103C30000D9902290AD3FFE7109802210163109819
:103C400000680E9903F082F9069009E010980121AE
:103C50000163109800680E9903F09AF90690FFE747
:103C60000698002811D0FFE71098006840F2FF5135
:103C70008163069810998A6B10438863109801211C
:103C800080F834108DF8471001E1FFE710980068C4
:103C9000406B40F22A3108423ED1FFE7109800689D
:103CA000406B0004002818D5FFE700200490FFE7D0
:103CB000049807280DD8FFE71098006803F050F823
:103CC0000399049A41F82200FFE704980130049018
:103CD000EEE7039820300390FFE71498002808D0FF
:103CE000FFE7FEF7FBFD0599401A1499884212D3AD
:103CF000FFE71098006840F2FF5181631098816BD4
:103D000041F0004181631098012180F834100320B4
:103D10008DF84700BBE0B9E710980068406BC0051C
:103D2000002825D5FFE70D98022821D3FFE710983A
:103D3000406C03281BD0FFE71098006803F00EFAD0
:103D400006900698002811D0FFE71098006840F20E
:103D5000FF518163069810998A6B1043886310980D
:103D6000012180F834108DF8471090E0FFE7FFE75D
:103D700010980068406B0007002811D5FFE71098E5
:103D8000006840F2FF5181631098816B41F0080197
:103D900081631098012180F834108DF8471076E087
:103DA00010980068406B8007002811D5FFE7109835
:103DB000006840F2FF5181631098816B41F002016D
:103DC00081631098012180F834108DF847105EE06F
:103DD00010980068406B8006002811D5FFE7109806
:103DE000006840F2FF5181631098816B41F020011F
:103DF00081631098012180F834108DF8471046E057
:103E0000FFE7FFE7FFE710980068406B800200289B
:103E100027D5FFE71098006802F0A2FF0399086019
:103E20000398043003901498002808D0FFE7FEF7A9
:103E300055FD0599401A1499884211D3FFE710984F
:103E4000006840F2FF5181631098816B41F000419E
:103E500081631098012180F834108DF8471016E026
:103E6000D1E71098006840F2FF518163109801215A
:103E700080F8341000208DF8470008E01098816B1E
:103E800041F00051816301208DF84700FFE79DF864
:103E9000470012B080BD000080B592B0DDF850C080
:103EA00010900F910E920D9300200690CDF808C04F
:103EB0000190FEF713FD0590019804900F9903916E
:103EC0000F99002909D1FFE71098816B41F000613B
:103ED000816301208DF8470059E1109890F8340073
:103EE000012840F04B81FFE71098002181630E9874
:103EF0000D9908441099C96D884209D9FFE71098B7
:103F0000816B41F00071816301208DF847003EE133
:103F10001098032180F83410109800680021C162C5
:103F20001098406C012804D0FFE70E9840020E90D4
:103F3000FFE7109800684FF4007102F08BFF0690C5
:103F40000698002811D0FFE71098006840F2FF5152
:103F50008163069810998A6B104388631098012139
:103F600080F834108DF8471011E10D9802280AD31B
:103F7000FFE7109820210163109800680E9903F064
:103F80000FF9069009E0109810210163109800685D
:103F90000E9903F027F90690FFE70698002811D044
:103FA000FFE71098006840F2FF518163069810996E
:103FB0008A6B104388631098012180F834108DF8C3
:103FC0004710E4E04FF0FF3007900D984002089052
:103FD0009020099000200A900B9001200C901098DE
:103FE000006807A902F042FEFFE710980068406BE6
:103FF00040F21A3108423ED1FFE710980068406B4A
:104000004004002818D5FFE700200490FFE704983B
:1040100007280DD8FFE7109800680399049A01EB70
:10402000820102F0C7FEFFE7049801300490EEE73A
:10403000039820300390FFE71498002808D0FFE78A
:10404000FEF74CFC0599401A1499884212D3FFE7F9
:104050001098006840F2FF518163069810998A6BAE
:10406000104388631098012180F8341003208DF8E4
:1040700047008CE0B9E710980068406BC005002845
:1040800025D5FFE70D98022821D3FFE71098406C53
:1040900003281BD0FFE71098006803F05FF8069034
:1040A0000698002811D0FFE71098006840F2FF51F1
:1040B0008163069810998A6B1043886310980121D8
:1040C00080F834108DF8471061E0FFE7FFE71098A3
:1040D0000068406B0007002811D5FFE710980068C2
:1040E00040F2FF5181631098816B41F008018163B8
:1040F0001098012180F834108DF8471047E010988F
:104100000068406B8007002811D5FFE71098006811
:1041100040F2FF5181631098816B41F0020181638D
:104120001098012180F834108DF847102FE0109876
:104130000068406BC006002811D5FFE710980068A2
:1041400040F2FF5181631098816B41F0100181634F
:104150001098012180F834108DF8471017E0FFE720
:10416000FFE71098006840F2FF5181631098012129
:1041700080F8341000208DF8470008E01098816B1B
:1041800041F00051816301208DF84700FFE79DF861
:10419000470012B080BD000080B58AB0089007913A
:1041A00006920898002804D1FFE701208DF8270027
:1041B0003BE0089890F84900002808D1FFE70898EC
:1041C000002180F84810089800F034F8FFE70898BC
:1041D00050F8081B059008460599FCF7B9FE0899A8
:1041E000079A0B6889680490184603911146039A50
:1041F000FCF7F2FE0899069A4B68D1F808C0096BE3
:1042000002901846019111466246019BFCF768FE38
:1042100008990A68896852F8213043F0010342F88E
:10422000213000218DF82710FFE79DF827000AB004
:1042300080BD000080B582B00190FEF7FBF802B0AF
:1042400080BD000080B582B00190019803F07CFE33
:1042500002B080BD85B003900291FFE7039890F80B
:104260003C00012804D1FFE702208DF8130039E05B
:104270000398012180F83C10FFE7FFE70398022133
:1042800080F83D100398006840680190039800682A
:1042900080680090019820F07000019002980068FA
:1042A000019908430190009820F080000090029846
:1042B0004068009908430090019803990968486094
:1042C00000980399096888600398012180F83D10DF
:1042D000FFE70398002180F83C10FFE700208DF8ED
:1042E0001300FFE79DF8130005B0704780B584B058
:1042F00002900298002804D1FFE701208DF80F00FA
:1043000021E0029890F83D00002808D1FFE70298CC
:10431000002180F83C10029800F01AF8FFE702989C
:10432000022180F83D10029850F8041B01900846C5
:10433000019904F0E7F80298012180F83D1000206F
:104340008DF80F00FFE79DF80F0004B080BD00005E
:1043500084B0039003980068B0F1804F12D1FFE75A
:10436000FFE70020029043F64000C4F2020001681B
:1043700041F001010160006800F001000290029824
:10438000FFE737E00398006840F20041C4F2000103
:10439000884212D1FFE7FFE70020019043F640007A
:1043A000C4F20200016841F002010160006800F0FF
:1043B000020001900198FFE71BE00398006840F6B7
:1043C0000001C4F20001884212D1FFE7FFE700209C
:1043D000009043F64000C4F20200016841F004017D
:1043E0000160006800F0040000900098FFE7FFE71C
:1043F000FFE7FFE704B0704782B001900198022107
:1044000080F83D1001980068806800F00700009077
:104410000098062807D0FFE701980068016841F07E
:1044200001010160FFE70198012180F83D100020A3
:1044300002B0704782B0019001980068C16841F0F5
:104440000101C16001980068806800F007000090D9
:104450000098062807D0FFE701980068016841F03E
:1044600001010160FFE7002002B0704780B58AB00B
:1044700008900791FFE7089890F83C00012804D1C4
:10448000FFE702208DF82700B7E00898012180F8A7
:104490003C10FFE7FFE70898022180F83D100898DC
:1044A000006880680690069820F0770006900698CD
:1044B00020F47F400690069808990968886007985C
:1044C00000680028059000F08280FFE7059810281A
:1044D0007DD0FFE70598202879D0FFE705983028A0
:1044E00075D0FFE70598402861D0FFE70598502870
:1044F0003DD0FFE70598602849D0FFE70598702870
:104500000BD0FFE70598B0F5805F05D0FFE7059871
:10451000B0F5005F19D061E061E008980068079984
:104520004A688B68C96804911946049B04F0D4F862
:104530000898006880680690069840F0770006901A
:10454000069808990968886049E008980068079902
:104550004A688B68C96803911946039B04F0BCF84C
:1045600008980068816841F48041816037E00898CC
:10457000006807994A68C96802911146029A04F0D6
:1045800097FA08980068502104F0C0F827E00898CE
:10459000006807994A68C96801911146019A04F0B8
:1045A000AFFA08980068602104F0B0F817E00898A6
:1045B000006807994A68C96800911146009A04F09A
:1045C00077FA08980068402104F0A0F807E00898FE
:1045D00000680799096804F099F800E0FFE7089877
:1045E000012180F83D10FFE70898002180F83C1079
:1045F000FFE700208DF82700FFE79DF827000AB0AD
:1046000080BD000080B588B007900020069005901E
:104610000490039002900798006840F60001C4F2ED
:104620000001884222D1FFE7FFE70020019043F616
:104630003000C4F20200016841F008010160006826
:1046400000F0080001900198FFE74FF480500290BD
:1046500002200390002104910591069040F600404D
:10466000C4F2020002A9FDF73DFFFFE708B080BDDC
:1046700080B586B0049003910292FFE7049890F809
:104680003C00012804D1FFE702208DF817008DE0DF
:104690000498012180F83C10FFE7FFE7049802210D
:1046A00080F83D1002980C28019000F2708001996A
:1046B000DFE801F0076D6D6D206D6D6D3A6D6D6D0C
:1046C000530004980068039904F036F804980068D1
:1046D000816941F00801816104980068816921F0D5
:1046E0000401816103980069049909688A6910438B
:1046F00088614DE004980068039904F093F80498E9
:104700000068816941F400618161049800688169F1
:1047100021F48061816103980069049909688A69BC
:1047200042EA0020886133E004980068039904F0AD
:10473000F3F804980068C16941F00801C161049868
:104740000068C16921F00401C161039800690499FE
:104750000968CA691043C8611AE00498006803999F
:1047600004F054F904980068C16941F40061C16122
:1047700004980068C16921F48061C16103980069EF
:1047800004990968CA6942EA0020C86100E0FFE7AD
:104790000498012180F83D10FFE70498002180F87B
:1047A0003C10FFE700208DF81700FFE79DF8170089
:1047B00006B080BD80B584B002900298002804D174
:1047C000FFE701208DF80F0021E0029890F83D00EE
:1047D000002808D1FFE70298002180F83C100298D9
:1047E00000F01AF8FFE70298022180F83D100298C5
:1047F00050F8041B01900846019903F083FE0298CB
:10480000012180F83D1000208DF80F00FFE79DF892
:104810000F0004B080BD000081B0009001B070476F
:1048200080B586B00590049105980068049901222E
:10483000029203F035FF0598006802990022C4F245
:104840000102904201910CD0FFE7059800684FF6F5
:104850000041CBF6FE710844B0FA80F040090190A7
:10486000FFE70198C007002807D0FFE70598006818
:10487000416C41F400414164FFE70598006880689D
:1048800000F0070003900398062807D0FFE705987B
:104890000068016841F001010160FFE7002006B0F7
:1048A00080BD000081B0009001B0704780B586B037
:1048B0000590059800680068049005980068C06835
:1048C00003900598006840690290002001900090D4
:1048D000049800F00F0001900198002811D1FFE723
:1048E0009DF81000800600280AD5FFE79DF80C000F
:1048F0008006002804D5FFE7059804F063F9DBE0A3
:10490000FFE70198002800F0B780FFE79DF8080056
:10491000C007002807D1FFE7BDF80C0010F4907F16
:1049200000F0AA80FFE79DF81000C00700280CD017
:10493000FFE79DF80D00C007002806D0FFE70598A7
:10494000C16B41F00101C163FFE79DF81000400712
:1049500000280CD5FFE79DF80800C007002806D006
:10496000FFE70598C16B41F00201C163FFE79DF8C5
:104970001000800700280CD5FFE79DF80800C0074D
:10498000002806D0FFE70598C16B41F00401C16320
:10499000FFE79DF81000000700280CD5FFE79DF801
:1049A0000800C007002806D0FFE70598C16B41F05A
:1049B0000801C163FFE70598C06B00285BD0FFE7E3
:1049C0009DF81000800600280AD5FFE79DF80C002E
:1049D0008006002804D5FFE7059804F0F3F8FFE708
:1049E000059800684069C0F3801000900598C06B7E
:1049F0000007002804D4FFE70098002833D0FFE721
:104A0000059804F0B7F8059800684069400600284A
:104A100024D5FFE705980068416921F04001416114
:104A20000598406B002814D0FFE70598406B48F6C6
:104A30005531C0F6000101650598406BFDF7EEF9B0
:104A4000002805D0FFE70598406B016D8847FFE718
:104A500003E00598FFF726FFFFE703E00598FFF75F
:104A600021FFFFE706E00598FFF71CFF05980021EE
:104A7000C163FFE7FFE71FE09DF810000006002874
:104A80000AD5FFE79DF80C000006002804D5FFE7D3
:104A9000059804F029FB0FE09DF81000400600285F
:104AA0000AD5FFE79DF80C004006002804D5FFE773
:104AB000059804F073F8FFE706B080BD80B582B0BA
:104AC00000900098002804D1FFE701208DF807002E
:104AD00040E000988069002801D0FFE700E0FFE790
:104AE000009890F83900002808D1FFE700980021CD
:104AF00080F83810009800F031F8FFE70098242182
:104B000080F8391000980068C16821F40051C16034
:104B1000009804F0D1F800980068016921F49041F0
:104B2000016100980068416921F02A014161009803
:104B30000068C16841F40051C16000980021C16360
:104B40000098202280F83920009880F83A208DF8CB
:104B50000710FFE79DF8070002B080BD80B590B058
:104B60000F9000200E900D900C900B900A900F98D3
:104B7000006841F20001C4F20101884269D1FFE7F7
:104B8000FFE70020099043F64400C4F202000168E8
:104B900041F010010160006800F0100009900998D0
:104BA000FFE7FFE70020089043F63000C4F2020060
:104BB000016841F001010160006800F00100089007
:104BC0000898FFE7FFE70020079043F63000C4F2A3
:104BD0000200016841F002010160006800F002007B
:104BE00007900798FFE74FF480600A9002200B902F
:104BF00001210C9103220D9207230E9340F2000C29
:104C0000C4F2020C0DF1280E069060460591714623
:104C100004920393CDF808E0FDF764FC40200A906D
:104C200006980B9005990C91049A0D92039B0E9394
:104C300040F20040C4F202000299FDF753FC252027
:104C4000002201900599FDF7E9FE0198FDF7DAFED3
:104C5000FFE710B080BD000084B0134602900191C0
:104C6000ADF80220029890F83A0020284CD1FFE7D6
:104C70000198002805D0FFE7BDF80200002804D104
:104C8000FFE701208DF80F0042E0FFE7029890F85F
:104C90003800012804D1FFE702208DF80F0037E02B
:104CA0000298012180F83810FFE7FFE70198029988
:104CB0008862BDF8020002998885BDF80200029959
:104CC000C88502980021C1630298222180F83A1019
:104CD000FFE70298002180F83810FFE7029800688B
:104CE000C16841F48071C16002980068416941F077
:104CF0000101416102980068C16841F02001C16072
:104D000000208DF80F0003E002208DF80F00FFE770
:104D10009DF80F0004B0704780B582B001900198F3
:104D2000006841F20001C4F2010188420AD1FFE7A4
:104D300043F2FC50C2F200000DF103010122FFF723
:104D40008BFFFFE702B080BD80B588B09446069027
:104D50000591ADF81220039300200190069890F879
:104D60003900202840F09F80FFE70598002805D0F3
:104D7000FFE7BDF81200002804D1FFE701208DF8FD
:104D80001F0094E0FFE7069890F83800012804D14E
:104D9000FFE702208DF81F0089E00698012180F8C6
:104DA0003810FFE7FFE706980021C163069821212C
:104DB00080F83910FDF792FD0190BDF812000699B8
:104DC0008884BDF812000699C884FFE70698C08C55
:104DD00000284AD0FFE70698C18C0139C1840698A3
:104DE0008068B0F5805F27D1FFE70698019B0399A3
:104DF0006A4611608021002204F0C8F9002804D01E
:104E0000FFE703208DF81F0051E0059802900298FB
:104E100000886FF35F20069909684860069800696A
:104E2000002804D1FFE705980230059003E00598BB
:104E300001300590FFE717E00698019B03996A4649
:104E400011608021002204F0A1F9002804D0FFE7BE
:104E500003208DF81F002AE00598411C0591007879
:104E6000069909684860FFE7B0E70698019B039937
:104E70006A4611604021002204F088F9002804D01D
:104E8000FFE703208DF81F0011E00698202180F82D
:104E90003910FFE70698002180F83810FFE700205E
:104EA0008DF81F0003E002208DF81F00FFE79DF83A
:104EB0001F0008B080BD000081B0009001B07047B5
:104EC000FFE7FEE780B58AB043F2F420C2F20000AB
:104ED0000078312851D1FFE74FF6FF7001F0C6F995
:104EE00001204FF4A0714122099008911146089BBE
:104EF00007921A46079B00F0ADF9782009990690B1
:104F000008460699089A069B00F0A4F9AF20099973
:104F1000059008460599089A059B00F09BF95520D5
:104F2000F0210490099A03911146049A039B00F022
:104F300091F9A02002900999029A039B00F08AF946
:104F4000EB2001900999019A039B00F083F943F249
:104F5000BC00C2F200004FF47841018001F014FD62
:104F600000F0E2FB01F010FD00F012FB43F2F42030
:104F7000C2F200003121017009E043F2F420C2F2D4
:104F800000000078322801D1FFE7FFE7FFE70AB011
:104F900080BD000080B588B00146ADF81E0000203D
:104FA000069043F23C60C2F20000028805924288FB
:104FB000059B5A430592808846F60402904220D110
:104FC000FFE743F23C60C2F200008079012818D16B
:104FD000FFE743F23C60C2F20000002181712A2207
:104FE00042812B238381049008460392029300F0B0
:104FF000DBFE01200499887102984881039A8A8116
:1050000005E000200190019900F0CEFEFFE701F0DD
:105010000BF900200690FFE70698059988420BD20D
:10502000FFE7BDF81E000021C6F208010880FFE777
:10503000069801300690EFE708B080BD80B582B0D9
:1050400001468DF807009DF80700002876D1FFE79C
:1050500043F23C60C2F2000000218171F021018026
:105060004FF4A0714180808849F24131884214D0C8
:10507000FFE743F23C60C2F20000808846F604017C
:1050800088420AD0FFE743F23C60C2F20000808809
:1050900045F21031884226D1FFE743F23C60C2F26C
:1050A00000002C2101812A2141812B2181818088CE
:1050B00046F6040188420AD0FFE743F23C60C2F2A0
:1050C0000000808845F2103188420BD1FFE743F29F
:1050D0003C60C2F200004FF4A07101804FF4F07107
:1050E0004180FFE729E043F23C60C2F20000808883
:1050F00045F21051884214D1FFE743F23C60C2F2FE
:1051000000004FF4305101814FF4285141814FF498
:105110002C5181814FF4F07101804FF4487141802E
:105120000AE043F23C60C2F200002221018120210A
:10513000418121218181FFE7FFE785E043F23C6067
:10514000C2F20000012181714FF4A0710180F021B1
:105150004180808849F2413188420AD0FFE743F21A
:105160003C60C2F20000808845F2103188420BD1C9
:10517000FFE743F23C60C2F200002C2101812A21AA
:1051800041812B2181813FE043F23C60C2F200006B
:10519000808846F6040188420BD1FFE743F23C6069
:1051A000C2F200002C2101812B2141812A21818121
:1051B00029E043F23C60C2F20000808845F21051C1
:1051C000884214D1FFE743F23C60C2F200004FF482
:1051D000305101814FF4285141814FF42C5181818C
:1051E0004FF4487101804FF4F07141800AE043F2BE
:1051F0003C60C2F200002221018121214181202155
:105200008181FFE7FFE7FFE743F23C60C2F2000065
:10521000808846F6040188420AD0FFE743F23C60EA
:10522000C2F20000808845F2103188420BD1FFE7BE
:1052300043F23C60C2F200004FF4F07101804FF481
:10524000A0714180FFE7FFE7032000F08FFB02B071
:1052500080BD0000B0B58CB09C4696460C46054615
:10526000ADF82E00ADF82C10ADF82A20ADF828309E
:10527000002008900790BDF82A00BDF82E10401AB3
:105280000690BDF82800BDF82C10401A0590BDF816
:105290002E000190BDF82C0000900698012803DB39
:1052A000FFE7012003900EE00698002803D1FFE7F6
:1052B0000020039006E04FF0FF3003900698404234
:1052C0000690FFE7FFE70598012803DBFFE70120D1
:1052D00002900EE00598002803D1FFE7002002901D
:1052E00006E04FF0FF300290059840420590FFE73E
:1052F000FFE706980599884203DDFFE706980490CA
:1053000002E005980490FFE70020ADF82600FFE7D3
:10531000BDF8260004990131884231DCFFE7BDF871
:105320000400BDF8001000F02DF806980899084414
:1053300008900598079908440790089804998842AE
:1053400009DDFFE704980899081A08900398019965
:1053500008440190FFE707980499884209DDFFE7B8
:1053600004980799081A0790029800990844009039
:10537000FFE7FFE7BDF826000130ADF82600C7E7DC
:105380000CB0B0BD80B584B00A460346ADF80E003F
:10539000ADF80C10BDF80E00BDF80C100292019390
:1053A00000F002FD00F040FF43F2BC00C2F200003A
:1053B00000880021C6F20801088004B080BD00000A
:1053C00080B586B013468C468646ADF81600ADF81B
:1053D0001410ADF8122043F23C60C2F20000808845
:1053E00049F2413188420AD0FFE743F23C60C2F201
:1053F0000000808845F2103188421ED1FFE743F259
:105400003C60C2F2000041890390084600F0FAFEB9
:105410009DF8170000F0E6FE9DF8160000F0E2FE91
:105420000398808900F0EEFE9DF8150000F0DAFE8A
:105430009DF8140000F0D6FE98E043F23C60C2F202
:105440000000808845F2105188422AD1FFE743F2DC
:105450003C60C2F2000041890290084600F0D2FE92
:105460009DF8170000F0BEFE02984189013188B214
:1054700000F0C8FE9DF8160000F0B4FE0298808986
:1054800000F0C0FE9DF8150000F0ACFE0298818986
:10549000013188B200F0B6FE9DF8140000F0A2FEC3
:1054A00063E043F23C60C2F20000808846F60401EB
:1054B000884232D1FFE743F23C60C2F200008079BB
:1054C00001280CD1FFE743F23C60C2F200000088E3
:1054D000BDF81610C9430844ADF81600FFE743F2C3
:1054E0003C60C2F2000041890190084600F08AFE4B
:1054F0009DF8170000F076FE9DF8160000F072FE91
:105500000198808900F07EFE9DF8150000F06AFE8B
:105510009DF8140000F066FE26E043F23C60C2F203
:105520000000807901280CD1FFE743F23C60C2F211
:1055300000000088BDF81610C9430844ADF81600F5
:10554000FFE743F23C60C2F200004189BDF816203B
:1055500000900846114600F073FE00988089BDF85F
:10556000141000F06DFEFFE7FFE7FFE743F23C6039
:10557000C2F2000000894FF6FE71C6F207010880F2
:10558000BDF812000021C6F20801088006B080BDF7
:1055900070B586B041F28C00C2F2000003F01CFF2F
:1055A0000120ADF81600FFE7BDF81600B0F5806FDA
:1055B00078DAFFE7BDF81600B0F57F7F56DAFFE72F
:1055C000BDF81600800700284FD1FFE7BDF8160090
:1055D000142101EB9000049040F20800C2F2000098
:1055E000018840F20C02C2F200021388BDF810C01C
:1055F000BDF816E041F28C04C2F2000404EB8E0EFA
:105600009EED000AB0EE001A80EE010ABDEEC00A5F
:1056100010EE10EACEF1C80E6D4600262E601FFA7D
:105620008EFE039008461946029262467346019424
:10563000FBF70AFD049803990860BDF81600019A6B
:1056400002EB800090ED000A9FED171A80EE010A30
:105650009FED161A30EE010ABDEEC00A029880EDE9
:10566000000A0A20FCF7C4FEFFE714E04FF47A704A
:10567000FCF7BEFE40F20800C2F2000014210160F7
:1056800040F20C00C2F20000C82101604FF6FF702A
:1056900000F0ECFDFFE7FFE7BDF816000130ADF8C4
:1056A000160081E706B070BD00000CC20000484340
:1056B00080B59AB00B468446ADF86600ADF864102C
:1056C00018928DED170A189A17980693CDF814C002
:1056D0000492FAF770FF41EC110B684680ED001B55
:1056E0004DF65C71C0F6000107A80390049A05F01E
:1056F0008FFCBDF86610BDF864206B46DDF80CC069
:10570000C3F804C04FF0100EC3F800E064234FF05C
:10571000F00E0290084611461A46734600F0EEFC61
:105720001AB080BD00000000B0B592B040F28A000F
:10573000C2F200004FF4006103F028FE0020ADF833
:105740004600FFE7BDF84600B0F5006F80F2DC8050
:10575000FFE7BDF84600B0F5FF6F80F2B980FFE7C4
:10576000BDF846004AF6A821C2F6AA214AF6AB22A5
:10577000CAF6AA2200FB02104FEAB00045F25451CB
:10578000C1F25551884200F2A280FFE7BDF8460001
:105790004AF6AB21CAF6AA21A0FB010189081091A3
:1057A00043F2B801C2F200010A8840F21003C2F2CB
:1057B0000003B3F800C0BDF840E0BDF8464040F239
:1057C0008A05C2F2000535F814400F9020460E916C
:1057D0000D920C93CDF82CC0CDF828E00995FAF77E
:1057E000BAFE41EC100B51EC100B9FED490B53EC42
:1057F000102B08920793FAF7CDFD41EC100B51ECFA
:10580000100B9FED450B53EC102B06920593FAF706
:1058100033FE41EC100B51EC100B9FED410B53ECA0
:10582000102B04920393FAF7B5FD41EC100B51ECE9
:10583000100B9FED3D0B53EC102B02920193FAF7E6
:1058400002FD41EC100B51EC100BFAF795FE694686
:105850004FF478420A6083B20D980B990A9AFBF7CD
:10586000F3FB10980E990860BDF84600099A32F8CB
:105870001000FAF770FE41EC100B51EC100B089A77
:10588000079BFAF787FD41EC100B51EC100B069AC1
:10589000059BFAF7F1FD41EC100B51EC100B049A4B
:1058A000039BFAF777FD41EC100B51EC100B029AB9
:1058B000019BFAF7C8FC41EC100B51EC100BFAF706
:1058C0005BFE0C9908600A20FCF792FDFFE714E0EC
:1058D0004FF47A70FCF78CFD43F2B800C2F200007E
:1058E0000021016040F21000C2F200007821016046
:1058F0004FF6FF7000F0BAFCFFE7FFE7BDF8460087
:105900000130ADF846001DE712B0B0BD00BF00BFCA
:105910006666666666660A400000000000FEAF40EC
:1059200000000000000054400000000000805140D2
:1059300081B00020C6F208000088ADF80200BDF872
:10594000020001B07047000080B582B00146ADF89A
:105950000600BDF80600009100F054FC0520FCF79D
:1059600047FDFFF7E5FF02B080BD000080B58AB0BB
:1059700001468DF827000020ADF82400ADF8220084
:1059800043F23C60C2F200008079012838D1FFE781
:1059900043F23C60C2F20000808846F6040188426F
:1059A0002ED0FFE79DF8270001460728079126D84B
:1059B0000799DFE801F004080C1014181C200620D9
:1059C0008DF827001BE007208DF8270017E0042042
:1059D0008DF8270013E005208DF827000FE0012047
:1059E0008DF827000BE000208DF8270007E003204A
:1059F0008DF8270003E002208DF82700FFE7FFE77E
:105A000043F23C60C2F20000808849F24131884292
:105A10001FD0FFE743F23C60C2F20000808846F6E8
:105A20000401884215D0FFE743F23C60C2F2000057
:105A3000808845F2103188420BD0FFE743F23C608A
:105A4000C2F20000808845F21051884240F05A812D
:105A5000FFE79DF8270001460728069138D80699E8
:105A6000DFE801F004050C131A21282F30E0BDF8FF
:105A7000240040F08000ADF8240029E0BDF82400A7
:105A800040F04000ADF8240022E0BDF8240040F0D2
:105A9000C000ADF824001BE0BDF8240040F0200059
:105AA000ADF8240014E0BDF8240040F06000ADF82B
:105AB00024000DE0BDF8240040F0A000ADF8240063
:105AC00006E0BDF8240040F0E000ADF82400FFE758
:105AD00043F23C60C2F20000808845F210518842D7
