:020000040800F2
:10000000E00500209D010008593B0008D9280008A0
:10001000553B000835040008115700080000000097
:10002000000000000000000000000000D1460008B1
:100030003904000800000000CD3B000829470008F3
:10004000B7010008B7010008B7010008B7010008B0
:10005000B7010008B7010008B7010008B7010008A0
:10006000B7010008B7010008B7010008B701000890
:10007000B7010008B7010008B7010008B701000880
:10008000B7010008B7010008B7010008B701000870
:10009000B7010008B7010008B7010008B701000860
:1000A000B7010008B7010008B7010008B701000850
:1000B000B7010008B7010008B7010008B701000840
:1000C000B7010008B7010008B7010008B701000830
:1000D000B7010008B7010008B7010008B701000820
:1000E000B7010008B7010008B7010008B701000810
:1000F000B7010008B7010008B7010008B701000800
:10010000B7010008B7010008B7010008B7010008EF
:10011000B7010008B7010008B7010008B7010008DF
:10012000B7010008B7010008B7010008B7010008CF
:10013000B7010008B7010008B7010008B7010008BF
:10014000B7010008B7010008B7010008B7010008AF
:10015000B7010008B7010008B7010008B70100089F
:10016000B7010008B7010008B7010008B70100088F
:10017000B7010008B7010008B7010008000000003F
:10018000B7010008B7010008DFF80CD000F07AF8DA
:1001900000480047A5570008E005002006488047B2
:1001A00006480047FEE7FEE7FEE7FEE7FEE7FEE75C
:1001B000FEE7FEE7FEE7FEE7F547000889010008D5
:1001C0002DE9F05F0546002092469B46884606468C
:1001D000814640241BE0284641464746224600F01F
:1001E00041F853465A46C01A914110D31146184659
:1001F000224600F028F82D1A67EB01084F462246E8
:100200000120002100F01FF817EB00094E41201ECD
:10021000A4F10104DFDC484631462A464346BDE8E6
:10022000F09FD2B201E000F8012B491EFBD27047CB
:100230000022F6E710B513460A4604461946FFF7B2
:10024000F0FF204610BD202A04DB203A00FA02F11C
:10025000002070479140C2F1200320FA03F31943B4
:1002600090407047202A04DB203A21FA02F0002156
:10027000704721FA02F3D040C2F1200291400843B6
:1002800019467047064C074D06E0E06840F0010350
:1002900094E8070098471034AC42F6D3FFF778FF94
:1002A0009C700008BC70000882B0019042F20030DF
:1002B000C4F2010000900098416821F4403141608F
:1002C0000198406800994A681043486001980068A6
:1002D000416821F4807141600198016800694A68B1
:1002E00042EA0020486001980068416821F04071AE
:1002F00041600198016880684A681043486001982D
:100300000068816821F40061816001980168C0681B
:100310008A68104388600198806A0121C0F60071E4
:10032000884219D0FFE701980068816821F0706168
:10033000816001980168806A8A681043886001982A
:100340000068816821F04051816001980168C06AAD
:100350008A68104388600CE001980068816821F089
:100360007061816001980068816821F0405181606E
:10037000FFE701980068816821F00201816001981F
:10038000017E0068826842EA41018160019890F82C
:100390002000002819D0FFE701980068416841F467
:1003A0000061416001980068416821F4604141604A
:1003B00001980168406A4EF20002CFF6FF7202EB2C
:1003C00040304A681043486006E001980068416880
:1003D00021F400614160FFE701980068C16A21F4DF
:1003E0007001C16201980168C0690022CFF6F07205
:1003F00002EB0050CA6A1043C86201980068816825
:1004000021F400718160019890F8301000688268D2
:1004100042EA4121816001980068816821F480618D
:1004200081600198016840698A6842EA802088609A
:1004300002B07047FFE7FEE770470000704700001A
:1004400085B00490039102920193002000900198DE
:10045000B0F5804F22D1FFE70498029950F82100AF
:10046000009000980021CCF6F071084000900398AD
:10047000016842688368D0F80CC041EA021141EA81
:10048000032141EA0C418069084300990843009028
:1004900000980499029A41F8220006E00498029913
:1004A0006FF0704240F82120FFE7002005B0704750
:1004B00083B0029001910020009002980199096890
:1004C00050F82100009000988021CFF6F07108408C
:1004D0000090019841688268C368D0F810C0114349
:1004E000194341EA0C014269114382691143C2690F
:1004F0001143026A1143426A1143826A1143C26A7C
:100500001143C26B1143006B0843009908430090EC
:1005100001988068082805D1FFE7009840F0400066
:100520000090FFE700980299019A126841F82200B2
:10053000002003B07047000080B584B003900291A2
:100540000192002000900399019A01EB8201496811
:100550000091009901F04041009102990A684B68AE
:10056000D1F808C0D1F80CE042EA031242EA0C22AA
:1005700042EA0E420B6940F2000CCFF6F07C0CEB25
:1005800003531A434B69FE3342EA036289691143FC
:10059000009A114300910099039A019B02EB830298
:1005A000516004B080BD000085B00390029100202E
:1005B0000190FFE7039890F83C00012804D1FFE781
:1005C00002208DF81300FAE00398012180F83C1016
:1005D000FFE7FFE7029800680A281CD3FFE70298AC
:1005E000008800EB40001E38072101FA00F0039953
:1005F0000968CA6822EA0000C86002988168008819
:1006000000EB40001E3801FA00F003990968CA683F
:100610001043C86019E00298008800EB40000721F1
:1006200001FA00F0039909680A6922EA00000861EA
:1006300002988168008800EB400001FA00F00399FD
:1006400009680A6910430861FFE7029840680628B4
:100650001CD8FFE70298406800EB800005381F2196
:1006600001FA00F0039909684A6B22EA0000486326
:1006700002980188406800EB8000053801FA00F01C
:10068000039909684A6B104348633DE0029840684B
:100690000C281CD8FFE70298406800EB8000233844
:1006A0001F2101FA00F0039909680A6B22EA000091
:1006B000086302980188406800EB8000233801FA43
:1006C00000F0039909680A6B104308631BE0029865
:1006D000406800EB800041381F2101FA00F00399C7
:1006E0000968CA6A22EA0000C86202980188406864
:1006F00000EB8000413801FA00F003990968CA6AEA
:100700001043C862FFE7FFE742F20030C4F2010085
:1007100000900398006842F20001C4F2010188428F
:100720000BD1FFE702980068122806D1FFE7009876
:10073000416841F480014160FFE70398006842F29C
:100740000001C4F2010188422FD1FFE7029800683E
:10075000102805D0FFE702980068112825D1FFE78F
:100760000098416841F40001416002980068102837
:100770001AD1FFE740F20400C2F2000000684DF613
:100780008361C4F21B31A0FB0101890C01EB8101E3
:1007900049000191FFE70198002804D0FFE7019884
:1007A00001380190F7E7FFE7FFE7FFE70398002133
:1007B00080F83C10FFE700208DF81300FFE79DF85C
:1007C000130005B07047000080B584B0029000208F
:1007D0008DF807000298002804D1FFE701208DF86A
:1007E0000F0043E00298806A0121C0F60071884240
:1007F00001D0FFE7FFE70298006C00280AD1FFE76D
:10080000029800F037F8029800214164029880F8BD
:100810003C10FFE70298006CC006002817D4FFE7E1
:100820000298006C40F0020020F48850029908649D
:100830000298FFF739FD0298002141640298006C8C
:1008400040F0010020F002000299086403E001205A
:100850008DF80700FFE7FFE70298002180F83C10C1
:10086000FFE79DF807008DF80F00FFE79DF80F00E8
:1008700004B080BD80B588B0079000200690059038
:100880000490039002900798006842F20001C4F2BD
:10089000010188422FD1FFE7FFE70020019043F6D6
:1008A0004400C4F20200016841F4807101600068F4
:1008B00000F4807001900198FFE7FFE700200090AE
:1008C00043F63000C4F20200016841F0010101600A
:1008D000006800F0010000900098FFE701200290FE
:1008E00003200390002004900020C4F2020002A91B
:1008F00000F03AF9FFE708B080BD000086B0049030
:1009000003910292002001900090FFE70498407943
:10091000012804D1FFE702208DF8170039E0049880
:1009200001214171FFE7FFE704980221017104985A
:10093000006800680190029840F6FE7101FA00F02C
:10094000019921EA0000019003980168406808437A
:1009500000900098029988400199084301900198FD
:100960000499096808600298C02101FA00F004990E
:1009700009680A6822EA00000860049801210171F0
:10098000FFE7049800214171FFE700208DF8170070
:10099000FFE79DF8170006B07047000080B582B0F1
:1009A00000900098002804D1FFE701208DF807008F
:1009B00017E000980079002807D1FFE70098002190
:1009C0004171009800F012F8FFE7009802210171D0
:1009D0000098002101610098012202718DF8071032
:1009E000FFE79DF8070002B080BD000080B588B029
:1009F00007900020069005900490039002900798BD
:100A0000006847F20041C4F2000188422FD1FFE79D
:100A1000FFE70020019043F64000C4F202000168A5
:100A200041F000510160006800F000500190019811
:100A3000FFE7FFE70020009043F63000C4F2020019
:100A4000016841F001010160006800F001000090C0
:100A50000098FFE7102002900320039000200490EC
:100A60000020C4F2020002A900F07EF8FFE708B0FF
:100A700080BD000080B584B0039000F071FA029050
:100A80000398019001980130002809D0FFE740F257
:100A90000800C2F200000078019908440190FFE7C5
:100AA000FFE700F05DFA0299401A0199884201D2ED
:100AB000FFE7F6E704B080BD80B58CB000200B9056
:100AC0000A9009900890079040F21000C2F20000CE
:100AD0000068002801D0FFE744E040F21000C2F2B5
:100AE000000001210160FFE70020069043F6380076
:100AF000C4F20200016841F001010160006800F0E9
:100B0000010006900698FFE74FF6807007900220DC
:100B100008900021099103220A920C230B9341F2C1
:100B2000000CC4F2020C0DF11C0E059060460491FD
:100B3000714603920293CDF804E000F015F84EF2EE
:100B4000B37007900598089004990991039A0A9246
:100B5000029B0B9340F60040C4F20200019900F0A2
:100B600003F8FFE70CB080BD8EB00D900C91002013
:100B70000A90099008900B90FFE70B980F2800F25D
:100B8000D381FFE70B98012101FA00F00A900C983D
:100B900000680A990840099009980A99884240F02B
:100BA000BE81FFE70C984068022805D0FFE70C984B
:100BB0004068122826D1FFE70D980B996FF00302C9
:100BC00002EA51010844006A08900B9800F00700FF
:100BD00080000F2101FA00F0089921EA0000089036
:100BE0000C9800690B9901F0070189008840089969
:100BF0000843089008980D990B9B02EA5302114490
:100C00000862FFE70D98006808900B9840000321E8
:100C100001FA00F0089921EA000008900C98406859
:100C200000F003000B994900884008990843089098
:100C300008980D9908600C98406801280FD0FFE7CC
:100C40000C98406802280AD0FFE70C9840681128E9
:100C500005D0FFE70C98406812282FD1FFE70D98C8
:100C6000806808900B984000032101FA00F0089971
:100C700021EA000008900C98C0680B994900884050
:100C800008990843089008980D9988600D98406865
:100C900008900B98012101FA00F0089921EA000060
:100CA00008900C984068C0F300100B998840089990
:100CB0000843089008980D994860FFE70D98C068B0
:100CC00008900B984000032101FA00F0089921EAEE
:100CD000000008900C9880680B994900884008999A
:100CE0000843089008980D99C8600C98C079C00610
:100CF000002840F11381FFE7FFE70020079043F64B
:100D00004400C4F20200016841F4804101600068BF
:100D100000F4804007900798FFE70B9820F003004D
:100D200043F60801C4F20101405808900B9800F006
:100D3000030080000F2101FA00F0089921EA000069
:100D400008900D980021C4F20201884203D1FFE708
:100D5000002006905EE00D9840F20041C4F20201CE
:100D6000884203D1FFE70120059050E00D9840F63E
:100D70000001C4F20201884203D1FFE7022004907F
:100D800042E00D9840F60041C4F20201884203D1CE
:100D9000FFE70320039034E00D9841F20001C4F214
:100DA0000201884203D1FFE70420029026E00D985B
:100DB00041F20041C4F20201884203D1FFE705205D
:100DC000019018E00D9841F60001C4F2020188423A
:100DD00003D1FFE7062000900AE00D9841F600419C
:100DE000C4F202010822884208BF07220092FFE7EE
:100DF00000980190FFE701980290FFE702980390A6
:100E0000FFE703980490FFE704980590FFE7059833
:100E10000690FFE70698C0B20B9901F00301890024
:100E2000884008990843089008980B9921F003011D
:100E300043F60802C4F20102885043F60040C4F2AF
:100E40000100006808900998089921EA00000890BC
:100E50000C988079C007002805D0FFE70998089909
:100E600008430890FFE7089843F60041C4F20101E7
:100E7000086043F60440C4F2010000680890099835
:100E8000089921EA000008900C98807980070028D2
:100E900005D5FFE70998089908430890FFE70898E7
:100EA00043F60441C4F20101086043F60840C4F26D
:100EB0000100006808900998089921EA000008904C
:100EC0000C988079C006002805D5FFE70998089995
:100ED00008430890FFE7089843F60841C4F201016F
:100EE000086043F60C40C4F20100006808900998BD
:100EF000089921EA000008900C9880798006002863
:100F000005D5FFE70998089908430890FFE7089876
:100F100043F60C41C4F201010860FFE7FFE7FFE779
:100F20000B9801300B9028E60EB0704782B0134644
:100F30008C460190ADF802108DF801209DF801005B
:100F4000002805D0FFE7BDF802000199886105E09F
:100F5000BDF80200000401998861FFE702B0704704
:100F600040F2D810C2F200000068704740F208005A
:100F7000C2F20000007840F2D811C2F200010A6803
:100F8000104408607047000080B582B043F600400E
:100F9000C4F20200016841F400710160016841F48B
:100FA00080610160016841F480710160032000F0FC
:100FB0008BF80020019000F007F8009000F03EF858
:100FC000019802B080BD000080B582B0009040F270
:100FD0000400C2F20000006840F20801C2F2000101
:100FE00009784FF47A72B2FBF1F1B0FBF1F001F045
:100FF0005FF8002804D0FFE701208DF8070018E013
:1010000000980F280DD8FFE700994FF0FF3000221D
:1010100000F03AF8009840F20C01C2F200010860BA
:1010200003E001208DF8070003E000208DF80700A1
:10103000FFE79DF8070002B080BD000082B0FFE727
:101040000020019043F64400C4F20200016841F41C
:1010500080410160006800F4804001900198FFE742
:10106000FFE70020009043F64000C4F20200016850
:1010700041F080510160006800F0805000900098BD
:10108000FFE702B07047000080B588B003468DF8D6
:101090001F000691059200200490039304F03AFB90
:1010A00004909DF91F000499069A059B029008463A
:1010B00011461A4602F052FD029901900846019924
:1010C00004F030FB08B080BD80B582B0019001987B
:1010D00004F04AFB02B080BD80B586B00490039155
:1010E0000498002804D1FFE701208DF817001EE1C5
:1010F000039843F60041C4F20201096801F00F01B0
:10110000884212D9FFE7039843F60041C4F2020176
:101110000870086800F00F000399884204D0FFE7C8
:1011200001208DF8170002E1FFE70498007880079E
:1011300000282AD5FFE7049800784007002809D541
:10114000FFE743F60800C4F20200016841F4E051F1
:101150000160FFE7049800780007002809D5FFE741
:1011600043F60800C4F20200016841F460410160E6
:10117000FFE743F60800C4F20200016821F0F00125
:10118000049A926811430160FFE704980078C00751
:1011900000286ED0FFE704984068012811D1FFE7CE
:1011A00043F60000C4F20200006800F400300021A1
:1011B000B1EB504F04D1FFE701208DF81700B6E0E6
:1011C0002CE004984068022805D0FFE704984068A6
:1011D000032811D1FFE743F60000C4F202000068C3
:1011E00000F000700021B1EB506F04D1FFE7012047
:1011F0008DF817009BE010E043F60000C4F20200F7
:10120000006800F002000021B1EB500F04D1FFE7AD
:1012100001208DF817008AE0FFE7FFE743F608009A
:10122000C4F20200016821F00301049A52681143DC
:101230000160FFF795FE0290FFE743F60800C4F255
:101240000200006800F00C0004994968B0EB810FBF
:101250000ED0FFE7FFF784FE0299401A41F2893170
:10126000884204D3FFE703208DF817005FE0E4E72E
:10127000FFE7039843F60041C4F20201096801F058
:101280000F01884212D2FFE7039843F60041C4F2EF
:1012900002010870086800F00F000399884204D02A
:1012A000FFE701208DF8170041E0FFE70498007880
:1012B000400700280CD5FFE743F60800C4F20200FF
:1012C000016821F4E051049AD26811430160FFE7FC
:1012D00004980078000700280DD5FFE743F60800C2
:1012E000C4F20200016821F46041049A126941EAE3
:1012F000C2010160FFE700F049F843F60801C4F2BB
:1013000002010968C9B2090945F6BC02C0F600022B
:10131000515CC84040F20401C2F2000108600020A4
:101320000190FFF751FE01998DF81710FFE79DF826
:10133000170006B080BD000040F20400C2F20000B9
:101340000068704780B5FFF7F7FF43F60801C4F265
:1013500002010968C1F3822145F6CC02C0F6000201
:10136000515CC84080BD000080B5FFF7E5FF43F643
:101370000801C4F20201096889B2490B45F6CC02A2
:10138000C0F60002515CC84080BD000080B586B048
:101390000020059004900390029043F60800C4F2E8
:1013A0000200006800F00C0001460028019108D0FE
:1013B000FFE7019804280AD0FFE7019808280CD01D
:1013C0004FE042F20040C0F2F40002904FE047F6D6
:1013D0004000C0F27D10029049E043F60400C4F2E0
:1013E0000200016801F03F010591006840020028F9
:1013F00013D5FFE743F60400C4F202000068C0F30F
:10140000881047F64001C0F27D11A0FB0101059A4A
:101410000023FEF7D5FE049012E043F60400C4F268
:1014200002000068C0F3881042F20041C0F2F401EB
:10143000A0FB0101059A0023FEF7C2FE0490FFE71E
:1014400043F60400C4F20200006800F440300221B8
:1014500001EBD030039004980399B0FBF1F00290B7
:1014600005E042F20040C0F2F4000290FFE702986B
:1014700006B080BD80B586B004900498002804D1E1
:10148000FFE701208DF817000EE304980078C007ED
:10149000002800F0A780FFE743F60800C4F202002E
:1014A000006800F00C00042813D0FFE743F60800A2
:1014B000C4F20200006800F00C0008281FD1FFE70A
:1014C00043F60400C4F2020000684002002816D56A
:1014D000FFE743F60000C4F20200006800F40030A9
:1014E0000021B1EB504F09D0FFE704984068002875
:1014F00004D1FFE701208DF81700D5E271E0FFE786
:1015000004984068B0F5803F09D1FFE743F600003A
:10151000C4F20200016841F48031016020E00498C7
:101520004068B0F5A02F0DD1FFE743F60000C4F2EC
:101530000200016841F480210160016841F48031BA
:1015400001600CE043F60000C4F20200016821F4DF
:1015500080310160016821F480210160FFE7FFE72D
:10156000FFE70498406800281DD0FFE7FFF7F8FC6C
:101570000390FFE743F60000C4F20200006800F4A5
:1015800000300021B1EB504F0CD1FFE7FFF7E8FC32
:101590000399401A652804D3FFE703208DF817004C
:1015A00082E2E7E71CE0FFF7DBFC0390FFE743F68E
:1015B0000000C4F20200006800F400300021B1EB2A
:1015C000504F0CD0FFE7FFF7CBFC0399401A65287A
:1015D00004D3FFE703208DF8170065E2E7E7FFE794
:1015E000FFE7FFE7049800788007002840F1978024
:1015F000FFE743F60800C4F20200006810F00C0F89
:1016000013D0FFE743F60800C4F20200006800F0C0
:101610000C0008282CD1FFE743F60400C4F20200B6
:1016200000684002002823D4FFE743F60000C4F21C
:101630000200006800F002000021B1EB500F09D059
:10164000FFE70498C068012804D0FFE701208DF867
:10165000170029E243F60000C4F20200016821F0FD
:10166000F801049A126941EAC2010160FFE755E0FE
:101670000498C06800282ED0FFE70020C4F247205D
:1016800001210160FFF76CFC0390FFE743F60000C7
:10169000C4F20200006800F002000021B1EB500F1C
:1016A0000CD1FFE7FFF75CFC0399401A032804D331
:1016B000FFE703208DF81700F6E1E7E743F60000A7
:1016C000C4F20200016821F0F801049A126941EAAB
:1016D000C201016021E00020C4F247200021016026
:1016E000FFF73EFC0390FFE743F60000C4F2020060
:1016F000006800F002000021B1EB500F0CD0FFE7B2
:10170000FFF72EFC0399401A032804D3FFE70320B8
:101710008DF81700C8E1E7E7FFE7FFE7FFE7049868
:101720000078000700284CD5FFE70498406900289E
:1017300023D0FFE740F68060C4F24720012101601A
:10174000FFF70EFC0390FFE743F67400C4F20200BB
:10175000006800F002000021B1EB500F0CD1FFE750
:10176000FFF7FEFB0399401A032804D3FFE7032089
:101770008DF8170098E1E7E722E040F68060C4F2B8
:10178000472000210160FFF7EBFB0390FFE743F6E2
:101790007400C4F20200006800F002000021B1EB06
:1017A000500F0CD0FFE7FFF7DBFB0399401A03282B
:1017B00004D3FFE703208DF8170075E1E7E7FFE7A3
:1017C000FFE7049800784007002840F1CF80FFE74A
:1017D00000208DF80B0043F64000C4F202000068C0
:1017E000C000002815D4FFE7FFE70020019043F672
:1017F0004000C4F20200016841F0805101600068BD
:1018000000F0805001900198FFE701208DF80B0057
:10181000FFE747F20000C4F200000068C00500289E
:1018200022D4FFE747F20000C4F20000016841F44F
:1018300080710160FFF794FB0390FFE747F200001F
:10184000C4F200000068C00500280CD4FFE7FFF7D1
:1018500087FB0399401A032804D3FFE703208DF880
:10186000170021E1EAE7FFE7FFE704988068012815
:1018700009D1FFE743F67000C4F20200016841F0AD
:10188000010101601FE00498806805280DD1FFE781
:1018900043F67000C4F20200016841F004010160E7
:1018A000016841F0010101600CE043F67000C4F2F0
:1018B0000200016821F001010160016821F00401CA
:1018C0000160FFE7FFE7FFE70498806800281FD06A
:1018D000FFE7FFF745FB0390FFE743F67000C4F214
:1018E0000200006800F002000021B1EB500F0ED1A1
:1018F000FFE7FFF735FB0399401A41F2893188422F
:1019000004D3FFE703208DF81700CDE0E5E71EE0E4
:10191000FFF726FB0390FFE743F67000C4F20200D6
:10192000006800F002000021B1EB500F0ED0FFE77D
:10193000FFF716FB0399401A41F28931884204D31C
:10194000FFE703208DF81700AEE0E5E7FFE79DF81D
:101950000B00012809D1FFE743F64000C4F2020062
:10196000016821F080510160FFE7FFE7049880697A
:10197000002800F09580FFE743F60800C4F202005B
:10198000006800F00C00082800F08580FFE704984C
:10199000806902285CD1FFE76020C4F24720002163
:1019A0000160FFF7DDFA0390FFE743F60000C4F2A1
:1019B0000200006800F000700021B1EB506F0CD005
:1019C000FFE7FFF7CDFA0399401A032804D3FFE796
:1019D00003208DF8170067E0E7E70498C169026A01
:1019E000436AD0F828C0114341EA83114FEACC3250
:1019F0004FF6FF739A43A2F580321143C06A41EA61
:101A0000006043F60401C4F2020108606020C4F2E1
:101A1000472001210160FFF7A3FA0390FFE743F697
:101A20000000C4F20200006800F000700021B1EB79
:101A3000506F0CD1FFE7FFF793FA0399401A032880
:101A400004D3FFE703208DF817002DE0E7E721E03E
:101A50006020C4F2472000210160FFF781FA039063
:101A6000FFE743F60000C4F20200006800F00070D7
:101A70000021B1EB506F0CD0FFE7FFF771FA03992B
:101A8000401A032804D3FFE703208DF817000BE06A
:101A9000E7E7FFE703E001208DF8170004E0FFE728
:101AA00000208DF81700FFE79DF8170006B080BDF5
:101AB00084B00290019100200090029991F8671083
:101AC00000919DF800108909019A11700099C1F3E5
:101AD0008301019A5170009901F00301019A9170FC
:101AE000029991F8661000910099019AD1700299BB
:101AF00091F8651000910099019A1171029991F87D
:101B0000641000910099019A5171029991F86B103B
:101B1000009100990901019AD180029991F86A1007
:101B200000919DF80010019AD38843EA1111D180E9
:101B3000009901F00F01019A1172029991F8691050
:101B400000919DF80010C909019A51720099C1F3E2
:101B50008011019A91720099C1F34011019AD172DA
:101B60000099C1F30011019A117301994873029809
:101B7000406C002864D1FFE7009800F00300800269
:101B800001990861029890F8680000900098019906
:101B90000A6942EA80000861029890F86F0000909C
:101BA0009DF8000001990A6942EA901008610098C6
:101BB000C0F3C20001990875009800F00700019970
:101BC0004875029890F86E0000909DF8000040095A
:101BD000019988750098C0F382000199C875009832
:101BE00000F00300400001990876029890F86D001B
:101BF00000909DF8000001990A7E42EAD010087614
:101C0000019800690130029948650198007E023010
:101C1000012101FA00F0029A536D58435065019872
:101C2000007A01FA00F0029988650298416D826D90
:101C3000520A5143C16502984FF40071016648E0B1
:101C40000298406C012832D1FFE7029890F86800B2
:101C50000090009800F03F0000040199086102988C
:101C600090F86F000090009801990A6942EA0020FC
:101C70000861029890F86E000090009801990A6936
:101C800010430861029890F86D0000900198006977
:101C90004FF4806101EB8020029948650299C86584
:101CA00002984FF4007181650298016610E0029875
:101CB000006840F2FF5181630298816B41F08051CE
:101CC00081630298012180F834108DF80F1088E0AC
:101CD000FFE70098C0F3801001994876009800F063
:101CE0003F00400001998876029890F86C000090BF
:101CF0009DF8000001998A7E42EAD010887600980B
:101D000000F07F000199C876029890F87300009067
:101D10009DF80000C009019908770098C0F34110B0
:101D2000019948770098C0F382000199887700985C
:101D300000F0030080000199C877029890F87200C3
:101D400000909DF800000199CA7F42EA9010C87780
:101D50000098C0F34010019981F8200001980021FB
:101D600080F82110009800F00100019A82F822000A
:101D7000029890F8710000909DF80000C009019A47
:101D800082F823000098C0F38010019A82F82400A2
:101D90000098C0F34010019A82F825000098C0F323
:101DA0000010019A82F826000098C0F38100019A81
:101DB00082F82700009800F00300019A82F82800BA
:101DC000029890F8700000909DF800004008019A79
:101DD00082F829000198012280F82A208DF80F103E
:101DE000FFE79DF80F0004B07047000080B582B097
:101DF00000900098002804D1FFE701208DF807002B
:101E00001FE0009890F83400002807D1FFE7009801
:101E100000210177009800F081F8FFE70098032186
:101E200080F83410009800F011F8009900228A63BD
:101E300000990A630099012381F834308DF8072056
:101E4000FFE79DF8070002B080BD000070B590B0BC
:101E50000E9000200D900790089009900A900B902A
:101E600076210C910E990968079A089BDDF824C029
:101E7000DDF828E00B9C0C9D6E46B5607460C6F8DA
:101E800000E00690084611461A46634601F0BEFE81
:101E900048F2A001C4F22521069A0A600E9B1B6835
:101EA00005901846049101F0E1FE0121049A1160A9
:101EB000022103900846FEF7DDFD0E9802F052FB6A
:101EC0000D900D9800280CD0FFE70E98012180F8A6
:101ED00034100D980E9A936B184390638DF83F1051
:101EE00017E00E9802F076FA0D900D9800280CD0AD
:101EF000FFE70E98012180F834100D980E9A936B2D
:101F0000184390638DF83F1003E000208DF83F00E8
:101F1000FFE79DF83F0010B070BD000080B58EB0A7
:101F20000D9000200C900B900A90099008900D984D
:101F3000006842F60041C4F20101884260D1FFE727
:101F4000FFE70020079043F64400C4F20200016856
:101F500041F400610160006800F400600790079898
:101F6000FFE7FFE70020069043F63000C4F20200CE
:101F7000016841F004010160006800F0040006906F
:101F80000698FFE7FFE70020059043F63000C4F213
:101F90000200016841F008010160006800F00800DB
:101FA00005900598FFE74FF48850089002200990AB
:101FB00000210A9103220B920C230C9340F6000C93
:101FC000C4F2020C0DF1200E04906046039171469C
:101FD00002920193CDF800E0FEF7C6FD04200890C0
:101FE0000498099003990A91029A0B92019B0C9311
:101FF00040F60040C4F202000099FEF7B5FDFFE78D
:102000000EB080BD80B58AB00890079106920898FE
:10201000002804D1FFE701208DF827003BE0089855
:1020200090F84900002808D1FFE70898002180F8BF
:102030004810089800F034F8FFE7089850F8081B9B
:10204000059008460599FEF733FA0899079A0B6838
:1020500089680490184603911146039AFEF76CFABA
:102060000899069A4B68D1F808C0096B0290184687
:10207000019111466246019BFEF7E2F908990A6850
:10208000896852F8213043F0010342F821300021E1
:102090008DF82710FFE79DF827000AB080BD0000EB
:1020A00080B582B00190FEF707FD02B080BD000050
:1020B00080B582B00190019802F00CFB02B080BDA7
:1020C00084B00290019100200090FFE7029890F800
:1020D0003C00012804D1FFE702208DF80F0044E006
:1020E0000298012180F83C10FFE7FFE7009820F0FC
:1020F000FF000199C96808430090009820F44070DF
:102100000199896808430090009820F48060019943
:10211000496808430090009820F40060019909681C
:1021200008430090009820F4805001990969084301
:102130000090009820F400500199496908430090EC
:10214000009820F480400199C969084300900098E4
:10215000029909684864FFE70298002180F83C1062
:10216000FFE700208DF80F00FFE79DF80F0004B097
:102170007047000085B003900291FFE7039890F844
:102180003C00012804D1FFE702208DF8130039E05C
:102190000398012180F83C10FFE7FFE70398022134
:1021A00080F83D100398006840680190039800682B
:1021B00080680090019820F07000019002980068FB
:1021C000019908430190009820F080000090029847
:1021D0004068009908430090019803990968486095
:1021E00000980399096888600398012180F83D10E0
:1021F000FFE70398002180F83C10FFE700208DF8EE
:102200001300FFE79DF8130005B0704780B584B058
:1022100002900298002804D1FFE701208DF80F00FA
:1022200021E0029890F83D00002808D1FFE70298CD
:10223000002180F83C10029800F01AF8FFE702989D
:10224000022180F83D10029850F8041B01900846C6
:10225000019902F01DFD0298012180F83D10002037
:102260008DF80F00FFE79DF80F0004B080BD00005F
:1022700082B00190019800680021C4F201018842F7
:1022800012D1FFE7FFE70020009043F64400C4F2BC
:102290000200016841F001010160006800F00100E6
:1022A00000900098FFE7FFE702B0704782B001900E
:1022B0000198022180F83D1001980068806800F0C4
:1022C000070000900098062807D0FFE701980068F3
:1022D000016841F001010160FFE70198012180F8E8
:1022E0003D10002002B0704780B58AB00890079179
:1022F000FFE7089890F83C00012804D1FFE702208E
:102300008DF82700B7E00898012180F83C10FFE71E
:10231000FFE70898022180F83D100898006880685F
:102320000690069820F077000690069820F47F40EB
:102330000690069808990968886007980068002840
:10234000059000F08280FFE7059810287DD0FFE718
:102350000598202879D0FFE70598302875D0FFE749
:102360000598402861D0FFE7059850283DD0FFE749
:102370000598602849D0FFE7059870280BD0FFE743
:102380000598B0F5805F05D0FFE70598B0F5005FD0
:1023900019D061E061E00898006807994A688B6885
:1023A000C96804911946049B02F05CFD0898006816
:1023B00080680690069840F0770006900698089985
:1023C0000968886049E00898006807994A688B683E
:1023D000C96803911946039B02F044FD0898006800
:1023E000816841F48041816037E00898006807996E
:1023F0004A68C96802911146029A02F01FFF0898C4
:102400000068502102F048FD27E00898006807990D
:102410004A68C96801911146019A02F037FF08988D
:102420000068602102F038FD17E0089800680799FD
:102430004A68C96800911146009A02F0FFFE0898A8
:102440000068402102F028FD07E00898006807991D
:10245000096802F021FD00E0FFE70898012180F8FB
:102460003D10FFE70898002180F83C10FFE70020AE
:102470008DF82700FFE79DF827000AB080BD000017
:1024800080B58CB00B9000200A90099008900790BE
:1024900006900B9800680021C4F2010188423AD1ED
:1024A000FFE7FFE70020059043F63000C4F202008A
:1024B000016841F001010160006800F00100059031
:1024C0000598FFE74FF480700690022007900021E6
:1024D00008910322099201220A920023C4F2020306
:1024E0000DF1180C04901846039161460292019375
:1024F000CDF800C0FEF738FB4FF40070069004984A
:102500000790039908910991029A0A9201980099FB
:10251000FEF72AFBFFE70CB080BD000080B586B057
:10252000049003910292FFE7049890F83C00012880
:1025300004D1FFE702208DF817008DE004980121F7
:1025400080F83C10FFE7FFE70498022180F83D1077
:1025500002980C28019000F270800199DFE801F0E8
:10256000076D6D6D206D6D6D3A6D6D6D5300049846
:102570000068039902F0A6FC04980068816941F0A4
:102580000801816104980068816921F0040181617A
:1025900003980069049909688A69104388614DE0CD
:1025A00004980068039902F003FD049800688169AB
:1025B00041F40061816104980068816921F48061BF
:1025C000816103980069049909688A6942EA0020D8
:1025D000886133E004980068039902F063FD049871
:1025E0000068C16941F00801C16104980068C169CF
:1025F00021F00401C1610398006904990968CA695E
:102600001043C8611AE004980068039902F0C4FD01
:1026100004980068C16941F40061C16104980068D0
:10262000C16921F48061C161039800690499096856
:10263000CA6942EA0020C86100E0FFE7049801216E
:1026400080F83D10FFE70498002180F83C10FFE778
:1026500000208DF81700FFE79DF8170006B080BD39
:1026600080B584B002900298002804D1FFE70120D1
:102670008DF80F0021E0029890F83D00002808D165
:10268000FFE70298002180F83C10029800F01AF849
:10269000FFE70298022180F83D10029850F8041BD1
:1026A00001900846019902F0F3FA0298012180F89E
:1026B0003D1000208DF80F00FFE79DF80F0004B0DB
:1026C00080BD000081B0009001B0704780B586B039
:1026D000059004910598006804990122029202F085
:1026E000A5FB0598006802990022C4F201029042FD
:1026F00001910CD0FFE7059800684FF60041CBF63A
:10270000FE710844B0FA80F040090190FFE701989B
:10271000C007002807D0FFE705980068416C41F426
:1027200000414164FFE705980068806800F00700F9
:1027300003900398062807D0FFE705980068016812
:1027400041F001010160FFE7002006B080BD0000FC
:1027500080B582B000900098002804D1FFE70120E6
:102760008DF8070040E000988069002801D0FFE75D
:1027700000E0FFE7009890F83900002808D1FFE753
:102780000098002180F83810009800F031F8FFE739
:102790000098242180F8391000980068C16821F45D
:1027A0000051C160009802F09BFD0098006801692B
:1027B00021F49041016100980068416921F02A01EB
:1027C000416100980068C16841F40051C1600098FF
:1027D0000021C1630098202280F83920009880F8F9
:1027E0003A208DF80710FFE79DF8070002B080BD82
:1027F00080B58EB00D9000200C900B900A9009903F
:1028000008900D98006841F20001C4F2010188426D
:1028100060D1FFE7FFE70020079043F64400C4F2D1
:102820000200016841F010010160006800F0100032
:1028300007900798FFE7FFE70020069043F6300077
:10284000C4F20200016841F001010160006800F07B
:10285000010006900698FFE7FFE70020059043F689
:102860003000C4F20200016841F00201016000681A
:1028700000F0020005900598FFE74FF48060089093
:102880000220099001210A9103220B9207230C9345
:1028900040F2000CC4F2020C0DF1200E04906046D0
:1028A0000391714602920193CDF800E0FEF75CF9C6
:1028B000402008900498099003990A91029A0B927B
:1028C000019B0C9340F20040C4F202000099FEF715
:1028D0004BF9FFE70EB080BDFFE7FEE780B588B09B
:1028E0000146ADF81E000020069040F2C810C2F26A
:1028F0000000028805924288059B5A430592808811
:1029000046F60402904220D1FFE740F2C810C2F21E
:1029100000008079012818D1FFE740F2C810C2F208
:102920000000002181712A2242812B23838104909F
:1029300008460392029300F055FC01200499887127
:1029400002984881039A8A8105E00020019001994C
:1029500000F048FCFFE700F09BFE00200690FFE738
:102960000698059988420BD2FFE7BDF81E000021AA
:10297000C6F208010880FFE7069801300690EFE7ED
:1029800008B080BD80B582B001468DF807009DF883
:102990000700002876D1FFE740F2C810C2F200001D
:1029A00000218171F02101804FF4A0714180808865
:1029B00049F24131884214D0FFE740F2C810C2F218
:1029C0000000808846F6040188420AD0FFE740F202
:1029D000C810C2F20000808845F21031884226D12A
:1029E000FFE740F2C810C2F200002C2101812A2129
:1029F00041812B218181808846F6040188420AD0DA
:102A0000FFE740F2C810C2F20000808845F21031A2
:102A100088420BD1FFE740F2C810C2F200004FF429
:102A2000A07101804FF4F0714180FFE729E040F28E
:102A3000C810C2F20000808845F21051884214D1BB
:102A4000FFE740F2C810C2F200004FF4305101819C
:102A50004FF4285141814FF42C5181814FF4F07192
:102A600001804FF4487141800AE040F2C810C2F280
:102A70000000222101812021418121218181FFE764
:102A8000FFE785E040F2C810C2F200000121817129
:102A90004FF4A0710180F0214180808849F24131DA
:102AA00088420AD0FFE740F2C810C2F200008088D6
:102AB00045F2103188420BD1FFE740F2C810C2F254
:102AC00000002C2101812A2141812B2181813FE0BD
:102AD00040F2C810C2F20000808846F60401884225
:102AE0000BD1FFE740F2C810C2F200002C21018197
:102AF0002B2141812A21818129E040F2C810C2F2B4
:102B00000000808845F21051884214D1FFE740F25E
:102B1000C810C2F200004FF4305101814FF4285127
:102B200041814FF42C5181814FF4487101804FF461
:102B3000F07141800AE040F2C810C2F20000222188
:102B400001812121418120218181FFE7FFE7FFE70A
:102B500040F2C810C2F20000808846F604018842A4
:102B60000AD0FFE740F2C810C2F20000808845F2A8
:102B7000103188420BD1FFE740F2C810C2F20000CA
:102B80004FF4F07101804FF4A0714180FFE7FFE73F
:102B9000002000F009F902B080BD000080B586B0C9
:102BA00013468C468646ADF81600ADF81410ADF805
:102BB000122040F2C810C2F20000808849F2413170
:102BC00088420AD0FFE740F2C810C2F200008088B5
:102BD00045F2103188421ED1FFE740F2C810C2F220
:102BE000000041890390084600F040FD9DF8170061
:102BF00000F02CFD9DF8160000F028FD0398808958
:102C000000F034FD9DF8150000F020FD9DF8140043
:102C100000F01CFD98E040F2C810C2F2000080886D
:102C200045F2105188422AD1FFE740F2C810C2F2A3
:102C3000000041890290084600F018FD9DF8170039
:102C400000F004FD02984189013188B200F00EFDC8
:102C50009DF8160000F0FAFC0298808900F006FD4D
:102C60009DF8150000F0F2FC02988189013188B2CC
:102C700000F0FCFC9DF8140000F0E8FC63E040F27A
:102C8000C810C2F20000808846F60401884232D1A2
:102C9000FFE740F2C810C2F20000807901280CD191
:102CA000FFE740F2C810C2F200000088BDF816101D
:102CB000C9430844ADF81600FFE740F2C810C2F25D
:102CC000000041890190084600F0D0FC9DF81700F3
:102CD00000F0BCFC9DF8160000F0B8FC019880895B
:102CE00000F0C4FC9DF8150000F0B0FC9DF8140045
:102CF00000F0ACFC26E040F2C810C2F2000080797F
:102D000001280CD1FFE740F2C810C2F20000008891
:102D1000BDF81610C9430844ADF81600FFE740F2AD
:102D2000C810C2F200004189BDF816200090084684
:102D3000114600F0B9FC00988089BDF8141000F02D
:102D4000B3FCFFE7FFE7FFE740F2C810C2F2000064
:102D500000894FF6FE71C6F207010880BDF8120027
:102D60000021C6F20801088006B080BD81B00020B5
:102D7000C6F208000088ADF80200BDF8020001B0FC
:102D80007047000080B582B00146ADF80600BDF87E
:102D90000600009100F06AFC0520FDF76BFEFFF7CE
:102DA000E5FF02B080BD000080B58AB001468DF815
:102DB00027000020ADF82400ADF8220040F2C81032
:102DC000C2F200008079012838D1FFE740F2C81034
:102DD000C2F20000808846F6040188422ED0FFE748
:102DE0009DF8270001460728079126D80799DFE8B4
:102DF00001F004080C1014181C2006208DF8270080
:102E00001BE007208DF8270017E004208DF827002D
:102E100013E005208DF827000FE001208DF8270032
:102E20000BE000208DF8270007E003208DF8270035
:102E300003E002208DF82700FFE7FFE740F2C8100B
:102E4000C2F20000808849F2413188421FD0FFE77A
:102E500040F2C810C2F20000808846F604018842A1
:102E600015D0FFE740F2C810C2F20000808845F29A
:102E7000103188420BD0FFE740F2C810C2F20000C8
:102E8000808845F21051884240F05A81FFE79DF852
:102E9000270001460728069138D80699DFE801F097
:102EA00004050C131A21282F30E0BDF8240040F04F
:102EB0008000ADF8240029E0BDF8240040F0400077
:102EC000ADF8240022E0BDF8240040F0C000ADF8C9
:102ED00024001BE0BDF8240040F02000ADF82400E1
:102EE00014E0BDF8240040F06000ADF824000DE0CF
:102EF000BDF8240040F0A000ADF8240006E0BDF8C5
:102F0000240040F0E000ADF82400FFE740F2C810D4
:102F1000C2F20000808845F21051884205D1FFE7D7
:102F20004FF45850ADF8220003E03620ADF82200EF
:102F3000FFE740F2C810C2F20000808845F210316D
:102F4000884211D0FFE740F2C810C2F2000080882A
:102F500045F21051884207D0FFE7BDF8240040F049
:102F60000800ADF82400FFE740F2C810C2F20000EC
:102F7000808846F60401884207D1FFE7BDF82400A7
:102F800040F00200ADF82400FFE7BDF82200BDF8D4
:102F9000241000F089FBBDF824008006002808D426
:102FA000FFE740F2C810C2F200008079012817D173
:102FB000FFE740F2C810C2F2000001884088814259
:102FC0000DDAFFE740F2C810C2F200000188ADF848
:102FD000201041880180BDF820104180FFE716E0F5
:102FE00040F2C810C2F200000188408881420DDD25
:102FF000FFE740F2C810C2F200000188ADF82010CF
:1030000041880180BDF820104180FFE7FFE740F2D2
:10301000C810C2F20000808845F21051884259D190
:10302000FFE740F2C810C2F200004189059008464F
:1030300000F01CFB0020049000F008FB059841897B
:10304000013188B200F012FB049800F0FFFA0598F5
:103050004189023188B200F009FB059801880139E5
:10306000C1F30F2000F0F2FA05984189033188B2CC
:1030700000F0FCFA059801880139C8B200F0E6FAC0
:103080000598808900F0F2FA049800F0DFFA0598BC
:103090008189013188B200F0E9FA049800F0D6FA8B
:1030A00005988189023188B200F0E0FA05984188DC
:1030B0000139C1F30F2000F0C9FA05988189033165
:1030C00088B200F0D3FA059841880139C8B200F0FF
:1030D000BDFA34E040F2C810C2F20000418903900A
:1030E000084600F0C3FA0020029000F0AFFA029800
:1030F00000F0ACFA039801880139C1F30F2000F009
:10310000A5FA039801880139C8B200F09FFA039824
:10311000808900F0ABFA029800F098FA029800F06B
:1031200095FA039841880139C1F30F2000F08EFA17
:10313000039841880139C8B200F088FAFFE74EE0F1
:103140009DF8270001460728019138D80199DFE84A
:1031500001F0040B12191A21282FBDF8240040F0A9
:103160003000ADF824002AE0BDF8240040F0100043
:10317000ADF8240023E0BDF8240040F02000ADF8B5
:1031800024001CE01BE0BDF8240040F03800ADF83E
:10319000240014E0BDF8240040F02800ADF824001D
:1031A0000DE0BDF8240040F01800ADF8240006E062
:1031B000BDF8240040F00800ADF82400FFE703202C
:1031C000ADF82200BDF8240040F48050ADF8240092
:1031D000BDF82200BDF8241000F066FAFFE70AB03F
:1031E00080BD000080B586B00A460346ADF81600E3
:1031F000ADF8141040F2C810C2F20000808849F205
:10320000413188420AD0FFE740F2C810C2F2000004
:10321000808845F2103188421ED1FFE740F2C81085
:10322000C2F2000041890490084600F01FFA9DF8A0
:10323000170000F00BFA9DF8160000F007FA04984A
:10324000808900F013FA9DF8150000F0FFF99DF851
:10325000140000F0FBF998E040F2C810C2F2000040
:10326000808846F60401884232D1FFE740F2C81058
:10327000C2F20000807901280CD1FFE740F2C810AB
:10328000C2F200000088BDF81610C9430844ADF82A
:103290001600FFE740F2C810C2F200004189039017
:1032A000084600F0E3F99DF8170000F0CFF99DF80B
:1032B000160000F0CBF90398808900F0D7F99DF84B
:1032C000150000F0C3F99DF8140000F0BFF95BE0B1
:1032D00040F2C810C2F20000808845F210518842C6
:1032E0002AD1FFE740F2C810C2F2000041890290E3
:1032F000084600F0BBF99DF8170000F0A7F9029806
:103300004189013188B200F0B1F99DF8160000F052
:103310009DF90298808900F0A9F99DF8150000F048
:1033200095F902988189013188B200F09FF99DF8E2
:10333000140000F08BF926E040F2C810C2F2000041
:10334000807901280CD1FFE740F2C810C2F20000DA
:103350000088BDF81610C9430844ADF81600FFE711
:1033600040F2C810C2F200004189BDF81620019059
:103370000846114600F098F901988089BDF81410AC
:1033800000F092F9FFE7FFE7FFE706B080BD00001D
:1033900070B584B0DDF820C09E4614460D46064642
:1033A000ADF80E00ADF80C108DF80B208DF80A303A
:1033B0008DF809C0BDF80C00ADF804009DF80A00B6
:1033C000C108012202EBD0024307002B18BF1146AF
:1033D0004FEA500001FB00F08DF803009DF80B0050
:1033E000A0F120008DF80B004FF000008DF80600D2
:1033F000FFE79DF806009DF80310884280F2B08038
:10340000FFE79DF80A000C2810D1FFE79DF80B009C
:1034100000EB400045F6D401C0F6000101EB80004E
:103420009DF80610405C8DF808002AE09DF80A001F
:1034300010280ED1FFE79DF80B0045F64851C0F665
:10344000000101EB00109DF80610405C8DF80800AB
:1034500016E09DF80A00182810D1FFE79DF80B0030
:1034600000EBC00046F23831C0F6000101EB8000ED
:103470009DF80610405C8DF8080000E070E0FFE762
:10348000FFE700208DF80700FFE79DF807000728F9
:103490005FDCFFE79DF80800000600280CD5FFE779
:1034A000BDF80E00BDF80C1040F21402C2F200028A
:1034B0001288FFF773FB11E09DF8090000280CD17A
:1034C000FFE7BDF80E00BDF80C1040F20002C2F29A
:1034D00000021288FFF762FBFFE7FFE79DF8080094
:1034E00040008DF80800BDF80C000130ADF80C006C
:1034F000BDF80E0040F2C811C2F2000109888842EE
:1035000001DBFFE72CE0BDF80C00BDF80410401A09
:103510009DF80A10884215D1FFE7BDF80400ADF808
:103520000C00BDF80E000130ADF80E00BDF80E0025
:1035300040F2C811C2F200010988884201DBFFE7AE
:103540000EE006E0FFE79DF8070001308DF8070068
:103550009BE7FFE79DF8060001308DF8060048E77D
:1035600004B070BDF0B585B0DDF82CC0DDF828E002
:103570001C4615460E460746ADF81200ADF8101071
:10358000ADF80E20ADF80C308DF80BE09DF8120070
:103590008DF80A00BDF81200BDF80E100844ADF811
:1035A0000E00BDF81000BDF80C100844ADF80C007A
:1035B000FFE70B98007800217E28019108DCFFE7E7
:1035C0000B98007800211F28C8BF01210191FFE757
:1035D0000198C007002836D0FFE7BDF81200BDF8FB
:1035E0000E1088420CDBFFE79DF80A00ADF81200D0
:1035F0009DF80B00BDF810100844ADF81000FFE76F
:10360000BDF81000BDF80C10884201DBFFE71AE09E
:10361000BDF81200BDF810100B9A12789DF80B300F
:10362000EC464FF0000ECCF800E0FFF7B1FE9DF83D
:103630000B00BDF8121001EB5000ADF812000B9812
:1036400001300B90B5E705B0F0BD000081B0014638
:10365000ADF80200BDF80200ADF80200BDF80200AE
:103660000022C6F20802108001B0704781B0014606
:10367000ADF80200BDF80200ADF80200BDF802008E
:103680004FF6FE72C6F20702108001B070470000CC
:1036900040F2C810C2F2000000894FF6FE71C6F277
:1036A000070108807047000081B00A460346ADF864
:1036B0000200ADF80010BDF802004FF6FE71C6F230
:1036C00007010880BDF800000021C6F2080108804B
:1036D00001B0704780B584B0002003900290019043
:1036E000009040F21801C2F2000142F20002C4F25E
:1036F00001020A604FF480324A60886008610876EF
:1037000081F82000C8620122C0F600728A62C86097
:103710000122CA6181F830004A610846FDF754F879
:10372000002803D0FFE7FCF789FEFFE700200090A8
:1037300001210191029040F21800C2F20000694696
:10374000FCF732FF002803D0FFE7FCF777FEFFE726
:1037500004B080BD80B584B000200390029040F298
:103760006000C2F2000047F20041C4F200010160B3
:10377000FDF714F9002803D0FFE7FCF75FFEFFE731
:1037800000200290039040F26001C2F2000102AA00
:10379000019008461146019AFDF7B0F8002803D0C1
:1037A000FFE7FCF74BFEFFE704B080BD80B590B0AB
:1037B00000200F900E900D900C900B900A900990A5
:1037C000089007900690059004900390029040F2B4
:1037D000F801C2F200014FF020420A6040F20412E8
:1037E000CAF200024A608860C860086110224A611B
:1037F0008861C861086248624FF480538B62C86276
:103800004FF480430B634863886348640F23099334
:103810000A934FF0180CCDF82CC00C900D924FF07D
:10382000110CCDF838C00F904FF0030ECDF808E022
:1038300003930223049305900692CDF81CC00890D0
:1038400009A802AA019008460199FEF7DBFB0028AF
:1038500003D0FFE7FCF7F2FDFFE710B080BD0000EA
:1038600080B592B00020119010900F900E900D90A6
:10387000FFE700200C9043F63000C4F2020001681C
:1038800041F010010160006800F010000C900C98ED
:10389000FFE7FFE700200B9043F63000C4F2020080
:1038A000016841F080010160006800F080000B9029
:1038B0000B98FFE7FFE700200A9043F63000C4F2C0
:1038C0000200016841F001010160006800F00100A0
:1038D0000A900A98FFE7FFE70020099043F63000BE
:1038E000C4F20200016841F004010160006800F0C8
:1038F000040009900998FFE7FFE70020089043F6CD
:103900003000C4F20200016841F008010160006863
:1039100000F0080008900898FFE7FFE700200790F4
:1039200043F63000C4F20200016841F00201016078
:10393000006800F0020007900798FFE741F20000DE
:10394000C4F2020004210022069005910492FDF7C2
:10395000EDFA40F60000C4F202001021039002913B
:10396000049AFDF7E3FA05980D9001210E91049A4F
:103970000F9210920DAB0698019119460093FDF736
:10398000F3F802980D9001990E91049A0F921092FB
:1039900003980099FDF7E8F812B080BD80B540F2B9
:1039A0007400C2F2000042F60041C4F2010101605D
:1039B000002141608160C160016141618161FEF768
:1039C00015FA002803D0FFE7FCF738FDFFE780BDBC
:1039D00080B596B00020159014901390129011901D
:1039E00010900F900E900D900C900B900A900990F3
:1039F0000890079006900590049003900290019023
:103A000040F24811C2F200010022C4F201020A6031
:103A100053224A608860C822CA6008614861886190
:103A20000846FEF7F3FB002803D0FFE7FCF706FD8E
:103A3000FFE74FF48050129040F24810C2F20000AD
:103A400012A9FEF751FC002803D0FFE7FCF7F6FCB3
:103A5000FFE740F24810C2F20000FEF701FE002826
:103A600003D0FFE7FCF7EAFCFFE70020109011907D
:103A700040F24810C2F2000010A9FEF77BFB0028BC
:103A800003D0FFE7FCF7DAFCFFE760200990002095
:103A90000A900B900C900D900E900F9040F24811F0
:103AA000C2F2000109AA009008461146009AFEF7EA
:103AB00035FD002803D0FFE7FCF7C0FCFFE740F22C
:103AC0004810C2F2000009A90422FEF727FD0028D1
:103AD00003D0FFE7FCF7B2FCFFE700200190029063
:103AE0000390049005904FF400510691089040F225
:103AF0004810C2F2000001A9FEF7E2FA002803D044
:103B0000FFE7FCF79BFCFFE740F24810C2F2000021
:103B1000FEF7B6FC16B080BD80B540F28810C2F248
:103B2000000041F20001C4F2010101604FF4E131F3
:103B3000416000218160C16001610C2242618161AC
:103B4000C161FEF705FE002803D0FFE7FCF776FC15
:103B5000FFE780BDFFE7FEE77047000088B00790F1
:103B600006910592079800F0070004900498C0F1B0
:103B70000700052803D3FFE70420019004E0049820
:103B8000C0F107000190FFE701980390049804300A
:103B9000062803D8FFE70020009003E004980338CC
:103BA0000090FFE70098029006980399012202FA1C
:103BB00001F10139084002998840059B02FA01F1A0
:103BC00001391940084308B07047000070470000F1
:103BD00081B0009000980069C0B201B07047000049
:103BE00081B000900098006800F0030001B07047B9
:103BF00083B002900191002000900298019908443E
:103C0000143000900098006803B07047F0B588B099
:103C1000DDF83CC0DDF838E00D9C1D4616460F4629
:103C2000CDF81CC0CDF818E00594049303920291DE
:103C30000190002000900299039A049BDDF814C0C3
:103C40001143194341EA0C01069A1143079A1143A3
:103C5000009A114300910199496847F6FF62914328
:103C6000009A1143019A516008B0F0BD81B00090F4
:103C7000009803210160002001B0704783B00290DA
:103C800001910020009001990968029A91600199C0
:103C90004A688B68D1F80CC009691A4342EA0C02E1
:103CA0001143009A114300910299C96840F6FF72CE
:103CB0009143009A1143029AD16003B0704700000B
:103CC00080B58AB00990089100200290089903916C
:103CD000372104914022059206904FF480600790AE
:103CE000099803AA01911146FFF7C8FF099941F20B
:103CF000883200900846019900F010F9029002986D
:103D00000AB080BD80B58AB0099008910020029069
:103D100008990022C8F2100211430391292104914D
:103D20004021059106904FF480600790099803A9FF
:103D3000FFF7A4FF09990190084600F04FFA02909E
:103D400002980AB080BD000080B588B007900020BE
:103D5000019002900390049005904FF480600690CB
:103D6000079802A9FFF78AFF07990090084600F01C
:103D7000A5F80190019808B080BD000080B588B01A
:103D80000790002001904FF4D57102910821039112
:103D90004021049105904FF480600690079802A995
:103DA000FFF76CFF07990090084600F0D1FA0190E8
:103DB000019808B080BD000080B58EB019469446C9
:103DC0000D900B930A92002004900A9A0592072204
:103DD00006924023079308904FF4806009900D9855
:103DE00005AB03911946CDF808C00192FFF746FFD5
:103DF0000D9941F2883200900846019900F08EF842
:103E0000049004980EB080BD80B588B00790002063
:103E10000190029002210391C021049105904FF47A
:103E200080600690079802A9FFF728FF0799009085
:103E3000084600F08BF90190019808B080BD0000A1
:103E400080B58AB0099008910020029008990391EA
:103E500009210491C021059106904FF480600790DC
:103E6000099803A9FFF70AFF09990190084600F095
:103E70006DF9029002980AB080BD000080B58AB04A
:103E800009900891002002900390032104914022A0
:103E9000059206904FF480600790099803AA01915B
:103EA0001146FFF7EBFE0999089A00900846019920
:103EB00000F0D0F9029002980AB080BD83B0019062
:103EC00040F20400C2F200000068C00844F6D3517A
:103ED000C1F26201A0FB0101890941F2883251431C
:103EE0000091FFE70098411E0091002804D1FFE7F0
:103EF0004FF0004002900DE0FFE70198406B000694
:103F00000028EFD5FFE7019840F2FF5181630020C0
:103F10000290FFE7029803B07047000080B586B0BA
:103F20000B4604908DF80F100292029840F20401A3
:103F3000C2F200010968C90844F6D352C1F2620214
:103F4000A1FB0212920950430090FFE70098411E26
:103F50000091002804D1FFE74FF000400590F2E007
:103F6000FFE70498406B10F0450FEFD0FFE704988F
:103F7000406B4007002805D5FFE7049804218163C2
:103F80000591E0E00498406BC007002805D0FFE7EA
:103F90000498012181630591D5E0FFE70498FFF7BC
:103FA00017FE9DF80F10884203D0FFE7012005900F
:103FB000C9E0049840F2FF51816304980021FFF7A3
:103FC00017FE019001984EF20801CFF6FF5108420A
:103FD00003D1FFE700200590B5E09DF8070000063B
:103FE000002804D5FFE74FF000700590ABE09DF886
:103FF00007004006002803D5FFE740200590A2E017
:104000009DF807008006002803D5FFE78020059073
:1040100099E09DF80700C006002804D5FFE74FF49B
:10402000807005908FE09DF807000007002804D5F8
:10403000FFE74FF40070059085E09DF8070040070A
:10404000002804D5FFE74FF4806005907BE09DF8E1
:104050000700C007002804D0FFE74FF40060059078
:1040600071E09DF806000006002804D5FFE74FF434
:104070008050059067E09DF806004006002804D5B2
:10408000FFE74FF4005005905DE09DF806008006C4
:10409000002804D5FFE74FF48040059053E09DF8D9
:1040A0000600C006002804D5FFE74FF40040059045
:1040B00049E09DF806004007002804D5FFE74FF4CB
:1040C000003005903FE09DF806008007002804D5E9
:1040D000FFE74FF48020059035E09DF80600C0070B
:1040E000002804D0FFE74FF4002005902BE09DF856
:1040F00005000006002804D5FFE74FF48010059066
:1041000021E09DF805004006002804D5FFE74FF4A4
:104110000010059017E09DF805008006002804D5E2
:10412000FFE74FF4800005900DE09DF804000007C4
:10413000002804D5FFE74FF40000059003E04FF49A
:1041400080300590FFE7059806B080BD83B00190F0
:1041500040F20400C2F200000068C00844F6D351E7
:10416000C1F26201A0FB0101890941F28832514389
:104170000091FFE70098411E0091002804D1FFE75D
:104180004FF00040029025E0FFE70198406B10F0EF
:10419000450FEFD0FFE70198406B4007002805D599
:1041A000FFE7019804218163029113E00198406BBD
:1041B000C007002805D0FFE7019801218163029123
:1041C00008E0019840F2FF518163FFE7FFE700201C
:1041D0000290FFE7029803B07047000083B001909F
:1041E00040F20400C2F200000068C00844F6D35157
:1041F000C1F26201A0FB0101890941F288325143F9
:104200000091FFE70098411E0091002804D1FFE7CC
:104210004FF00040029019E0FFE70198406B10F06A
:10422000450FEFD0FFE70198406B4007002805D508
:10423000FFE7019804218163029107E0019840F2B1
:10424000FF518163FFE700200290FFE7029803B06F
:104250007047000080B586B00B4604908DF80F10B3
:10426000029240F20400C2F200000068C00844F666
:10427000D351C1F26201A0FB0101890941F28832E8
:1042800051430091FFE70098411E0091002804D19E
:10429000FFE74FF00040059056E0FFE70498406BC1
:1042A00010F0450FEFD0FFE70498406B400700285F
:1042B00005D5FFE7049804218163059144E0049843
:1042C000406BC007002805D0FFE7049801218163F7
:1042D000059139E0FFE70498FFF77AFC9DF80F108D
:1042E000884203D0FFE7012005902DE0049840F2BA
:1042F000FF51816304980021FFF77AFC01909DF83B
:10430000050010F0E00F07D1FFE7BDF806000299A5
:1043100008800020059017E09DF805004006002861
:1043200004D5FFE74FF4005005900DE09DF805001F
:104330000006002804D5FFE74FF48050059003E005
:104340004FF480300590FFE7059806B080BD00006F
:1043500083B0019040F20400C2F200000068C0087F
:1043600044F6D351C1F26201A0FB0101890941F277
:10437000883251430091FFE70098411E00910028C8
:1043800004D1FFE74FF0004002901FE0FFE70198E3
:10439000406B10F0450FEFD0FFE70198406B4007EE
:1043A000002806D5FFE70198402181630420029090
:1043B0000CE00198406B4006002804D5FFE7019807
:1043C00040218163FFE700200290FFE7029803B0DD
:1043D00070470000B0B594B0129000200690012004
:1043E000ADF8160012980068FFF7FAFB002804D118
:1043F000FFE74FF080601390B1E01298406C032803
:104400002BD0FFE712980068FFF7FEFC0690069895
:10441000002803D0FFE706981390A0E012980068E8
:104420000021FFF7E5FB1299486712980068042104
:10443000FFF7DEFB12998867129800680821FFF7E2
:10444000D7FB1299C867129800680C21FFF7D0FBC0
:104450001299C1F88000FFE7FFE71298406C03282B
:104460000FD0FFE7129800680DF11601FFF706FD67
:1044700006900698002803D0FFE7069813906EE098
:10448000FFE71298406C032833D0FFE7BDF8160011
:104490001299086512980168006D0004049008469E
:1044A0000499FFF7CDFC06900698002803D0FFE79B
:1044B0000698139053E0129800680021FFF798FBCC
:1044C00012994866129800680421FFF791FB12992F
:1044D0008866129800680821FFF78AFB1299C8665F
:1044E000129800680C21FFF783FB12990867FFE719
:1044F000FFE7129800680421FFF77AFB000D12997C
:10450000C864129807A9FDF7D3FA12990A68096DD1
:1045100009040023039010460A46FFF74DFC06905D
:104520000698002803D0FFE70698139017E012982A
:10453000016842688368D0F80CC0D0F810E0446984
:1045400080696D46A8606C60C5F800E008461146B9
:104550001A466346FFF75AFB00211391FFE71398B1
:1045600014B0B0BD80B586B00490002003900290D6
:104570000190009004980068FFF7E6FB0090009817
:10458000002803D0FFE7009805909DE0049800689C
:10459000FFF7F4FB00900098002844D0FFE7049850
:1045A00000218164FFE70198002838D1FFE70398D4
:1045B000411C03914FF6FF71884204D1FFE74FF091
:1045C0008070059080E0049800680021FFF778FB78
:1045D00000900098002804D0FFE74FF0805005902D
:1045E00072E0049800680021FFF78CFB00900098AF
:1045F000002804D0FFE74FF08050059064E0049855
:1046000000680021FFF7F4FA029002984FF0FF31A2
:1046100001EBD070B0FA80F040090190C3E7049834
:10462000002141644DE0049801218164FFE7019875
:10463000002837D1FFE70398411C03914FF6FF7123
:10464000884204D1FFE74FF0807005903CE0049869
:1046500000680021FFF734FB00900098002803D089
:10466000FFE7009805902FE0049800684FF0804124
:10467000FFF748FB00900098002803D0FFE7009860
:10468000059021E0049800680021FFF7B1FA02903C
:1046900002984FF0FF3101EBD070B0FA80F0400982
:1046A0000190C4E79DF80B004006002804D5FFE701
:1046B00004980121416403E0049800214164FFE76C
:1046C000FFE700200590FFE7059806B080BD0000D9
:1046D0007047000080B582B0009000980138B0F1BA
:1046E000807F03D3FFE70120019019E00098013893
:1046F0004EF21401CEF2000108604FF0FF300F219E
:1047000001F010F84EF21800CEF200000021016016
:104710004EF21000CEF20000072202600191FFE786
:10472000019802B080BD000080B5FCF71FFC80BD81
:1047300080B594B008A83021FBF77AFD00200790DF
:104740000690059004900390FFE70020029043F646
:104750004000C4F20200016841F08051016000682D
:1047600000F0805002900298FFE7FFE700200190E0
:1047700047F20000C4F20000016841F4804101608A
:10478000006800F4804001900198FFE70120089044
:104790004FF4A020099002200E904FF480010F9159
:1047A000192110914FF4A8711191129007201390C4
:1047B00008A8FCF75FFE002803D0FFE7FBF73EFEEA
:1047C000FFE70F20039002200490002005904FF493
:1047D000A05006904FF48050079003A80521FCF7E5
:1047E0007BFC002803D0FFE7FBF728FEFFE714B0AF
:1047F00080BD00004EF68850CEF20000016841F402
:104800007001016043F60000C4F20200016841F04B
:104810000101016043F60801C4F2020100220A60AE
:1048200001684FF6FF73CFF6F6631940016043F657
:104830000401C4F2020143F21003C2F200430B6010
:10484000016821F48021016043F60C00C4F20200EB
:1048500002604EF60850CEF200004FF00061016099
:104860007047000080B596B00020159041F200011D
:10487000C4F2020104221490084613911146149BBD
:1048800012921A46FCF752FBC820FCF7F3F80120FD
:104890001399119008461299119AFCF747FB3220A0
:1048A0001090FCF7E7F814981199FEF7FDFE1098A8
:1048B000FCF7E0F81498FEF765FA40F2C811C2F26E
:1048C000000188808888FF2814DBFFE740F2C810C9
:1048D000C2F2000080884FF6FF7188420AD0FFE7DD
:1048E00040F2C810C2F200008088B0F5134F40F0CB
:1048F0009D80FFE7D320FEF7B9FEFEF737FA40F2BE
:10490000C811C2F2000188800F91FEF72FFA0F99AB
:104910008880FEF72BFA0F998880888800028880AB
:10492000FEF724FA0F998A8810438880888849F214
:104930004132904279D0FFE7BF20FEF797FEFEF7A5
:1049400015FA40F2C811C2F2000188800E91FEF7FC
:104950000DFA0E998880FEF709FA0E998880FEF705
:1049600005FA0E998880888800028880FEF7FEF993
:104970000E998A8810438880888846F604029042FF
:1049800052D0FFE7D420FEF771FEFEF7EFF940F2B8
:10499000C811C2F2000188800D91FEF7E7F90D9968
:1049A0008880FEF7E3F90D99888088880002888066
:1049B000FEF7DCF90D998A8810438880888845F2D3
:1049C000103290422FD0FFE74FF45A40FEF74EFED0
:1049D000FEF7CCF940F2C811C2F2000188804FF412
:1049E0005B400C91FEF742FEFEF7C0F90C998880FF
:1049F0008888000288804FF45C40FEF737FEFEF79F
:104A0000B5F90C998A88104388808888B0F5004FE2
:104A100008D1FFE740F2C810C2F2000045F2105181
:104A20008180FFE7FFE7FFE7FFE7FFE7CF20FEF723
:104A30001DFE00200B90FEF709FE15980130159021
:104A4000C1200A90FEF702FE30200990FEF7FEFD1D
:104A5000ED20FEF70BFE6420FEF7F8FD0320FEF7C5
:104A6000F5FD1220FEF7F2FD8120FEF7EFFDE820B4
:104A7000FEF7FCFD8520FEF7E9FD10200890FEF70B
:104A8000E5FD7A20FEF7E2FDCB20FEF7EFFD3920B1
:104A9000FEF7DCFD2C20FEF7D9FD0B98FEF7D6FDC6
:104AA0003420FEF7D3FD0220FEF7D0FDF720FEF7FD
:104AB000DDFD2020FEF7CAFDEA20FEF7D7FD0B98AA
:104AC000FEF7C4FD0B98FEF7C1FDC020FEF7CEFD3A
:104AD0001B20FEF7BBFD0A98FEF7C8FD01200790DA
:104AE000FEF7B4FDC520FEF7C1FD0998FEF7AEFD47
:104AF0000998FEF7ABFDC720FEF7B8FDB720FEF71B
:104B0000A5FD3620FEF7B2FD4820FEF79FFD3A20B6
:104B1000FEF7ACFD5520FEF799FDB120FEF7A6FD8E
:104B20000B98FEF793FD1A20FEF790FDB620FEF7D6
:104B30009DFD0A200690FEF789FDA220FEF786FD66
:104B4000F220FEF793FD0B98FEF780FD2620FEF77E
:104B50008DFD0798FEF77AFDE020FEF787FD0F2018
:104B60000590FEF773FD2A200490FEF76FFD2820C4
:104B7000FEF76CFD08200390FEF768FD0E20FEF79F
:104B800065FD0398FEF762FD5420FEF75FFDA92046
:104B9000FEF75CFD4320FEF759FD0698FEF756FD33
:104BA0000598FEF753FD0B98FEF750FD0B98FEF7A6
:104BB0004DFD0B98FEF74AFD0B98FEF747FDE120EF
:104BC000FEF754FD0B98FEF741FD1520FEF73EFD64
:104BD0001720FEF73BFD0720FEF738FD112002905D
:104BE000FEF734FD0620FEF731FD2B200190FEF785
:104BF0002DFD5620FEF72AFD3C20FEF727FD05205F
:104C0000FEF724FD0898FEF721FD0598FEF71EFD2E
:104C10003F200090FEF71AFD0098FEF717FD05985B
:104C2000FEF714FD0198FEF721FD0B98FEF70EFD2F
:104C30000B98FEF70BFD0798FEF708FD0098FEF7AE
:104C400005FD0498FEF712FD0B98FEF7FFFC0B988C
:104C5000FEF7FCFC0B98FEF7F9FCEF20FEF7F6FCE4
:104C60000298FEF703FD7820FBF704FF2920FEF7EA
:104C7000FDFC0798FDF786FE48F28420C4F2402030
:104C8000079901604FF6FF70FDF728FE16B080BD52
:104C900083B0029001910298006800900298002170
:104CA000C4F20101884225D0FFE70298B0F1804F9D
:104CB00020D0FFE7029840F20041C4F20001884290
:104CC00018D0FFE7029840F60001C4F200018842C4
:104CD00010D0FFE7029840F60041C4F2000188427C
:104CE00008D0FFE7029840F20041C4F20101884277
:104CF0000AD1FFE7009820F070000090019840680A
:104D0000009908430090FFE702980021C4F20101D6
:104D1000884255D0FFE70298B0F1804F50D0FFE7AE
:104D2000029840F20041C4F20001884248D0FFE7F7
:104D3000029840F60001C4F20001884240D0FFE72B
:104D4000029840F60041C4F20001884238D0FFE7E3
:104D5000029840F20041C4F20101884230D0FFE7DE
:104D6000029844F20001C4F20101884228D0FFE712
:104D7000029844F20041C4F20101884220D0FFE7CA
:104D8000029844F60001C4F20101884218D0FFE7FE
:104D9000029841F60001C4F20001884210D0FFE7FA
:104DA000029841F60041C4F20001884208D0FFE7B2
:104DB000029842F20001C4F2000188420AD1FFE7E2
:104DC000009820F4407000900198C0680099084352
:104DD0000090FFE7009820F080000199496908439E
:104DE0000090009802990860019880680299C86252
:104DF000019800680299886202980021C4F20101BA
:104E0000884208D0FFE7029840F20041C4F2010155
:104E1000884205D1FFE70198006902990863FFE71E
:104E200002980121416103B07047000084B00390F3
:104E300002910192029800F01F00012101FA00F096
:104E40000090009803990A6A22EA0000086201981B
:104E5000029901F01F01884003990A6A1043086211
:104E600004B0704785B004900391029201930498B6
:104E700080680090009820F47F4000900398029989
:104E8000019A41EA022108430099084300900098E2
:104E90000499886005B0704783B002900191029830
:104EA00080680090009820F07000009001980099B0
:104EB000084340F00700009000980299886003B012
:104EC0007047000085B0049003910498016A21F0B6
:104ED000010101620498006A019004984068009002
:104EE000049880690290029820F070000290029865
:104EF00020F0030002900398006802990843029092
:104F0000019820F0020001900398806801990843FD
:104F1000019004980021C4F20101884208D0FFE703
:104F2000049840F20041C4F2010188420ED1FFE72B
:104F3000019820F0080001900398C0680199084387
:104F40000190019820F004000190FFE704980021EF
:104F5000C4F20101884208D0FFE7049840F2004102
:104F6000C4F20101884213D1FFE7009820F4807059
:104F70000090009820F40070009003984069009918
:104F80000843009003988069009908430090FFE768
:104F900000980499486002980499886103984068D1
:104FA0000499486301980499086205B070470000AD
:104FB00085B0049003910498016A21F01001016208
:104FC0000498006A019004984068009004988069F1
:104FD0000290029820F4E0400290029820F4407081
:104FE000029003980068029941EA0020029001981B
:104FF00020F02000019003988068019941EA001098
:10500000019004980021C4F20101884208D0FFE712
:10501000049840F20041C4F2010188420FD1FFE739
:10502000019820F0800001900398C068019941EA3E
:1050300000100190019820F040000190FFE70498D3
:105040000021C4F20101884208D0FFE7049840F231
:105050000041C4F20101884215D1FFE7009820F415
:1050600080600090009820F40060009003984069F0
:10507000009941EA8000009003988069009941EA14
:1050800080000090FFE70098049948600298049916
:1050900088610398406804998863019804990862BC
:1050A00005B0704785B0049003910498016A21F41B
:1050B000807101620498006A019004984068009031
:1050C0000498C0690290029820F070000290029843
:1050D00020F00300029003980068029908430290B0
:1050E000019820F40070019003988068019941EACA
:1050F0000020019004980021C4F20101884208D0E8
:10510000FFE7049840F20041C4F2010188420FD148
:10511000FFE7019820F4006001900398C0680199AE
:1051200041EA00200190019820F480600190FFE79F
:1051300004980021C4F20101884208D0FFE70498D6
:1051400040F20041C4F20101884215D1FFE7009806
:1051500020F480500090009820F4005000900398B4
:105160004069009941EA0010009003988069009915
:1051700041EA00100090FFE7009804994860029807
:105180000499C861039840680499C8630198049918
:10519000086205B07047000085B004900391049840
:1051A000016A21F4805101620498006A0190049818
:1051B000406800900498C0690290029820F4E04092
:1051C0000290029820F440700290039800680299BF
:1051D00041EA00200290019820F4005001900398C9
:1051E0008068019941EA0030019004980021C4F2DE
:1051F0000101884208D0FFE7049840F20041C4F260
:10520000010188420BD1FFE7009820F48040009014
:1052100003984069009941EA80100090FFE70098E8
:105220000499486002980499C861039840680499F9
:10523000086401980499086205B0704785B004902D
:10524000039102920498006A00900498016A21F088
:1052500001010162049880690190019820F0F0003A
:1052600001900298019941EA00100190009820F005
:105270000A0000900398009908430090019804994F
:10528000886100980499086205B0704785B0049061
:10529000039102920498016A21F0100101620498BE
:1052A000806901900498006A0090019820F4704091
:1052B00001900298019941EA00300190009820F095
:1052C000A00000900398009941EA00100090019816
:1052D0000499886100980499086205B0704700003D
:1052E00070B5AEB02D902D980068006920F4405044
:1052F0002D990A68C968084310612D988168026970
:105300004369C0691143194308432C902D980068E4
:10531000C06849F20C6188432C9908432D990968AB
:10532000C8602D980068406920F440702D990A6883
:105330008969084350612D98C069B0F5004F40F06D
:10534000F480FFE72D98006841F20001C4F20101EA
:10535000884209D0FFE72D98006841F20041C4F26D
:105360000101884270D1FFE7FBF7FEFF1921484396
:105370002D9A52685200B0FBF2F048F21F52C5F26B
:10538000EB12A0FB02036FF00F0C0CEA53032B91FE
:105390002A9229902893FBF7E7FF2B9948432D9AEF
:1053A00052685200B0FBF2F02790FBF7DDFF2B991B
:1053B00048432D9A52685200B0FBF2F02A9AA0FBA3
:1053C00002035B094FF0640CDDF89CE003FB1CE377
:1053D0004FF0320E0EEBC303A3FB0234F82505EAAF
:1053E0005414289D05EB44042690CDF894C0CDF8C4
:1053F00090E023932294FBF7B7FF2B9948432D9A13
:1054000052685200B0FBF2F02190FBF7ADFF2B99F0
:1054100048432D9A136852685200B0FBF2F02A9A62
:10542000A0FB020C4FEA5C1CDDF894E0219C0CFB15
:105430001E4C249C04EBCC0CACFB02C5C5F34215FE
:10544000229E35449D606FE0FBF77CFF19214843A5
:105450002D9A52685200B0FBF2F048F21F52C5F28A
:10546000EB12A0FB02036FF00F0C0CEA5303209128
:105470001F921E901D93FBF765FF209948432D9ABC
:1054800052685200B0FBF2F01C90FBF75BFF2099D2
:1054900048432D9A52685200B0FBF2F01F9AA0FBCD
:1054A00002035B094FF0640CDDF870E003FB1CE3C2
:1054B0004FF0320E0EEBC303A3FB0234F82505EACE
:1054C00054141D9D05EB44041B90CDF868C0CDF825
:1054D00064E018931794FBF735FF209948432D9A01
:1054E00052685200B0FBF2F01690FBF72BFF2099A8
:1054F00048432D9A136852685200B0FBF2F01F9A8D
:10550000A0FB020C4FEA5C1CDDF868E0169C0CFB6B
:105510001E4C199C04EBCC0CACFB02C5C5F3421528
:10552000179E35449D60FFE7F0E02D98006841F23A
:105530000001C4F20101884209D0FFE72D980068FC
:1055400041F20041C4F2010188426FD1FFE7FBF74D
:105550000BFF192148432D9A52689200B0FBF2F0DC
:1055600048F21F52C5F2EB12A0FB02036FF00F0CC2
:105570000CEA53031591149213901293FBF7F4FE67
:10558000159948432D9A52689200B0FBF2F01190A1
:10559000FBF7EAFE159948432D9A52689200B0FB3A
:1055A000F2F0149AA0FB02035B094FF0640CDDF8E3
:1055B00044E003FB1CE34FF0320E0EEB0313A3FB9E
:1055C0000234F02505EA5414129D2C441090CDF8B5
:1055D0003CC0CDF838E00D930C94FBF7C5FE15994F
:1055E00048432D9A52689200B0FBF2F00B90FBF703
:1055F000BBFE159948432D9A136852689200B0FB80
:10560000F2F0149AA0FB020C4FEA5C1CDDF83CE0BF
:105610000B9C0CFB1E4C0E9C04EB0C1CACFB02C543
:10562000C5F343150C9E35449D606EE0FBF78AFE82
:10563000192148432D9A52689200B0FBF2F048F2CB
:105640001F52C5F2EB12A0FB02036FF00F0C0CEA25
:1056500053030A91099208900793FBF773FE0A9986
:1056600048432D9A52689200B0FBF2F00690FBF787
:1056700069FE0A9948432D9A52689200B0FBF2F0F5
:10568000099AA0FB02035B094FF0640CDDF818E0F7
:1056900003FB1CE34FF0320E0EEB0313A3FB0234AB
:1056A000F02505EA5414079D2C440590CDF810C050
:1056B000CDF80CE002930194FBF744FE0A994843AD
:1056C0002D9A52689200B0FBF2F00090FBF73AFE80
:1056D0000A9948432D9A136852689200B0FBF2F081
:1056E000099AA0FB020C4FEA5C1CDDF810E0009C5C
:1056F0000CFB1E4C039C04EB0C1CACFB02C5C5F35D
:105700004315019E35449D60FFE7FFE72EB070BD55
:10571000FFE7FEE74EF60C50CEF200000068C0F343
:105720000220704782B002468DF8070000919DF973
:10573000070000280AD4FFE7009800019DF9071030
:105740004EF20042CEF2000288540BE000980001B5
:105750009DF8071001F00F014EF61452CEF2000230
:105760008854FFE702B0704783B00290029800F0BF
:10577000070000904EF60C50CEF200000168019137
:1057800001994FF6FF02114001910199009A41EAF7
:1057900002210022C0F2FA521143019101990160E5
:1057A00003B0704780B58CB000200B900990FBF7D8
:1057B000EBFB0890FEF7BCFFFEF752F8FDF7F6FF93
:1057C000FDF788FFFDF7C6FFFEF7E8F8FEF7A4F93E
:1057D000FEF7FEF80020C4F202004FF4807107903B
:1057E000099AFBF7A3FB4FF400710798099AFBF79E
:1057F0009DFB4FF47A70FBF73DF9FFF733F840F269
:105800004810C2F200000690FCF750FD0699059082
:105810000846FCF725FF0121069A04901046FCF784
:1058200055FF0221069A03901046FCF74FFFFFE751
:1058300001200A90FFE70A98632816DCFFE70A9820
:1058400040F24811C2F200010A6850630A980968E0
:1058500088630A98632803D1FFE701200A90FFE7D5
:10586000FFE70A9801300A90E5E740F21400C2F21F
:1058700000004FF47841018047F29400C0F6000028
:1058800069464860102008601E211422C823029037
:10589000084611461A46029BFDF764FEC8E702E07F
:1058A00008C8121F08C1002AFAD1704770470020AB
:1058B00001E001C1121F002AFBD170470000000067
:1058C00000000000010203040607080900000000B0
:1058D00001020304000000000000000000000000BE
:1058E000000000003F400000000000000000300009
:1058F000400030004000000009000BC03D000BC01C
:105900003D00090018C024407FE0224031800000A3
:10591000180024C01B000D803240018003801C4011
:1059200027401C800740004010006000000000007D
:10593000000000000000000000001F802040402008
:105940000000402020401F800000000009000600E9
:105950001F80060009000000040004003F800400CE
:1059600004000000001000600000000000000000C3
:1059700004000400040004000400000000000040D3
:105980000000000000000000002001C006003800F8
:10599000400000001F802040204020401F80000069
:1059A000000010403FC000400000000018C021402F
:1059B0002240244018400000108020402440244011
:1059C0001B80000002000D0011003FC001400000DC
:1059D0003C80244024402440238000001F80244039
:1059E00024403440038000003000200027C03800ED
:1059F000200000001B802440244024401B80000025
:105A00001C0022C0224022401F8000000000000035
:105A100008400000000000000000000004600000DA
:105A200000000000000004000A0011002080404037
:105A300009000900090009000900000000004040B9
:105A4000208011000A0004001800200023402400D8
:105A5000180000001F802040274029401F40000000
:105A6000004007C039000F0001C0004020403FC087
:105A7000244024401B8000001F8020402040204004
:105A80003080000020403FC0204020401F800000A8
:105A900020403FC024402E4030C0000020403FC086
:105AA00024402E00300000000F00108020402240D3
:105AB0003380020020403FC0040004003FC020406B
:105AC000204020403FC020402040000000602020B7
:105AD00020203FC02000200020403FC024400B0079
