:020000040800F2
:10000000084501209D010008ED650008114D00081C
:10001000E96500083D0C0008818C00080000000024
:10002000000000000000000000000000597A0008F5
:100030001D0E00080000000059690008B97A000888
:10004000B7010008B7010008B7010008B7010008B0
:10005000B7010008B7010008B7010008B7010008A0
:10006000B7010008B7010008B7010008B701000890
:10007000B7010008B7010008B7010008B701000880
:10008000B7010008B701000859090008B7010008C6
:10009000B7010008B7010008B7010008B701000860
:1000A000B7010008B7010008B7010008B701000850
:1000B000B7010008B7010008B7010008B701000840
:1000C000B7010008B7010008B7010008B701000830
:1000D000B7010008B7010008B7010008B701000820
:1000E000B7010008B7010008B7010008B701000810
:1000F000B7010008B7010008B7010008B701000800
:10010000B7010008B7010008B7010008B7010008EF
:10011000B7010008B7010008B7010008B7010008DF
:10012000410C0008B7010008510C0008B701000895
:10013000B7010008B7010008B7010008B7010008BF
:10014000B7010008B7010008B7010008B7010008AF
:10015000B7010008B7010008B7010008B70100089F
:10016000B7010008B7010008B7010008B70100088F
:10017000B7010008B7010008B7010008000000003F
:10018000B7010008B7010008DFF80CD000F04EFB03
:1001900000480047499E000808450120064880475E
:1001A00006480047FEE7FEE7FEE7FEE7FEE7FEE75C
:1001B000FEE7FEE7FEE7FEE7897B0008890100080D
:1001C0002DE9F05F0546002092469B46884606468C
:1001D000814640241BE0284641464746224600F01F
:1001E0003EFA53465A46C01A914110D3114618465A
:1001F000224600F025FA2D1A67EB01084F462246E9
:100200000120002100F01CFA17EB00094E41201ECE
:10021000A4F10104DFDC484631462A464346BDE8E6
:10022000F09FD2B201E000F8012B491EFBD27047CB
:100230000022F6E710B513460A4604461946FFF7B2
:10024000F0FF204610BD2DE9FE4F804681EA0300F5
:10025000C00F0C46009021F0004123F00045B8EBA0
:100260000200A94105D24046214690461C460B4655
:10027000024623F00040104347D0270DC7F30A0081
:10028000C3F30A510290401A019040286BDAC3F37D
:10029000130040F4801B0098924620B10023D2EB5B
:1002A000030A63EB0B0B01985946C0F1400250461C
:1002B00000F0C6F906460D4650465946019A00F030
:1002C000DEF910EB08006141002487EA115284EA4C
:1002D000E7731A4340D0009A62B3019A012A4FEAA9
:1002E000075215DC001B61EB02014FF0004202EAED
:1002F0000752CDE90042001C41F5801132462B46E1
:1003000000F015FA03B0BDE8F08F40462146F9E74A
:10031000001B61EB0201001C41F5801300185B41DA
:100320002018A2F5001747EB030140EAD570B61973
:100330006D4111E06D084FEA360645EAC0754FEA97
:100340000752001B61EB0201001C41F580114908B6
:100350004FEA30000019514132462B4603B0BDE848
:10036000F04F00F0D5B90098012240000023D0EBF7
:10037000020263EBE073009821464FEAE074B8EBA9
:10038000000061EB0401E9E783F000435BE781F0E3
:10039000004158E72DE9FE4F81EA030404F00044D0
:1003A00021F0004100944FF0000B23F0004350EA8D
:1003B00001045ED052EA03045BD0C3F30A54C1F3D4
:1003C0000A552C44A4F2F3340194A0FB0254C1F367
:1003D000130141F48011C3F3130343F4801301FBB1
:1003E000024400FB034E840A970A44EA815447EA18
:1003F0008357A4FB076802958D0A05FB07854FEA22
:10040000932C04FB0C542705029D4FEA065847EA3B
:100410001637B5EB08056EEB070C870E920E47EA10
:10042000811742EA8312A7FB0201B6EB0B0164EBD2
:1004300000042B0D43EA0C335E1844EB1C50DA46E3
:100440005146E7FB0201C5F313044FEA0B3343EABD
:1004500014534FEA0432019C43EA0603A4F10C044E
:100460000294009CCDE900B400F061F903B0BDE84E
:10047000F08F00200146F9E72DE9F04D81EA0304F1
:1004800004F0004B21F0004514464FF0000A23F021
:10049000004150EA050220D054EA01021DD0C5F304
:1004A0000A570246C5F31303C1F31300C1F30A56FA
:1004B00040F4801543F48013A7EB0608101BD646C2
:1004C00008F2FD3873EB050002D308F1010801E0E2
:1004D00092185B41B8F1000F03DA00200146BDE835
:1004E000F08D00204FF48011064684460EE0171B65
:1004F00073EB050705D3121B63EB050306434CEAB8
:10050000010C49084FEA300092185B4150EA01079C
:10051000EDD152EA030012D082EA040083EA050119
:10052000084305D0101BAB4106D20122002306E090
:1005300000224FF0004302E06FF0010253101AEB6B
:1005400006004CEB085110EB0A0041EB0B01BDE833
:10055000F04D00F0DDB80EB5C10F80EAE070084440
:10056000CA07002140F233438DE80E000A460B46CD
:1005700000F0DDF803B000BD70B5C1F30A5201F020
:1005800000450024C1F3130140F2FF3341F4801110
:100590009A4201DA002070BD40F233439A42A2F23F
:1005A000334203DC524200F05AF800E090402C4302
:1005B000F1D0404270BD00F0004230F000400AD05F
:1005C000C10D01F56071C0F3160042EA0151C20885
:1005D00040071143704700200146704701F0004377
:1005E00030B421F0004150EA010206D00A0DA2F514
:1005F0006072C1F31301002A02DC30BC0020704796
:10060000440F44EAC104C100E01830BC00EBC25002
:1006100000F047B830B50B460146002020220124E7
:1006200009E021FA02F59D4205D303FA02F5491BC0
:1006300004FA02F52844151EA2F10102F1DC30BDD6
:10064000202A04DB203A00FA02F100207047914092
:10065000C2F1200320FA03F3194390407047202A87
:1006600004DB203A21FA02F00021704721FA02F35C
:10067000D040C2F120029140084319467047202A19
:1006800006DBCB17203A41FA02F043EAE07306E0BA
:1006900041FA02F3D040C2F12002914008431946CA
:1006A00070470029A8BF7047401C490008BF20F0D0
:1006B0000100704710B4B0FA80FC00FA0CF050EA68
:1006C000010404BF10BC704749B1CCF1200421FAE9
:1006D00004F411FA0CF118BF012121430843A3EBE4
:1006E0000C01CB1D4FEA00614FEA102042BF0020F1
:1006F00010BC704700EBC35010440029A4BF10BCCD
:100700007047401C490008BF20F0010010BC704732
:1007100010B5141E73F1000408DA401C41F1000109
:1007200092185B411A4301D120F0010010BD2DE960
:10073000F04D92469B4611B1B1FA81F202E0B0FA57
:1007400080F220329046FFF77BFF04460F4640EAD6
:100750000A0041EA0B0153465A46084313D011469A
:1007600053EA010019D0C8F140025046FFF777FF65
:1007700005460E46504659464246FFF761FF08437C
:1007800005D0012004E020463946BDE8F08D002068
:10079000054346EAE0762C4337430A986305E40AAA
:1007A000A0EB08000022FD0A44EA47540A3002D5B3
:1007B00000200146E9E7010510196941DDE9084516
:1007C00000196941BDE8F04DA2E7C1F30A52C1F337
:1007D000130140F2FF3341F480119A4202DA002003
:1007E0000146704740F233439A42A2F2334202DCA0
:1007F0005242FFF734BFFFF723BF000030B5041E9D
:1008000071F1000404DB4FF00044404264EB01014D
:10081000141E73F1000405DB1C464FF000435242E6
:1008200063EB0403994208BF904230BD064C074D6C
:1008300006E0E06840F0010394E8070098471034B0
:10084000AC42F6D3FFF7A4FC940F0108B40F0108E3
:1008500080B584B0014603900398806B02900298A3
:10086000006C10F0500F01913BD1FFE70298016C32
:1008700041F40071016402980068806810F0405FE4
:100880002BD1FFE70298007E002826D1FFE70298CF
:100890000068C06A10F4700F07D0FFE70298006884
:1008A00080684005002818D4FFE702980068416876
:1008B00021F0200141600298016C21F480710164F3
:1008C0000298006CC004002806D4FFE70298016C6F
:1008D00041F001010164FFE7FFE7029800F0AAFD83
:1008E00013E00298006CC006002804D5FFE70298C8
:1008F00000F0C2FD08E00298806BC06C0399009084
:10090000084600998847FFE7FFE704B080BD000074
:1009100080B584B0014603900398806B02900298E2
:10092000402202640298426C42F00402426402983F
:10093000019100F0A1FD04B080BD000080B584B03D
:10094000014603900398806B02900298019100F099
:100950008DFD04B080BD000080B543F24800C2F2B6
:10096000000000F08FFD43F29000C2F2000000F0A2
:1009700089FD80BD83B00146029042F20030C4F28E
:10098000010001900198426822F4403242600298CE
:100990004068019A536818435060029800684268A2
:1009A00022F480724260029802680069536843EA48
:1009B0000020506002980068426822F04072426055
:1009C0000298026880685368184350600298006873
:1009D000826822F40062826002980268C0689368AC
:1009E000184390600298806A0122C0F6007290421B
:1009F000009119D0FFE702980068816821F07061CA
:100A0000816002980168806A8A6810438860029851
:100A10000068816821F04051816002980168C06AD5
:100A20008A68104388600CE002980068816821F0B1
:100A30007061816002980068816821F04051816096
:100A4000FFE702980068816821F002018160029846
:100A5000017E0068826842EA41018160029890F854
:100A60002000002819D0FFE702980068416841F48F
:100A70000061416002980068416821F46041416072
:100A800002980168406A4EF20002CFF6FF7202EB54
:100A900040304A681043486006E0029800684168A8
:100AA00021F400614160FFE702980068C16A21F407
:100AB0007001C16202980168C0690022CFF6F0722D
:100AC00002EB0050CA6A1043C8620298006881684D
:100AD00021F400718160029890F8301000688268FB
:100AE00042EA4121816002980068816821F48061B6
:100AF00081600298016840698A6842EA80208860C3
:100B000003B0704780B584B001460390039843F268
:100B1000AC12C2F2000202901046029A01911146F4
:100B200002F0EEFE009004B080BD000080B543F2FC
:100B3000AC10C2F2000002F00DFF043818BF012013
:100B400080BD000080B582B000208DF8060000F066
:100B500019F8012804D0FFE701208DF807000CE008
:100B600043F2AC10C2F2000002F018FF8DF806004C
:100B70009DF806008DF80700FFE79DF8070002B01A
:100B800080BD000081B001208DF803009DF80300B6
:100B900001B0704770B58AB09C4696460C46054633
:100BA000099008910792069300208DF81700099983
:100BB000089A079B06986E46306043F2AC10C2F26A
:100BC0000000CDF810C0CDF80CE00294019502F0C1
:100BD000FDFF002804D0FFE701208DF81700FFE794
:100BE0009DF817000AB070BD70B58AB09C46964655
:100BF0000C460546099008910792069300208DF84F
:100C000017000999089A079B06986E46306043F2D0
:100C1000AC10C2F20000CDF810C0CDF80CE0029488
:100C2000019503F095F9002804D0FFE701208DF825
:100C30001700FFE79DF817000AB070BDFFE7FEE759
:100C400080B543F2EC00C2F2000001F041F980BD32
:100C500080B543F24C10C2F2000001F039F980BDBA
:100C600084B0014603900398007810384AF6AB220E
:100C7000CAF6AA22A0FB020212090292029A4AF6BE
:100C80008013C0F600039A5C039BDA65029A042A7B
:100C90000191009007D3FFE703980168042262F3F3
:100CA0000901816506E00398016840F2FF32914333
:100CB0008165FFE70398806D04B0704787B00146F7
:100CC000069000208DF817000698806A0490069818
:100CD00080690028039122D1FFE70498032802903D
:100CE0001BD80299DFE801F0020D02180698C06ACD
:100CF000C001002804D5FFE701208DF81700FFE7A9
:100D00000CE00698C06AB0F1C07F04D1FFE7012073
:100D10008DF81700FFE701E000E0FFE745E00698E7
:100D20008069B0F5005F25D1FFE7049803280190A2
:100D30001ED80199DFE801F00206021101208DF8AA
:100D4000170016E00698C06AC001002804D5FFE726
:100D500001208DF81700FFE70BE00698C06AB0F19C
:100D6000C07F04D1FFE701208DF81700FFE700E006
:100D7000FFE719E004980328009004D3FFE70098E8
:100D8000032804D00EE001208DF817000BE0069830
:100D9000C06AC001002804D5FFE701208DF81700C4
:100DA000FFE700E0FFE7FFE7FFE79DF8170007B068
:100DB00070470000B0B588B09C4696460C46054684
:100DC000079006910592049307980068016821F442
:100DD0008021016004980799096848600798806835
:100DE0004028CDF80CC0CDF808E00194009509D159
:100DF000FFE70598079909688860069807990968C8
:100E0000C86008E0069807990968886005980799FE
:100E10000968C860FFE708B0B0BD00007047000077
:100E20007047000080B584B00A46034603900291E3
:100E3000039802994FF0000C01926246009300F073
:100E400003F804B080BD000080B586B013468C4620
:100E50008646059004918DF80F2001208DF80E0034
:100E600000208DF80D0043F23C00C2F20000407AF1
:100E700000280293CDF804C0CDF800E026DCFFE79F
:100E800043F23C00C2F20000417A0022425405992C
:100E9000437A00EB830359609DF80F10437A0344B3
:100EA0001972417A4B1C43728DF80D109DF80D009C
:100EB00030300499087004983A21417004982F2129
:100EC00081700498C2708DF80E20FFE79DF80E0027
:100ED00006B080BDB0B589B09C4696460C46054626
:100EE0000890079106920593002004900598B0F5AC
:100EF000804FCDF80CC0CDF808E00194009522D1C8
:100F0000FFE70898069950F8210004900498002102
:100F1000CCF6F07108400490079801684268836835
:100F2000D0F80CC041EA021141EA032141EA0C4128
:100F30008069084304990843049004980899069A24
:100F400041F8220006E0089806996FF0704240F8D8
:100F50002120FFE7002009B0B0BD000010B585B02A
:100F60000A460346049003910020029004980399D6
:100F7000096850F82100029002988021CFF6F071A4
:100F80000840029003984168D0F808C0D0F80CE0FF
:100F9000046941EA0C0141EA0E012143D0F814C072
:100FA00041EA0C01D0F818C041EA0C01D0F81CC08D
:100FB00041EA0C01D0F820C041EA0C01D0F824C06D
:100FC00041EA0C01D0F828C041EA0C01D0F82CC04D
:100FD00041EA0C01D0F83CC041EA0C01006B084327
:100FE00002990843029003988068082801920093B0
:100FF00005D1FFE7029840F040000290FFE7029819
:101000000499039A126841F82200002005B010BD2F
:1010100070B587B013468C468646069005910492BB
:10102000002003900699049A01EB8201496803911C
:10103000039901F04041039105990A684C688D6855
:10104000CE6842EA041242EA052242EA06420C69EC
:101050000025CFF6F07505EB045422434C69FE34AD
:1010600042EA046289691143039A11430391039987
:10107000069A049C02EB840251600293CDF804C0EE
:10108000CDF800E007B070BD70B590B0DDF850C08D
:101090009E4614460D460646ADF83E00ADF83C109F
:1010A000ADF83A20ADF83830ADF836C0BDF83600AE
:1010B00043F23401C2F200010880BDF83E00BDF8E1
:1010C0003C10CDF810E003940295019604F0A8FCC2
:1010D000BDF83A00BDF83E10401A0C90BDF838003B
:1010E000BDF83C10401A0B900C98002803DBFFE77A
:1010F0000120089006E04FF0FF3008900C98404225
:101100000C90FFE70B98002803DBFFE70120079016
:1011100006E04FF0FF3007900B9840420B90FFE73E
:101120000C9840000A900B98400009900C980B997D
:10113000884231DDFFE709980C99401A069000209B
:101140000590FFE705980C99884224DCFFE7BDF87D
:101150003E00BDF83C1003F041FF069800280BDB71
:10116000FFE70A980699081A06900798BDF83C1000
:101170000844ADF83C00FFE709980699084406903A
:101180000898BDF83E100844ADF83E00FFE705980A
:1011900001300590D6E730E00A980B99401A069086
:1011A00000200590FFE705980B99884224DCFFE7B3
:1011B000BDF83E00BDF83C1003F010FF0698002873
:1011C0000BDBFFE709980699081A06900898BDF806
:1011D0003E100844ADF83E00FFE70A98069908441F
:1011E00006900798BDF83C100844ADF83C00FFE7B6
:1011F000059801300590D6E7FFE710B070BD0000FC
:1012000082B001460190009102B0704788B00A4652
:101210000346069005910020049002920193FFE797
:10122000069890F83C00012804D1FFE702208DF8D1
:101230001F00FBE00698012180F83C10FFE7FFE764
:10124000059800680A281CD3FFE70598008800EB82
:1012500040001E38072101FA00F006990968CA68A3
:1012600022EA0000C86005988168008800EB400011
:101270001E3801FA00F006990968CA681043C86070
:1012800019E00598008800EB4000072101FA00F002
:10129000069909680A6922EA0000086105988168D0
:1012A000008800EB400001FA00F0069909680A691D
:1012B00010430861FFE70598406806281CD8FFE73F
:1012C0000598406800EB800005381F2101FA00F006
:1012D000069909684A6B22EA00004863059801886C
:1012E000406800EB8000053801FA00F006990968B3
:1012F0004A6B104348633DE0059840680C281CD8B1
:10130000FFE70598406800EB800023381F2101FAB1
:1013100000F0069909680A6B22EA00000863059844
:101320000188406800EB8000233801FA00F006993C
:1013300009680A6B104308631BE00598406800EBDE
:10134000800041381F2101FA00F006990968CA6A35
:1013500022EA0000C86205980188406800EB80001E
:10136000413801FA00F006990968CA6A1043C86258
:10137000FFE7FFE742F20030C4F201000390069855
:10138000006842F20001C4F2010188420BD1FFE77C
:1013900005980068122806D1FFE70398416841F4D8
:1013A00080014160FFE70698006842F20001C4F244
:1013B0000101884230D1FFE705980068102805D068
:1013C000FFE705980068112826D1FFE703984168D8
:1013D00041F4000141600598006810281BD1FFE727
:1013E00040F21C00C2F2000000684DF68361C4F2B6
:1013F0001B31A0FB0101890C01EB81014900049123
:101400000090FFE70498002804D0FFE70498013813
:101410000490F7E7FFE7FFE7FFE70698002180F871
:101420003C10FFE700208DF81F00FFE79DF81F002C
:1014300008B0704780B584B001460390039843F22A
:101440004802C2F20002904202910DD1FFE743F23E
:101450004800C2F2000040F22801C2F2000101225D
:1014600000F086FA0190FFE704B080BD82B001462B
:101470000190009102B0704782B001460190009146
:1014800002B0704780B586B00146059000200490F8
:101490000390059800680068C0F340000490059828
:1014A00000684068C0F3401003900498002802913F
:1014B0004CD0FFE70398002848D0FFE70598006C60
:1014C000C006002806D4FFE70598016C41F40071BE
:1014D0000164FFE705980068806810F0405F2BD139
:1014E000FFE70598007E002826D1FFE705980068F1
:1014F000C06A10F4700F07D0FFE705980068806895
:101500004005002818D4FFE705980068416821F0DD
:10151000200141600598016C21F4807101640598F7
:10152000006CC004002806D4FFE70598016C41F068
:1015300001010164FFE7FFE70598FFF77BFF0598CE
:1015400000686FF0120EC0F800E0FFE70598006831
:101550000068C0F380000490059800684068C0B23D
:10156000C0090390049800285AD0FFE70398002888
:1015700056D0FFE70598006CC006002806D4FFE7A8
:101580000598016C41F400510164FFE7059800687B
:10159000806810F4401F39D1FFE705980068806B20
:1015A00010F4401F07D0FFE70598006880684005E9
:1015B00000282BD4FFE70598006840684005002804
:1015C00024D4FFE705980068806810F0405F1DD1C3
:1015D000FFE70598007E002818D1FFE7059800680E
:1015E000416821F0800141600598016C21F480512F
:1015F00001640598006CC005002806D4FFE7059833
:10160000016C41F001010164FFE7FFE70598FFF776
:10161000F7FD059800686FF00C0EC0F800E0FFE7DA
:1016200005980068006800F00100049005980068C3
:101630004068C0F380100390049800281AD0FFE798
:101640000398002816D0FFE7059800680068C007D7
:1016500000280ED0FFE70598016C41F48031016449
:10166000059800F08BF8059800686FF001010160A3
:10167000FFE7FFE7059800680068C0F3401004909A
:10168000059800684068C0F38060039004980028C3
:1016900017D0FFE70398002813D0FFE70598416CA7
:1016A00041F002014164059800686FF0200101607B
:1016B00005980191FFF7E0FE059800680199016027
:1016C000FFE706B080BD000080B584B001460290FF
:1016D00000208DF8070002980028009104D1FFE750
:1016E00001208DF80F0045E00298806A0121C0F6C4
:1016F0000071884201D0FFE7FFE70298006C0028E4
:101700000CD1FFE7029800F03FF802984FF0000E6E
:10171000C0F844E0029880F83CE0FFE70298006CD3
:10172000C006002817D4FFE70298006C40F00200C2
:1017300020F48850029908640298FFF71BF9029878
:10174000002141640298006C40F0010020F002008A
:101750000299086403E001208DF80700FFE7FFE726
:101760000298002180F83C10FFE79DF807008DF8F3
:101770000F00FFE79DF80F0004B080BD82B0014666
:101780000190009102B0704780B596B00146159067
:1017900000201490139012901190109015980068EA
:1017A00042F20002C4F2010290420B9169D1FFE7BC
:1017B000FFE700200F9043F64400C4F202000168E6
:1017C00041F480710160006800F480700F900F9800
:1017D0000A90FFE7FFE700200E9043F63000C4F2C6
:1017E0000200016841F001010160006800F00100A1
:1017F0000E900E980990FFE70120109003201190A1
:10180000002012900021C4F2020110AA089008469C
:10181000114600F0C1FE43F2EC00C2F2000046F2B5
:101820001041C4F202010160089941608160C16009
:101830004FF4806202614FF4006242614FF4005243
:101840008261C1610162416200F0EEFC002803D0B8
:10185000FFE7FFF7E5FAFFE7FFE7159843F2EC0132
:10186000C2F20001816315988863FFE7122000210E
:1018700007900691069A01F03DF9079801F02EF9BC
:1018800074E01598006842F20011C4F20101884228
:101890006BD1FFE7FFE700200D9043F64400C4F250
:1018A0000200016841F400710160006800F40070FA
:1018B0000D900D980590FFE7FFE700200C9043F690
:1018C0003000C4F20200016841F0010101600068CB
:1018D00000F001000C900C980490FFE7022010909B
:1018E00003201190002012900021C4F2020110AADE
:1018F00003900846114600F04FFE43F24C10C2F22E
:10190000000046F24041C4F2020101604FF0007154
:10191000416003998160C1604FF4806202614FF4BD
:10192000006242614FF400528261C1610162416212
:1019300000F07AFC002803D0FFE7FFF771FAFFE719
:10194000FFE7159843F24C11C2F20001816315982C
:101950008863FFE71220002102900191019A01F0B3
:10196000C9F8029801F0BAF8FFE7FFE716B080BDAA
:1019700080B58CB013468C4686460A900991089231
:10198000002007900593CDF810C0CDF80CE0FFE7DC
:101990000A9890F83C00012804D1FFE702208DF856
:1019A0002F00F8E00A98012180F83C10FFE7FFE7DC
:1019B0000A9800688068C007002820D1FFE70A98CD
:1019C0000068816841F00101816040F21C00C2F2B0
:1019D000000000684DF68361C4F21B31A0FB0101D9
:1019E000890C01EB410107910290FFE7079800285D
:1019F00004D0FFE7079801380790F7E7FFE70A9858
:101A000000688068C007002800F0C180FFE70A98DE
:101A1000006C40F4807040F2016188430A990864C8
:101A20000A98006840684005002809D5FFE70A9831
:101A3000006C40F4805020F400500A990864FFE7DD
:101A40000A98006CC004002806D5FFE70A98416C8C
:101A500021F00601416403E00A9800214164FFE798
:101A6000FFE70A98002180F83C10FFE742F20030BF
:101A7000C4F2010006900A98806B40F65101C0F64E
:101A80000001C1630A98806B40F63D11C0F6000169
:101A900001640A98806B40F61111C0F60001C16420
:101AA0000A9800686FF0220101600A980068416896
:101AB00041F0806141600A980068816841F480715A
:101AC00081600A980168806B4C31099A089B00F08C
:101AD0006DFC06994968C906002901903ED1FFE7CF
:101AE0000A98006842F20001C4F20101884225D040
:101AF000FFE70A98006842F20011C4F2010188422F
:101B000009D1FFE742F20430C4F201000068C006C8
:101B1000002813D0FFE70A98006842F20021C4F2BF
:101B20000101884219D1FFE742F20430C4F20100FA
:101B3000006800F01F000F280FD8FFE70A98006820
:101B4000806810F0405F07D1FFE70A98006881685D
:101B500041F080418160FFE7FFE717E00A980068E5
:101B600042F20001C4F2010188420ED1FFE70A9857
:101B70000068806810F0405F07D1FFE70A980068AE
:101B8000816841F080418160FFE7FFE7FFE70020C7
:101B90008DF82F00FFE79DF82F000CB080BD0000EE
:101BA00080B584B00146029000208DF807000091B6
:101BB000FFE7029890F83C00012804D1FFE70220DB
:101BC0008DF80F0038E00298012180F83C10FFE703
:101BD000FFE702980068816821F0010181600298A6
:101BE00000688068C00700281BD1FFE702980068E2
:101BF000816821F4807181600298806B00F0EAF8BE
:101C00008DF8070002980068416821F0806141600A
:101C10000298006C40F0010020F48850029908649A
:101C2000FFE7FFE70298002180F83C10FFE79DF8EE
:101C300007008DF80F00FFE79DF80F0004B080BD8E
:101C400080B589B013468C4686460790069105926A
:101C50000020049003900293CDF804C0CDF800E07A
:101C6000FFE707984079012804D1FFE702208DF8AB
:101C7000230039E0079801214171FFE7FFE707984A
:101C8000022101710798006800680490059840F6E9
:101C9000FE7101FA00F0049921EA00000490069810
:101CA00001684068084303900398059988400499A7
:101CB0000843049004980799096808600598C021B2
:101CC00001FA00F0079909680A6822EA0000086032
:101CD000079801210171FFE7079800214171FFE793
:101CE00000208DF82300FFE79DF8230009B080BD98
:101CF00080B584B00146029002980028019104D179
:101D0000FFE701208DF80F0017E002980079002806
:101D100007D1FFE7029800214171029800F012F804
:101D2000FFE70298022101710298002101610298E7
:101D3000012202718DF80F10FFE79DF80F0004B02B
:101D400080BD000080B58CB001460B9000200A9049
:101D500009900890079006900B98006847F200429F
:101D6000C4F200029042039131D1FFE7FFE7002067
:101D7000059043F64000C4F20200016841F00051B2
:101D80000160006800F00050059005980290FFE7A0
:101D9000FFE70020049043F63000C4F2020001681F
:101DA00041F001010160006800F001000490049816
:101DB0000190FFE710200690032007900020089074
:101DC0000020C4F2020006A900F0E6FBFFE70CB019
:101DD00080BD000080B586B0014604900498806DF7
:101DE0000390019100F0E2FD0290049890F8350014
:101DF00002280DD0FFE7049880214165FFE7049891
:101E0000002180F83410FFE701208DF817005AE018
:101E100004980068016821F01601016004980068C8
:101E2000416921F0800141610498006C002805D1CE
:101E3000FFE70498806C002807D0FFE7049800684B
:101E4000016821F008010160FFE70498006801685B
:101E500021F001010160FFE7049800680068C007F5
:101E600000281AD0FFE700F0A1FDDDF808E0A0EBA4
:101E70000E00062810D3FFE7049820214165FFE7F4
:101E80000498002180F83410FFE70498032180F8BB
:101E900035108DF8171016E0DEE70498C06D3F216D
:101EA00001FA00F003998860FFE70498002180F8A8
:101EB0003410FFE70498012180F83510FFE7002077
:101EC0008DF81700FFE79DF8170006B080BD0000F1
:101ED00080B588B0014607900020059040F21C00B4
:101EE000C2F20000006848F2B512C1F64E32A0FB03
:101EF0000202920A0492079A926D0392039A126860
:101F00000692069A079BDB6D4FF0080C0CFA03F360
:101F10001A42029101901BD0FFE707980068006801
:101F20004007002813D5FFE707980068016821F0F3
:101F3000040101600798C06D082101FA00F00399BF
:101F400088600798416D41F001014165FFE7FFE7B7
:101F500006980799C96D012202FA01F1084215D0CD
:101F6000FFE7079800684069000600280DD5FFE7E5
:101F70000798C06D012101FA00F003998860079865
:101F8000416D41F002014165FFE7FFE706980799BF
:101F9000C96D042202FA01F1084215D0FFE7079843
:101FA00000680068800700280DD5FFE70798C06D1E
:101FB000042101FA00F0039988600798416D41F00F
:101FC00004014165FFE7FFE706980799C96D1022F4
:101FD00002FA01F108424BD0FFE707980068006859
:101FE0000007002843D5FFE70798C06D102101FACC
:101FF00000F0039988600798006800684003002893
:102000001CD5FFE7079800680068000300280AD481
:10201000FFE70798006C002804D0FFE70798016CE1
:102020008847FFE709E00798806C002804D0FFE7A5
:102030000798816C8847FFE7FFE717E0079800687B
:102040000068C005002807D4FFE70798006801680A
:1020500021F008010160FFE70798006C002804D018
:10206000FFE70798016C8847FFE7FFE7FFE7FFE717
:1020700006980799C96D202202FA01F1084200F082
:102080009580FFE7079800680068C006002840F1C7
:102090008C80FFE70798C06D202101FA00F00399BA
:1020A0008860079890F83500052838D1FFE7079831
:1020B0000068016821F01601016007980068416915
:1020C00021F0800141610798006C002805D1FFE7ED
:1020D0000798806C002807D0FFE707980068016820
:1020E00021F008010160FFE70798C06D3F2101FA68
:1020F00000F003998860FFE70798002180F834100A
:10210000FFE70798012180F835100798006D002837
:1021100004D0FFE70798016D8847FFE781E0079843
:1021200000680068400300281CD5FFE70798006896
:102130000068000300280AD4FFE70798406C0028D5
:1021400004D0FFE70798416C8847FFE709E007984C
:10215000C06B002804D0FFE70798C16B8847FFE7F2
:10216000FFE721E0079800680068C005002811D447
:10217000FFE707980068016821F010010160FFE7A0
:102180000798002180F83410FFE70798012180F8B4
:102190003510FFE70798C06B002804D0FFE70798C9
:1021A000C16B8847FFE7FFE7FFE7FFE70798406D50
:1021B000002836D0FFE70798406DC007002826D0DA
:1021C000FFE70798052180F8351007980068016837
:1021D00021F001010160FFE70598013005900499A5
:1021E000884201D9FFE707E0FFE707980068006829
:1021F000C0070028F0D1FFE7FFE70798002180F82B
:102200003410FFE70798012180F83510FFE70798A1
:10221000C06C002804D0FFE70798C16C8847FFE72F
:10222000FFE708B080BD000080B586B0014604908D
:1022300000200390009100F0B9FB02900498002860
:1022400004D1FFE701208DF81700AAE00498406A46
:10225000002801D0FFE7FFE7FFE70498002180F89E
:102260003410FFE70498022180F8351004980068C4
:10227000016821F001010160FFE70498006800682F
:10228000C007002814D0FFE700F090FBDDF808E05D
:10229000A0EB0E0006280AD3FFE704982021416531
:1022A0000498032180F835108DF8171079E0E4E7E1
:1022B0000498006800680390039848F23F01CFF249
:1022C000100108400390049841688268C368D0F800
:1022D00010C01143194341EA0C014269114382695C
:1022E0001143C2691143006A0843039908430390EC
:1022F0000498406A042808D1FFE70498C16A006B7B
:102300000843039908430390FFE703980499096879
:1023100008600498006840690390039820F0070063
:1023200003900498406A0399084303900498406A14
:1023300004281CD1FFE70498806A0399084303909E
:102340000498C06A002811D0FFE70498FEF7B6FC95
:1023500000280AD0FFE70498402141650498012134
:1023600080F835108DF817101BE0FFE7FFE70398A2
:102370000499096848610498FEF772FC019004987A
:10238000C06D3F2101FA00F0019988600498002196
:10239000416504984FF0010E80F835E08DF8171074
:1023A000FFE79DF8170006B080BD0000B0B58CB007
:1023B0009C4696460C4605460A900991089207935A
:1023C00000208DF81B000A98806D0590CDF810C094
:1023D000CDF80CE002940195FFE70A9890F83400DC
:1023E000012804D1FFE702208DF82F004DE00A9864
:1023F000012180F83410FFE7FFE70A9890F83500D4
:10240000012833D1FFE70A98022180F835100A9895
:10241000002141650A980999089A079BFEF7CAFCB2
:102420000A98C06D3F2101FA00F0059988600A986A
:102430000068016841F0160101600A98006841696E
:1024400041F0800141610A98006C002807D0FFE745
:102450000A980068016841F008010160FFE70A98E6
:102460000068016841F00101016009E0FFE70A9896
:10247000002180F83410FFE702208DF81B00FFE7F1
:102480009DF81B008DF82F00FFE79DF82F000CB082
:10249000B0BD000080B584B001460390009100F00B
:1024A00085FA02900398019001980130002809D024
:1024B000FFE740F22000C2F20000007801990844D2
:1024C0000190FFE7FFE700F071FADDF808E0A0EB0C
:1024D0000E00DDF804E0704501D2FFE7F3E704B039
:1024E00080BD000080B58CB000200B900A90099050
:1024F0000890079043F22C00C2F200000068002808
:1025000001D0FFE745E043F22C00C2F200000121B8
:102510000160FFE70020069043F63800C4F2020095
:10252000016841F001010160006800F001000690BF
:1025300006980590FFE74FF68070079002200890FC
:102540000021099103220A920C230B9341F2000C03
:10255000C4F2020C0DF11C0E04906046039171460A
:1025600002920193CDF800E000F016F84EF2B3703D
:1025700007900498089003990991029A0A92019B86
:102580000B9340F60040C4F20200009900F004F8FA
:10259000FFE70CB080BD000091B00A4603461090E2
:1025A0000F9100200D900C900B900E9009920893C3
:1025B000FFE70E980F2800F2D481FFE70E98012163
:1025C00001FA00F00D900F9800680D9908400C90EA
:1025D0000C980D99884240F0BF81FFE70F98406842
:1025E000022805D0FFE70F984068122826D1FFE7A0
:1025F00010980E996FF0030202EA51010844006A34
:102600000B900E9800F0070080000F2101FA00F0F7
:102610000B9921EA00000B900F9800690E9901F0C8
:102620000701890088400B9908430B900B9810997B
:102630000E9B02EA530211440862FFE710980068FB
:102640000B900E984000032101FA00F00B9921EA4B
:1026500000000B900F98406800F003000E994900AD
:1026600088400B9908430B900B98109908600F98BD
:10267000406801280FD0FFE70F98406802280AD071
:10268000FFE70F984068112805D0FFE70F984068D2
:1026900012282FD1FFE7109880680B900E98400009
:1026A000032101FA00F00B9921EA00000B900F982A
:1026B000C0680E99490088400B9908430B900B980D
:1026C00010998860109840680B900E98012101FACB
:1026D00000F00B9921EA00000B900F984068C0F3BE
:1026E00000100E9988400B9908430B900B98109995
:1026F0004860FFE71098C0680B900E9840000321D7
:1027000001FA00F00B9921EA00000B900F98806805
:102710000E99490088400B9908430B900B9810992B
:10272000C8600F984068C000002840F11481FFE79E
:10273000FFE700200A9043F64400C4F2020001685B
:1027400041F480410160006800F480400A900A98DA
:102750000790FFE70E9820F0030043F60801C4F24B
:10276000010140580B900E9800F0030080000F21EB
:1027700001FA00F00B9921EA00000B90109800215B
:10278000C4F20201884203D1FFE7002006905EE018
:10279000109840F20041C4F20201884203D1FFE7E1
:1027A0000120059050E0109840F60001C4F20201AB
:1027B000884203D1FFE70220049042E0109840F6DF
:1027C0000041C4F20201884203D1FFE703200390D5
:1027D00034E0109841F20001C4F20201884203D1B2
:1027E000FFE70420029026E0109841F20041C4F275
:1027F0000201884203D1FFE70520019018E01098FC
:1028000041F60001C4F20201884203D1FFE706202D
:1028100000900AE0109841F60041C4F2020108223B
:10282000884208BF07220092FFE700980190FFE767
:1028300001980290FFE702980390FFE70398049045
:10284000FFE704980590FFE705980690FFE70698D4
:10285000C0B20E9901F00301890088400B9908432A
:102860000B900B980E9921F0030143F60802C4F275
:102870000102885043F60040C4F2010000680B904A
:102880000C980B9921EA00000B900F984068C00348
:10289000002805D5FFE70C980B9908430B90FFE73C
:1028A0000B9843F60041C4F20101086043F604406E
:1028B000C4F2010000680B900C980B9921EA00000B
:1028C0000B900F9840688003002805D5FFE70C980F
:1028D0000B9908430B90FFE70B9843F60441C4F2B1
:1028E0000101086043F60840C4F2010000680B9043
:1028F0000C980B9921EA00000B900F984068C002D9
:10290000002805D5FFE70C980B9908430B90FFE7CB
:102910000B9843F60841C4F20101086043F60C40ED
:10292000C4F2010000680B900C980B9921EA00009A
:102930000B900F9840688002002805D5FFE70C989F
:102940000B9908430B90FFE70B9843F60C41C4F238
:1029500001010860FFE7FFE7FFE70E9801300E90E6
:1029600027E611B07047000080B585B013468C464D
:1029700086460490ADF80E108DF80D209DF80D00E0
:1029800000280293CDF804C0CDF800E005D0FFE7A1
:10299000BDF80E000499886105E0BDF80E00000442
:1029A00004998861FFE705B080BD000043F29030D4
:1029B000C2F200000068704740F22000C2F200003E
:1029C000007843F29031C2F200010A6810440860B6
:1029D0007047000080B582B043F60040C4F20200A8
:1029E000016841F400710160016841F48061016097
:1029F000016841F480710160032000F0A1F800201B
:102A0000019000F007F8009000F040F8019802B043
:102A100080BD000080B584B00146029040F21C00E9
:102A2000C2F20000006840F22002C2F200021278F6
:102A30004FF47A73B3FBF2F2B0FBF2F0019101F0C4
:102A400077FC002804D0FFE701208DF80F0018E084
:102A500002980F280DD8FFE702994FF0FF300022AF
:102A600000F048F8029840F22401C2F20001086028
:102A700003E001208DF80F0003E000208DF80F0027
:102A8000FFE79DF80F0004B080BD000084B0FFE7B1
:102A90000020039043F64400C4F20200016841F4B0
:102AA00080410160006800F4804003900398019029
:102AB000FFE7FFE70020029043F64000C4F2020067
:102AC000016841F080510160006800F08050029080
:102AD00002980090FFE704B07047000080B582B014
:102AE00001468DF807009DF90700009106F0F8F9FE
:102AF00002B080BD80B58AB013468C4686468DF8FC
:102B0000270008910792002006900593CDF810C089
:102B1000CDF80CE006F000FA06909DF92700069922
:102B2000089A079B0290084611461A4603F060FD7A
:102B3000029901900846019906F0F6F90AB080BDA5
:102B400080B582B0014601900198009106F012FA1A
:102B500002B080BD80B588B00A4603460690059154
:102B6000069800280392029304D1FFE701208DF814
:102B70001F0025E1059843F60041C4F202010968EF
:102B800001F00F01884212D9FFE7059843F6004192
:102B9000C4F202010870086800F00F00059988422D
:102BA00004D0FFE701208DF81F0009E1FFE7069838
:102BB0000068800700282AD5FFE7069800684007CC
:102BC000002809D5FFE743F60800C4F202000168B7
:102BD00041F4E0510160FFE7069800680007002813
:102BE00009D5FFE743F60800C4F20200016841F48A
:102BF00060410160FFE743F60800C4F2020001688B
:102C000021F0F001069A926811430160FFE70698EF
:102C10000068C007002870D0FFE7069840680128C8
:102C200011D1FFE743F60000C4F20200006800F48F
:102C300000300021B1EB504F04D1FFE701208DF8A7
:102C40001F00BDE02CE006984068022805D0FFE791
:102C500006984068032811D1FFE743F60000C4F24C
:102C60000200006800F000700021B1EB506F04D149
:102C7000FFE701208DF81F00A2E010E043F60000FE
:102C8000C4F20200006800F002000021B1EB500F16
:102C900004D1FFE701208DF81F0091E0FFE7FFE777
:102CA00043F60800C4F20200016821F00301069A0D
:102CB000526811430160FFF779FE0490FFE743F685
:102CC0000800C4F20200006800F00C000699496890
:102CD000B0EB810F10D0FFE7FFF768FEDDF810E0E2
:102CE000A0EB0E0041F2893E704504D3FFE70320BC
:102CF0008DF81F0064E0E2E7FFE7059843F6004126
:102D0000C4F20201096801F00F01884212D2FFE704
:102D1000059843F60041C4F202010870086800F00B
:102D20000F000599884204D0FFE701208DF81F00AD
:102D300046E0FFE706980068400700280CD5FFE74B
:102D400043F60800C4F20200016821F4E051069A3B
:102D5000D26811430160FFE7069800680007002869
:102D60000DD5FFE743F60800C4F20200016821F424
:102D70006041069A126941EAC2010160FFE700F072
:102D800053F843F6080EC4F2020EDEF800E05FFAD4
:102D90008EFE4FEA1E1E4AF66811C0F6000111F8B9
:102DA0000E10C84040F21C01C2F200010860002071
:102DB0000190FFF72FFE01998DF81F100090FFE79B
:102DC0009DF81F0008B080BD40F21C00C2F2000058
:102DD0000068704780B5FFF7F7FF43F6080EC4F2AE
:102DE000020EDEF800E0CEF3822E4AF67811C0F62D
:102DF000000111F80E10C84080BD000080B5FFF73B
:102E0000E3FF43F6080EC4F2020EDEF800E01FFAFC
:102E10008EFE4FEA5E3E4AF67811C0F6000111F8C8
:102E20000E10C84080BD000080B586B0002005901F
:102E300004900390029043F60800C4F20200006878
:102E400000F00C0001460028019108D0FFE701982E
:102E500004280AD0FFE7019808280CD04FE042F27E
:102E60000040C0F2F40002904FE047F64000C0F28C
:102E70007D10029049E043F60400C4F202000168AC
:102E800001F03F01059100684002002813D5FFE7DB
:102E900043F60400C4F202000068C0F3881047F64D
:102EA0004001C0F27D11A0FB0101059A0023FDF74E
:102EB00087F9049012E043F60400C4F202000068AF
:102EC000C0F3881042F20041C0F2F401A0FB0101FE
:102ED000059A0023FDF774F90490FFE743F6040018
:102EE000C4F20200006800F44030022101EBD0304F
:102EF000039004980399B0FBF1F0029005E042F2D0
:102F00000040C0F2F4000290FFE7029806B080BDD6
:102F100080B588B00146069006980028029104D139
:102F2000FFE701208DF81F0027E306980068C0071F
:102F3000002800F0AB80FFE743F60800C4F202006F
:102F4000006800F00C00042813D0FFE743F60800E7
:102F5000C4F20200006800F00C0008281FD1FFE74F
:102F600043F60400C4F2020000684002002816D5AF
:102F7000FFE743F60000C4F20200006800F40030EE
:102F80000021B1EB504F09D0FFE7069840680028B8
:102F900004D1FFE701208DF81F00EEE275E0FFE7A6
:102FA00006984068B0F5803F09D1FFE743F600007E
:102FB000C4F20200016841F48031016020E006980B
:102FC0004068B0F5A02F0DD1FFE743F60000C4F232
:102FD0000200016841F480210160016841F4803100
:102FE00001600CE043F60000C4F20200016821F425
:102FF00080310160016821F480210160FFE7FFE773
:10300000FFE70698406800281FD0FFE7FFF7CEFCD7
:103010000590FFE743F60000C4F20200006800F4E8
:1030200000300021B1EB504F0ED1FFE7FFF7BEFC9F
:10303000DDF814E0A0EB0E00652804D3FFE70320C1
:103040008DF81F0099E2E5E71EE0FFF7AFFC059061
:10305000FFE743F60000C4F20200006800F400300D
:103060000021B1EB504F0ED0FFE7FFF79FFCDDF8DA
:1030700014E0A0EB0E00652804D3FFE703208DF8D1
:103080001F007AE2E5E7FFE7FFE7FFE70698006841
:103090008007002840F19B80FFE743F60800C4F258
:1030A0000200006810F00C0F13D0FFE743F6080091
:1030B000C4F20200006800F00C0008282CD1FFE7E1
:1030C00043F60400C4F2020000684002002823D442
:1030D000FFE743F60000C4F20200006800F00200BF
:1030E0000021B1EB500F09D0FFE70698C068012816
:1030F00004D0FFE701208DF81F003EE243F60000F8
:10310000C4F20200016821F0F801069A126941EA4E
:10311000C2010160FFE759E00698C068002830D07E
:10312000FFE70020C4F2472001210160FFF73EFCC9
:103130000590FFE743F60000C4F20200006800F0CB
:1031400002000021B1EB500F0ED1FFE7FFF72EFC7C
:10315000DDF814E0A0EB0E00032804D3FFE7032002
:103160008DF81F0009E2E5E743F60000C4F2020013
:10317000016821F0F801069A126941EAC201016072
:1031800023E00020C4F2472000210160FFF70EFC7D
:103190000590FFE743F60000C4F20200006800F06B
:1031A00002000021B1EB500F0ED0FFE7FFF7FEFB4E
:1031B000DDF814E0A0EB0E00032804D3FFE70320A2
:1031C0008DF81F00D9E1E5E7FFE7FFE7FFE7069885
:1031D00000680007002850D5FFE7069840690028DE
:1031E00025D0FFE740F68060C4F24720012101604E
:1031F000FFF7DCFB0590FFE743F67400C4F2020022
:10320000006800F002000021B1EB500F0ED1FFE783
:10321000FFF7CCFBDDF814E0A0EB0E00032804D38D
:10322000FFE703208DF81F00A7E1E5E724E040F663
:103230008060C4F2472000210160FFF7B7FB0590D2
:10324000FFE743F67400C4F20200006800F00200D9
:103250000021B1EB500F0ED0FFE7FFF7A7FBDDF821
:1032600014E0A0EB0E00032804D3FFE703208DF841
:103270001F0082E1E5E7FFE7FFE7069800684007E7
:10328000002840F1D680FFE700208DF8130043F6B8
:103290004000C4F202000068C000002816D4FFE716
:1032A000FFE70020039043F64000C4F202000168EB
:1032B00041F080510160006800F080500390039855
:1032C0000190FFE701208DF81300FFE747F20000AF
:1032D000C4F200000068C005002824D4FFE747F2CC
:1032E0000000C4F20000016841F480710160FFF742
:1032F0005DFB0590FFE747F20000C4F200000068A4
:10330000C00500280ED4FFE7FFF750FBDDF814E0FE
:10331000A0EB0E00032804D3FFE703208DF81F0065
:103320002BE1E8E7FFE7FFE706988068012809D16D
:10333000FFE743F67000C4F20200016841F00101AA
:1033400001601FE00698806805280DD1FFE743F66D
:103350007000C4F20200016841F0040101600168DC
:1033600041F0010101600CE043F67000C4F202007C
:10337000016821F001010160016821F00401016090
:10338000FFE7FFE7FFE706988068002821D0FFE706
:10339000FFF70CFB0590FFE743F67000C4F2020054
:1033A000006800F002000021B1EB500F10D1FFE7E0
:1033B000FFF7FCFADDF814E0A0EB0E0041F2893EC5
:1033C000704504D3FFE703208DF81F00D5E0E3E745
:1033D00020E0FFF7EBFA0590FFE743F67000C4F238
:1033E0000200006800F002000021B1EB500F10D085
:1033F000FFE7FFF7DBFADDF814E0A0EB0E0041F287
:10340000893E704504D3FFE703208DF81F00B4E028
:10341000E3E7FFE79DF81300012809D1FFE743F632
:103420004000C4F20200016821F080510160FFE712
:10343000FFE706988069002800F09B80FFE743F6CD
:103440000800C4F20200006800F00C00082800F038
:103450008B80FFE706988069022860D1FFE7602033
:10346000C4F2472000210160FFF7A0FA0590FFE7B2
:1034700043F60000C4F20200006800F00070002172
:10348000B1EB506F0ED0FFE7FFF790FADDF814E0D4
:10349000A0EB0E00032804D3FFE703208DF81F00E4
:1034A0006BE0E5E70698C169026A436AD0F828C074
:1034B000114341EA83114FEACC324FF6FF739A432E
:1034C000A2F580321143C06A41EA006043F604016C
:1034D000C4F2020108606020C4F2472001210160AB
:1034E000FFF764FA0590FFE743F60000C4F202001C
:1034F000006800F000700021B1EB506F0ED1FFE7C3
:10350000FFF754FADDF814E0A0EB0E00032804D313
:10351000FFE703208DF81F002FE0E5E723E06020A0
:10352000C4F2472000210160FFF740FA0590FFE751
:1035300043F60000C4F20200006800F000700021B1
:10354000B1EB506F0ED0FFE7FFF730FADDF814E073
:10355000A0EB0E00032804D3FFE703208DF81F0023
:103560000BE0E5E7FFE703E001208DF81F0004E032
:10357000FFE700208DF81F00FFE79DF81F0008B04F
:1035800080BD000080B586B00A46034604900391D2
:1035900000200290049991F8671002919DF808109C
:1035A0008909DDF80CC08CF800100299C1F3830181
:1035B000DDF80CC08CF80110029901F00301DDF870
:1035C0000CC08CF80210049991F8661002910299CF
:1035D000DDF80CC08CF80310049991F86510029185
:1035E0000299DDF80CC08CF80410049991F864106D
:1035F00002910299DDF80CC08CF80510049991F83D
:103600006B10029102990901DDF80CC0ACF80610AC
:10361000049991F86A1002919DF80810DDF80CC029
:10362000BCF806E04EEA1111ACF80610029901F060
:103630000F01DDF80CC08CF80810049991F869109E
:1036400002919DF80810C909DDF80CC08CF809102A
:103650000299C1F38011DDF80CC08CF80A100299B0
:10366000C1F34011DDF80CC08CF80B100299C1F3C6
:103670000011DDF80CC08CF80C1003994873049805
:10368000406C00280192009364D1FFE7029800F09B
:103690000300800203990861049890F86800029082
:1036A000029803990A6942EA80000861049890F838
:1036B0006F0002909DF8080003990A6942EA901091
:1036C00008610298C0F3C20003990875029800F0DF
:1036D000070003994875049890F86E0002909DF8D1
:1036E00008004009039988750298C0F38200039985
:1036F000C875029800F0030040000399087604980A
:1037000090F86D0002909DF8080003990A7E42EA45
:10371000D010087603980069013004994865039831
:10372000007E0230012101FA00F0049A536D5843E3
:1037300050650398007A01FA00F0049988650498AE
:10374000416D826D520A5143C16504984FF4007176
:10375000016648E00498406C012832D1FFE70498E4
:1037600090F868000290029800F03F00000403996E
:103770000861049890F86F000290029803990A6912
:1037800042EA00200861049890F86E0002900298C6
:1037900003990A6910430861049890F86D0002903B
:1037A000039800694FF4806101EB8020049948651B
:1037B0000499C86504984FF4007181650498016606
:1037C00010E00498006840F2FF5181630498816B17
:1037D00041F0805181630498012180F834108DF804
:1037E000171088E0FFE70298C0F38010039948762D
:1037F000029800F03F00400003998876049890F802
:103800006C0002909DF8080003998A7E42EAD0106D
:103810008876029800F07F000399C876049890F8A3
:10382000730002909DF80800C00903990877029878
:10383000C0F34110039948770298C0F382000399BE
:103840008877029800F0030080000399C8770498F5
:1038500090F8720002909DF808000399CA7F42EA2E
:103860009010C8770298C0F34010039981F82000A7
:103870000398002180F82110029800F00100039ABB
:1038800082F82200049890F8710002909DF80800D8
:10389000C009039A82F823000298C0F38010039AAB
:1038A00082F824000298C0F34010039A82F82500A1
:1038B0000298C0F30010039A82F826000298C0F321
:1038C0008100039A82F82700029800F00300039A0F
:1038D00082F82800049890F8700002909DF8080083
:1038E0004008039A82F829000398012280F82A20D0
:1038F0008DF81710FFE79DF8170006B080BD000097
:1039000084B00A460346039002910398406C0299E2
:1039100008600398806C029948600398C06C029913
:1039200088600398006D0299C8600398406D029901
:1039300008610398806D029948610398C06D0299EF
:1039400088610398006E0299C8610020019200937B
:1039500004B0704780B586B00146059004208DF80C
:103960001300002003900290059802AA01911146CD
:1039700003F054FF03900398002806D0FFE7039854
:1039800005998A6B10438863FFE70298C0F34320D0
:103990008DF813009DF8130006B080BD80B584B08B
:1039A0000146029002980028019104D1FFE701200E
:1039B0008DF80F0023E0029890F83400002807D11A
:1039C000FFE7029800210177029800F085F8FFE7F1
:1039D0000298032180F83410029800F015F802993B
:1039E0004FF0000EC1F838E00299C1F830E00299BA
:1039F000012281F834208DF80FE00090FFE79DF858
:103A00000F0004B080BD0000F0B591B001460F90EA
:103A100000200E90089009900A900B900C9076224E
:103A20000D920F9A1268089BDDF824C0DDF828E09B
:103A30000B9C0C9D0D9E6F46BE607D603C600790A8
:103A40001046069119466246734602F0E3FF48F2BB
:103A5000A001C4F22521079A0A600F9B1B680590FC
:103A60001846049103F00EF80121049A1160022116
:103A700003900846FEF70EFD0F9803F019FE0E9016
:103A80000E9800280CD0FFE70F98012180F8341021
:103A90000E980F9A936B184390638DF8431017E0BC
:103AA0000F9803F039FD0E900E9800280CD0FFE718
:103AB0000F98012180F834100E980F9A936B1843D9
:103AC00090638DF8431003E000208DF84300FFE77A
:103AD0009DF8430011B0F0BD80B592B00146119041
:103AE000002010900F900E900D900C90119800688F
:103AF00042F60042C4F201029042089163D1FFE70E
:103B0000FFE700200B9043F64400C4F20200016876
:103B100041F400610160006800F400600B900B98B4
:103B20000790FFE7FFE700200A9043F63000C4F259
:103B30000200016841F004010160006800F0040027
:103B40000A900A980690FFE7FFE70020099043F6E5
:103B50003000C4F20200016841F008010160006811
:103B600000F00800099009980590FFE74FF488508D
:103B70000C9002200D9000210E9103220F920C2335
:103B8000109340F6000CC4F2020C0DF1300E0490BC
:103B900060460391714602920193CDF800E0FEF772
:103BA000FBFC04200C9004980D9003990E91029A4E
:103BB0000F92019B109340F60040C4F2020000995E
:103BC000FEF7EAFCFFE712B080BD000070B596B0CA
:103BD000DDF868C09E4614460D46064614901391C3
:103BE0001292119300200A90CDF818C0CDF814E07D
:103BF0000494039502960190FEF7D8FE099001986F
:103C00000890139907911399002909D1FFE7149897
:103C1000816B41F00061816301208DF8570093E1D1
:103C2000149890F83400012840F08581FFE714983B
:103C3000002181631298119908441499C96D884232
:103C400009D9FFE71498816B41F00071816301206D
:103C50008DF8570078E11498032180F834101498F7
:103C600000680021C1621498406C012804D0FFE76D
:103C7000129840021290FFE7149800684FF4007108
:103C800002F0A8FF0A900A98002811D0FFE71498C4
:103C9000006840F2FF5181630A9814998A6B1043BF
:103CA00088631498012180F834108DF857104BE187
:103CB0004FF0FF300B90119840020C9090200D9027
:103CC00002200E9000200F900120109014980068A0
:103CD0000BA902F043FE1199022900900AD3FFE7D5
:103CE00014980221016314980068129902F0D8FF19
:103CF0000A9009E014980121016314980068129950
:103D000002F0F8FF0A90FFE70A98002811D0FFE7B9
:103D10001498006840F2FF5181630A9814998A6BE5
:103D2000104388631498012180F834108DF85710DF
:103D30000AE1FFE714980068406B40F22A3108421C
:103D400042D1FFE714980068406B0004002819D5A1
:103D5000FFE700200890FFE7089807280ED8FFE744
:103D60001498006802F098FEDDF81CE008994EF8FF
:103D70002100FFE7089801300890EDE70798203010
:103D80000790FFE71A9800280BD0FFE7FEF70EFE1A
:103D9000DDF824E0A0EB0E00DDF868E0704512D3FA
:103DA000FFE71498006840F2FF5181631498816B1B
:103DB00041F0004181631498012180F83410032000
:103DC0008DF85700C0E0B5E714980068406BC00557
:103DD000002825D5FFE71198022821D3FFE7149882
:103DE000406C03281BD0FFE71498006803F06AF8C2
:103DF0000A900A98002811D0FFE71498006840F252
:103E0000FF5181630A9814998A6B10438863149850
:103E1000012180F834108DF8571095E0FFE7FFE797
:103E200014980068406B0007002811D5FFE714982C
:103E3000006840F2FF5181631498816B41F00801E2
:103E400081631498012180F834108DF857107BE0BD
:103E500014980068406B8007002811D5FFE714987C
:103E6000006840F2FF5181631498816B41F00201B8
:103E700081631498012180F834108DF8571063E0A5
:103E800014980068406B8006002811D5FFE714984D
:103E9000006840F2FF5181631498816B41F020016A
:103EA00081631498012180F834108DF857104BE08D
:103EB000FFE7FFE7FFE714980068406B80020028E7
:103EC0002CD5FFE71498006802F0E6FDDDF81CE051
:103ED000CEF800000798043007901A9800280BD0FD
:103EE000FFE7FEF763FDDDF824E0A0EB0E00DDF850
:103EF00068E0704511D3FFE71498006840F2FF5165
:103F000081631498816B41F0004181631498012111
:103F100080F834108DF8571016E0CCE7149800683C
:103F200040F2FF5181631498012180F83410002081
:103F30008DF8570008E01498816B41F000518163BF
:103F400001208DF85700FFE79DF8570016B070BDAF
:103F500070B598B0DDF870C09E4614460D46064612
:103F6000169015911492139300200C90CDF820C058
:103F7000CDF81CE00694059504960390FEF716FD17
:103F80000B9003980A90159909911599002909D168
:103F9000FFE71698816B41F00061816301208DF885
:103FA0005F005EE1169890F83400012840F05081DF
:103FB000FFE7169800218163149813990844169915
:103FC000C96D884209D9FFE71698816B41F00071ED
:103FD000816301208DF85F0043E11698032180F88A
:103FE0003410169800680021C1621698406C0128B0
:103FF00004D0FFE7149840021490FFE71698006879
:104000004FF4007102F0E6FD0C900C98002811D0DE
:10401000FFE71698006840F2FF5181630C981699EB
:104020008A6B104388631698012180F834108DF84C
:104030005F1016E1139802280AD3FFE71698202193
:10404000016316980068149902F060FF0C9009E073
:1040500016981021016316980068149902F080FFE9
:104060000C90FFE70C98002811D0FFE71698006825
:1040700040F2FF5181630C9816998A6B1043886354
:104080001698012180F834108DF85F10E9E04FF0A8
:10409000FF300D90139840020E9090200F9000205A
:1040A0001090119001201290169800680DA902F04E
:1040B00055FC0290FFE716980068406B40F21A31F9
:1040C000084242D1FFE716980068406B4004002880
:1040D00019D5FFE700200A90FFE70A9807280ED8B5
:1040E000FFE71698006809990A9A01EB820102F02D
:1040F0000FFD0190FFE70A9801300A90EDE709985B
:1041000020300990FFE71C9800280BD0FFE7FEF74E
:104110004DFCDDF82CE0A0EB0E00DDF870E0704502
:1041200012D3FFE71698006840F2FF5181630C98A4
:1041300016998A6B104388631698012180F8341011
:1041400003208DF85F008CE0B5E716980068406B9F
:10415000C005002825D5FFE71398022821D3FFE7E3
:104160001698406C03281BD0FFE71698006802F0F1
:10417000A9FE0C900C98002811D0FFE71698006853
:1041800040F2FF5181630C9816998A6B1043886343
:104190001698012180F834108DF85F1061E0FFE778
:1041A000FFE716980068406B0007002811D5FFE76D
:1041B0001698006840F2FF5181631698816B41F0B8
:1041C000080181631698012180F834108DF85F1082
:1041D00047E016980068406B8007002811D5FFE77C
:1041E0001698006840F2FF5181631698816B41F088
:1041F000020181631698012180F834108DF85F1058
:104200002FE016980068406BC006002811D5FFE724
:104210001698006840F2FF5181631698816B41F057
:10422000100181631698012180F834108DF85F1019
:1042300017E0FFE7FFE71698006840F2FF5181633F
:104240001698012180F8341000208DF85F0008E0F6
:104250001698816B41F00051816301208DF85F0059
:10426000FFE79DF85F0018B070BD000080B58EB00C
:1042700013468C4686460C900B910A920C980028A7
:104280000993CDF820C0CDF81CE004D1FFE7012050
:104290008DF837003DE00C9890F84900002808D1CF
:1042A000FFE70C98002180F848100C9800F036F8D1
:1042B000FFE70C9850F8081B069008460699FCF793
:1042C0004DFE0C99DDF82CE00A68896805901046CF
:1042D00004917146049AFCF79BFE0C990A9AD1F856
:1042E00004E08B68096B03907046029111461A46F0
:1042F000029BFCF7EFFD0C990A68896852F821309F
:1043000043F0010342F8213000218DF8371001906D
:10431000FFE79DF837000EB080BD000080B582B089
:10432000014601900091FEF7DDF802B080BD00006B
:1043300080B582B0014601900198009103F08EFB98
:1043400002B080BD87B00A460346059004910192F1
:104350000093FFE7059890F83C00012804D1FFE79F
:1043600002208DF81B0039E00598012180F83C10EF
:10437000FFE7FFE70598022180F83D1005980068E7
:10438000406803900598006880680290039820F0C8
:104390007000039004980068039908430390029802
:1043A00020F080000290049840680299084302902F
:1043B000039805990968486002980599096888601A
:1043C0000598012180F83D10FFE70598002180F84D
:1043D0003C10FFE700208DF81B00FFE79DF81B0055
:1043E00007B0704780B584B001460290029800285B
:1043F000019104D1FFE701208DF80F0021E0029820
:1044000090F83D00002808D1FFE70298002180F8CD
:104410003C10029800F01AF8FFE70298022180F899
:104420003D10029850F8041B00900846009903F0D4
:104430002DFE0298012180F83D1000208DF80F001C
:10444000FFE79DF80F0004B080BD000088B0014672
:10445000079007980068B0F1804F039113D1FFE7F0
:10446000FFE70020069043F64000C4F20200016816
:1044700041F001010160006800F00100069006981B
:104480000290FFE739E00798006840F20041C4F26B
:104490000001884213D1FFE7FFE70020059043F6B3
:1044A0004000C4F20200016841F0020101600068AE
:1044B00000F00200059005980190FFE71CE00798C6
:1044C000006840F60001C4F20001884213D1FFE702
:1044D000FFE70020049043F64000C4F202000168A8
:1044E00041F004010160006800F0040004900498A9
:1044F0000090FFE7FFE7FFE7FFE708B07047000025
:1045000083B0014602900298022280F83D20029872
:104510000068806800F0070001900198062800916B
:1045200007D0FFE702980068016841F001010160CF
:10453000FFE70298012180F83D10002003B070478A
:1045400083B00146029002980068C26842F00102FE
:10455000C26002980068806800F00700019001982E
:104560000628009107D0FFE702980068016841F033
:1045700001010160FFE7002003B0704780B58CB0F7
:104580000A4603460A90099107920693FFE70A98A4
:1045900090F83C00012804D1FFE702208DF82F009D
:1045A000B7E00A98012180F83C10FFE7FFE70A987E
:1045B000022180F83D100A980068806808900898E9
:1045C00020F077000890089820F47F400890089821
:1045D0000A9909688860099800680028059000F029
:1045E0008280FFE7059810287DD0FFE705982028F6
:1045F00079D0FFE70598302875D0FFE70598402867
:1046000061D0FFE7059850283DD0FFE70598602866
:1046100049D0FFE7059870280BD0FFE70598B0F563
:10462000805F05D0FFE70598B0F5005F19D061E025
:1046300061E00A98006809994A688B68C968049122
:104640001946049B03F01AFE0A98006880680890D7
:10465000089840F07700089008980A9909688860DF
:1046600049E00A98006809994A688B68C96803910B
:104670001946039B03F002FE0A980068816841F422
:104680008041816037E00A98006809994A68C968E2
:1046900002911146029A03F0FDFF0A98006850212A
:1046A00003F012FE27E00A98006809994A68C96871
:1046B00001911146019A04F01FF80A9800686021E0
:1046C00003F002FE17E00A98006809994A68C96871
:1046D00000911146009A03F0DDFF0A98006840211E
:1046E00003F0F2FD07E00A9800680999096803F0F1
:1046F000EBFD00E0FFE70A98012180F83D10FFE79D
:104700000A98002180F83C10FFE700208DF82F0068
:10471000FFE79DF82F000CB080BD000080B58AB087
:10472000014609900020089007900690059004909B
:104730000998006840F60002C4F20002904202911B
:1047400023D1FFE7FFE70020039043F63000C4F2D7
:104750000200016841F008010160006800F00800F3
:10476000039003980190FFE74FF4805004900220DB
:104770000590002106910791089040F60040C4F290
:10478000020004A9FDF708FFFFE70AB080BD0000A2
:1047900080B588B013468C468646069005910492F3
:1047A0000393CDF808C0CDF804E0FFE7069890F831
:1047B0003C00012804D1FFE702208DF81F0093E0A0
:1047C0000698012180F83C10FFE7FFE706980221D8
:1047D00080F83D1004980C28009000F27680009933
:1047E000DFE801F007737373227373733D737373A0
:1047F000580006980068059903F080FD0698006847
:10480000816941F00801816106980068816921F0A1
:10481000040181610598006906990968D1F818E0DA
:1048200040EA0E00886151E006980068059903F09F
:10483000DFFD06980068816941F400618161069896
:104840000068816921F48061816105980069069999
:104850000968D1F818E04EEA0020886136E0069831
:104860000068059903F042FE06980068C16941F0AE
:104870000801C16106980068C16921F00401C161A5
:104880000598006906990968D1F81CE040EA0E0015
:10489000C8611BE006980068059903F0A5FE06981C
:1048A0000068C16941F40061C16106980068C1698E
:1048B00021F48061C1610598006906990968D1F801
:1048C0001CE04EEA0020C86100E0FFE706980121E5
:1048D00080F83D10FFE70698002180F83C10FFE7C4
:1048E00000208DF81F00FFE79DF81F0008B080BD75
:1048F00080B584B00146029002980028019104D14D
:10490000FFE701208DF80F0021E0029890F83D00AC
:10491000002808D1FFE70298002180F83C10029897
:1049200000F01AF8FFE70298022180F83D10029883
:1049300050F8041B00900846009903F0A7FB02986A
:10494000012180F83D1000208DF80F00FFE79DF851
:104950000F0004B080BD000082B0014601900091BC
:1049600002B0704780B588B00A46034607900691AA
:104970000798006806994FF0010C04926246039371
:10498000CDF808C003F054FC079800680299002293
:10499000C4F20102904201910CD0FFE70798006831
:1049A0004FF60041CBF6FE710844B0FA80F04009A2
:1049B0000190FFE70198C007002807D0FFE707989C
:1049C0000068416C41F400414164FFE707980068CA
:1049D000806800F0070005900598062807D0FFE7DB
:1049E00007980068016841F001010160FFE70020BD
:1049F00008B080BD80B584B00146029002980028BE
:104A0000019104D1FFE701208DF80F0041E00298E9
:104A10008069002801D0FFE700E0FFE7029890F8E6
:104A20003900002808D1FFE70298002180F83810EB
:104A3000029800F033F8FFE70298242180F839103B
:104A400002980068C16821F40051C160029803F027
:104A500085FE02980068016921F490410161029885
:104A60000068416921F02A01416102980068C1682B
:104A700041F40051C16002980021C16302984FF0D7
:104A8000200E80F839E0029880F83AE08DF80F1097
:104A9000FFE79DF80F0004B080BD000080B592B024
:104AA00001461190002010900F900E900D900C90E8
:104AB0001198006841F20002C4F20102904208918C
:104AC00063D1FFE7FFE700200B9043F64400C4F2F8
:104AD0000200016841F010010160006800F0100060
:104AE0000B900B980790FFE7FFE700200A9043F632
:104AF0003000C4F20200016841F001010160006869
:104B000000F001000A900A980690FFE7FFE70020F6
:104B1000099043F63000C4F20200016841F002013E
:104B20000160006800F00200099009980590FFE715
:104B30004FF480600C9002200D9001210E91032211
:104B40000F920723109340F2000CC4F2020C0DF1F7
:104B5000300E049060460391714602920193CDF8A5
:104B600000E0FDF719FD40200C9004980D9003998A
:104B70000E91029A0F92019B109340F20040C4F2F2
:104B800002000099FDF708FDFFE712B080BD0000AC
:104B9000B0B58CB09C4696460C4605460A900991E5
:104BA000ADF822200793002005900A9890F839006C
:104BB0002028CDF810C0CDF80CE00294019540F00B
:104BC0009F80FFE70998002805D0FFE7BDF8220085
:104BD000002804D1FFE701208DF82F0094E0FFE7C3
:104BE0000A9890F83800012804D1FFE702208DF8D8
:104BF0002F0089E00A98012180F83810FFE7FFE7CD
:104C00000A980021C1630A98212180F83910FDF724
:104C1000CDFE0590BDF822000A998884BDF82200D7
:104C20000A99C884FFE70A98C08C00284AD0FFE799
:104C30000A98C18C0139C1840A988068B0F5805FF8
:104C400027D1FFE70A98059B07996A4611608021E2
:104C5000002203F0B7FF002804D0FFE703208DF8FF
:104C60002F0051E009980690069800886FF35F20A6
:104C70000A99096848600A980069002804D1FFE78A
:104C800009980230099003E0099801300990FFE784
:104C900017E00A98059B07996A4611608021002257
:104CA00003F090FF002804D0FFE703208DF82F00C9
:104CB0002AE00998411C099100780A99096848601E
:104CC000FFE7B0E70A98059B07996A461160402103
:104CD000002203F077FF002804D0FFE703208DF8BF
:104CE0002F0011E00A98202180F83910FFE70A9878
:104CF000002180F83810FFE700208DF82F0003E036
:104D000002208DF82F00FFE79DF82F000CB0B0BDFA
:104D1000FFE7FEE780B588B00146ADF81E00002031
:104D2000069043F28030C2F2000002880592428869
:104D3000059B5A430592808846F6040290420491EE
:104D400020D1FFE743F28030C2F2000080790128D1
:104D500018D1FFE743F28030C2F2000000218171D8
:104D60002A2242812B2383810390084602920193D9
:104D700000F056FE01200399887101984881029A3B
:104D80008A8105E000200090009900F049FEFFE7CD
:104D900001F0ACF84FF0000ECDF818E0FFE70698F0
:104DA000059988420BD2FFE7BDF81E000021C6F22C
:104DB00008010880FFE7069801300690EFE708B089
:104DC00080BD000080B582B001468DF807009DF8D7
:104DD00007000028009176D1FFE743F28030C2F24D
:104DE000000000218171F02101804FF4A071418009
:104DF000808849F24131884214D0FFE743F2803085
:104E0000C2F20000808846F6040188420AD0FFE71B
:104E100043F28030C2F20000808845F210318842AF
:104E200026D1FFE743F28030C2F200002C2101813D
:104E30002A2141812B218181808846F60401884204
:104E40000AD0FFE743F28030C2F20000808845F2CA
:104E5000103188420BD1FFE743F28030C2F20000EC
:104E60004FF4A07101804FF4F0714180FFE729E019
:104E700043F28030C2F20000808845F2105188422F
:104E800014D1FFE743F28030C2F200004FF43051FA
:104E900001814FF4285141814FF42C5181814FF40D
:104EA000F07101804FF4487141800AE043F2803094
:104EB000C2F2000022210181202141812121818132
:104EC000FFE7FFE785E043F28030C2F200000121F6
:104ED00081714FF4A0710180F0214180808849F2F6
:104EE000413188420AD0FFE743F28030C2F200002D
:104EF000808845F2103188420BD1FFE743F28030C1
:104F0000C2F200002C2101812A2141812B218181C3
:104F10003FE043F28030C2F20000808846F6040190
:104F200088420BD1FFE743F28030C2F200002C210F
:104F300001812B2141812A21818129E043F28030A6
:104F4000C2F20000808845F21051884214D1FFE778
:104F500043F28030C2F200004FF4305101814FF42F
:104F6000285141814FF42C5181814FF448710180C7
:104F70004FF4F07141800AE043F28030C2F2000049
:104F8000222101812121418120218181FFE7FFE749
:104F9000FFE743F28030C2F20000808846F6040149
:104FA00088420AD0FFE743F28030C2F200008088D6
:104FB00045F2103188420BD1FFE743F28030C2F254
:104FC00000004FF4F07101804FF4A0714180FFE7C1
:104FD000FFE7002000F006FB02B080BD80B584B082
:104FE0000A460346ADF80E00ADF80C10BDF80E00F1
:104FF000BDF80C100292019300F012FD00F076FF54
:1050000043F23400C2F2000000880021C6F2080119
:10501000088004B080BD000080B58AB013468C467D
:105020008646ADF82600ADF82410ADF8222043F2F4
:105030008030C2F20000808849F2413188420793F3
:10504000CDF818C0CDF814E00AD0FFE743F2803065
:10505000C2F20000808845F2103188421ED1FFE77D
:1050600043F28030C2F2000041890490084600F00B
:105070002BFF9DF8270000F015FF9DF8260000F09B
:1050800011FF0498808900F01FFF9DF8250000F0B3
:1050900009FF9DF8240000F005FF98E043F28030FE
:1050A000C2F20000808845F2105188422AD1FFE701
:1050B00043F28030C2F2000041890390084600F0BC
:1050C00003FF9DF8270000F0EDFE039841890131B0
:1050D00088B200F0F9FE9DF8260000F0E3FE039888
:1050E000808900F0F1FE9DF8250000F0DBFE0398BA
:1050F0008189013188B200F0E7FE9DF8240000F0BC
:10510000D1FE63E043F28030C2F20000808846F6B0
:105110000401884232D1FFE743F28030C2F200003E
:10512000807901280CD1FFE743F28030C2F2000001
:1051300000880138BDF82610401AADF82600FFE7B8
:1051400043F28030C2F2000041890290084600F02C
:10515000BBFE9DF8270000F0A5FE9DF8260000F09C
:10516000A1FE0298808900F0AFFE9DF8250000F0B6
:1051700099FE9DF8240000F095FE26E043F2803071
:10518000C2F20000807901280CD1FFE743F28030A1
:10519000C2F2000000880138BDF82610401AADF8B0
:1051A0002600FFE743F28030C2F200004189BDF8DB
:1051B000262001900846114600F0A4FE019880893F
:1051C000BDF8241000F09EFEFFE7FFE7FFE743F283
:1051D0008030C2F2000000894FF6FE71C6F207016E
:1051E0000880BDF822000021C6F2080108800AB03C
:1051F00080BD000070B586B041F22C00C2F2000004
:1052000003F0CEFD0120ADF81600FFE7BDF8160053
:10521000B0F5806F7CDAFFE7BDF81600B0F57F7F50
:1052200056DAFFE7BDF81600800700284FD1FFE7E8
:10523000BDF81600142101EB9000049040F20C0020
:10524000C2F20000018840F21002C2F2000213888C
:10525000BDF810C0BDF816E041F22C04C2F2000403
:1052600004EB8E0E9EED000AB0EE001A80EE010AED
:10527000BDEEC00A10EE10EACEF1C80E6D46002653
:105280002E601FFA8EFE039008461946029262466F
:1052900073460194FBF7F8FE049803990860BDF883
:1052A0001600019A02EB800090ED000A9FED191A9A
:1052B00080EE010A9FED181A30EE010ABDEEC00A19
:1052C000029880ED000A0A20FDF7E4F8FFE718E0F5
:1052D0004FF47A70FDF7DEF840F20C00C2F20000E5
:1052E0004FF0140EC0F800E040F21000C2F20000CF
:1052F0004FF0C80EC0F800E04FF6FF7000F01AFE45
:10530000FFE7FFE7BDF816000130ADF816007DE7B6
:1053100006B070BD00000CC20000484380B59CB0D0
:10532000B0EE401A13468C468646ADF86E00ADF8D6
:105330006C101A928DED190A1A9A19988DED081AA7
:105340000793CDF818C0CDF814E00492FBF733F9B9
:1053500041EC120B684680ED002B4CF66C71C0F6E8
:10536000000109A80390049A04F05AFEBDF86E10DB
:10537000BDF86C206B46DDF80CC0C3F804C04FF0DC
:10538000100EC3F800E064234FF0F00E02900846C0
:1053900011461A46734600F00BFD1CB080BD00009C
:1053A000B0B594B040F22A00C2F200004FF40061A0
:1053B00003F0C6FC0020ADF84E00FFE7BDF84E003C
:1053C000B0F5006F80F2DC80FFE7BDF84E00B0F56D
:1053D000FF6F80F2B580FFE7BDF84E004AF6AB21C3
:1053E000CAF6AA21A0FB0112D20802EB4202A0EBEE
:1053F00082000028119140F0A280FFE7BDF84E0026
:105400004AF6AB21CAF6AA21A0FB01018908129134
:1054100043F23001C2F200010A8840F21403C2F2E2
:105420000003B3F800C0BDF848E0BDF84E4040F2BC
:105430002A05C2F2000535F81440109020460F915D
:105440000E920D93CDF830C0CDF82CE00A95FBF705
:1054500082F841EC100B51EC100B9FED4B0B53EC11
:10546000102B09920893FAF795FF41EC100B51ECC1
:10547000100B9FED470B53EC102B07920693FAF796
:10548000FBFF41EC100B51EC100B9FED430B53EC69
:10549000102B05920493FAF77DFF41EC100B51ECB1
:1054A000100B9FED3F0B53EC102B03920293FAF776
:1054B000CAFE41EC100B51EC100BFBF75DF869468E
:1054C0004FF478420A6083B20E980C990B9AFBF75E
:1054D000DBFD12980F990860BDF84E000A9A32F869
:1054E0001000FBF738F841EC100B51EC100B099A47
:1054F000089BFAF74FFF41EC100B51EC100B079A89
:10550000069BFAF7B9FF41EC100B51EC100B059A12
:10551000049BFAF73FFF41EC100B51EC100B039A80
:10552000029BFAF790FE41EC100B51EC100BFBF7CD
:1055300023F80D9908600A20FCF7ACFFFFE718E09C
:105540004FF47A70FCF7A6FF43F23000C2F200007D
:105550004FF0000EC0F800E040F21400C2F200006C
:105560004FF0780EC0F800E04FF6FF7000F0E2FC5C
:10557000FFE7FFE7BDF84E000130ADF84E001DE734
:1055800014B0B0BD00BF00BF6666666666660A40BE
:105590000000000000FEAF4000000000000054408A
:1055A000000000000080514081B00020C6F20800D9
:1055B0000088ADF80200BDF8020001B0704700009D
:1055C00080B582B00146ADF80600BDF80600009136
:1055D00000F07AFC0520FCF75DFFFFF7E5FF02B065
:1055E00080BD000080B58AB001468DF827000020FC
:1055F000ADF82400ADF8220043F28030C2F2000082
:1056000080790128079138D1FFE743F28030C2F258
:105610000000808846F6040188422ED0FFE79DF8FE
:10562000270001460728069126D80699DFE801F0F1
:1056300004080C1014181C2006208DF827001BE00D
:1056400007208DF8270017E004208DF8270013E0CD
:1056500005208DF827000FE001208DF827000BE0D2
:1056600000208DF8270007E003208DF8270003E0D5
:1056700002208DF82700FFE7FFE743F28030C2F2F7
:105680000000808849F2413188421FD0FFE743F291
:105690008030C2F20000808846F60401884215D0AE
:1056A000FFE743F28030C2F20000808845F21031FB
:1056B00088420BD0FFE743F28030C2F200008088BE
:1056C00045F21051884240F05A81FFE79DF82700CB
:1056D00001460728059138D80599DFE801F004054F
:1056E0000C131A21282F30E0BDF8240040F0800070
:1056F000ADF8240029E0BDF8240040F04000ADF8EA
:10570000240022E0BDF8240040F0C000ADF82400E1
:105710001BE0BDF8240040F02000ADF8240014E0A8
:10572000BDF8240040F06000ADF824000DE0BDF8A5
:10573000240040F0A000ADF8240006E0BDF82400ED
:1057400040F0E000ADF82400FFE743F28030C2F201
:105750000000808845F21051884205D1FFE74FF4E0
:105760005850ADF8220003E03620ADF82200FFE7E4
:1057700043F28030C2F20000808845F21031884246
:1057800011D0FFE743F28030C2F20000808845F27A
:105790001051884207D0FFE7BDF8240040F0080010
:1057A000ADF82400FFE743F28030C2F200008088A9
:1057B00046F60401884207D1FFE7BDF8240040F017
:1057C0000200ADF82400FFE7BDF82200BDF8241068
:1057D00000F098FBBDF824008006002808D4FFE7FD
:1057E00043F28030C2F200008079012817D1FFE730
:1057F00043F28030C2F200000188408881420DDA15
:10580000FFE743F28030C2F200000188ADF82010BB
:1058100041880180BDF820104180FFE716E043F287
:105820008030C2F200000188408881420DDDFFE730
:1058300043F28030C2F200000188ADF820104188A8
:105840000180BDF820104180FFE7FFE743F2803080
:10585000C2F20000808845F21051884259D1FFE71A
:1058600043F28030C2F2000041890490084600F003
:105870002BFB0020039000F015FB049841890131B7
:1058800088B200F021FB039800F00CFB04984189DA
:10589000023188B200F018FB049801880139C1F385
:1058A0000F2000F0FFFA04984189033188B200F01C
:1058B0000BFB049801880139C8B200F0F3FA049890
:1058C000808900F001FB039800F0ECFA04988189CC
:1058D000013188B200F0F8FA039800F0E3FA049876
:1058E0008189023188B200F0EFFA049841880139C9
:1058F000C1F30F2000F0D6FA04988189033188B2F1
:1059000000F0E2FA049841880139C8B200F0CAFAFE
:1059100034E043F28030C2F2000041890290084630
:1059200000F0D2FA0020019000F0BCFA019800F0DB
:10593000B9FA029801880139C1F30F2000F0B2FAD8
:10594000029801880139C8B200F0ACFA0298808947
:1059500000F0BAFA019800F0A5FA019800F0A2FA56
:10596000029841880139C1F30F2000F09BFA029898
:1059700041880139C8B200F095FAFFE74EE09DF882
:10598000270001460728009138D80099DFE801F088
:10599000040B12191A21282FBDF8240040F0300002
:1059A000ADF824002AE0BDF8240040F01000ADF866
:1059B000240023E0BDF8240040F02000ADF82400CE
:1059C0001CE01BE0BDF8240040F03800ADF82400D6
:1059D00014E0BDF8240040F02800ADF824000DE0EC
:1059E000BDF8240040F01800ADF8240006E0BDF832
:1059F000240040F00800ADF82400FFE70320ADF8D4
:105A00002200BDF8240040F48050ADF82400BDF819
:105A10002200BDF8241000F075FAFFE70AB080BD3F
:105A200080B588B00A460346ADF81E00ADF81C10DC
:105A300043F28030C2F20000808849F2413188424E
:105A4000069205930AD0FFE743F28030C2F20000CD
:105A5000808845F2103188421ED1FFE743F2803042
:105A6000C2F2000041890490084600F02DFA9DF82A
:105A70001F0000F017FA9DF81E0000F013FA0498BA
:105A8000808900F021FA9DF81D0000F00BFA9DF8C6
:105A90001C0000F007FA98E043F28030C2F20000E8
:105AA000808846F60401884232D1FFE743F2803015
:105AB000C2F20000807901280CD1FFE743F2803068
:105AC000C2F2000000880138BDF81E10401AADF87F
:105AD0001E00FFE743F28030C2F2000041890390CC
