:020000040800F2
:10000000A04901209D0100089B3D00082F2E0008FB
:10001000993D0008790900086551000800000000BA
:100020000000000000000000000000005946000829
:100030004B0A000800000000753F00088D480008CA
:10004000B7010008B7010008B7010008B7010008B0
:10005000B7010008B7010008B7010008B7010008A0
:10006000B7010008B7010008B7010008B701000890
:10007000B7010008B7010008B7010008B701000880
:10008000B7010008B7010008E9080008B701000837
:10009000B7010008B7010008B7010008B701000860
:1000A000B7010008B7010008B7010008B701000850
:1000B000B7010008B7010008B7010008B701000840
:1000C000B7010008B7010008B7010008B701000830
:1000D000B70100085D510008B7010008B70100082A
:1000E000B7010008B7010008B7010008B701000810
:1000F000B7010008B7010008B7010008B701000800
:10010000B7010008B7010008B7010008B7010008EF
:10011000B7010008B7010008B7010008B7010008DF
:10012000DD090008B7010008E9090008B701000867
:10013000B7010008B7010008B7010008B7010008BF
:10014000B7010008B7010008B7010008B7010008AF
:10015000B7010008B7010008B7010008B70100089F
:10016000B7010008B7010008B7010008B70100088F
:10017000B7010008B7010008B7010008000000003F
:10018000B7010008B7010008DFF80CD000F05AFBF7
:100190000048004713770008A0490120064880471F
:1001A00006480047FEE7FEE7FEE7FEE7FEE7FEE75C
:1001B000FEE7FEE7FEE7FEE71D49000889010008AB
:1001C0002DE9F05F0546002092469B46884606468C
:1001D000814640241BE0284641464746224600F01F
:1001E0004BFA53465A46C01A914110D3114618464D
:1001F000224600F032FA2D1A67EB01084F462246DC
:100200000120002100F029FA17EB00094E41201EC1
:10021000A4F10104DFDC484631462A464346BDE8E6
:10022000F09FD2B201E000F8012B491EFBD27047CB
:100230000022F6E710B513460A4604461946FFF7B2
:10024000F0FF204610BD2DE9FE4F804681EA0300F5
:10025000C00F0C46009021F0004123F00045B8EBA0
:100260000200A94105D24046214690461C460B4655
:10027000024623F00040104347D0270DC7F30A0081
:10028000C3F30A510290401A019040286BDAC3F37D
:10029000130040F4801B0098924620B10023D2EB5B
:1002A000030A63EB0B0B01985946C0F1400250461C
:1002B00000F0D3F906460D4650465946019A00F023
:1002C000EBF910EB08006141002487EA115284EA3F
:1002D000E7731A4340D0009A62B3019A012A4FEAA9
:1002E000075215DC001B61EB02014FF0004202EAED
:1002F0000752CDE90042001C41F5801132462B46E1
:1003000000F022FA03B0BDE8F08F40462146F9E73D
:10031000001B61EB0201001C41F5801300185B41DA
:100320002018A2F5001747EB030140EAD570B61973
:100330006D4111E06D084FEA360645EAC0754FEA97
:100340000752001B61EB0201001C41F580114908B6
:100350004FEA30000019514132462B4603B0BDE848
:10036000F04F00F0E2B90098012240000023D0EBEA
:10037000020263EBE073009821464FEAE074B8EBA9
:10038000000061EB0401E9E783F000435BE781F0E3
:10039000004158E72DE9FE4F81EA030404F00044D0
:1003A00021F0004100944FF0000B23F0004350EA8D
:1003B00001045ED052EA03045BD0C3F30A54C1F3D4
:1003C0000A552C44A4F2F3340194A0FB0254C1F367
:1003D000130141F48011C3F3130343F4801301FBB1
:1003E000024400FB034E840A970A44EA815447EA18
:1003F0008357A4FB076802958D0A05FB07854FEA22
:10040000932C04FB0C542705029D4FEA065847EA3B
:100410001637B5EB08056EEB070C870E920E47EA10
:10042000811742EA8312A7FB0201B6EB0B0164EBD2
:1004300000042B0D43EA0C335E1844EB1C50DA46E3
:100440005146E7FB0201C5F313044FEA0B3343EABD
:1004500014534FEA0432019C43EA0603A4F10C044E
:100460000294009CCDE900B400F06EF903B0BDE841
:10047000F08F00200146F9E72DE9F04D81EA0304F1
:1004800004F0004B21F0004514464FF0000A23F021
:10049000004150EA050220D054EA01021DD0C5F304
:1004A0000A570246C5F31303C1F31300C1F30A56FA
:1004B00040F4801543F48013A7EB0608101BD646C2
:1004C00008F2FD3873EB050002D308F1010801E0E2
:1004D00092185B41B8F1000F03DA00200146BDE835
:1004E000F08D00204FF48011064684460EE0171B65
:1004F00073EB050705D3121B63EB050306434CEAB8
:10050000010C49084FEA300092185B4150EA01079C
:10051000EDD152EA030012D082EA040083EA050119
:10052000084305D0101BAB4106D20122002306E090
:1005300000224FF0004302E06FF0010253101AEB6B
:1005400006004CEB085110EB0A0041EB0B01BDE833
:10055000F04D00F0EAB80EB5C10F80EAE070084433
:10056000CA07002140F233438DE80E000A460B46CD
:1005700000F0EAF803B000BD0EB540F2334102913D
:100580000021CDE900110A460B4600F0DDF803B06A
:1005900000BD70B5C1F30A5201F000450024C1F35B
:1005A000130140F2FF3341F480119A4201DA002036
:1005B00070BD40F233439A42A2F2334203DC52420E
:1005C00000F05AF800E090402C43F1D0404270BD5A
:1005D00000F0004230F000400AD0C10D01F560711A
:1005E000C0F3160042EA0151C208400711437047A8
:1005F00000200146704701F0004330B421F0004173
:1006000050EA010206D00A0DA2F56072C1F313018F
:10061000002A02DC30BC00207047440F44EAC104C9
:10062000C100E01830BC00EBC25000F047B830B554
:100630000B46014600202022012409E021FA02F5A0
:100640009D4205D303FA02F5491B04FA02F528443A
:10065000151EA2F10102F1DC30BD202A04DB203A94
:1006600000FA02F1002070479140C2F1200320FA05
:1006700003F3194390407047202A04DB203A21FA03
:1006800002F00021704721FA02F3D040C2F12002AB
:100690009140084319467047202A06DBCB17203AC1
:1006A00041FA02F043EAE07306E041FA02F3D04077
:1006B000C2F1200291400843194670470029A8BFA3
:1006C0007047401C490008BF20F00100704710B47B
:1006D000B0FA80FC00FA0CF050EA010404BF10BC30
:1006E000704749B1CCF1200421FA04F411FA0CF15D
:1006F00018BF012121430843A3EB0C01CB1D4FEA96
:1007000000614FEA102042BF002010BC704700EB90
:10071000C35010440029A4BF10BC7047401C4900BE
:1007200008BF20F0010010BC704710B5141E73F113
:10073000000408DA401C41F1000192185B411A43A1
:1007400001D120F0010010BD2DE9F04D92469B46ED
:1007500011B1B1FA81F202E0B0FA80F22032904693
:10076000FFF77BFF04460F4640EA0A0041EA0B010F
:1007700053465A46084313D0114653EA010019D094
:10078000C8F140025046FFF777FF05460E46504637
:1007900059464246FFF761FF084305D0012004E0B7
:1007A00020463946BDE8F08D0020054346EAE07654
:1007B0002C4337430A986305E40AA0EB08000022A3
:1007C000FD0A44EA47540A3002D500200146E9E711
:1007D000010510196941DDE9084500196941BDE8C5
:1007E000F04DA2E7C1F30A52C1F3130140F2FF3307
:1007F00041F480119A4202DA00200146704740F22B
:1008000033439A42A2F2334202DC5242FFF734BF32
:10081000FFF723BF30B5041E71F1000404DB4FF075
:100820000044404264EB0101141E73F1000405DB37
:100830001C464FF00043524263EB0403994208BF49
:10084000904230BD064C074D06E0E06840F00103E1
:1008500094E8070098471034AC42F6D3FFF798FCB1
:1008600034EF000854EF00080146806B036C026C03
:1008700013F0500F07D0D20648BF00F06CBA806B5F
:10088000C26C0846104742F40071016401688A682E
:1008900012F0405F01D1027E0AB100F04DBACA6A7F
:1008A00012F4700F02D08A685205F6D44A6822F01A
:1008B00020024A60016C21F480710164016CC9045A
:1008C000EBD4016C41F00101016400F035BA806B9A
:1008D00040210164416C41F00401416400F03BBAE5
:1008E000806B00F037BA000080B5044800F034FA9D
:1008F0000348BDE8804000F02FBA00BFF03400206C
:100900003835002001461B4801F085BB80B51948E9
:1009100001F091FB043818BF012080BD81B0012097
:100920008DF803009DF8030001281EBF012001B0CF
:100930007047104801B001F092BB00BF1CB51446CF
:100940000A4601460B480093234601F0D7FC0028D5
:1009500018BF01201CBD00BF1CB514460A46014645
:1009600004480093234601F0ACFD002818BF012085
:100970001CBD00BF54360020FEE7000080B50B48C8
:100980000B49012206F05EF850B1084808490122DF
:1009900006F058F8014607A0BDE8804007F0F4B81B
:1009A0000BA0BDE8804007F0EFB800BF7830002012
:1009B00029000020536443617264204D6F756E748A
:1009C000204572726F72203A2025640D0A000000E3
:1009D000534443617264206F6B210000014800F0B2
:1009E000FFBC00BF94350020014800F0F9BC00BFF7
:1009F000F435002010B501686FF00F0252FA81F251
:100A00001823B2FBF3F306A4E35C40F2FF34A143E6
:100A10005F2A88BF0431C0E91613084610BD00BF25
:100A20000006101600061016B0B504688068256828
:100A3000402825F4802508462560636008BF1046DD
:100A4000A06008BF0A46E260B0BD70477047002250
:100A5000AFF30080B0B50D4C0346607A08B10120B9
:100A6000B0BD657A00206055657A04EB85056B6042
:100A7000637A23441A72627A531C637242F63A73A1
:100A80003032C870A1F801300A70B0BDE4340020E3
:100A9000F0B5B3F5804F0FD150F82230094C234008
:100AA00091E8F0008969234343EA051343EA0623EA
:100AB00043EA0743194301E06FF0704140F8221008
:100AC0000020F0BD0000F0CF2DE9F043D1E900C9CE
:100AD00001F11008D1E902E598E8C001CC6950F8AD
:100AE0002C20154BBEF1080F02EA030242EA09026C
:100AF00042EA0E0242EA050242EA060242EA07021E
:100B000042EA080201F1200742EA0402F8CFC96B69
:100B100042EA030242EA040242EA050242EA06020B
:100B200041EA020141EA070108BF41F0400140F8F3
:100B30002C100020BDE8F0838000F0FFF0B500EB42
:100B40008200D0F804E00C4A91E8F81002EB07525A
:100B50000EF040473B4343EA041343EA0523896907
:100B600043EA06431A4311430CF1FE0241EA0261D3
:100B700041600020F0BD00BF0000F0FF2DE9F84FFC
:100B80000C46054630480A991E46018028462146F3
:100B9000904602F03FFDA6EB040BBBF1FF3F4FF088
:100BA000FF3AA8EB05024FF0FF39C8BF4FF0010A2A
:100BB000B2F1FF3FC8BF4FF00109BBF1000F48BFC2
:100BC000CBF1000B002A00D552424FEA4B015300F3
:100BD0005A451EDDA1EB02085842002700909742BB
:100BE00030DCA8B28B46A1B25646CA46914602F006
:100BF000F9F94A46D14608EB0B00B2465946B8F11E
:100C0000FF3F009BC4BF184434444D440137804625
:100C1000E5E7A3EB0B064942002700915F4511DC95
:100C2000A8B2A1B2984602F0DDF906EB08004346EF
:100C3000B6F1FF3F0099C4BF08444D445444013706
:100C40000646EBE7BDE8F88F2E0000207047000055
:100C5000F8B50022009290F83C20012A01D102212F
:100C600064E0012280F83C200A681FFA82FC4FEA07
:100C70004C0414FA82F50A2A04D304681E3D04F1D8
:100C80000C0602E0046804F1100607273368AF4041
:100C9000BB4333608B68AB4035682B4333604D6892
:100CA000062D05D805EB850304F134015D1F0BE02B
:100CB00005EB85060C2D87BF04F12C01A6F141053B
:100CC00004F13001A6F123051F230E68AB4026EA8C
:100CD00003030B600CFA05F30D682B430B60BA4954
:100CE000A1F541739C421ED1122A04D10A6842F434
:100CF00080020A6017E022F00103102B13D10B6869
:100D0000102A43F400030B600DD10949094A096810
:100D1000B1FBF2F101EB810149000091009911B1A1
:100D200000990139F9E7002180F83C100846F8BD28
:100D30002000002040420F000449884218BF70473D
:100D400002480349012200F0D1B900BFF03400206D
:100D50004000002070477047B0B504460068026844
:100D60004168920717D511F0200114D0216CC906F3
:100D700003D4216C41F400712164816811F0405F5B
:100D800002D1217E00296BD02046FFF7D5FF2068D5
:100D90006FF01201016002684168520714D511F02A
:100DA000800111D0216CC90603D4216C41F400519B
:100DB0002164816811F4401F25D02046FFF746FFCB
:100DC00020686FF00C01016002684168D20706D00C
:100DD00011F040011CBF01685FEAC17134D10268A3
:100DE000416892060ED511F080610BD0616C6FF0F6
:100DF000200541F00201616405602046FFF7ABFF6A
:100E000020680560B0BD816B11F4401F02D081687D
:100E10004905D2D441684905CFD4816811F0405FBB
:100E2000CBD1217E0029C8D1416821F080014160E9
:100E3000206C20F480502064206CC005BDD4206C50
:100E400040F001002064B8E7206C40F4803020645A
:100E5000204600F0C1F820686FF001010160BEE794
:100E6000C16A11F4700F03D0816849053FF58CAF5A
:100E7000416821F020014160206C20F480702064E2
:100E8000206CC0043FF580AF206C40F0010020646E
:100E90007AE70000002841D070B50446006C30B9F4
:100EA000204600F09BF8002084F83C006064206C31
:100EB000C00635D4206C41F2021188430230424909
:100EC0002064086820F44030086094E80D0025692B
:100ED0000E6832430A60416821F4807141604168C4
:100EE00041EA05214160416821F04071416041685B
:100EF000194341608168354B21F400618160E168EC
:100F0000826811438160816821F070618160A26A0A
:100F100081689A4206D121F040510CE001207047CF
:100F200001204CE011438160816821F040518160D3
:100F3000E16A826811438160816821F00201816069
:100F4000217E94F82020836843EA41018160416852
:100F50006AB141F40061416041681D4A21F4604179
:100F60004160616A02EB41314268114301E021F4C2
:100F700000614160C16A174B21F47001C162E269EE
:100F8000616903EB0252C36A1A43C262826822F4A7
:100F90000072826094F83020836843EA42228260C3
:100FA000826822F480628260826842EA81218160E4
:100FB00000206064216C012262F3010121640021A0
:100FC00084F83C1070BD00BF042301400100000FF5
:100FD00000E0FFFF0000F0FF70470000F0B587B0B1
:100FE000044602A81421FFF723F9206887498842A4
:100FF0002ED0844988426FD10026CC4801964169A1
:1010000041F480714161416901F48071019101995C
:101010000196016841F001010160006802A900F039
:101020000100019003200496039001200290019892
:101030002A4800F05FFB2C4D2A4BC5E908664FF4A7
:1010400000504FF400614FF48062C5E900362DE096
:101050000026B6480196416941F400714161416939
:1010600001F40071019101990196016841F00101BB
:101070000160006802A900F00100019003200496BD
:101080000390022002900198144800F033FB154FA2
:10109000134D4FF400504FF400614FF480624FF055
:1010A00000733037C5E90866C5E90073AE60EE60CD
:1010B0002A616961A8612846EE6100F049FA08B129
:1010C000FFF7C4FC122000210022AC63A56300F0EE
:1010D0004DFC122000F03CFC07B0F0BD00000240C7
:1010E000F435002010640240943500207CB504469D
:1010F0000020019094F83C00012804BF02207CBD30
:10110000012084F83C0013460A4621688868C0071D
:1011100010D18868374D40F001008860344800687D
:10112000B0FBF5F000EB40000190019810B1019880
:101130000138F9E78868C00758D0206C40F2017583
:10114000A84300F5807020644868400504D5206CF1
:10115000012565F30D302064206C0025C00444BFD8
:10116000656C25F0060565646FF022050D604D681D
:10117000002045F080654D6084F83C00A06B1E4D5A
:101180001F4EC5641D4DC0E90F658D6845F480751F
:101190008D604C3100F068FA1A492068D1F80423B8
:1011A000D2060AD0884221D1886810F0405F1DD154
:1011B000886840F08040886018E088420ED0124A6B
:1011C000904207D0114A904210D1D1F80413C906B9
:1011D0000CD103E0D1F80413C90607D4816811F0DB
:1011E000405F03D1816841F08041816000207CBD77
:1011F0002000002040420F00CF080008E10800084E
:10120000690800080020014000220140002101403F
:10121000B0B5044690F83C00012804BF0220B0BDE0
:1012200021680025886820F001008860012084F88A
:101230003C008868C0074FF0000011D1886820F496
:1012400080708860A06B00F073F821684A6822F013
:1012500080624A60216C41F20112914301312164A4
:1012600084F83C50B0BDB0B544790223012C17D0AE
:101270000371046840F6FE732568934025EA030372
:10128000D1E900512943914019432160C021914087
:101290002268002322EA01012160012143710171CA
:1012A0001846B0BD78B110B50446007920B90020C9
:1012B0006071204600F00AF8022020710020012110
:1012C0002061217110BD01207047000010B586B06B
:1012D000044601A81421FEF7ABFF216812488142A1
:1012E0001FD10021114A0091136900F5C63043F067
:1012F00000531361136903F000530093009B0091A6
:10130000136843F001031360126802F001020092B7
:1013100003910321029110210191009901A900F08C
:10132000E9F906B010BD00BF00740040303802403B
:1013300070B5866D044600F0A9FA054694F83500AC
:1013400002281ED12068216C026822F01602026079
:10135000426922F08002426109B9A16C19B10168A9
:1013600021F008010160016821F0010101600068BD
:10137000C0070DD000F08AFA401B052814D8206859
:10138000F5E7002084F8340080206065012070BDFE
:10139000E06D3F2101FA00F0B0600020012184F8E7
:1013A000340084F8351070BD20206065002084F87A
:1013B0003400032084F8350070BD90F83510022900
:1013C00009D1052180F835100068016821F001017C
:1013D00001600020704780214165012070470000B6
:1013E000F8B5044600200090D4E91660574A082159
:1013F00015683768814039420CD0226813685B0752
:1014000008D5136823F004031360B160616D41F0E7
:101410000101616501218140394208D02268526989
:10142000120604D5B160616D41F0020161650421CD
:101430008140394208D022681268920704D5B16011
:10144000616D41F00401616510218140394217D07E
:1014500020680268120713D5B16002680168520360
:1014600006D4C90506D4016821F00801016001E035
:10147000080301D4216C00E0A16C09B12046884723
:10148000E16D202000FA01F23A423BD02068036867
:10149000DB0637D5B26094F835300268052B19D1D8
:1014A00022F016020260426922F080024261226C40
:1014B0000AB9A26C1AB1026822F0080202603F2049
:1014C0008840B060002084F83400012084F83500A2
:1014D000216D37E0016852030CD4C9050ED40168B0
:1014E00021F010010160002084F83400012084F80C
:1014F000350003E0080301D4616C00E0E16B09B141
:1015000020468847606D00B3606DC00719D0052183
:1015100084F8351021684FF416500A68B5FBF0F0D6
:1015200022F001020A60009A01328242009202D83F
:101530000A68D207F7D1012084F83500002084F82A
:101540003400E16C09B120468847F8BD2000002036
:101550002DE9F041044600F099F9ACB105460220AE
:1015600084F83500002084F834002168086820F0F1
:10157000010008600868C00709D000F087F9401B27
:10158000052837D82168F5E70120BDE8F081086813
:10159000344A271DE8CF00EA020E43EA0E032B432C
:1015A000D4E9050C33433B43D4E90728184340EA08
:1015B0000C00636A104340EA0802042B1ED1D4E9F0
:1015C0000A53206B1A431043086051F8140F20F09F
:1015D000030040EA050040F00402B3B1BCF5005F2F
:1015E00024D0BCF1000F31D1022D32D0012D27D0F3
:1015F0007DB30AE003262027032012E00A6051F899
:10160000140F20F0070040EA030220460A60FFF7AB
:10161000F1F9E16D3F2202FA01F181600027012614
:101620000020676584F83560BDE8F081032DECD8B3
:10163000012640270120DFE805F0020C0203F0E755
:10164000A3F1C070B0FA80F0400904E0032D04D388
:10165000DBD1C3F300600028D7D00126402701204A
:10166000DFE700BF3F8010F0B0B5044690F83400CB
:1016700001282CD00120A56D84F8340094F83500A1
:10168000012821D1022084F8350000206065204621
:10169000FFF7CAF9E26D3F23206803FA02F2216CDA
:1016A000AA60026842F016020260426942F08002BB
:1016B000426119B1016841F008010160016841F01F
:1016C000010101600020B0BD002084F83400022038
:1016D000B0BD0000B0B5044600F0D8F805468D480E
:1016E000611C007818BF044400F0D0F8401BA042F1
:1016F000FAD3B0BD2DE9F84F5B4A4FF0080A90428B
:101700005A4A08BF4FF0070A02444FEAB223072B98
:1017100038BF4FEAB22A4FF0010B4FF00F094FF0DC
:1017200000084FF0000E0022102A08BFBDE8F88F15
:101730000F680BFA02F6374200F090804F6847F0CE
:101740001004122C12D16FF0030303EA5203034476
:101750000EF01C041F6A09FA04FC27EA0C0C0F693E
:1017600007FA04F444EA0C041C624F680324056879
:1017700007F0030304FA08F403FA08F3A5432B4324
:101780006FEA040C122F036013D80BFA07F313F05F
:10179000061F0ED08368CC6803EA0C0304FA08F431
:1017A00023438360C7F3001344689340B443234347
:1017B0004360C3688C6803EA0C0304FA08F423430B
:1017C000C360FB004AD5002300932B4B284F1C46D7
:1017D0001B6822F0030543F4804323602368BC4662
:1017E00003F4804300933D44009F244F0EF00C030C
:1017F00009FA03F4B946EF590AFA03F327EA040495
:10180000234345F80930DCF800304D6843EA06040C
:10181000EF0358BF23EA0604CCF80040DCF804309C
:10182000AF0343EA060458BF23EA0604CCF8044099
:10183000DCF80830EF0243EA060458BF23EA060446
:101840000C4BCCF808401F461B684FF00F0943EAC9
:101850000604AD0258BF23EA06043C6008F1020802
:101860000EF1040E01325FE7001C02400000FEBFD3
:10187000003C01400C3C01404438024008FCFFFFA2
:10188000002A08BF0904816170470000054800680C
:10189000704700BF1F48034900780A681044086079
:1018A000704700BF2838002080B50B48016841F41C
:1018B00000710160016841F480610160016841F4D8
:1018C00080710160032000F06DF8002000F006F840
:1018D00000F022F8002080BD003C024070B50D4EA3
:1018E000044630784FF47A71B1FBF0F0874909680B
:1018F000B1FBF0F000F00EFF01250F2C08D838B92D
:101900004FF0FF3021460022002500F02FF87460D0
:10191000284670BD0800002082B000200B490190CD
:101920004A6842F480424A604A6802F48042019266
:10193000019A0090086840F080500860086800F044
:1019400080500090009802B0704700BF40380240BD
:10195000002808D400F01F01012202FA01F1024A16
:10196000400942F82010704700E100E0B0B5134B89
:101970004FF0FF351B68C3F30223DC1E83F007031F
:1019800038BF0024042B28BF042305FA03F399432E
:1019900005FA04F3A1409A431143BDE8B04003F0B7
:1019A000D7BC00BF05494FF6FF030A681A4060F331
:1019B0000A22034810430860704700BF0CED00E0A6
:1019C0000000FA052DE9F041002800F08380434B28
:1019D0000446D3F80004884600F00F00884207D27E
:1019E00083F80084D3F8000400F00F00404571D163
:1019F0002068810711D5410703D5996841F4E0516A
:101A00009960010703D5996841F460419960A16824
:101A10009A6822F0F00211439960C0072AD06068EA
:101A2000811E022903D21968890109D452E00128D4
:101A300003D11968890303D44CE01968890749D593
:101A400099681D4621F0030108439860FFF71EFFC7
:101A5000064641F288376068A9682B4601F00C0100
:101A6000B1EB800F06D0FFF711FF801BB842F2D90F
:101A7000032430E0D3F8000400F00F00404507D9FC
:101A800083F80084D3F8000400F00F00404521D112
:101A90002068410705D5E1689A6822F4E0521143B5
:101AA0009960000706D52069996821F4604141EAF0
:101AB000C00098601C4600F02FF8A168084AC1F3E6
:101AC0000311515C0024C840104908600020FFF752
:101AD00005FF00E001242046BDE8F0810038024007
:101AE000F084000809480A4900680968094AC1F3F6
:101AF0008221515CC8407047044805490068096864
:101B0000044AC1F34231515CC840704720000020B4
:101B1000083802400085000810B5134C606800F0DA
:101B20000C00082804D0042814BF1048104810BD29
:101B30002268206802F03F0240020D485CBF42F27A
:101B40000040C0F2F40021680023C1F38811A0FB1B
:101B50000101FEF735FB21680222C1F3014102EBCE
:101B60004101B0FBF1F010BD043802400024F40044
:101B700040787D012DE9FC41002800F09580044665
:101B80000078B14EC0072ED0B06800F00C000428D9
:101B900023D0B06800F00C00082802D17068400221
:101BA0001BD46768B7F5803F07D03068B7F5A02F22
:101BB00040F00E8140F480203060306840F4803086
:101BC0003060FFF763FE0546306880030BD4FFF7F3
:101BD0005DFE401B6428F7D9A9E03068800302D578
:101BE0006068002860D0207880072CD5B06810F09D
:101BF0000C0F07D0B06800F00C00082809D17068FD
:101C0000400206D43068800716D5E068012813D05A
:101C10004AE0E1688D48002900F0A98001210160B7
:101C2000FFF734FE05463068800705D4FFF72EFE27
:101C3000401B0228F7D97AE02069316821F0F801C9
:101C400041EAC00030602078000721D5606978B192
:101C50007E480121C0F8801EFFF718FE0546706F10
:101C6000800715D4FFF712FE401B0228F7D95EE06B
:101C700076480021C0F8801EFFF708FE0546706F09
:101C8000800705D5FFF702FE401B0228F7D94EE07A
:101C9000207840070BD4A769002F00F0D180B068EE
:101CA00000F00C00082845D10120BDE8FC81306C13
:101CB0004FF00008C0000CD4CDF80480306C4FF019
:101CC000010840F080503064306C00F0805001908A
:101CD00001985F4F3868C0050FD4386840F48070B1
:101CE0003860FFF7D3FD05463868C00505D4FFF717
:101CF000CDFD401B0228F7D919E0A768012F05D0B8
:101D0000306F052F43D140F004003067306F40F052
:101D100001003067FFF7BAFD054641F28837306FA2
:101D200080074CD4FFF7B2FD401BB842F7D903201F
:101D3000BDE8FC814549002088460866FFF7A6FDFE
:101D40000546022F09D13068800159D5FFF79EFD65
:101D5000411B03200229F6D970E0306880016FD55D
:101D6000FFF794FD411B03200329F6D366E0002111
:101D70000160FFF78BFD0546306880077FF563AF94
:101D8000FFF784FD411B03200229F5D956E020F01E
:101D900001003067306F20F004003067FFF776FDF8
:101DA0000546002FB9D141F28837306F800706D53C
:101DB000FFF76CFD411B0320B942F6D93EE0B8F1B4
:101DC000000F3FF468AF306C20F08050306462E761
:101DD00020F480303060306820F480203060FFF7DD
:101DE00055FD0546002F7FF4EFAE05E0FFF74EFDF1
:101DF000411B0320642921D830688003F6D4F2E621
:101E00001C341FCC084340EA8210D9034FF6FF72FE
:101E1000914340EA0460A1F58031084370600120DD
:101E2000C8F86000FFF732FD04463068800107D42F
:101E3000FFF72CFD011B03200229F6D9BDE8FC8128
:101E40000020BDE8FC8100BF00380240000047428E
:101E500000700040B0B5D0E91942436CA50F0D7079
:101E6000C4F383654D70C4F301658D70250CCD708E
:101E7000250A0D714C716FF00F0404EA1254CC80E6
:101E8000C2F30354CD88012B44EA0504CC80C2F38D
:101E900003440C72C2F3C0344C72C2F380348C72AF
:101EA000C2F34034CC72C2F300340C734FF0000420
:101EB0004C7339D0002B40F0A1804FF4406303EA0B
:101EC00082020A6190F868200B69042543EA8202C5
:101ED0000A61C26E0B6943EA92730B61C2F3C2637B
:101EE0000B75C2F302624A75C26EC2F342538B7520
:101EF000C2F38243CB75062303EAD2330B76C2F3D7
:101F0000C0330C7E23430B760B690C7E013305FA3C
:101F100004F4634343650C7A012505FA04F48465EF
:101F2000640A6343C3651AE04FF47C1303EA024278
:101F30000A6190F86F200B694FF4806443EA022233
:101F40000A6190F86E200B691A430A614FF400721F
:101F50008265C26E0B6904EB8323C3654365C2F3DC
:101F600080334B767E2303EAD2138B76C2F3C01301
:101F70008C7E02F07F0223438B76CA76036FDA0FE2
:101F80000A77C3F341724A77C3F382628A770C22DD
:101F900002EA9352CA77C3F38152CC7F2243CA77B5
:101FA000C3F3405281F82020002281F82120C3F39E
:101FB000004481F82240C3F3C03481F82340C3F3C6
:101FC000803481F82440C3F3403481F82540C3F3C2
:101FD000003481F82640C3F3812481F82740C3F3FD
:101FE0000124DBB25B0881F8284081F829304FF4E6
:101FF00000730366012081F82A000AE0016840F2BC
:10200000FF528A63816B012241F08051816380F825
:1020100034201046B0BDB0B500F144053CCD81E898
:102020003C00426D0A61826D4A61C26D8A61006E38
:10203000C8610020B0BD10B50446216D00680904D8
:1020400002F010F920B1A16B0843A063002010BD7D
:102050002068002101F0A5FFC0F3432010BDB0B1FE
:1020600010B5044690F8340020B9002020772046AF
:1020700000F0F2F8032084F83400204600F00AF85B
:1020800000200121A063206384F8341010BD0120DA
:1020900070470000F0B58FB0044600687621002636
:1020A000CDE90066029100210022002301F083FFA8
:1020B000674F3E60206801F08FFF012502203D60E0
:1020C000FFF708FB0496206801F0F2FF38B184F8AE
:1020D0003450A16B0843A06328460FB0F0BD2068C0
:1020E00002F00EF8D0B100204FF6FF76A064002871
:1020F00040D10498411CB042049133D020680021A3
:1021000001F086FF58BB2068002101F09BFF30BB27
:102110002068002101F045FFC00FE8E70120A0641E
:1021200000214FF6FF760020F8B90498411CB04218
:10213000049117D02068002101F06AFF0028C6D161
:1021400020684FF0804101F07DFF0028BFD120685A
:10215000002101F026FF00F08041C00FE4E74FF0BE
:102160008050B4E74FF08070B1E7B1F1804F01D1FA
:10217000012000E0002001256064ADF80E502068C9
:1021800001F00BFFF8B1606C03281FD12068042117
:1021900001F007FF000DE06404A92046FFF75AFE96
:1021A000216D20680A04002302F014F800287FF44F
:1021B0008EAF94E86F00A469CDE90056029401F057
:1021C000FAFE002588E74FF0806080E7206802F083
:1021D0001BF800287FF47BAF20681E4E0021B0471B
:1021E000606720680421B047A06720680821B047D5
:1021F000E06720680C21B047C4F88000606C0328B9
:10220000C4D020680DF10E0102F046F800287FF4DA
:102210005EAF606C0328B9D0BDF80E102165206850
:10222000090402F008F800287FF451AF206800216B
:10223000B047606620680421B047A0662068082186
:10224000B047E06620680C21B04720679EE700BFDA
:10225000A0802542A33F00082DE9F04387B0044643
:1022600002A81421FDF7E4FF2068224DA8423DD1C9
:1022700000262148019641694FF00C0841F40061A5
:10228000416141694FF0030901F400610191019935
:1022900001960168022741F004010160016802AC67
:1022A00001F00401019101990196016841F00801D2
:1022B00001600068214600F00800019001984FF489
:1022C0008850CDF81880CDE904690397029005F590
:1022D0005C40FFF70FFA0420CDE90598CDE90376BD
:1022E000029005F560402146FFF704FA07B0BDE80B
:1022F000F08300BF002C0140303802402DE9F04748
:1023000086B01F4616460D460446FFF7BFFA75B164
:10231000804694F8340001280DD10021A163E26DBC
:10232000B81990420FD9A06B40F0007006E0A06B86
:1023300040F0006002E0A06B40F00050A06301207C
:1023400006B0BDE8F087032084F834002068626C92
:10235000C1624FF40071012A18BF760201F08EFEAF
:1023600020BB4FF001090020CDF8149004904FF0ED
:10237000020A9020CDF80CA002904FF0FF300090A0
:10238000780201902068694601F0F5FD022F06D31E
:10239000C4F830A02068314601F0E8FE05E0C4F83A
:1023A00030902068314601F0FBFE50B1216840F2C8
:1023B000FF528A63A16B0843A063012084F83400B4
:1023C000BEE7DDF8389040F22A3A2068426B416B54
:1023D00012EA0A0F22D108040AD50026082E06D0D8
:1023E000206801F0FDFD45F826000136F6E72035AE
:1023F000B9F1000F05D0FFF749FAA0EB08004845F6
:10240000E3D3206840F2FF518163A06B40F00040AD
:10241000A063012084F83400032091E7022F10D339
:1024200011F480710DD0616C03290AD001F08AFF8C
:102430000146206829B140F2FF528263A06B084335
:10244000BAE7416B090717D4416B89071BD4416B6D
:1024500089061FD4416B89022BD501F0C1FDB9F16A
:10246000000F28601DD0FFF711FAA0EB08004845C7
:1024700017D220680435EDE740F2FF518163A06B6D
:1024800040F0080098E740F2FF518163A06B40F0F4
:10249000020091E740F2FF518163A06B40F0200001
:1024A0008AE7206840F2FF518163A06B40F0004052
:1024B00082E740F2FF518163012084F8340000205C
:1024C0003EE72DE9F04786B01D4617460E46044606
:1024D000FFF7DCF976B1804694F8340001280DD17D
:1024E0000021A163E26DE81990420FD9A06B40F082
:1024F000007006E0A06B40F0006002E0A06B40F0CE
:102500000050A063012006B0BDE8F087032084F8E6
:1025100034002068626CC1624FF40071012A18BF58
:102520007F0201F0ABFD78B9022D06D32020206395
:102530002068394601F022FF05E010202063206862
:10254000394601F035FF50B1216840F2FF528A63ED
:10255000A16B0843A063012084F83400D3E7012075
:1025600005900020CDE90300902002904FF0FF304D
:102570000090680201902068DDF838A0694601F0FB
:10258000FAFC40F21A392068426B416B12EA090FDB
:102590001FD1480409D50027202F05D02068F11944
:1025A00001F031FD0437F7E72036BAF1000F05D00E
:1025B000FFF76CF9A0EB08005045E4D3206840F227
:1025C000FF518163A06BA063012084F834000320D5
:1025D00099E7022D10D311F480710DD0616C03299D
:1025E0000AD001F0AFFE0146206829B140F2FF5247
:1025F0008263A06B0843ADE7416B09070DD4416BC3
:10260000890711D4416B40F2FF528263C80612D48D
:10261000012084F83400002075E740F2FF51816307
:10262000A06B40F0080095E740F2FF518163A06B7A
:1026300040F002008EE7A06B40F010008AE730B354
:1026400070B5044690F8490015460E4628B900209A
:1026500084F84800204600F01DF8206804F10801C5
:10266000FEF732FA2068A2683146FEF767FAD4E92D
:102670000102236B2946FEF70BFA2068A16850F887
:10268000212042F0010240F82120002070BD0120ED
:10269000704700002DE9F04387B002A81421FDF730
:1026A000C7FD1948017861BB012101700026174858
:1026B000019601684FF00C0841F0010101600068CB
:1026C0004FF0030900F00100019002274FF68070DF
:1026D000CDF81880CDE90469039702900C4C01985D
:1026E00002AD04F580602946FFF704F84EF2B3709E
:1026F000CDE90598CDE90376029020462946FEF7FC
:10270000F9FF07B0BDE8F0835030002038380240B0
:10271000000C0240411E0020B0EB116F1CBF0120D5
:102720007047044AF023516003490B700721906001
:102730001160704710E000E023ED00E010B590F864
:102740003C300222012B14D080F83D200368D1E9EF
:1027500000215C6824F0700422439C685A6024F0D5
:102760008002114399600022012180F83C2080F80A
:102770003D10104610BDB0B110B5044690F83D00B4
:1027800028B9002084F83C00204600F00FF8022011
:1027900084F83D002068211D02F068FA012084F8C9
:1027A0003D00002010BD01207047000083B000688C
:1027B0007B49884212D0174988421CD0B0F1804F23
:1027C00025D1002002901448016841F00101016008
:1027D000006800F001000290029818E000200090CC
:1027E0000D48016841F004010160006800F0040038
:1027F000009000980BE0002001900748016841F02C
:1028000002010160006800F002000190019803B02D
:10281000704700BF0004004040380240022180F8A9
:102820003D1001688A6802F00702062A03D00A6890
:1028300042F001020A60012180F83D10002070473B
:102840000068C16841F00101C160816801F00701C1
:10285000062903D0016841F00101016000207047A2
:10286000B0B590F83C2004460220012A21D084F81B
:102870003D00012084F83C0020684FF67775024641
:1028800052F8083FAB4313600B682BB1102B03D0F9
:10289000202B18BF302B0DD1106820F0700018438A
:1028A00040F0070010600020012184F83C0084F80B
:1028B0003D10B0BD402B17D0502B22D0602B2DD017
:1028C000B3F5005F37D0702BEDD1D1E90103C968B2
:1028D000184340EA0120116821F47F410843106049
:1028E000106840F07700DDE74B68CA68194602F0CF
:1028F000E5FA226852F8080F40F0470020F0300057
:10290000D0E74B68CA68194602F0D8FA226852F834
:10291000080F40F0570020F02000C3E74B68CA685A
:10292000194602F0DCFA226852F8080F40F06700FE
:1029300020F01000B6E7D1E90103C968184340EA66
:102940000120116821F47F4108431060106840F4B1
:102950008040A7E710B586B0044601A81421FDF712
:1029600067FC21680E48814218D10021E84A009195
:10297000136800F5013043F008031360126802F099
:10298000080200920222CDE90412CDE902214FF49F
:1029900080510191009901A9FEF7ACFE06B010BD6F
:1029A0000008004070B50D4690F83C100446022027
:1029B000012944D084F83D004FEAB20001260328E3
:1029C00084F83C6036D8DFE800F0020A1222206862
:1029D000294602F0C3F9206850F8181F0EE020685D
:1029E000294602F0E5F9206850F8181F16E0206823
:1029F000294602F00DFA206850F81C1F41F008012A
:102A00000160016821F00401016029690FE020687C
:102A1000294602F02FFA206850F81C1F41F400618B
:102A20000160016821F4806101602969090202687E
:102A300011430160002084F83C0084F83D6070BDC3
:102A4000B0B110B5044690F83D0028B9002084F8D4
:102A50003C00204600F00EF8022084F83D0020687B
:102A6000211D02F003F9012084F83D00002010BD73
:102A7000012070477047000010B50446006801222D
:102A800002F05CF920680A4A40F48061914203D167
:102A9000416C41F400414164816801F0070106295D
:102AA00003D0016841F001010160002010BD00BFAA
:102AB000000401407047000070B5044600680168DA
:102AC000C268456901F02F03202B07D112F02003C3
:102AD00004D02046BDE8704002F025BA0B071EBFA7
:102AE00002F4907605F0010516EB050624D111409D
:102AF0000A060DD449066ED5C16821F04001C160B7
:102B0000202084F839002046BDE8704000F08EB9DE
:102B100094F8391021295ED1A268216AB2F5805F4C
:102B200050D10A886FF35F2242602269002A14BFE5
:102B300001310231216249E0CE0718BF12F48076DC
:102B400003D0E66B46F00106E6634E0704D51DB1DF
:102B5000E66B46F00206E6638E0704D51DB1E66B10
:102B600046F00406E663002B04D51DB1E36B43F089
:102B70000803E363E36B73B31140890603D5204672
:102B800002F0D1F920684069E16B00F0400001F0EB
:102B9000080140182ED0204602F0B8F9206841699B
:102BA000490619D5416921F040014161606B98B136
:102BB00013490165FEF701FC68B1606B016DBDE86A
:102BC000704008474A1C226209784160E18C013953
:102BD000E184090405D070BD2046BDE87040FFF7D0
:102BE00069BFC16821F08001C160C16841F0400146
:102BF000C16070BD2046FFF75DFF0020E06370BD3F
:102C0000014F000850B310B5044690F8390028B9B8
:102C1000002084F83800204600F022F8242084F8B0
:102C200039002068C16821F40051C160204602F0DB
:102C3000B5F92068016921F490410161416921F0F1
:102C40002A014161C16841F40051C1600020202186
:102C5000E06384F8391084F83A1010BD0120704701
:102C60002DE9F04387B0044602A81421FDF7E0FAED
:102C70002068414DA84247D1002125480191426971
:102C80004FF0070842F01002426142694FF0030919
:102C900002F010020192019A01910268012642F0AD
:102CA000010202600268022702F001020192019A09
:102CB0000191016802AC41F0020101600068214607
:102CC00000F00200019001984FF48060CDF8188068
:102CD000CDF8149004960397029005F57040FEF726
:102CE00009FD4020CDE90598CDE90376029005F570
:102CF00074402146FEF7FEFC252001210022FEF74C
:102D000035FE2520FEF724FE07B0BDE8F08300BFA6
:102D100030380240B0B5034690F83A00202806D17A
:102D20000120E9B1E2B193F83800012801D1022075
:102D3000B0BD00202224DA85D86383F83A401C68AD
:102D4000E56845F48075E560656945F001056561F4
:102D50009A85996283F83800E16841F02001E160CA
:102D6000B0BD000000680449884218BF704703489E
:102D70003E490122FFF7CEBF00100140E837002096
:102D80002DE9F041044690F8390020280AD10E467A
:102D90000120002948D01746002A45D094F8380071
:102DA000012802D10220BDE8F0810020E06301206B
:102DB00084F8380021201D4684F83900FEF766FDAE
:102DC0008046E784A784E08CF0B1E08C8021013854
:102DD000E084A768204642462B4602F093F9B7F5F7
:102DE000805F0BD1B8B93288206821696FF35F2208
:102DF0004260002914BF01360236E4E758B916F8DC
:102E0000010B21684860DEE72046402142462B4600
:102E100002F078F910B10320BDE8F08100202021F4
:102E200084F8380084F83910BDE8F0817047FEE777
:102E3000E0B50E48007832280DD0312814D100F0CA
:102E4000AFFF00F0C1F94FF47A70FEF743FCBDE824
:102E50008C4000F039B906A00090002000214FF40A
:102E6000A072F02301F0FAFB8CBD00BFE13400201A
:102E70002F6D7973637265656E370000F8B58F4FFB
:102E80000446F888BD887E8846F6040188420FD142
:102E9000387A01280CD10D480021F86000203872E2
:102EA000002000F0B7FB0A48F8600120387203E008
:102EB0000020002100F0AEFB79898148018005FBEC
:102EC00006F111B144800139FBE7F8BD2A002B005F
:102ED0002B002A00B0B5F8B17848384945F21035D2
:102EE000C0F8021001210172C1882B222A232C2450
:102EF000A94242D045F21055A94233D049F241359A
:102F0000A9423AD046F60402914233D12A21C18126
:102F10002D49C0F80A103BE068482D4945F21032AF
:102F2000C0F8021000210172C18891420BD045F215
:102F30001052914234D049F24132914203D046F6C8
:102F40000402914234D12B22C281234AC0F80A20C4
:102F500046F60402914203D045F2103291421AD152
:102F60001E4916E04FF42C51C1811549C0F80A10D2
:102F700014490EE0202221232224C28146F60402B5
:102F800091428381448103D045F21032914202D1B3
:102F90000E49C0F802100020BDE8B04000F044BA6D
:102FA0004FF42C51C1810649C0F80A100949F0E7D5
:102FB0002121C1810A49C0F80A10ECE74001F00064
:102FC000002C002A2003E0012C002B00E00140012E
:102FD000F0004001E00120032C002A004001E00144
:102FE0002200200080B500F015FB3448344A4189A6
:102FF00011800088508080BD2DE9FC472F4F064688
:10300000F8880D462E4C49F24131924688420BD049
:1030100045F2105188420DD046F60401884222D074
:1030200045F21031884237D1B88900F04DFC300AA2
:10303000A04624E0B889DFF89486C047DFF8909670
:10304000300AC847B889013080B2C047F0B2C847DB
:10305000F889C047280AC847F889013080B2C047BC
:10306000E8B2C84724E0387AA046012802D179881E
:10307000F0430E18B88900F027FCB0B2000A114CDA
:10308000A047F0B2A047F88900F01EFC280AA0472C
:10309000E8B2A04744460BE0B889ADF80400BDF89B
:1030A0000400F889ADF80600BDF8060065802080B0
:1030B000A4F802A078892080BDE8FC872E000020BB
:1030C000FEFF0760A93800082DE9F0472DED087BC9
:1030D000274C204602F0CCF8264E9FED279A9FED14
:1030E00027AA043401254FF000084FF0140AB6EE69
:1030F000008A4FF0C809B5F5806F34D0A808FE28C3
:1031000024D8A8072CD194ED000AB18820EE080A33
:103110003088CDF80080BDEEC00A10EE103A0AEB00
:103120009507C3F1C803BAB29BB2FDF727FD94ED32
:10313000000A376080EE090A0A2030EE0A0ABDEE66
:10314000C00A86ED010AFEF7C5FA09E04FF47A706D
:10315000FEF7C0FA4FF6FF70C6E900A900F0C4FB05
:1031600004340135C7E7BDEC087BBDE8F08700BF3C
:10317000501000201000002000000CC20000484346
:10318000F0B593B0064610EE100A14460D46FDF752
:103190001FFA03AF41EC100B08A1384622468DED13
:1031A000000B04F001FD1020CDE900073046294650
:1031B0006422F02300F04DFB13B0F0BD25733A25D7
:1031C0002E336600000000002DE9F04F89B0524810
:1031D0004FF4006102F038F89FED470B4F4C51EC73
:1031E000100B9FED470BCDE9031051EC100B9FED39
:1031F000460BCDE9011051EC100B9FED450BDDF8AE
:103200001080DDE9027A4FF00C09CDE9071051EC8E
:10321000100B78264FF0000BCDE90510BBF5006FC1
:1032200065D04FEADB00FE2852D81FFA8BF5B5FBBC
:10323000F9F000EB4000A5EB8000002854D1364E99
:1032400036F81B00FDF798F942465346FDF7A2F801
:10325000019E3A463346FDF70FF9DDE90732FDF7E7
:1032600099F8DDE90532FCF7EEFFFDF792F92C4CF9
:103270004FF478432949009306232288B5FBF3F9DC
:10328000098883B210464A46FDF778FC2248C4F804
:10329000009030F81B004FF00C09FDF76DF9424625
:1032A0005346FDF777F83A4633467826FDF7E4F8BB
:1032B000089A079B194CFDF76DF8DDE90532FCF71C
:1032C000C2FFFDF766F920600A20FEF703FA0BE063
:1032D0004FF47A70FEF7FEF91149002008604FF6AE
:1032E000FF70266000F000FB0BF1010B96E709B0C0
:1032F000BDE8F08F00BF00BF6666666666660A407E
:103300000000000000FEAF4000000000000054403C
:1033100000000000008051405000002018000020F4
:1033200074300020024601200B0608BF704750434E
:103330000139F9E7B0B5E44C0022638883425CD9D7
:10334000A3888B4259D900F065F9E18845F2103520
:103350002E20A9420ED049F2413291420AD046F6BF
:103360000402914206D045F21050814214BF22203F
:103370004FF4385000F0A8FA2A49E0880A88A84299
:1033800007D049F24131884203D045F210518842BA
:1033900005D14FF4FC6101EAC201D30A01E000212A
:1033A000002344F23154A04227D044F23554A042C5
:1033B00023D045F21034A04213D045F21054A0425D
:1033C0000FD049F22534A04217D04CF20554A04248
:1033D00013D04BF20554A0420FD049F24134A04221
:1033E00005D102F47840084440EA030205E002F403
:1033F000FC6040EAC22040EAD22290B2B0BD00BFD9
:10340000E0B5ADF80400BDF8040000F05DFA052059
:10341000FEF760F903480088ADF80600BDF8060025
:103420008CBD00BF000008607CB5E24C217AE588C5
:1034300001291AD146F604018D4216D0072814D866
:10344000DFE800F00406080A0C0E101206200CE05B
:1034500007200AE0042008E0052006E0012004E03F
:10346000002002E0032000E002209A4945F21032D9
:1034700095420BD045F21052954207D049F24132A5
:10348000954203D046F6040295420AD10138062837
:1034900015D8DFE800F00416181A1C1E2000802042
:1034A0001AE04FF48052072800F2AC80DFE800F009
:1034B00004999CAA9FA2A5A841F23002A2E0002094
:1034C0000AE0402008E0C02006E0202004E0602060
:1034D00002E0A02000E0E02045F2105336229D4299
:1034E00045F2103608BF4FF45852B54203D09D4202
:1034F00018BF40F00800ADF8042046F604029542DB
:1035000008BF40F00200BDF8042048800A80800611
:10351000A088618843D4227A012A40D0814201D90F
:10352000A1806080A08900F0CFF9002000F0BCF9F4
:1035300045F21050854235D1A089644D013080B2EA
:10354000A847634E0020B047A089023080B2A84748
:1035500060880138C0F30F20B047A089033080B2E3
:10356000A84760880138C0B2B047E089A84700206A
:10357000B047E089013080B2A8470020B047E08919
:10358000023080B2A847A0880138C0F30F20B047AE
:10359000E089033080B2A847A08831461CE0814210
:1035A000BED3BFE74A4D0020A84760880138C0F36A
:1035B0000F20A84760880138C0B2A847E08900F012
:1035C00083F90020A8470020A847A0880138C0F34D
:1035D0000F20A847A08829460138C0B2BDE87C402A
:1035E000084741F210020DE04FF481520AE041F227
:1035F000380207E041F2280204E041F2180201E03B
:1036000041F208020320ADF80600BDF806004A802A
:1036100008807CBD2DE9FC41664E0546F0880C46CD
:1036200049F2413188420BD045F2105188420CD00A
:1036300046F6040188421ED045F21031884233D14B
:10364000B08900F041F9280A20E0B089DFF87C80D9
:10365000C0471F4F280AB847B089013080B2C04721
:10366000E8B2B847F089C047200AB847F08901306E
:1036700080B2C04713E0307A012802D17188E84354
:103680000D18B08900F020F9A8B2000A104FB84711
:10369000E8B2B847F08900F017F9200AB847E0B25D
:1036A0003946BDE8FC410847B0898E49ADF80400B1
:1036B000BDF80400F089ADF80600BDF806004C80A6
:1036C0000880BDE8FC8100BF2E000020C93800083A
:1036D000A9380008FEFF07602DE9F04F85B08A4643
:1036E000590706464FF001004FEAD30118BF00EB1F
:1036F000D301580848431C46C3B2A2F12000C2B20D
:10370000294902EBC20001EB800001902748DFF855
:10371000A4B0002700EB02105546029200900393DC
:103720009F4204973CD2182C0CD0102C0DD00C2C9E
:1037300036D102981E4900EB400001EB800004994D
:10374000084405E00498019901E0049800990844B0
:1037500090F800804FF00009B9F1070F1CD84FFA1C
:1037600088F0B0F1FF3F03DCB0B2A9B2FFF73AFC3A
:10377000BBF80200B1B2814212D20135A9B2A1EB6D
:103780000A0109F101094FEA4808A142E4D10136D2
:10379000B1B28142554603D2049F039B0137BFE774
:1037A00005B0BDE8F08F00BF209F000830990008E9
:1037B000BC9400082E0000202DE9FE4F07460C980F
:1037C0001C460E464508581E4FF000084FF0000BEF
:1037D0004FF0000A4FF00009029201905C4508BFCB
:1037E000BDE8FE8F6FEA0A002044C1B20A20FFF74D
:1037F00099FD0299B9F1000FB1FBF0F04FF00A0109
:10380000B0FBF1F101EB8101A0EB410105D1019881
:10381000584502DD99B14FF001090020009008EBF6
:10382000070041F0300180B2CAB231460C9BFFF76D
:1038300053FFA8440AF1010A0BF1010BCEE74FF048
:10384000000908EB0700CDF8009080B23146202235
:10385000ECE72DE9F84F8346DDF828900C46581820
:1038600002EB0B010B9F4FEA59081FFA81FA86B24F
:103870005D463A78A2F12000C0B25E2811D8A8B205
:10388000504524BF5FFA8BF54C44A1B2B14208D237
:1038900000200090A8B24B46FFF71EFF45440137B9
:1038A000E7E7BDE8F88F000081B0ADF80200BDF891
:1038B0000200ADF802000348BDF80210018001B01B
:1038C000704700BF0000086081B0ADF80200BDF88D
:1038D0000200ADF802000348BDF80210018001B0FB
:1038E000704700BFFEFF076070B50446002000214E
:1038F0000025FFF78FFEF02D08BF70BD0026B6F53E
:10390000A07F06D0B0B2A9B22246FFF775FB013600
:10391000F5E70135EFE70000BFB516484FF08051DD
:10392000154AC162002401254FF480314FF0C06375
:1039300080F820400576836280F83050C561C0E988
:103940000021C0E90244C0E90445CDE90244CDE9C3
:103950000044FDF79FFA08B1FDF778F8054869467D
:103960000295CDE90045FDF773F908B1FDF76EF852
:10397000BFBD00BFF034002000200140BFB5164895
:103980004FF08051154AC16200244FF480314FF04E
:103990000063012580F820400476836280F830407F
:1039A000C561C0E90021C0E90244C0E90445CDE990
:1039B0000244CDE90044FDF76DFA08B1FDF746F881
:1039C000054869460294CDE90055FDF741F908B173
:1039D000FDF73CF8BFBD00BF383500200021014095
:1039E0001CB50B480B4900240160CDE90044FDF7EC
:1039F00059FC08B1FDF72AF8054869460022CDE9CF
:103A00000044FDF730FC08B1FDF720F81CBD00BFF5
:103A10008035002000740040E0B5002001906A4825
:103A20000022016841F4800101600068002100F477
:103A30008000019001983820FDF798FF3820FDF7AD
:103A400087FF3A2000210022FDF790FF3A20BDE8D1
:103A50008C40FDF77DBF00BF10B5034C0348611CCF
:103A6000FCF7F5FF207010BD2800002098850008A5
:103A700010B58EB01A481B4B4FF020440021102285
:103A8000C0E900434FF48054C0E90211C0E90412B8
:103A9000C0E9061141644FF48043C0E90811C0E950
:103AA0000A410AACC0E90C310D9111230EC418244F
:103AB00009940F240DF10C0C81630894CDE90614D0
:103AC000ACE80E000221CDE901410321009107A9D4
:103AD0006A46FEF7B4FD08B1FCF7B8FF0EB010BDA2
:103AE000D8360020040100A02DE9F04786B0002759
:103AF0003548059700970168002241F010010160E8
:103B00000168142601F010010091009900970168E6
:103B100041F080010160016801F08001009100998D
:103B20000097016841F004010160016801F004019F
:103B3000009100990097016841F00101016001685E
:103B400001F00101009100990097016841F008011E
:103B50000160016801F00801009100990097016877
:103B600041F0020101600068142100F002000090A1
:103B70000098164800F5006582462846FDF780FE4D
:103B800050460F2100224FF00F08FDF779FE012467
:103B9000CDE90377CDE9016401AEDFF83490284622
:103BA0003146C84750463146CDE90377CDE9018417
:103BB000C847F020CDE90274019050463146C8470D
:103BC00006B0BDE8F08700BF303802400008024070
:103BD000F51600080648074B00214FF48062C0E943
:103BE0000031C0E90221C0E904118161704700BFC2
:103BF00054360020002C014010B586B01648002134
:103C0000C82253234FF080448161C0E90043C0E9DA
:103C100002120161CDE90411CDE90211CDE90011D3
:103C2000FEF7A9FD08B1FCF711FF4FF48050029098
:103C3000094802A9FEF714FE08B1FCF707FF0020AF
:103C400001902020009004486946FEF777FD08B1F6
:103C5000FCF7FCFE06B010BD2837002010B586B07A
:103C60001648174C002101224FF4A0438161C0E99E
:103C70000043C0E902120161CDE90411CDE902114E
:103C8000CDE90011FEF777FD08B1FCF7DFFE4FF438
:103C900080500290094802A9FEF7E2FD08B1FCF746
:103CA000D5FE002001902020009004486946FEF7D0
:103CB00045FD08B1FCF7CAFE06B010BD683700200C
:103CC0000004004010B58EB0002401A81C21CDE9ED
:103CD0000C44CDE90A44CDE90844FCF7A9FA1E4892
:103CE0001E4B41F2883153228461C0E90032C0E9A1
:103CF00002410461FEF73FFD08B1FCF7A7FE4FF457
:103D000080500A9014480AA9FEF7AAFD08B1FCF7F2
:103D10009DFE1148FEF794FE08B1FCF797FE0E4891
:103D2000002408A9CDE90844FEF708FD08B1FCF716
:103D30008DFE0120059403940290602001900648B6
:103D400001A90022FEF72EFE08B1FCF77FFE024813
:103D5000FEF700FE0EB010BDA8370020000800409E
:103D600010B50A480A4B0B4C00210C22C0E9004355
:103D7000C0E90211C0E90412C0E90611FEF742FFD2
:103D800018B1BDE81040FCF761BE10BDE837002057
:103D90000018150000100140FEE770470000000009
:103DA0002DE9F04FADF5005D83B003AC204601F086
:103DB0005FFA271D002001213A460024B1F5806FEB
:103DC00014D092ED000A01EE100AB8EEC11AB4EE5A
:103DD000C10A0432F1EE10FAA8BF0C46BDEEC00ACB
:103DE00010EE103AA8BF18460131E7E704F10A0BBC
:103DF000A4F10A0C0025012639464FF0000AB6F559
:103E0000806F20D091ED000A01EE105AB8EEC11A71
:103E1000B4EEC10AF1EE10FA12DBB3454FF0000226
:103E2000C8BF0122B4454FF00003B8BF01231A40B8
:103E300008BFB246BDEEC00A10EE102A08BF1546F4
:103E400004310136DBE70AF10A01AAF10A0E4FF04C
:103E5000000801264FF00009B6F5806F24D097EDD9
:103E6000000A01EE108AB8EEC11AB4EEC10AF1EEF2
:103E700010FA16DBB44501DAB34512DCB1424FF05B
:103E80000002C8BF0122B6454FF00003B8BF0123AE
:103E90001A4008BFB146BDEEC00A10EE102A08BF96
:103EA000904604370136D7E7FCF755FB9FED260B0C
:103EB00053EC102BFCF76EFA02908B46FCF79BFB41
:103EC000234A244E00EE100A00200021B047224F62
:103ED00000EE104AB8EEC00A8C2000213A46B047E6
:103EE00068001B4D00EE100AB8EEC00A0020142135
:103EF0002A46B04700EE10AAB8EEC00A8C20142162
:103F00003A46B0474FEA480000EE100AB8EEC00A41
:103F1000002028212A46B04700EE109AB8EEC00AC9
:103F20008C2028213A46B047029A0CA05B4603F049
:103F30002BFE0DA0214603F027FE0DF5005D03B01A
:103F4000BDE8F08F00BF00BF9A99999999990140F7
:103F500081AC0008813100087CAC0008414D503A2A
:103F6000252E33660D0A00004652453A25640D0A97
:103F7000000000007047B0B591E83C0042628362E7
:103F80000A6945EA040349691A431143C26A22F0E7
:103F9000F7021143C1620020B0BD006800F00300C9
:103FA000704781B0084400221430009200900098BD
:103FB000006801B07047B0B51143049A194311432A
:103FC000059A44681143069A47F6FF65AC431143CE
:103FD000214341600020B0BD0321016000207047F3
:103FE000D0F88000704770B591E83C0023438260B0
:103FF000C268096940F6FF762B43B2431943114367
:10400000C160002070BD0968C0F8801000207047B2
:1040100010B586B004464FF48060059000200490EF
:10402000402003903720CDE9011001A92046FFF779
:10403000DAFF2046372141F2883206B0BDE8104051
:1040400000F0D0B910B586B004464FF480600590FA
:104050000020049040200390292002900648084345
:10406000019001A92046FFF7BEFF204606B0BDE83B
:10407000104000F06BBA00BF0000108010B586B091
:1040800004464FF480600590002004904020039087
:104090001020CDE9011001A92046FFF7A4FF20461A
:1040A000102141F2883206B0BDE8104000F09AB904
:1040B00010B586B004460020CDE90300CDE901002B
:1040C0004FF48060059001A92046FFF78CFF9C48C3
:1040D0004FF4FA510068B0FBF1F041F288314843E7
:1040E000C043013007D2616B0906FAD540F2FF5098
:1040F000A063002001E04FF0004006B010BD00BFFB
:1041000010B586B004464FF48060059000200490FE
:1041100040200390082002904FF4D570019001A92F
:104120002046FFF760FFF5484FF4FA510068B0FBF6
:10413000F1F041F288314843C04301300DD2616B48
:1041400011F0450FF9D0606B400709D4606B400651
:1041500044BF4020A063002005E04FF0004002E093
:104160004020A063042006B010BD00BF10B586B08B
:1041700004464FF480600590002004904020039096
:104180001220CDE9011001A92046FFF72CFF20469F
:10419000122141F2883206B0BDE8104000F022B989
:1041A00010B586B004464FF480600590002004905E
:1041B000402003901120CDE9011001A92046FFF70E
:1041C00012FF2046112141F2883206B0BDE81040AE
:1041D00000F008B910B586B004464FF48060059031
:1041E00000200490402003900720CDE9012001A980
:1041F0002046FFF7F8FE2046072141F2883206B03C
:10420000BDE8104000F0EEB810B586B004464FF49B
:10421000806005900020C021049003910221CDE927
:10422000010101A92046FFF7DEFE204606B0BDE8E9
:10423000104000F067B910B586B004464FF48060B6
:10424000059000200490C02003900920CDE90110C2
:1042500001A92046FFF7C7FE204606B0BDE8104082
:1042600000F050B910B586B004464FF48060059058
:1042700000200490402003900D20CDE9011001A9F9
:104280002046FFF7B0FE20460D2141F2883206B0ED
:10429000BDE8104000F0A6B8B0B586B005464FF4B2
:1042A00080600C460490002040210390029103217D
:1042B000CDE9000169462846FFF795FEB2484FF464
:1042C000FA510068B0FBF1F041F288314843C04335
:1042D000013023D2696B11F0450FF9D0686B4007AC
:1042E0001FD4686BC0071ED12869C0B203281ED135
:1042F00040F2FF50A8630020059005F114000590DE
:104300000598006810F4604F13D0410415D40004E0
:104310004FF4805058BF4FF4803006E04FF000401B
:1043200003E0042000E00120A86306B0B0BD012036
:10433000FBE7000C20800020F7E74FF40050F4E783
:104340002000002010B586B004464FF48060059030
:1043500000204021049003910C21CDE9010101A925
:104360002046FFF740FE044A20460C2106B0BDE877
:10437000104000F037B800BF00E1F50510B586B079
:1043800004464FF480600590002004904020039084
:104390001920CDE9011001A92046FFF724FE20468F
:1043A000192141F2883206B0BDE8104000F01AB879
:1043B00010B586B004464FF480600590002004904C
:1043C000402003901820CDE9011001A92046FFF7F5
:1043D0000AFE2046182141F2883206B0BDE810409E
:1043E000AFF3008018B5034667484FF4FA540068ED
:1043F000B0FBF4F050430130013873D05A6B12F027
:10440000450FF9D0586B40076FD4586BC0076ED179
:104410001869C0B288421CBF012018BD40F2FF508D
:104420009863002003F11401009000910099344A30
:104430000968114255D000295CD4480044BF40208F
:1044400018BD880044BF802018BDC80044BF4FF489
:10445000807018BD080144BF4FF4007018BD4801BA
:1044600044BF4FF4806018BDC80144BF4FF40060E2
:1044700018BD080244BF4FF4805018BD480244BF25
:104480004FF4005018BD880244BF4FF4804018BD5F
:10449000C80244BF4FF4004018BD480344BF4FF466
:1044A000003018BD880344BF4FF4802018BDC803F6
:1044B00044BF4FF4002018BD080444BF4FF48010DF
:1044C00018BD480444BF4FF4001018BD880444BF11
:1044D0004FF4800018BD08074FF4000058BF4FF498
:1044E000803018BD4FF0004018BD042000E00120CE
:1044F000986318BD4FF0007018BD00BF2000002069
:1045000008E0FFFD20494FF4FA520968B1FBF2F1CF
:1045100041F288325143C94301310ED2426B12F04D
:10452000450FF9D0416B49070AD4416BC90709D13E
:1045300040F2FF518163002106E04FF0004103E0AB
:10454000042100E001218163084670470E494FF4C1
:10455000FA520968B1FBF2F141F288325143C94382
:1045600001310CD2426B12F0450FF9D0416B04229D
:1045700011F0040108BF40F2FF52826301E04FF0E6
:1045800000410846704700BF2000002010B51F4CB6
:1045900001202070FCF7BAF918B9207800F0FE006D
:1045A0002070207810BD00BF10B5184C012020707D
:1045B000FCF7B4F910B9FFF7E9FF2070207810BDBF
:1045C00010B588B0084611490978C9070BD10328EE
:1045D0000BD81446DFE800F018020B116846FCF710
:1045E00091F906980EE003200EE004200CE06846E6
:1045F000FCF788F90798208005E06846FCF782F907
:104600000798400A2060002008B010BD1C00002060
:1046100080B5084611461A464FF0FF33FCF78EF975
:1046200008B1012080BDFCF771F90028FBD1002002
:1046300080BDFFF7ABBF80B5084611461A464FF064
:10464000FF33FCF789F908B1012080BDFCF75EF962
:104650000028FBD1002080BD704700002DE9F04FFD
:104660009DB001900DF13E000E46063030211C46F3
:104670001546FBF7DDFD18208DF85A0001208DF856
:10468000580028208DF84C0036208DF8480044F65C
:104690004250ADF83E000020210AADF856008DF8DA
:1046A0005510290A8DF85440ADF852008DF851107C
:1046B00005F0030905EB45014944614336310A0E13
:1046C0008DF850508DF840108DF843200A0C02945C
:1046D0008DF84220090A0DF11D04269A8DF841102B
:1046E00005905EA1204603F05FFA5F4F21463846F1
:1046F000062202F0CFF9DFF874A18AF800003846EC
:1047000002F08EF938462146022202F0C3F9082849
:104710008AF8000000F09080002840F08F80524C12
:1047200006AF0DF13E01204636223B4602F021FB4A
:10473000DFF83CB100218AF800000496CDF8009023
:104740000298814200F080800198B9F1000F01EBDE
:10475000000803913CD04FF000094D452DD009EBE6
:10476000060080B21FFA88F1FEF7E4FDF82101EAA5
:1047700010218DF83D10FC2101EAD001C0008DF818
:104780003C108DF83B0020460DF13B0101223B46D9
:10479000D8478AF8000020460FA901223B46D84797
:1047A0008AF8000020460DF13D0101223B46D84722
:1047B0008AF8000009F10109CFE7DDF800902046F2
:1047C00005A94A463B4602F0D4FA8AF800002FE0D9
:1047D0000026B5422CD004981FFA88F1304480B2EC
:1047E000FEF7A8FDF82101EA10218DF83D10FC210B
:1047F00001EAD001C0008DF83C108DF83B00204646
:104800000DF13B0101223B46D8478AF800002046C3
:104810000FA901223B46D8478AF8000020460DF137
:104820003D0101223B46D8478AF800000136D0E717
:104830000399049E013183E708200CE010A003F0E7
:10484000A3F94FF0FF3006E00AA003F09DF90648F7
:1048500002F0E6F800201DB0BDE8F08F303A257375
:104860002E626D7000000000B0320020E0340020A5
:10487000736D000853415645204F4B210000000046
:1048800053415645204641494C000000FDF702B80F
:10489000B0B592B000241F48CDE90A44CDE90844E0
:1048A00001940168022541F080510160006800F028
:1048B00080500190019818480194016841F48041AA
:1048C0000160006800F48040019001980720119079
:1048D0004FF4A87010950F9019200E904FF480009F
:1048E000CDE90C504FF4A02007900120069006A8B7
:1048F000FDF740F94FF4805005904FF4A05004901C
:104900000F20CDE90254019001A80521FDF75AF8C6
:1049100012B0B0BD403802400070004010B50E48E3
:104920000F4CD0F8801041F47001C0F880100B4992
:104930000A6842F001020A6000228A600B68234084
:104940000B60084B4B600B6823F480230B60CA603C
:104950004FF00061016010BD08ED00E0003802403A
:10496000FFFFF6FE10300024FEB5B94C00252046AE
:10497000042100220195FCF783FFB64EC820B04702
:104980002046042101220127FCF77AFF3220B0479C
:10499000ADF80A50BDF80A00AF4C278024F8020C8D
:1049A0003220B0470020FEF72BFDAC4DFF28E880F9
:1049B00006D34FF6FF71884202D0B0F5134F7CD179
:1049C000D320FEF781FF2088ADF80A00BDF80A1059
:1049D000ADF80A00BDF80A10ADF80A00BDF80A10DB
:1049E000ADF80A00BDF80A0040EA0120E88080B274
:1049F00049F24131884260D0BF20FEF765FF208830
:104A0000ADF80A00BDF80A10ADF80A00BDF80A10AA
:104A1000ADF80A00BDF80A10ADF80A00BDF80A109A
:104A2000ADF80A00BDF80A0040EA0120E88080B233
:104A300046F60401884240D0D420FEF745FF208886
:104A4000ADF80A00BDF80A10ADF80A00BDF80A106A
:104A5000ADF80A00BDF80A10ADF80A00BDF80A006A
:104A600040EA0120E88080B245F21031884224D02B
:104A70007B4E4FF45A40B0472088ADF80A00BDF88D
:104A80000A00E8804FF45B40B0472088ADF80A0088
:104A9000BDF80A000002E8804FF45C40B04720886F
:104AA000ADF80A00E888BDF80A10084381B2B1F5F4
:104AB000004F08BF45F21050E880694CCF20A04756
:104AC000684D0020A847019801300190C120A847F7
:104AD0003020A847ED20A0476420A8470320A8471E
:104AE0001220A8478120A847E820A0478520A84792
:104AF0001020A8477A20A847CB20A0473920A847F4
:104B00002C20A8470020A8473420A8470220A84707
:104B1000F720A0472020A847EA20A0470020A84768
:104B20000020A847C020A0471B20A847C120A047BD
:104B300001200126A847C520A0473020A8473020E3
:104B4000A847C720A047B720A8473620A04748203D
:104B5000A8473A20A0475520A847B120A0470020E9
:104B6000A8471A20A847B620A0470A20A847A22095
:104B7000A847F220A0470020A8472620A0470120F0
:104B8000A847E020A0470F20A8472A20A8472820B0
:104B9000A8470820A8470E20A8470820A847542067
:104BA000A847A920A8474320A8470A20A8470F20C4
:104BB000A8470020A8470020A8470020A8470020B9
:104BC000A847E120A0470020A8471520A8471720A4
:104BD000A8470720A8471120A8470620A8472B2050
:104BE000A8475620A8473C20A8470520A8471020E2
:104BF000A8470F20A8473F20A8473F20A8470F20DD
:104C0000A8472B20A0470020A8470020A847012044
:104C1000A8473F20A8472A20A0470020A8470020F7
:104C2000A8470020A847EF20A8471120A0477820D8
:104C3000FCF750FD2920A0470120FEF74BF90A4858
:104C400006604FF6FF70BDE8FE40FEF717B900BFE3
:104C500000100240D5160008000008602E00002059
:104C6000C9380008A938000884824042B0B50268FB
:104C7000B0F1804F0ED0274B98420BD0264B984274
:104C800008D0264B984205D08B4B984202D0244B3B
:104C9000984203D14B6822F070021A43B0F1804F62
:104CA00020D01C4B98421DD01B4B98421AD01B4B56
:104CB000984217D01B4B984214D01B4B984211D0EE
:104CC0001A4B98420ED0164B98420BD07A4B984212
:104CD00008D0174B984205D0164B984202D0164B7D
:104CE000984203D1CB6822F440721A434D690B6895
:104CF0008C6822F080022A430260C46283626E4B99
:104D000040F480629A4204BF096901630121416154
:104D1000B0BD00BF0004004000080040000C00408F
:104D20000000014000180040001C0040002000402E
:104D300000400140004801400044014010B501F02E
:104D40001F010123046A8B4024EA0303036202FA71
:104D500001F1026A1143016210BD0000F0B5026A60
:104D6000554E22F0010202620B688A68046A24F040
:104D7000020422434468856925F073052B4340F4FF
:104D80008065B54205D1CF6822F00C0227F00407F8
:104D90003A43B54205D1D1E9055624F440742C4379
:104DA000344344608361496841630262F0BD00BFDF
:104DB000F0B5026A404E22F0100202620B688A6867
:104DC000046A24F0200444EA02124468856925F448
:104DD000E64545EA032C40F48065B54207D1CF682B
:104DE0006FF0400303EA071322F0C0021A43B542F2
:104DF00007D1D1E9053524F4406444EA830343EA4A
:104E000085044460C0F818C0496881630262F0BD3F
:104E1000F0B5026A284E22F4807202620B688A683A
:104E2000046A24F4007444EA02224468C56925F047
:104E3000730545EA030C40F48065B54208D1CF689C
:104E400040F2FF433F0227EA030322F440621A4381
:104E5000B54207D1D1E9053524F4405444EA03139F
:104E600043EA05144460C0F81CC04968C16302628B
:104E7000F0BD00BF70B5026A0F4E22F4805202628C
:104E80000C688A68036A23F4005343EA02324368D9
:104E9000C56925F4E64545EA042440F48065B54239
:104EA00004D14D6923F4804343EA85134360C46110
:104EB00049680164026270BD0004014010B5036AD4
:104EC000046A24F001040462846924F0F00444EAD2
:104ED0000212826123F00A021143016210BD036ACB
:104EE00023F010030362836923F4704343EA023220
:104EF000036A826123F0A00242EA01110162704755
:104F0000806B0021C185C184FDF7D4BD0168CA68EA
:104F100022F49072CA604A6922F001024A6120219B
:104F200080F83A10704790F83A10222923D181680E
:104F3000B1F5805F08D102680369816A526883B164
:104F4000D2B221F8012B10E0016802694968002AF9
:104F5000826A02F10103836218BF01F07F011170C0
:104F600004E06FF35F2221F8022B8162C18D0139C9
:104F7000C185090400D070470168CA6822F0200288
:104F8000CA60CA6822F48072CA604A6922F00102CB
:104F90004A61202180F83A10FDF7E4BE2DE9F8437C
:104FA0000446006804F108030ECB0569194325F493
:104FB00040552A430261C268636949F20C6519438E
:104FC000E369AA4319431143C1604169A26921F40D
:104FD000407111434161484940F48060B3F5004F8E
:104FE00003D1884205D1454E04E088423BD1434E6F
:104FF0003AE0434EB047D4F804808146B047616838
:10500000192778434900B0FBF1F5B0476168784350
:105010004900B0FBF1F06421B0FBF1F0322200FB5B
:1050200011504FEA480302EBC000B0FBF1F04FF41F
:10503000F87202EA400009FB07F2B2FBF3F2B2FB9E
:10504000F1F100EB0118B047616878434900B0FB0B
:10505000F1F5B047616878434900B0FBF1F00722F1
:10506000291A032336E0264EB047D4F8048081463F
:10507000B0476168192778438900B0FBF1F5B04764
:10508000616878438900B0FBF1F06421B0FBF1F076
:10509000322200FB11504FEA880302EB001009FB9B
:1050A00007F2B2FBF3F2B0FBF1F0B2FBF1F100F06A
:1050B000F00000EB0118B047616878438900B0FB4D
:1050C000F1F5B047616878438900B0FBF1F00F2239
:1050D000291A04236425B0FBF5F606FB15000844E5
:1050E00098403230B0FBF5F02168104040EA0800EB
:1050F0008860BDE8F88300BF00140140F91A000879
:10510000E51A00082DE9F0411D4690460F46044679
:105110005E1C206801683940B9421CD0002EF8D0CE
:1051200035B1FCF7B3FBA0EB0800A842F1D9206829
:10513000C16821F4D071C160416921F00101416170
:105140002020002184F8390084F8381084F83A00CF
:105150000320BDE8F0810020BDE8F0812948FDF77B
:10516000ABBC00BFFEE7000082B0FFF7FDFB344898
:10517000FBF790FE234824490122FDF7CBFD234C89
:105180002046FDF75DFC204600210025FDF774FC5C
:105190001F48FDF755FB00F03FF84FF6FF70FEF794
:1051A000A3FBFBF7EBFB1B4C0C260020002101228C
:1051B00001230096A0474FF49A7000210222012398
:1051C0000096A0470020E621032201230096A04775
:1051D0004FF49A70E621042201230096A04740F282
:1051E0004114A5420AD00026F12E05D0A8B2B1B2D2
:1051F000FDF7F8FE0136F7E70135F2E7FDF718FE97
:105200000025EEE7E8370020E1340020A837002031
:1052100028370020B937000810B51448FBF73AFECC
:10522000064C2046FDF7A7FA2046FDF7F7FA04489A
:1052300004490122BDE81040FBF758BF6837002041
:10524000F03400204000002080B50A46014607489F
:10525000FBF74CFF40F2ED30FCF73CFABDE8804034
:10526000AFF300800148FBF7D3BF00BF3835002003
:105270002DE9F04FADF5A04D87B0804607A800F5A9
:10528000804909F1020040F6FE71FAF7D1FF0120D2
:105290000DF58041888307A800F50056301D41F6C2
:1052A000FC71FAF7C5FF4FF07E540DF50050C46154
:1052B00007A8043041F6FC71FAF7BAFF01A8079479
:1052C00000F03EFF48464FF40061FFF7BDFF9FED41
:1052D0001C0B00275BEC10AB9FED1B0B55EC104B30
:1052E000B7F5006F16D039F8170000EE100AB8EEC7
:1052F000400A10EE100AFBF76BF952465B46FBF7CB
:1053000049F822462B46FBF7B7F8FBF774F901C6BC
:105310000137E5E707A907AC01A801F500512246CE
:10532000002300F02BFF204641464FF4806200F03E
:1053300093FB0DF5A04D07B0BDE8F08F00BF00BF97
:105340006666666666660A400000000000FEAF40C2
:1053500010B5074C00F00F032344044AB0F1FF3F9F
:10536000C8BF83180801187010BD00BF00E400E03A
:1053700014ED00E0B0B5E1B14FF0000C02EB4C04CD
:1053800032F81C300CF1020C64888C4523F00303C6
:1053900024F0030450F803E00559C55040F804E038
:1053A00003440444D3F804E065685D60C4F804E095
:1053B000E4D3B0BD2DE9F0410588984616460C4669
:1053C0000746012A0CD1E5B3201D294690ED000ABD
:1053D0000139B1EE400A80ED000A00F10800F5D174
:1053E000FF2D0CDDB5F5806F10DBB5F5805F22D0A9
:1053F000B5F5006F11D0B5F5806F17D021E03F2DC6
:1054000010DC102D12D0202D07D01AE0B5F5807FCA
:1054100003D0B5F5007F0ED013E03846214600F0EA
:1054200007F90EE0402D06D0802D0AD138462146DE
:1054300000F030F805E07A6820462946012300F0A4
:10544000ABFBB8F1000F04D0BA68B9892046FFF76A
:1054500091FF012E1CD100EE105A002DB8EE400A2B
:1054600008BFBDE8F081B7EE001A81EE000A00BF68
:1054700094ED001A94ED012A013D20EE011A20EE70
:10548000422A84ED001A84ED012A04F10804EFD1C8
:10549000BDE8F0812DE9F0472DED088B80460088AE
:1054A0000023D8F8042001EB800A4FEA5009B3EB3F
:1054B000D00F00F0AD80C70801EB890C0AEB890E14
:1054C0007C420027C8190AEB07060CEB07030EEB1A
:1054D0000705013496ED000A90ED004A96ED011A99
:1054E00090ED015A96ED022A90ED026A96ED033A8C
:1054F00090ED037AD5ED000AD5ED011AD5ED022A1B
:10550000D5ED033AD3ED004AD3ED015AD3ED026A4B
:10551000D3ED037A34EE00BA37EE038A36EE029A00
:1055200035EE01AA34EE400A35EE411A36EE422A33
:1055300037EE433A33EEE76A32EEE67A80ED00BAB0
:1055400080ED01AA80ED029A80ED038A34EEA0BAC4
:1055500035EEA1AA37EEA38A36EEA29A02EB070037
:1055600071EEE51A70EEE40A07F1100783ED00BA58
:1055700083ED01AA83ED029A83ED038A90ED008A00
:1055800090ED019A20EE094A21EE085A21EE091AFF
:1055900020EE080A35EE444A30EE010A21EE891A5F
:1055A00020EE885A61EE881A60EE890A86ED014A7B
:1055B00086ED000A35EE010A30EEE11A85ED010AAA
:1055C00085ED001A90ED020A90ED031A22EE014AD1
:1055D00023EE005A23EE013A22EE002A35EE444A29
:1055E00032EE032A26EE013A27EE005A26EE000A92
:1055F00027EE011A86ED034A86ED022A35EE032ACC
:1056000031EE400A85ED032A85ED020A7FF45AAF98
:1056100008464946022300F0BFFAD8F80420504655
:1056200049460223BDEC088BBDE8F04700F0B4BA50
:105630002DE9F04F81B02DED088B92B0B0F800C08D
:105640000590406891ED000A91ED011A4FF00009B4
:105650004FF0000B4FEA5C0206906FF001000F91D3
:1056600001EB820300EB9C0703EB8205A9EB5700DB
:105670006FF0030793ED004A93ED015A95ED002A70
:1056800095ED013A05EB8204119007EB820007EBE0
:10569000C20E6FF0070794ED007AD4ED010A07EB14
:1056A0000216109031EE036A70EE021A31EE431AC0
:1056B00030EE420A0E9602EB420676EE052A71EEB5
:1056C000843A31EE442A30EE053A31EE041A30EED7
:1056D000450A36EE456A71EEC41A07EB86004FEABA
:1056E0009C074FEA860A73EE873A72EEA02A32EEE2
:1056F000072A33EE603A31EE471A30EE200A0D9059
:1057000001970293049597000394C1ED003AC1ED0F
:10571000012A83ED003A83ED012A31EEC73A36EED5
:10572000602AD10085ED003A85ED012A84ED000A5A
:1057300084ED011A0024E0E00F98089407920B9181
:105740005A46CB46109900EB0E0400EB01090D9967
:105750000A97CDF830E0CDF824A0D4ED002A14ED5E
:10576000015ADDF838A0D9ED001A59ED017A471831
:105770000839D7ED010A00EB0A0ED7ED006A079849
:10578000AAF1080ADEED014A9EED004A71EEA03A48
:1057900037EEA69A73EEA25A75EEA45AC9ED005AD6
:1057A00054ED015A9EED008A79EE255A75EE885A1D
:1057B00049ED015AD9469346D3ED035A93ED028A37
:1057C00009F1080902F1180B26EE25AA27EE08BAFE
:1057D00027EE257A26EE086A3BEE0AAA36EE476ADD
:1057E00032EEE47A85ED02AA85ED036A31EEE06AD5
:1057F00077EEE60A76EE451A70EE876A71EE841A45
:1058000066EE887A21EEA5AA66EEA55A61EE881AA0
:105810007AEE677A71EEA51AC4ED007A44ED011AAA
:10582000089CD6ED051AD6ED045A103462EE216AB2
:1058300063EE257A23EE213A22EE252A77EEA66A38
:1058400032EE432A33EEE23ACCED026A8CED032AC3
:1058500039EE452A33EE643A32EE442A63EE653A75
:1058600023EE213A62EE212A22EE252A73EEE22A65
:1058700033EE422AC7ED012A87ED002A0A9F90EDF8
:10588000072A90ED063A1098083760EE021A61EE8A
:10589000032A21EE021A20EE030A083872EEA11A3A
:1058A00030EE410A37EE601AC8ED021A88ED030A9D
:1058B00034EE450A21EE034A21EE021A30EE460A82
:1058C00020EE025A20EE030A35EE444A30EE010A79
:1058D0008EED014A8EED000ADDF830E0109011984F
:1058E000AEF1080E013011900D910B99CDF838A052
:1058F000DDF824A008310AF1080A0F9B119803EB88
:10590000090203EB010CDD1903EB0A08069B0028D2
:105910009CED020A92ED022A95ED024A98ED026A88
:105920009CED031A92ED033A95ED035A98ED037A34
:1059300003EB040672EE000A73EE013A33EE411AED
:1059400032EE400A70EE841A31EE042A70EEC40A78
:1059500030EE453A31EE444A71EE861A33EE071ABC
:1059600030EEC63AC2ED021AD5ED031AD8ED032A7D
:1059700073EEA11A71EEA21AC2ED031A73EEC51AE4
:1059800030EE055A32EE460A03EB0B024B4434EE7E
:10599000066A31EEC72A35EE477A7FF4CDAE93ED35
:1059A000024A93ED035A0F98042367EE050A66EE48
:1059B000041A26EE055A27EE044A34EE054A31EE63
:1059C000E06A85ED024A85ED036A019D96ED044A81
:1059D00096ED055A294623EE056A22EE047A23EE57
:1059E000043A22EE052A33EE022A37EE464A8CEDBF
:1059F000022A8CED034A92ED062A92ED073A069AA6
:105A000021EE034A20EE025A21EE021A20EE030A8A
:105A100031EE000A35EE442A88ED020A88ED032AA9
:105A200000F0BAF8059C029829460423626800F049
:105A3000B3F8626804982946042300F0ADF8626860
:105A400003982946042312B0BDEC088B01B0BDE8D1
:105A5000F04F00F0A1B800002DE9F0412DED028BD0
:105A60000446002090460D46B0EB920F6DD04FEAF1
:105A70009800474294ED000A94ED011A21EE011AB4
:105A800020EE000A30EE018AB0EE480A02F0A0F8DB
:105A9000B4EEC00AF1EE10FA03D7B0EE480A02F0F5
:105AA00097F885ED000A94ED020A94ED031A21EEB1
:105AB000011A20EE000A30EE018AB0EE480A02F028
:105AC00087F8B4EEC00AF1EE10FA03D7B0EE480A38
:105AD00002F07EF885ED010A94ED040A94ED051AB2
