:020000040800F2
:10000000D01600209D01000809490008C9370008E2
:1000100005490008C9090008655A000800000000E9
:1000200000000000000000000000000081490008FE
:100030008D0B0008000000007D490008D949000828
:10004000B7010008B7010008B7010008B7010008B0
:10005000B7010008B7010008B7010008B7010008A0
:10006000B7010008B7010008B7010008B701000890
:10007000B7010008B7010008B7010008B701000880
:10008000B7010008B701000821080008B7010008FF
:10009000B7010008B7010008B7010008B701000860
:1000A000B7010008B7010008B7010008B701000850
:1000B000B7010008B7010008B7010008B701000840
:1000C000B7010008B7010008B7010008B701000830
:1000D000B7010008B7010008B7010008B701000820
:1000E000B7010008B7010008B7010008B701000810
:1000F000B7010008B7010008B7010008B701000800
:10010000B7010008B7010008B7010008B7010008EF
:10011000B7010008B7010008B7010008B7010008DF
:10012000CD090008B7010008DD090008B701000883
:10013000B7010008B7010008B7010008B7010008BF
:10014000B7010008B7010008B7010008B7010008AF
:10015000B7010008B7010008B7010008B70100089F
:10016000B7010008B7010008B7010008B70100088F
:10017000B7010008B7010008B7010008000000003F
:10018000B7010008B7010008DFF80CD000F0B8FA9A
:1001900000480047895C0008D016002006488047C8
:1001A00006480047FEE7FEE7FEE7FEE7FEE7FEE75C
:1001B000FEE7FEE7FEE7FEE7A54A00088901000822
:1001C0002DE9F05F0546002092469B46884606468C
:1001D000814640241BE0284641464746224600F01F
:1001E000DFF953465A46C01A914110D311461846BA
:1001F000224600F0C6F92D1A67EB01084F46224649
:100200000120002100F0BDF917EB00094E41201E2E
:10021000A4F10104DFDC484631462A464346BDE8E6
:10022000F09FD2B201E000F8012B491EFBD27047CB
:100230000022F6E710B513460A4604461946FFF7B2
:10024000F0FF204610BD2DE9FE4F804681EA0300F5
:10025000C00F0C46009021F0004123F00045B8EBA0
:100260000200A94105D24046214690461C460B4655
:10027000024623F00040104347D0270DC7F30A0081
:10028000C3F30A510290401A019040286BDAC3F37D
:10029000130040F4801B0098924620B10023D2EB5B
:1002A000030A63EB0B0B01985946C0F1400250461C
:1002B00000F067F906460D4650465946019A00F08F
:1002C0007FF910EB08006141002487EA115284EAAB
:1002D000E7731A4340D0009A62B3019A012A4FEAA9
:1002E000075215DC001B61EB02014FF0004202EAED
:1002F0000752CDE90042001C41F5801132462B46E1
:1003000000F07FF903B0BDE8F08F40462146F9E7E1
:10031000001B61EB0201001C41F5801300185B41DA
:100320002018A2F5001747EB030140EAD570B61973
:100330006D4111E06D084FEA360645EAC0754FEA97
:100340000752001B61EB0201001C41F580114908B6
:100350004FEA30000019514132462B4603B0BDE848
:10036000F04F00F03FB90098012240000023D0EB8D
:10037000020263EBE073009821464FEAE074B8EBA9
:10038000000061EB0401E9E783F000435BE781F0E3
:10039000004158E72DE9FE4F81EA030404F00044D0
:1003A00021F0004100944FF0000B23F0004350EA8D
:1003B00001045ED052EA03045BD0C3F30A54C1F3D4
:1003C0000A552C44A4F2F3340194A0FB0254C1F367
:1003D000130141F48011C3F3130343F4801301FBB1
:1003E000024400FB034E840A970A44EA815447EA18
:1003F0008357A4FB076802958D0A05FB07854FEA22
:10040000932C04FB0C542705029D4FEA065847EA3B
:100410001637B5EB08056EEB070C870E920E47EA10
:10042000811742EA8312A7FB0201B6EB0B0164EBD2
:1004300000042B0D43EA0C335E1844EB1C50DA46E3
:100440005146E7FB0201C5F313044FEA0B3343EABD
:1004500014534FEA0432019C43EA0603A4F10C044E
:100460000294009CCDE900B400F0CBF803B0BDE8E5
:10047000F08F00200146F9E72DE9F04D81EA0304F1
:1004800004F0004B21F0004514464FF0000A23F021
:10049000004150EA050220D054EA01021DD0C5F304
:1004A0000A570246C5F31303C1F31300C1F30A56FA
:1004B00040F4801543F48013A7EB0608101BD646C2
:1004C00008F2FD3873EB050002D308F1010801E0E2
:1004D00092185B41B8F1000F03DA00200146BDE835
:1004E000F08D00204FF48011064684460EE0171B65
:1004F00073EB050705D3121B63EB050306434CEAB8
:10050000010C49084FEA300092185B4150EA01079C
:10051000EDD152EA030012D082EA040083EA050119
:10052000084305D0101BAB4106D20122002306E090
:1005300000224FF0004302E06FF0010253101AEB6B
:1005400006004CEB085110EB0A0041EB0B01BDE833
:10055000F04D00F047B830B50B4601460020202290
:10056000012409E021FA02F59D4205D303FA02F5C0
:10057000491B04FA02F52844151EA2F10102F1DC20
:1005800030BD202A04DB203A00FA02F10020704737
:100590009140C2F1200320FA03F3194390407047C1
:1005A000202A04DB203A21FA02F00021704721FAC8
:1005B00002F3D040C2F1200291400843194670472F
:1005C000202A06DBCB17203A41FA02F043EAE07317
:1005D00006E041FA02F3D040C2F120029140084304
:1005E0001946704710B5141E73F1000408DA401C58
:1005F00041F1000192185B411A4301D120F0010042
:1006000010BD2DE9F04D92469B4611B1B1FA81F231
:1006100002E0B0FA80F220329046FFF7B2FF0446C3
:100620000F4640EA0A0041EA0B0153465A46084386
:1006300013D0114653EA010019D0C8F140025046C8
:10064000FFF7AEFF05460E46504659464246FFF7B5
:1006500098FF084305D0012004E020463946BDE854
:10066000F08D0020054346EAE0762C4337430A9894
:100670006305E40AA0EB08000022FD0A44EA47549F
:100680000A3002D500200146E9E701051019694149
:10069000DDE9084500196941BDE8F04DA2E7C1F365
:1006A0000A52C1F3130140F2FF3341F480119A4220
:1006B00002DA00200146704740F233439A42A2F228
:1006C000334202DC5242FFF76BBFFFF75ABF000014
:1006D00030B5041E71F1000404DB4FF000444042C9
:1006E00064EB0101141E73F1000405DB1C464FF09E
:1006F0000043524263EB0403994208BF904230BD6D
:10070000064C074D06E0E06840F0010394E807005E
:1007100098471034AC42F6D3FFF73AFDE065000885
:100720000066000880B584B003900398806B029047
:100730000298006C10F0500F3BD1FFE70298016C5B
:1007400041F40071016402980068806810F0405F15
:100750002BD1FFE70298007E002826D1FFE7029800
:100760000068C06A10F4700F07D0FFE702980068B5
:1007700080684005002818D4FFE7029800684168A7
:1007800021F0200141600298016C21F48071016424
:100790000298006CC004002806D4FFE70298016CA0
:1007A00041F001010164FFE7FFE7029800F0BAFBA6
:1007B00013E00298006CC006002804D5FFE70298F9
:1007C00000F0CEFB08E00298806BC06C03990190AA
:1007D000084601998847FFE7FFE704B080BD0000A5
:1007E00080B582B001900198806B00900098402104
:1007F00001640098416C41F004014164009800F0EC
:10080000AFFB02B080BD000080B582B001900198BE
:10081000806B0090009800F09FFB02B080BD00004C
:1008200080B541F21800C2F2000000F09DFB41F2D9
:100830006000C2F2000000F097FB80BD82B0019022
:1008400042F20030C4F2010000900098416821F4A7
:10085000403141600198406800994A6810434860FF
:1008600001980068416821F4807141600198016835
:1008700000694A6842EA00204860019800684168BF
:1008800021F0407141600198016880684A68104316
:10089000486001980068816821F4006181600198D6
:1008A0000168C0688A68104388600198806A0121E5
:1008B000C0F60071884219D0FFE70198006881688E
:1008C00021F07061816001980168806A8A68104334
:1008D000886001980068816821F04051816001982A
:1008E0000168C06A8A68104388600CE0019800685B
:1008F000816821F07061816001980068816821F051
:1009000040518160FFE701980068816821F0020191
:1009100081600198017E0068826842EA410181603D
:10092000019890F82000002819D0FFE7019800688E
:10093000416841F40061416001980068416821F418
:100940006041416001980168406A4EF20002CFF6B2
:10095000FF7202EB40304A681043486006E001989D
:100960000068416821F400614160FFE70198006878
:10097000C16A21F47001C16201980168C069002256
:10098000CFF6F07202EB0050CA6A1043C8620198B9
:100990000068816821F400718160019890F830103E
:1009A0000068826842EA412181600198006881689C
:1009B00021F4806181600198016840698A6842EA97
:1009C0008020886002B07047FFE7FEE780B541F203
:1009D000A800C2F2000000F003FF80BD80B541F224
:1009E0000810C2F2000000F0FBFE80BD82B0019052
:1009F0000198007810384AF6AB21CAF6AA21A0FB6C
:100A0000010109090091009946F2D252C0F6000294
:100A1000515C019AD1650099042907D3FFE7019839
:100A20000168042262F30901816506E0019801680A
:100A300040F2FF3291438165FFE70198806D02B07B
:100A40007047000086B0059000208DF813000598CF
:100A5000806A039005988069002823D1FFE70398F6
:100A6000032802901CD80299DFE801F0020E021957
:100A7000059890F82F00C007002804D0FFE7012058
:100A80008DF81300FFE70CE00598C06AB0F1C07F55
:100A900004D1FFE701208DF81300FFE701E000E03B
:100AA000FFE747E005988069B0F5005F26D1FFE7D2
:100AB0000398032801901FD80199DFE801F002068E
:100AC000021201208DF8130017E0059890F82F000E
:100AD000C007002804D0FFE701208DF81300FFE7CE
:100AE0000BE00598C06AB0F1C07F04D1FFE7012098
:100AF0008DF81300FFE700E0FFE71AE003980328F2
:100B0000009004D3FFE70098032804D00FE00120F1
:100B10008DF813000CE0059890F82F00C00700280E
:100B200004D0FFE701208DF81300FFE700E0FFE7A6
:100B3000FFE7FFE79DF8130006B0704784B003900D
:100B400002910192009303980068016821F48021CA
:100B500001600098039909684860039880684028FC
:100B600009D1FFE701980399096888600298039901
:100B70000968C86008E002980399096888600198CC
:100B800003990968C860FFE704B070477047000028
:100B90007047000085B004900391029201930020F9
:100BA00000900198B0F5804F22D1FFE70498029998
:100BB00050F82100009000980021CCF6F071084018
:100BC00000900398016842688368D0F80CC041EA3D
:100BD000021141EA032141EA0C418069084300996E
:100BE0000843009000980499029A41F8220006E018
:100BF000049802996FF0704240F82120FFE700202E
:100C000005B0704783B002900191002000900298D7
:100C10000199096850F82100009000988021CFF6D2
:100C2000F07108400090019841688268C368D0F86C
:100C300010C01143194341EA0C0142691143826912
:100C40001143C2691143026A1143426A1143826A25
:100C50001143C26A1143C26B1143006B08430099F0
:100C60000843009001988068082805D1FFE70098A4
:100C700040F040000090FFE700980299019A126846
:100C800041F82200002003B07047000080B584B016
:100C9000039002910192002000900399019A01EBC8
:100CA000820149680091009901F040410091029948
:100CB0000A684B68D1F808C0D1F80CE042EA031288
:100CC00042EA0C2242EA0E420B6940F2000CCFF6D7
:100CD000F07C0CEB03531A434B69FE3342EA036288
:100CE00089691143009A114300910099039A019B6D
:100CF00002EB8302516004B080BD000081B000901F
:100D000001B0704785B00390029100200190FFE789
:100D1000039890F83C00012804D1FFE702208DF8E9
:100D20001300FAE00398012180F83C10FFE7FFE789
:100D3000029800680A281CD3FFE70298008800EB9D
:100D400040001E38072101FA00F003990968CA68BB
:100D500022EA0000C86002988168008800EB400029
:100D60001E3801FA00F003990968CA681043C86088
:100D700019E00298008800EB4000072101FA00F01A
:100D8000039909680A6922EA0000086102988168EB
:100D9000008800EB400001FA00F0039909680A6935
:100DA00010430861FFE70298406806281CD8FFE757
:100DB0000298406800EB800005381F2101FA00F01E
:100DC000039909684A6B22EA000048630298018887
:100DD000406800EB8000053801FA00F003990968CB
:100DE0004A6B104348633DE0029840680C281CD8C9
:100DF000FFE70298406800EB800023381F2101FACA
:100E000000F0039909680A6B22EA0000086302985F
:100E10000188406800EB8000233801FA00F0039954
:100E200009680A6B104308631BE00298406800EBF6
:100E3000800041381F2101FA00F003990968CA6A4D
:100E400022EA0000C86202980188406800EB800036
:100E5000413801FA00F003990968CA6A1043C86270
:100E6000FFE7FFE742F20030C4F201000090039870
:100E7000006842F20001C4F2010188420BD1FFE791
:100E800002980068122806D1FFE70098416841F4F3
:100E900080014160FFE70398006842F20001C4F25C
:100EA000010188422FD1FFE702980068102805D081
:100EB000FFE702980068112825D1FFE700984168F4
:100EC00041F4000141600298006810281AD1FFE740
:100ED00040F20400C2F2000000684DF68361C4F2E3
:100EE0001B31A0FB0101890C01EB8101490001913B
:100EF000FFE70198002804D0FFE70198013801902E
:100F0000F7E7FFE7FFE7FFE70398002180F83C10D1
:100F1000FFE700208DF81300FFE79DF8130005B0F0
:100F20007047000080B582B00190019841F218012D
:100F3000C2F2000188420CD1FFE741F21800C2F270
:100F4000000040F21001C2F20001012200F072FA2A
:100F5000FFE702B080BD000081B0009001B0704793
:100F600081B0009001B0704780B584B0039000203C
:100F700002900190039800680068C0F3400002905E
:100F8000039800684068C0F3401001900298002860
:100F90004BD0FFE70198002847D0FFE70398006C8B
:100FA000C006002806D4FFE70398016C41F40071E5
:100FB0000164FFE703980068806810F0405F2BD160
:100FC000FFE70398007E002826D1FFE7039800681A
:100FD000C06A10F4700F07D0FFE7039800688068BC
:100FE0004005002818D4FFE703980068416821F005
:100FF000200141600398016C21F480710164039821
:10100000006CC004002806D4FFE70398016C41F08F
:1010100001010164FFE7FFE70398FFF783FF0398EF
:1010200000686FF012010160FFE703980068006834
:10103000C0F380000290039800684068C0B2C00905
:1010400001900298002859D0FFE70198002855D058
:10105000FFE70398006CC006002806D4FFE703985A
:10106000016C41F400510164FFE703980068806857
:1010700010F4401F39D1FFE703980068806B10F42B
:10108000401F07D0FFE703980068806840050028EC
:101090002BD4FFE70398006840684005002824D45B
:1010A000FFE703980068806810F0405F1DD1FFE7FC
:1010B0000398007E002818D1FFE703980068416874
:1010C00021F0800141600398016C21F4805101649A
:1010D0000398006CC005002806D4FFE70398016C54
:1010E00041F001010164FFE7FFE70398FFF706FE07
:1010F000039800686FF00C010160FFE70398006837
:10110000006800F001000290039800684068C0F396
:1011100080100190029800281AD0FFE7019800285B
:1011200016D0FFE7039800680068C00700280ED0BB
:10113000FFE70398016C41F480310164039800F0EB
:1011400087F8039800686FF001010160FFE7FFE78F
:10115000039800680068C0F340100290039800688C
:101160004068C0F3806001900298002817D0FFE724
:101170000198002813D0FFE70398416C41F0020169
:101180004164039800686FF02001016003980091AA
:10119000FFF7E6FE0398006800990160FFE704B0DE
:1011A00080BD000080B584B0029000208DF807005B
:1011B0000298002804D1FFE701208DF80F0043E0DA
:1011C0000298806A0121C0F60071884201D0FFE7D1
:1011D000FFE70298006C00280AD1FFE7029800F0B0
:1011E0003BF8029800214164029880F83C10FFE728
:1011F0000298006CC006002817D4FFE70298006C24
:1012000040F0020020F48850029908640298FFF729
:1012100015FB0298002141640298006C40F0010027
:1012200020F002000299086403E001208DF8070015
:10123000FFE7FFE70298002180F83C10FFE79DF8E8
:1012400007008DF80F00FFE79DF80F0004B080BD88
:1012500081B0009001B0704780B590B00F90002031
:101260000E900D900C900B900A900F98006842F22F
:101270000001C4F20101884267D1FFE7FFE70020C7
:10128000099043F64400C4F20200016841F4807101
:101290000160006800F4807009900998FFE7FFE79B
:1012A0000020089043F63000C4F20200016841F0CB
:1012B00001010160006800F0010008900898FFE754
:1012C00001200A9003200B9000200C900021C4F212
:1012D00002010AAA05900846114600F0C3FD41F23A
:1012E000A800C2F2000046F21041C4F202010160FF
:1012F000059941608160C1604FF4806202614FF4E2
:10130000006242614FF400528261C1610162416238
:1013100000F008FC002803D0FFE7FFF739FCFFE7E7
:10132000FFE70F9841F2A801C2F2000181630F9814
:101330008863FFE71220002104900391039A01F0D3
:101340002DF8049801F01EF872E00F98006842F240
:101350000011C4F20101884269D1FFE7FFE70020D4
:10136000079043F64400C4F20200016841F40071A2
:101370000160006800F4007007900798FFE7FFE73E
:101380000020069043F63000C4F20200016841F0EC
:1013900001010160006800F0010006900698FFE777
:1013A00002200A9003200B9000200C900021C4F230
:1013B00002010AAA02900846114600F053FD41F2CC
:1013C0000810C2F2000046F24041C4F2020101607E
:1013D0004FF00071416002998160C1604FF48062FA
:1013E00002614FF4006242614FF400528261C161B8
:1013F0000162416200F096FB002803D0FFE7FFF78F
:10140000C7FBFFE7FFE70F9841F20811C2F20001A6
:1014100081630F988863FFE71220002101900091FB
:10142000009A00F0BBFF019800F0ACFFFFE7FFE778
:1014300010B080BD80B586B0049003910292002068
:101440000190FFE7049890F83C00012804D1FFE7E1
:1014500002208DF81700F6E00498012180F83C1076
:10146000FFE7FFE7049800688068C00700281FD1E5
:10147000FFE704980068816841F00101816040F253
:101480000400C2F2000000684DF68361C4F21B3113
:10149000A0FB0101890C01EB41010191FFE70198DB
:1014A000002804D0FFE7019801380190F7E7FFE733
:1014B000049800688068C007002800F0C080FFE73B
:1014C0000498006C40F4807040F2016188430499F4
:1014D00008640498006840684005002809D5FFE7C3
:1014E0000498006C40F4805020F400500499086483
:1014F000FFE70498006CC004002806D5FFE70498B5
:10150000416C21F00601416403E00498002141642C
:10151000FFE7FFE70498002180F83C10FFE742F264
:101520000030C4F2010000900498806B40F22571F5
:10153000C0F60001C1630498806B40F60901C0F653
:10154000000101640498806B40F2E171C0F6000173
:10155000C164049800686FF022010160049800687B
:10156000416841F08061416004980068816841F4FD
:101570008071816004980168806B4C31039A029BF2
:1015800000F08CFB00994968C90600293ED1FFE7AD
:101590000498006842F20001C4F20101884225D09B
:1015A000FFE70498006842F20011C4F2010188428A
:1015B00009D1FFE742F20430C4F201000068C0061E
:1015C000002813D0FFE70498006842F20021C4F21B
:1015D0000101884219D1FFE742F20430C4F2010050
:1015E000006800F01F000F280FD8FFE7049800687C
:1015F000806810F0405F07D1FFE7049800688168B9
:1016000041F080418160FFE7FFE717E00498006840
:1016100042F20001C4F2010188420ED1FFE70498B2
:101620000068806810F0405F07D1FFE70498006809
:10163000816841F080418160FFE7FFE7FFE700201C
:101640008DF81700FFE79DF8170006B080BD000079
:1016500080B584B0029000208DF80700FFE7029863
:1016600090F83C00012804D1FFE702208DF80F001C
:1016700038E00298012180F83C10FFE7FFE702986C
:101680000068816821F0010181600298006880682B
:10169000C00700281BD1FFE702980068816821F489
:1016A000807181600298806B00F020F88DF807004F
:1016B00002980068416821F0806141600298006CE6
:1016C00040F0010020F4885002990864FFE7FFE72A
:1016D0000298002180F83C10FFE79DF807008DF884
:1016E0000F00FFE79DF80F0004B080BD80B584B007
:1016F00002900298806D019000F0B0FD0090029879
:1017000090F8350002280DD0FFE70298802141654E
:10171000FFE70298002180F83410FFE701208DF8E0
:101720000F0058E002980068016821F0160101607E
:1017300002980068416921F0800141610298006CC3
:10174000002805D1FFE70298806C002807D0FFE74A
:1017500002980068016821F008010160FFE7029823
:101760000068016821F001010160FFE7029800684C
:101770000068C007002818D0FFE700F06FFD00994F
:10178000401A062810D3FFE7029820214165FFE7A1
:101790000298002180F83410FFE70298032180F8B6
:1017A00035108DF80F1016E0E0E70298C06D3F216C
:1017B00001FA00F001998860FFE70298002180F8A3
:1017C0003410FFE70298012180F83510FFE7002070
:1017D0008DF80F00FFE79DF80F0004B080BD0000FA
:1017E00080B586B005900020039040F20400C2F25C
:1017F0000000006848F2B511C1F64E31A0FB0101AE
:10180000890A02910599896D0191019909680491EC
:101810000499059AD26DD140090700291BD5FFE72D
:101820000598006800684007002813D5FFE7059871
:101830000068016821F0040101600598C06D08216D
:1018400001FA00F0019988600598416D41F00101AD
:101850004165FFE7FFE704980599C96DC840C007D7
:10186000002815D0FFE705980068406900060028A9
:101870000DD5FFE70598C06D012101FA00F001992F
:1018800088600598416D41F002014165FFE7FFE77F
:1018900004980599C96DC8404007002815D5FFE791
:1018A000059800680068800700280DD5FFE70598B7
:1018B000C06D042101FA00F0019988600598416D1E
:1018C00041F004014165FFE7FFE704980599C96D00
:1018D000C840C00600284BD5FFE70598006800689F
:1018E0000007002843D5FFE70598C06D102101FAD5
:1018F00000F001998860059800680068400300289E
:101900001CD5FFE7059800680068000300280AD48A
:10191000FFE70598006C002804D0FFE70598016CEC
:101920008847FFE709E00598806C002804D0FFE7AE
:101930000598816C8847FFE7FFE717E00598006886
:101940000068C005002807D4FFE705980068016813
:1019500021F008010160FFE70598006C002804D021
:10196000FFE70598016C8847FFE7FFE7FFE7FFE720
:1019700004980599C96DC8408006002840F19580FB
:10198000FFE7059800680068C006002840F18C80D9
:10199000FFE70598C06D202101FA00F001998860E9
:1019A000059890F83500052838D1FFE705980068BC
:1019B000016821F01601016005980068416921F075
:1019C000800141610598006C002805D1FFE705986A
:1019D000806C002807D0FFE705980068016821F0B7
:1019E00008010160FFE70598C06D3F2101FA00F092
:1019F00001998860FFE70598002180F83410FFE71F
:101A00000598012180F835100598006D002804D054
:101A1000FFE70598016D8847FFE781E005980068BA
:101A20000068400300281CD5FFE70598006800689F
:101A3000000300280AD4FFE70598406C002804D072
:101A4000FFE70598416C8847FFE709E00598C06B00
:101A5000002804D0FFE70598C16B8847FFE7FFE740
:101A600021E0059800680068C005002811D4FFE750
:101A700005980068016821F010010160FFE70598F2
:101A8000002180F83410FFE70598012180F8351017
:101A9000FFE70598C06B002804D0FFE70598C16BED
:101AA0008847FFE7FFE7FFE7FFE70598406D00285D
:101AB00036D0FFE70598406DC007002826D0FFE725
:101AC0000598052180F8351005980068016821F017
:101AD00001010160FFE703980130039002998842F9
:101AE00001D9FFE707E0FFE7059800680068C00735
:101AF0000028F0D1FFE7FFE70598002180F83410B7
:101B0000FFE70598012180F83510FFE70598C06CC4
:101B1000002804D0FFE70598C16C8847FFE7FFE77E
:101B200006B080BD80B586B004900020039000F020
:101B300095FB02900498002804D1FFE701208DF85E
:101B40001700A7E00498406A002801D0FFE7FFE7EC
:101B5000FFE70498002180F83410FFE70498022181
:101B600080F8351004980068016821F001010160D7
:101B7000FFE7049800680068C007002812D0FFE75C
:101B800000F06CFB0299401A06280AD3FFE704987C
:101B9000202141650498032180F835108DF8171035
:101BA00078E0E6E70498006800680390039848F23C
:101BB0003F01CFF210010840039004984168826809
:101BC000C368D0F810C01143194341EA0C014269BF
:101BD000114382691143C2691143006A08430399A2
:101BE000084303900498406A042808D1FFE704984A
:101BF000C16A006B0843039908430390FFE7039809
:101C00000499096808600498006840690390039883
:101C100020F0070003900498406A0399084303905A
:101C20000498406A04281CD1FFE70498806A03994D
:101C3000084303900498C06A002811D0FFE7049875
:101C4000FEF700FF00280AD0FFE704984021416515
:101C50000498012180F835108DF817101AE0FFE77D
:101C6000FFE703980499096848610498FEF7BEFEEF
:101C700001900498C06D3F2101FA00F0019988603D
:101C80000498002141650498012280F835208DF8E0
:101C90001710FFE79DF8170006B080BD80B588B02B
:101CA000069005910492039300208DF80B0006988E
:101CB000806D0190FFE7069890F83400012804D168
:101CC000FFE702208DF81F004DE00698012180F803
:101CD0003410FFE7FFE7069890F83500012833D16C
:101CE000FFE70698022180F835100698002141652B
:101CF00006980599049A039BFEF720FF0698C06D8D
:101D00003F2101FA00F00199886006980068016897
:101D100041F01601016006980068416941F08001B8
:101D200041610698006C002807D0FFE7069800681C
:101D3000016841F008010160FFE70698006801684A
:101D400041F00101016009E0FFE70698002180F8F9
:101D50003410FFE702208DF80B00FFE79DF80B0021
:101D60008DF81F00FFE79DF81F0008B080BD000040
:101D700080B584B0039000F071FA0290039801904E
:101D800001980130002809D0FFE740F20800C2F2B4
:101D900000000078019908440190FFE7FFE700F098
:101DA0005DFA0299401A0199884201D2FFE7F6E7ED
:101DB00004B080BD80B58CB000200B900A900990D3
:101DC0000890079041F21400C2F200000068002859
:101DD00001D0FFE744E041F21400C2F2000001210B
:101DE0000160FFE70020069043F63800C4F20200CD
:101DF000016841F001010160006800F001000690F7
:101E00000698FFE74FF680700790022008900021A7
:101E1000099103220A920C230B9341F2000CC4F2A5
:101E2000020C0DF11C0E0590604604917146039260
:101E30000293CDF804E000F015F84EF2B37007906D
:101E40000598089004990991039A0A92029B0B93B2
:101E500040F60040C4F20200019900F003F8FFE7E9
:101E60000CB080BD8EB00D900C9100200A900990AE
:101E700008900B90FFE70B980F2800F2D381FFE743
:101E80000B98012101FA00F00A900C9800680A9959
:101E90000840099009980A99884240F0BE81FFE7FE
:101EA0000C984068022805D0FFE70C98406812287B
:101EB00026D1FFE70D980B996FF0030202EA51015A
:101EC0000844006A08900B9800F0070080000F217A
:101ED00001FA00F0089921EA000008900C980069C6
:101EE0000B9901F007018900884008990843089080
:101EF00008980D990B9B02EA530211440862FFE710
:101F00000D98006808900B984000032101FA00F03A
:101F1000089921EA000008900C98406800F003003E
:101F20000B994900884008990843089008980D9932
:101F300008600C98406801280FD0FFE70C984068B3
:101F400002280AD0FFE70C984068112805D0FFE767
:101F50000C98406812282FD1FFE70D9880680890F0
:101F60000B984000032101FA00F0089921EA0000D3
:101F700008900C98C0680B9949008840089908435C
:101F8000089008980D9988600D98406808900B9803
:101F9000012101FA00F0089921EA000008900C984C
:101FA0004068C0F300100B998840089908430890D6
:101FB00008980D994860FFE70D98C06808900B9845
:101FC0004000032101FA00F0089921EA000008907E
:101FD0000C9880680B99490088400899084308903C
:101FE00008980D99C8600C98C079C006002840F187
:101FF0001381FFE7FFE70020079043F64400C4F297
:102000000200016841F480410160006800F48040F2
:1020100007900798FFE70B9820F0030043F60801AC
:10202000C4F20101405808900B9800F003008000B2
:102030000F2101FA00F0089921EA000008900D989C
:102040000021C4F20201884203D1FFE7002006907C
:102050005EE00D9840F20041C4F20201884203D1D3
:10206000FFE70120059050E00D9840F60001C4F212
:102070000201884203D1FFE70220049042E00D985C
:1020800040F60041C4F20201884203D1FFE7032079
:10209000039034E00D9841F20001C4F2020188423D
:1020A00003D1FFE70420029026E00D9841F20041A1
:1020B000C4F20201884203D1FFE70520019018E035
:1020C0000D9841F60001C4F20201884203D1FFE7F6
:1020D000062000900AE00D9841F60041C4F202018A
:1020E0000822884208BF07220092FFE7009801906B
:1020F000FFE701980290FFE702980390FFE703983B
:102100000490FFE704980590FFE705980690FFE725
:102110000698C0B20B9901F0030189008840089924
:102120000843089008980B9921F0030143F6080230
:10213000C4F20102885043F60040C4F20100006876
:1021400008900998089921EA000008900C98807975
:10215000C007002805D0FFE70998089908430890B0
:10216000FFE7089843F60041C4F20101086043F616
:102170000440C4F20100006808900998089921EA17
:10218000000008900C9880798007002805D5FFE7AB
:102190000998089908430890FFE7089843F6044116
:1021A000C4F20101086043F60840C4F2010000686F
:1021B00008900998089921EA000008900C98807905
:1021C000C006002805D5FFE709980899084308903C
:1021D000FFE7089843F60841C4F20101086043F69E
:1021E0000C40C4F20100006808900998089921EA9F
:1021F000000008900C9880798006002805D5FFE73C
:102200000998089908430890FFE7089843F60C419D
:10221000C4F201010860FFE7FFE7FFE70B98013018
:102220000B9028E60EB0704782B013468C460190A2
:10223000ADF802108DF801209DF80100002805D0AE
:10224000FFE7BDF802000199886105E0BDF80200D2
:10225000000401998861FFE702B0704741F2C8208D
:10226000C2F200000068704740F20800C2F20000AD
:10227000007841F2C821C2F200010A6810440860E7
:102280007047000080B582B043F60040C4F20200FF
:10229000016841F400710160016841F480610160EE
:1022A000016841F480710160032000F097F800207C
:1022B000019000F007F8009000F03EF8019802B09D
:1022C00080BD000080B582B0009040F20400C2F2F0
:1022D0000000006840F20801C2F2000109784FF4E2
:1022E0007A72B2FBF1F1B0FBF1F000F0C1FD002811
:1022F00004D0FFE701208DF8070018E000980F28B0
:102300000DD8FFE700994FF0FF30002200F046F8AB
:10231000009840F20C01C2F20001086003E00120C5
:102320008DF8070003E000208DF80700FFE79DF817
:10233000070002B080BD000082B0FFE700200190DE
:1023400043F64400C4F20200016841F48041016098
:10235000006800F4804001900198FFE7FFE700204B
:10236000009043F64000C4F20200016841F0805141
:102370000160006800F0805000900098FFE702B014
:102380007047000080B582B001468DF807009DF9C6
:102390000700009103F000FC02B080BD80B588B05A
:1023A00003468DF81F0006910592002004900393C8
:1023B00003F00CFC04909DF91F000499069A059BFC
:1023C0000290084611461A4602F0A0FA02990190BE
:1023D0000846019903F002FC08B080BD80B582B0C8
:1023E0000190019803F01CFC02B080BD80B586B05E
:1023F000049003910498002804D1FFE701208DF890
:1024000017001EE1039843F60041C4F20201096877
:1024100001F00F01884212D9FFE7039843F600410B
:10242000C4F202010870086800F00F0003998842A6
:1024300004D0FFE701208DF8170002E1FFE70498C0
:102440000078800700282AD5FFE704980078400725
:10245000002809D5FFE743F60800C4F2020001682E
:1024600041F4E0510160FFE704980078000700287C
:1024700009D5FFE743F60800C4F20200016841F401
:1024800060410160FFE743F60800C4F20200016802
:1024900021F0F001049A926811430160FFE704986B
:1024A0000078C00700286ED0FFE704984068012834
:1024B00011D1FFE743F60000C4F20200006800F407
:1024C00000300021B1EB504F04D1FFE701208DF81F
:1024D0001700B6E02CE004984068022805D0FFE71A
:1024E00004984068032811D1FFE743F60000C4F2C6
:1024F0000200006800F000700021B1EB506F04D1C1
:10250000FFE701208DF817009BE010E043F6000084
:10251000C4F20200006800F002000021B1EB500F8D
:1025200004D1FFE701208DF817008AE0FFE7FFE7FD
:1025300043F60800C4F20200016821F00301049A86
:10254000526811430160FFF789FE0290FFE743F6EE
:102550000800C4F20200006800F00C000499496809
:10256000B0EB810F0ED0FFE7FFF778FE0299401A1B
:1025700041F28931884204D3FFE703208DF8170028
:102580005FE0E4E7FFE7039843F60041C4F202018D
:10259000096801F00F01884212D2FFE7039843F661
:1025A0000041C4F202010870086800F00F000399AE
:1025B000884204D0FFE701208DF8170041E0FFE7D3
:1025C00004980078400700280CD5FFE743F6080080
:1025D000C4F20200016821F4E051049AD268114368
:1025E0000160FFE704980078000700280DD5FFE799
:1025F00043F60800C4F20200016821F46041049A25
:10260000126941EAC2010160FFE700F049F843F6B0
:102610000801C4F202010968C9B2090946F2BA52B6
:10262000C0F60002515CC84040F20401C2F2000151
:10263000086000200190FFF745FE01998DF8171002
:10264000FFE79DF8170006B080BD000040F20400CF
:10265000C2F200000068704780B5FFF7F7FF43F64D
:102660000801C4F202010968C1F3822146F2CA528C
:10267000C0F60002515CC84080BD000080B5FFF785
:10268000E5FF43F60801C4F20201096889B2490B6B
:1026900046F2CA52C0F60002515CC84080BD00003C
:1026A00080B586B00020059004900390029043F618
:1026B0000800C4F20200006800F00C000146002887
:1026C000019108D0FFE7019804280AD0FFE701989C
:1026D00008280CD04FE042F20040C0F2F400029013
:1026E0004FE047F64000C0F27D10029049E043F60B
:1026F0000400C4F20200016801F03F010591006886
:102700004002002813D5FFE743F60400C4F202009C
:102710000068C0F3881047F64001C0F27D11A0FBAD
:102720000101059A0023FDF74BFD049012E043F6EA
:102730000400C4F202000068C0F3881042F20041B5
:10274000C0F2F401A0FB0101059A0023FDF738FD5A
:102750000490FFE743F60400C4F20200006800F4AE
:102760004030022101EBD030039004980399B0FB74
:10277000F1F0029005E042F20040C0F2F400029055
:10278000FFE7029806B080BD80B586B0049004983B
:10279000002804D1FFE701208DF817000EE304980C
:1027A0000078C007002800F0A780FFE743F6080084
:1027B000C4F20200006800F00C00042813D0FFE708
:1027C00043F60800C4F20200006800F00C0008287C
:1027D0001FD1FFE743F60400C4F202000068400284
:1027E000002816D5FFE743F60000C4F20200006897
:1027F00000F400300021B1EB504F09D0FFE70498FE
:102800004068002804D1FFE701208DF81700D5E2C9
:1028100071E0FFE704984068B0F5803F09D1FFE719
:1028200043F60000C4F20200016841F48031016007
:1028300020E004984068B0F5A02F0DD1FFE743F6E3
:102840000000C4F20200016841F4802101600168C7
:1028500041F4803101600CE043F60000C4F2020054
:10286000016821F480310160016821F48021016058
:10287000FFE7FFE7FFE70498406800281DD0FFE767
:10288000FFF7ECFC0390FFE743F60000C4F2020000
:10289000006800F400300021B1EB504F0CD1FFE78D
:1028A000FFF7DCFC0399401A652804D3FFE70320F7
:1028B0008DF8170082E2E7E71CE0FFF7CFFC0390FA
:1028C000FFE743F60000C4F20200006800F40030A5
:1028D0000021B1EB504F0CD0FFE7FFF7BFFC03998D
:1028E000401A652804D3FFE703208DF8170065E23E
:1028F000E7E7FFE7FFE7FFE7049800788007002895
:1029000040F19780FFE743F60800C4F20200006838
:1029100010F00C0F13D0FFE743F60800C4F20200DA
:10292000006800F00C0008282CD1FFE743F60400F3
:10293000C4F2020000684002002823D4FFE743F6F7
:102940000000C4F20200006800F002000021B1EBB8
:10295000500F09D0FFE70498C068012804D0FFE7B2
:1029600001208DF8170029E243F60000C4F20200AE
:10297000016821F0F801049A126941EAC20101607C
:10298000FFE755E00498C06800282ED0FFE700203C
:10299000C4F2472001210160FFF760FC0390FFE7CC
:1029A00043F60000C4F20200006800F002000021BB
:1029B000B1EB500F0CD1FFE7FFF750FC0399401A21
:1029C000032804D3FFE703208DF81700F6E1E7E7BB
:1029D00043F60000C4F20200016821F0F801049AF5
:1029E000126941EAC201016021E00020C4F24720DF
:1029F00000210160FFF732FC0390FFE743F600007F
:102A0000C4F20200006800F002000021B1EB500F98
:102A10000CD0FFE7FFF722FC0399401A032804D3E8
:102A2000FFE703208DF81700C8E1E7E7FFE7FFE7BE
:102A3000FFE704980078000700284CD5FFE70498CA
:102A40004069002823D0FFE740F68060C4F24720A9
:102A500001210160FFF702FC0390FFE743F67400D9
:102A6000C4F20200006800F002000021B1EB500F38
:102A70000CD1FFE7FFF7F2FB0399401A032804D3B8
:102A8000FFE703208DF8170098E1E7E722E040F622
:102A90008060C4F2472000210160FFF7DFFB039054
:102AA000FFE743F67400C4F20200006800F0020081
:102AB0000021B1EB500F0CD0FFE7FFF7CFFB0399DC
:102AC000401A032804D3FFE703208DF8170075E1AF
:102AD000E7E7FFE7FFE7049800784007002840F1A8
:102AE000CF80FFE700208DF80B0043F64000C4F2D2
:102AF00002000068C000002815D4FFE7FFE70020AF
:102B0000019043F64000C4F20200016841F0805198
:102B10000160006800F0805001900198FFE70120FB
:102B20008DF80B00FFE747F20000C4F200000068D8
:102B3000C005002822D4FFE747F20000C4F20000DD
:102B4000016841F480710160FFF788FB0390FFE7A3
:102B500047F20000C4F200000068C00500280CD451
:102B6000FFE7FFF77BFB0399401A032804D3FFE735
:102B700003208DF8170021E1EAE7FFE7FFE704985B
:102B80008068012809D1FFE743F67000C4F2020013
:102B9000016841F0010101601FE004988068052888
:102BA0000DD1FFE743F67000C4F20200016841F066
:102BB00004010160016841F0010101600CE043F68D
:102BC0007000C4F20200016821F001010160016897
:102BD00021F004010160FFE7FFE7FFE70498806848
:102BE00000281FD0FFE7FFF739FB0390FFE743F60C
:102BF0007000C4F20200006800F002000021B1EB96
:102C0000500F0ED1FFE7FFF729FB0399401A41F25D
:102C10008931884204D3FFE703208DF81700CDE007
:102C2000E5E71EE0FFF71AFB0390FFE743F67000AD
:102C3000C4F20200006800F002000021B1EB500F66
:102C40000ED0FFE7FFF70AFB0399401A41F28931E2
:102C5000884204D3FFE703208DF81700AEE0E5E7D4
:102C6000FFE79DF80B00012809D1FFE743F640007C
:102C7000C4F20200016821F080510160FFE7FFE724
:102C800004988069002800F09580FFE743F608006B
:102C9000C4F20200006800F00C00082800F08580F3
:102CA000FFE70498806902285CD1FFE76020C4F246
:102CB000472000210160FFF7D1FA0390FFE743F6B8
:102CC0000000C4F20200006800F000700021B1EBC7
:102CD000506F0CD0FFE7FFF7C1FA0399401A0328A1
:102CE00004D3FFE703208DF8170067E0E7E70498B7
:102CF000C169026A436AD0F828C0114341EA8311CE
:102D00004FEACC324FF6FF739A43A2F5803211435B
:102D1000C06A41EA006043F60401C4F2020108609F
:102D20006020C4F2472001210160FFF797FA039069
:102D3000FFE743F60000C4F20200006800F00070F4
:102D40000021B1EB506F0CD1FFE7FFF787FA039931
:102D5000401A032804D3FFE703208DF817002DE065
:102D6000E7E721E06020C4F2472000210160FFF77F
:102D700075FA0390FFE743F60000C4F20200006812
:102D800000F000700021B1EB506F0CD0FFE7FFF7AF
:102D900065FA0399401A032804D3FFE703208DF84E
:102DA00017000BE0E7E7FFE703E001208DF81700CD
:102DB00004E0FFE700208DF81700FFE79DF81700FB
:102DC00006B080BD80B58AB0089007910692089839
:102DD000002804D1FFE701208DF827003BE0089888
:102DE00090F84900002808D1FFE70898002180F8F2
:102DF0004810089800F034F8FFE7089850F8081BCE
:102E0000059008460599FDF7FDFE0899079A0B689D
:102E100089680490184603911146039AFDF736FF1E
:102E20000899069A4B68D1F808C0096B02901846B9
:102E3000019111466246019BFDF7ACFE08990A68B4
:102E4000896852F8213043F0010342F82130002113
:102E50008DF82710FFE79DF827000AB080BD00001D
:102E600080B582B00190FEF7A5FF02B080BD0000E2
:102E700080B582B00190019801F084FD02B080BD60
:102E800085B003900291FFE7039890F83C00012879
:102E900004D1FFE702208DF8130039E003980121E7
:102EA00080F83C10FFE7FFE70398022180F83D100F
:102EB000039800684068019003980068806800905B
:102EC000019820F070000190029800680199084371
:102ED0000190009820F080000090029840680099CE
:102EE0000843009001980399096848600098039985
:102EF000096888600398012180F83D10FFE7039876
:102F0000002180F83C10FFE700208DF81300FFE758
:102F10009DF8130005B0704780B584B00290029808
:102F2000002804D1FFE701208DF80F0021E002986E
:102F300090F83D00002808D1FFE70298002180F8B2
:102F40003C10029800F01AF8FFE70298022180F87E
:102F50003D10029850F8041B01900846019901F0B9
:102F6000EFFF0298012180F83D1000208DF80F003E
:102F7000FFE79DF80F0004B080BD000084B003900F
:102F800003980068B0F1804F12D1FFE7FFE70020FF
:102F9000029043F64000C4F20200016841F00101D2
:102FA0000160006800F0010002900298FFE737E03E
:102FB0000398006840F20041C4F20001884212D137
:102FC000FFE7FFE70020019043F64000C4F2020053
:102FD000016841F002010160006800F00200019008
:102FE0000198FFE71BE00398006840F60001C4F277
:102FF0000001884212D1FFE7FFE70020009043F66E
:103000004000C4F20200016841F004010160006860
:1030100000F0040000900098FFE7FFE7FFE7FFE7FC
:1030200004B0704782B001900198022180F83D10F1
:1030300001980068806800F007000090009806285A
:1030400007D0FFE701980068016841F001010160C5
:10305000FFE70198012180F83D10002002B0704781
:1030600082B0019001980068C16841F00101C1601F
:1030700001980068806800F007000090009806281A
:1030800007D0FFE701980068016841F00101016085
:10309000FFE7002002B0704780B58AB00890079122
:1030A000FFE7089890F83C00012804D1FFE70220D0
:1030B0008DF82700B7E00898012180F83C10FFE761
:1030C000FFE70898022180F83D10089800688068A2
:1030D0000690069820F077000690069820F47F402E
:1030E0000690069808990968886007980068002883
:1030F000059000F08280FFE7059810287DD0FFE75B
:103100000598202879D0FFE70598302875D0FFE78B
:103110000598402861D0FFE7059850283DD0FFE78B
:103120000598602849D0FFE7059870280BD0FFE785
:103130000598B0F5805F05D0FFE70598B0F5005F12
:1031400019D061E061E00898006807994A688B68C7
:10315000C96804911946049B01F0DCFF08980068D7
:1031600080680690069840F07700069006980899C7
:103170000968886049E00898006807994A688B6880
:10318000C96803911946039B01F0C4FF08980068C1
:10319000816841F48041816037E0089800680799B0
:1031A0004A68C96802911146029A02F09FF908988C
:1031B0000068502101F0C8FF27E0089800680799CF
:1031C0004A68C96801911146019A02F0B7F9089856
:1031D0000068602101F0B8FF17E0089800680799BF
:1031E0004A68C96800911146009A02F07FF9089870
:1031F0000068402101F0A8FF07E0089800680799DF
:10320000096801F0A1FF00E0FFE70898012180F8BC
:103210003D10FFE70898002180F83C10FFE70020F0
:103220008DF82700FFE79DF827000AB080BD000059
:1032300080B588B007900020069005900490039018
:1032400002900798006840F60001C4F2000188422D
:1032500022D1FFE7FFE70020019043F63000C4F2DF
:103260000200016841F008010160006800F00800F8
:1032700001900198FFE74FF48050029002200390E4
:10328000002104910591069040F60040C4F202002E
:1032900002A9FEF7E7FDFFE708B080BD80B586B064
:1032A000049003910292FFE7049890F83C000128F3
:1032B00004D1FFE702208DF817008DE0049801216A
:1032C00080F83C10FFE7FFE70498022180F83D10EA
:1032D00002980C28019000F270800199DFE801F05B
:1032E000076D6D6D206D6D6D3A6D6D6D53000498B9
:1032F0000068039901F03EFF04980068816941F07D
:103300000801816104980068816921F004018161EC
:1033100003980069049909688A69104388614DE03F
:1033200004980068039901F09BFF04980068816984
:1033300041F40061816104980068816921F4806131
:10334000816103980069049909688A6942EA00204A
:10335000886133E004980068039901F0FBFF04984A
:103360000068C16941F00801C16104980068C16941
:1033700021F00401C1610398006904990968CA69D0
:103380001043C8611AE004980068039902F05CF8E1
:1033900004980068C16941F40061C1610498006843
:1033A000C16921F48061C1610398006904990968C9
:1033B000CA6942EA0020C86100E0FFE704980121E1
:1033C00080F83D10FFE70498002180F83C10FFE7EB
:1033D00000208DF81700FFE79DF8170006B080BDAC
:1033E00080B584B002900298002804D1FFE7012044
:1033F0008DF80F0021E0029890F83D00002808D1D8
:10340000FFE70298002180F83C10029800F01AF8BB
:10341000FFE70298022180F83D10029850F8041B43
:1034200001900846019901F08BFD0298012180F876
:103430003D1000208DF80F00FFE79DF80F0004B04D
:1034400080BD000081B0009001B0704780B586B0AB
:10345000059004910598006804990122029201F0F8
:103460003DFE0598006802990022C4F201029042D4
:1034700001910CD0FFE7059800684FF60041CBF6AC
:10348000FE710844B0FA80F040090190FFE701980E
:10349000C007002807D0FFE705980068416C41F499
:1034A00000414164FFE705980068806800F007006C
:1034B00003900398062807D0FFE705980068016885
:1034C00041F001010160FFE7002006B080BD00006F
:1034D00080B582B000900098002804D1FFE7012059
:1034E0008DF8070040E000988069002801D0FFE7D0
:1034F00000E0FFE7009890F83900002808D1FFE7C6
:103500000098002180F83810009800F031F8FFE7AB
:103510000098242180F8391000980068C16821F4CF
:103520000051C160009802F033F80098006801690A
:1035300021F49041016100980068416921F02A015D
:10354000416100980068C16841F40051C160009871
:103550000021C1630098202280F83920009880F86B
:103560003A208DF80710FFE79DF8070002B080BDF4
:1035700080B58EB00D9000200C900B900A900990B1
:1035800008900D98006841F20001C4F201018842E0
:1035900060D1FFE7FFE70020079043F64400C4F244
:1035A0000200016841F010010160006800F01000A5
:1035B00007900798FFE7FFE70020069043F63000EA
:1035C000C4F20200016841F001010160006800F0EE
:1035D000010006900698FFE7FFE70020059043F6FC
:1035E0003000C4F20200016841F00201016000688D
:1035F00000F0020005900598FFE74FF48060089006
:103600000220099001210A9103220B9207230C93B7
:1036100040F2000CC4F2020C0DF1200E0490604642
:103620000391714602920193CDF800E0FEF71AFC77
:10363000402008900498099003990A91029A0B92ED
:10364000019B0C9340F20040C4F202000099FEF787
:1036500009FCFFE70EB080BD80B588B094460690A7
:103660000591ADF81220039300200190069890F880
:103670003900202840F09F80FFE70598002805D0FA
:10368000FFE7BDF81200002804D1FFE701208DF804
:103690001F0094E0FFE7069890F83800012804D155
:1036A000FFE702208DF81F0089E00698012180F8CD
:1036B0003810FFE7FFE706980021C1630698212133
:1036C00080F83910FEF7CAFD0190BDF81200069986
:1036D0008884BDF812000699C884FFE70698C08C5C
:1036E00000284AD0FFE70698C18C0139C1840698AA
:1036F0008068B0F5805F27D1FFE70698019B0399AA
:103700006A4611608021002202F05AF9002804D094
:10371000FFE703208DF81F0051E005980290029802
:1037200000886FF35F200699096848600698006971
:10373000002804D1FFE705980230059003E00598C2
:1037400001300590FFE717E00698019B03996A4650
:1037500011608021002202F033F9002804D0FFE735
:1037600003208DF81F002AE00598411C0591007880
:10377000069909684860FFE7B0E70698019B03993E
:103780006A4611604021002202F01AF9002804D094
:10379000FFE703208DF81F0011E00698202180F834
:1037A0003910FFE70698002180F83810FFE7002065
:1037B0008DF81F0003E002208DF81F00FFE79DF841
:1037C0001F0008B080BD0000FFE7FEE780B588B0AD
:1037D0000146ADF81E000020069041F2B820C2F26A
:1037E0000000028805924288059B5A430592808812
:1037F00046F60402904220D1FFE741F2B820C2F21F
:1038000000008079012818D1FFE741F2B820C2F208
:103810000000002181712A2242812B2383810490A0
:1038200008460392029300F055FC01200499887128
:1038300002984881039A8A8105E00020019001994D
:1038400000F048FCFFE700F03DFD00200690FFE798
:103850000698059988420BD2FFE7BDF81E000021AB
:10386000C6F208010880FFE7069801300690EFE7EE
:1038700008B080BD80B582B001468DF807009DF884
:103880000700002876D1FFE741F2B820C2F200001D
:1038900000218171F02101804FF4A0714180808866
:1038A00049F24131884214D0FFE741F2B820C2F218
:1038B0000000808846F6040188420AD0FFE741F202
:1038C000B820C2F20000808845F21031884226D12B
:1038D000FFE741F2B820C2F200002C2101812A2129
:1038E00041812B218181808846F6040188420AD0DB
:1038F000FFE741F2B820C2F20000808845F21031A3
:1039000088420BD1FFE741F2B820C2F200004FF429
:10391000A07101804FF4F0714180FFE729E041F28E
:10392000B820C2F20000808845F21051884214D1BC
:10393000FFE741F2B820C2F200004FF4305101819C
:103940004FF4285141814FF42C5181814FF4F07193
:1039500001804FF4487141800AE041F2B820C2F280
:103960000000222101812021418121218181FFE765
:10397000FFE785E041F2B820C2F200000121817129
:103980004FF4A0710180F0214180808849F24131DB
:1039900088420AD0FFE741F2B820C2F200008088D6
:1039A00045F2103188420BD1FFE741F2B820C2F254
:1039B00000002C2101812A2141812B2181813FE0BE
:1039C00041F2B820C2F20000808846F60401884225
:1039D0000BD1FFE741F2B820C2F200002C21018197
:1039E0002B2141812A21818129E041F2B820C2F2B4
:1039F0000000808845F21051884214D1FFE741F25F
:103A0000B820C2F200004FF4305101814FF4285128
:103A100041814FF42C5181814FF4487101804FF462
:103A2000F07141800AE041F2B820C2F20000222188
:103A300001812121418120218181FFE7FFE7FFE70B
:103A400041F2B820C2F20000808846F604018842A4
:103A50000AD0FFE741F2B820C2F20000808845F2A8
:103A6000103188420BD1FFE741F2B820C2F20000CA
:103A70004FF4F07101804FF4A0714180FFE7FFE740
:103A8000002000F009F902B080BD000080B586B0CA
:103A900013468C468646ADF81600ADF81410ADF806
:103AA000122041F2B820C2F20000808849F2413170
:103AB00088420AD0FFE741F2B820C2F200008088B5
:103AC00045F2103188421ED1FFE741F2B820C2F220
:103AD000000041890390084600F0E2FB9DF81700C2
:103AE00000F0CEFB9DF8160000F0CAFB0398808919
:103AF00000F0D6FB9DF8150000F0C2FB9DF8140005
:103B000000F0BEFB98E041F2B820C2F200008088CD
:103B100045F2105188422AD1FFE741F2B820C2F2A3
:103B2000000041890290084600F0BAFB9DF817009A
:103B300000F0A6FB02984189013188B200F0B0FB89
:103B40009DF8160000F09CFB0298808900F0A8FB0D
:103B50009DF8150000F094FB02988189013188B22C
:103B600000F09EFB9DF8140000F08AFB63E041F238
:103B7000B820C2F20000808846F60401884232D1A3
:103B8000FFE741F2B820C2F20000807901280CD191
:103B9000FFE741F2B820C2F200000088BDF816101D
:103BA000C9430844ADF81600FFE741F2B820C2F25D
:103BB000000041890190084600F072FB9DF8170053
:103BC00000F05EFB9DF8160000F05AFB019880891A
:103BD00000F066FB9DF8150000F052FB9DF8140004
:103BE00000F04EFB26E041F2B820C2F200008079DE
:103BF00001280CD1FFE741F2B820C2F20000008892
:103C0000BDF81610C9430844ADF81600FFE741F2AD
:103C1000B820C2F200004189BDF816200090084685
:103C2000114600F05BFB00988089BDF8141000F08D
:103C300055FBFFE7FFE7FFE741F2B820C2F20000C3
:103C400000894FF6FE71C6F207010880BDF8120028
:103C50000021C6F20801088006B080BD81B00020B6
:103C6000C6F208000088ADF80200BDF8020001B0FD
:103C70007047000080B582B00146ADF80600BDF87F
:103C80000600009100F00CFB0520FEF771F8FFF72D
:103C9000E5FF02B080BD000080B58AB001468DF816
:103CA00027000020ADF82400ADF8220041F2B82032
:103CB000C2F200008079012838D1FFE741F2B82034
:103CC000C2F20000808846F6040188422ED0FFE749
:103CD0009DF8270001460728079126D80799DFE8B5
:103CE00001F004080C1014181C2006208DF8270081
:103CF0001BE007208DF8270017E004208DF827002F
:103D000013E005208DF827000FE001208DF8270033
:103D10000BE000208DF8270007E003208DF8270036
:103D200003E002208DF82700FFE7FFE741F2B8200B
:103D3000C2F20000808849F2413188421FD0FFE77B
:103D400041F2B820C2F20000808846F604018842A1
:103D500015D0FFE741F2B820C2F20000808845F29A
:103D6000103188420BD0FFE741F2B820C2F20000C8
:103D7000808845F21051884240F05A81FFE79DF853
:103D8000270001460728069138D80699DFE801F098
:103D900004050C131A21282F30E0BDF8240040F050
:103DA0008000ADF8240029E0BDF8240040F0400078
:103DB000ADF8240022E0BDF8240040F0C000ADF8CA
:103DC00024001BE0BDF8240040F02000ADF82400E2
:103DD00014E0BDF8240040F06000ADF824000DE0D0
:103DE000BDF8240040F0A000ADF8240006E0BDF8C6
:103DF000240040F0E000ADF82400FFE741F2B820D5
:103E0000C2F20000808845F21051884205D1FFE7D8
:103E10004FF45850ADF8220003E03620ADF82200F0
:103E2000FFE741F2B820C2F20000808845F210316D
:103E3000884211D0FFE741F2B820C2F2000080882A
:103E400045F21051884207D0FFE7BDF8240040F04A
:103E50000800ADF82400FFE741F2B820C2F20000EC
:103E6000808846F60401884207D1FFE7BDF82400A8
:103E700040F00200ADF82400FFE7BDF82200BDF8D5
:103E8000241000F02BFABDF824008006002808D486
:103E9000FFE741F2B820C2F200008079012817D173
:103EA000FFE741F2B820C2F2000001884088814259
:103EB0000DDAFFE741F2B820C2F200000188ADF848
:103EC000201041880180BDF820104180FFE716E0F6
:103ED00041F2B820C2F200000188408881420DDD25
:103EE000FFE741F2B820C2F200000188ADF82010CF
:103EF00041880180BDF820104180FFE7FFE741F2D3
:103F0000B820C2F20000808845F21051884259D191
:103F1000FFE741F2B820C2F200004189059008464F
:103F200000F0BEF90020049000F0AAF9059841893C
:103F3000013188B200F0B4F9049800F0A1F90598B5
:103F40004189023188B200F0ABF905980188013946
:103F5000C1F30F2000F094F905984189033188B22C
:103F600000F09EF9059801880139C8B200F088F97F
:103F70000598808900F094F9049800F081F905987B
:103F80008189013188B200F08BF9049800F078F94A
:103F900005988189023188B200F082F9059841883C
:103FA0000139C1F30F2000F06BF9059881890331C5
:103FB00088B200F075F9059841880139C8B200F05F
:103FC0005FF934E041F2B820C2F200004189039069
:103FD000084600F065F90020029000F051F90298BF
:103FE00000F04EF9039801880139C1F30F2000F069
:103FF00047F9039801880139C8B200F041F90398E4
:10400000808900F04DF9029800F03AF9029800F02A
:1040100037F9039841880139C1F30F2000F030F9D6
:10402000039841880139C8B200F02AF9FFE74EE051
:104030009DF8270001460728019138D80199DFE84B
:1040400001F0040B12191A21282FBDF8240040F0AA
:104050003000ADF824002AE0BDF8240040F0100044
:10406000ADF8240023E0BDF8240040F02000ADF8B6
:1040700024001CE01BE0BDF8240040F03800ADF83F
:10408000240014E0BDF8240040F02800ADF824001E
:104090000DE0BDF8240040F01800ADF8240006E063
:1040A000BDF8240040F00800ADF82400FFE703202D
:1040B000ADF82200BDF8240040F48050ADF8240093
:1040C000BDF82200BDF8241000F008F9FFE70AB09F
:1040D00080BD000080B586B00A460346ADF81600E4
:1040E000ADF8141041F2B820C2F20000808849F205
:1040F000413188420AD0FFE741F2B820C2F2000005
:10410000808845F2103188421ED1FFE741F2B82085
:10411000C2F2000041890490084600F0C1F89DF801
:10412000170000F0ADF89DF8160000F0A9F804980B
:10413000808900F0B5F89DF8150000F0A1F89DF811
:10414000140000F09DF898E041F2B820C2F200009F
:10415000808846F60401884232D1FFE741F2B82058
:10416000C2F20000807901280CD1FFE741F2B820AB
:10417000C2F200000088BDF81610C9430844ADF82B
:104180001600FFE741F2B820C2F200004189039017
:10419000084600F085F89DF8170000F071F89DF8CA
:1041A000160000F06DF80398808900F079F89DF80A
:1041B000150000F065F89DF8140000F061F85BE070
:1041C00041F2B820C2F20000808845F210518842C6
:1041D0002AD1FFE741F2B820C2F2000041890290E3
:1041E000084600F05DF89DF8170000F049F80298C5
:1041F0004189013188B200F053F89DF8160000F0B3
:104200003FF80298808900F04BF89DF8150000F007
:1042100037F802988189013188B200F041F89DF8A1
:10422000140000F02DF826E041F2B820C2F20000A0
:10423000807901280CD1FFE741F2B820C2F20000DA
:104240000088BDF81610C9430844ADF81600FFE712
:1042500041F2B820C2F200004189BDF81620019059
:104260000846114600F03AF801988089BDF814100C
:1042700000F034F8FFE7FFE7FFE706B080BD00007D
:1042800081B00146ADF80200BDF80200ADF80200B1
:10429000BDF802000022C6F20802108001B070478B
:1042A00081B00146ADF80200BDF80200ADF8020091
:1042B000BDF802004FF6FE72C6F20702108001B090
:1042C0007047000041F2B820C2F2000000894FF6AA
:1042D000FE71C6F2070108807047000081B00A46EF
:1042E0000346ADF80200ADF80010BDF802004FF62D
:1042F000FE71C6F207010880BDF800000021C6F279
:104300000801088001B0704780B586B00146ADF85D
:10431000160000200290029A01911146FFF7DAFE82
:1043200002980490FFE70498EF281ADCFFE70020CA
:104330000390FFE70398B0F5A07F0DDAFFE7BDF823
:104340000C00BDF81010BDF81620FFF79FFBFFE72B
:10435000039801300390EDE7FFE7049801300490E3
:10436000E1E706B080BD000080B584B00020039076
:1043700002900190009041F21801C2F2000142F255
:104380000002C4F201020A604FF480324A60886081
:10439000086101220A7681F820004FF08053CB6239
:1043A0004FF0C0638B62C860CA6181F830204A61F7
:1043B0000846FCF7F7FE002803D0FFE7FCF7E8FB10
:1043C000FFE70020009001200190029041F21800C8
:1043D000C2F200006946FCF795FC002803D0FFE715
:1043E000FCF7D6FBFFE704B080BD000080B584B0C9
:1043F0000020039002900190009041F26001C2F20F
:10440000000142F20012C4F201020A604FF480324D
:104410004A6088600861087681F820004FF0805279
:10442000CA624FF000628A62C8600122CA6181F8E4
:1044300030004A610846FCF7B5FE002803D0FFE7CC
:10444000FCF7A6FBFFE701200090019000200290FE
:1044500041F26000C2F200006946FCF753FC0028FC
:1044600003D0FFE7FCF794FBFFE704B080BD00003A
:1044700080B584B0FFE70020039043F63000C4F21B
:104480000200016841F480010160006800F48000CE
:1044900003900398FFE73820002102900191019AD0
:1044A000FDF77CFF0298FDF76DFF3A20009001991F
:1044B000019AFDF773FF0098FDF764FF04B080BD1B
:1044C00080B590B000200F900E900D900C900B9046
:1044D0000A90099008900790069005900490039028
:1044E000029041F26811C2F200014FF020420A60CE
:1044F00040F20412CAF200024A608860C860086193
:1045000010224A618861C861086248624FF4805392
:104510008B62C8624FF480430B63486388634864CE
:104520000F2309930A934FF0180CCDF82CC00C9070
:104530000D924FF0110CCDF838C00F904FF0030ED4
:10454000CDF808E003930223049305900692CDF87A
:104550001CC0089009A802AA019008460199FEF71C
:1045600031FC002803D0FFE7FCF712FBFFE710B097
:1045700080BD000080B592B00020119010900F9087
:104580000E900D90FFE700200C9043F63000C4F22F
:104590000200016841F010010160006800F01000A5
:1045A0000C900C98FFE7FFE700200B9043F63000DB
:1045B000C4F20200016841F080010160006800F06F
:1045C00080000B900B98FFE7FFE700200A9043F66E
:1045D0003000C4F20200016841F00401016000688B
:1045E00000F004000A900A98FFE7FFE70020099016
:1045F00043F63000C4F20200016841F0010101609D
:10460000006800F0010009900998FFE7FFE700202B
:10461000089043F63000C4F20200016841F008013E
:104620000160006800F0080008900898FFE7FFE7C5
:104630000020079043F63000C4F20200016841F008
:1046400002010160006800F0020007900798FFE790
:1046500041F20000C4F202000421002206900591FC
:104660000492FDF7E1FD40F60000C4F202000F21C4
:1046700003900291049AFDF7D7FD05980D90012152
:104680000E91049A0F9210920DAB06980191194663
:104690000093FDF7E7FB02980D9001990E91049AA3
:1046A0000F92109203980099FDF7DCFBF0200D901B
:1046B00004980E9001990F9103980099FDF7D2FB91
:1046C00012B080BD80B586B00020059004900390A4
:1046D00002900190009041F2B811C2F200014FF037
:1046E00080420A6053224A608860C822CA6008611A
:1046F00088610846FEF710FC002803D0FFE7FCF7AE
:1047000047FAFFE74FF48050029041F2B810C2F22E
:10471000000002A9FEF7C0FC002803D0FFE7FCF769
:1047200037FAFFE7202000900020019041F2B810F6
:10473000C2F200006946FEF7A3FB002803D0FFE7A2
:10474000FCF726FAFFE706B080BD000080B586B012
:10475000002005900490039002900190009041F297
:10476000F811C2F2000140F20042C4F200020A60F5
:104770004FF4A0424A6088600122CA6008618861E3
:104780000846FEF7C9FB002803D0FFE7FCF700FA54
:10479000FFE74FF48050029041F2F810C2F200009F
:1047A00002A9FEF779FC002803D0FFE7FCF7F0F937
:1047B000FFE7202000900020019041F2F810C2F2A3
:1047C00000006946FEF75CFB002803D0FFE7FCF71A
:1047D000DFF9FFE706B080BD80B58EB000200D90F8
:1047E0000C900B900A900990089007900690059005
:1047F000049003900290019041F23821C2F200012E
:1048000040F60002C4F200020A6053224A60886047
:1048100041F28832CA60086188610846FEF77CFB75
:10482000002803D0FFE7FCF7B3F9FFE74FF480500F
:104830000A9041F23820C2F200000AA9FEF72CFCCF
:10484000002803D0FFE7FCF7A3F9FFE741F2382087
:10485000C2F20000FEF7C4FD002803D0FFE7FCF71A
:1048600097F9FFE700200890099041F23820C2F242
:10487000000008A9FEF704FB002803D0FFE7FCF7BF
:1048800087F9FFE76020019001200290002003904B
:10489000059041F23821C2F2000101AA00900846B9
:1048A0001146009AFEF7FAFC002803D0FFE7FCF758
:1048B0006FF9FFE741F23820C2F20000FEF7B8FCC2
:1048C0000EB080BD80B541F27820C2F2000041F206
:1048D0000001C4F20101016041F60001C0F21501BE
:1048E000416000218160C16001610C2242618161EF
:1048F000C161FEF7EDFD002803D0FFE7FCF748F9A2
:10490000FFE780BDFFE7FEE77047000088B0079033
:1049100006910592079800F0070004900498C0F1F2
:104920000700052803D3FFE70420019004E0049862
:10493000C0F107000190FFE701980390049804304C
:10494000062803D8FFE70020009003E0049803380E
:104950000090FFE70098029006980399012202FA5E
:1049600001F10139084002998840059B02FA01F1E2
:1049700001391940084308B0704700007047000033
:104980007047000080B582B0009000980138B0F107
:10499000807F03D3FFE70120019019E000980138E0
:1049A0004EF21401CEF2000108604FF0FF300F21EB
:1049B00001F014F94EF21800CEF20000002101605F
:1049C0004EF21000CEF20000072202600191FFE7D4
:1049D000019802B080BD000080B5FDF745FC80BDA8
:1049E00080B594B008A83021FBF722FC0020079086
:1049F0000690059004900390FFE70020029043F694
:104A00004000C4F20200016841F08051016000687A
:104A100000F0805002900298FFE7FFE7002001902D
:104A200047F20000C4F20000016841F480410160D7
:104A3000006800F4804001900198FFE70120089091
:104A40004FF4A020099002200E904FF480010F91A6
:104A5000192110914FF4A871119112900720139011
:104A600008A8FDF791FE002803D0FFE7FCF790F8B7
:104A7000FFE70F20039002200490002005904FF4E0
:104A8000A05006904FF48050079003A80521FDF731
:104A9000ADFC002803D0FFE7FCF77AF8FFE714B07D
:104AA00080BD00004EF68850CEF20000016841F44F
:104AB0007001016043F60000C4F20200016841F099
:104AC0000101016043F60801C4F2020100220A60FC
:104AD00001684FF6FF73CFF6F6631940016043F6A5
:104AE0000401C4F2020143F21003C2F200430B605E
:104AF000016821F48021016043F60C00C4F2020039
:104B000002604EF60850CEF200004FF000610160E6
:104B10007047000080B596B00020159041F200016A
:104B2000C4F2020104221490084613911146149B0A
:104B300012921A46FDF778FBC820FDF719F90120FB
:104B40001399119008461299119AFDF76DFB3220C6
:104B50001090FDF70DF914981199FFF7BFFB10980D
:104B6000FDF706F91498FFF785F841F2B821C2F273
:104B7000000188808888FF2814DBFFE741F2B82015
:104B8000C2F2000080884FF6FF7188420AD0FFE72A
:104B900041F2B820C2F200008088B0F5134F40F017
:104BA0009D80FFE7D320FFF77BFBFFF757F841F22B
:104BB000B821C2F2000188800F91FFF74FF80F99DA
:104BC0008880FFF74BF80F998880888800028880DA
:104BD000FFF744F80F998A8810438880888849F243
:104BE0004132904279D0FFE7BF20FFF759FBFFF732
:104BF00035F841F2B821C2F2000188800E91FFF72A
:104C00002DF80E998880FFF729F80E998880FFF714
:104C100025F80E998880888800028880FFF71EF8A2
:104C20000E998A8810438880888846F6040290424C
:104C300052D0FFE7D420FFF733FBFFF70FF841F224
:104C4000B821C2F2000188800D91FFF707F80D9995
:104C50008880FFF703F80D99888088880002888093
:104C6000FEF7FCFF0D998A8810438880888845F2FA
:104C7000103290422FD0FFE74FF45A40FFF710FB5D
:104C8000FEF7ECFF41F2B821C2F2000188804FF438
:104C90005B400C91FFF704FBFEF7E0FF0C99888066
:104CA0008888000288804FF45C40FFF7F9FAFEF72D
:104CB000D5FF0C998A88104388808888B0F5004F0A
:104CC00008D1FFE741F2B820C2F2000045F21051CE
:104CD0008180FFE7FFE7FFE7FFE7FFE7CF20FFF770
:104CE000DFFA00200B90FFF7CBFA159801301590F2
:104CF000C1200A90FFF7C4FA30200990FFF7C0FAEC
:104D0000ED20FFF7CDFA6420FFF7BAFA0320FFF792
:104D1000B7FA1220FFF7B4FA8120FFF7B1FAE820C2
:104D2000FFF7BEFA8520FFF7ABFA10200890FFF7D7
:104D3000A7FA7A20FFF7A4FACB20FFF7B1FA3920BF
:104D4000FFF79EFA2C20FFF79BFA0B98FFF798FAD3
:104D50003420FFF795FA0220FFF792FAF720FFF7C9
:104D60009FFA2020FFF78CFAEA20FFF799FA0B98B8
:104D7000FFF786FA0B98FFF783FAC020FFF790FA47
:104D80001B20FFF77DFA0A98FFF78AFA01200790A7
:104D9000FFF776FAC520FFF783FA0998FFF770FA54
:104DA0000998FFF76DFAC720FFF77AFAB720FFF7E7
:104DB00067FA3620FFF774FA4820FFF761FA3A20C5
:104DC000FFF76EFA5520FFF75BFAB120FFF768FA9C
:104DD0000B98FFF755FA1A20FFF752FAB620FFF7A3
:104DE0005FFA0A200690FFF74BFAA220FFF748FA75
:104DF000F220FFF755FA0B98FFF742FA2620FFF74B
:104E00004FFA0798FFF73CFAE020FFF749FA0F2026
:104E10000590FFF735FA2A200490FFF731FA282091
:104E2000FFF72EFA08200390FFF72AFA0E20FFF76B
:104E300027FA0398FFF724FA5420FFF721FAA92054
:104E4000FFF71EFA4320FFF71BFA0698FFF718FA40
:104E50000598FFF715FA0B98FFF712FA0B98FFF772
:104E60000FFA0B98FFF70CFA0B98FFF709FAE120FD
:104E7000FFF716FA0B98FFF703FA1520FFF700FA71
:104E80001720FFF7FDF90720FFF7FAF9112002902C
:104E9000FFF7F6F90620FFF7F3F92B200190FFF753
:104EA000EFF95620FFF7ECF93C20FFF7E9F9052070
:104EB000FFF7E6F90898FFF7E3F90598FFF7E0F93F
:104EC0003F200090FFF7DCF90098FFF7D9F905982B
:104ED000FFF7D6F90198FFF7E3F90B98FFF7D0F940
:104EE0000B98FFF7CDF90798FFF7CAF90098FFF77D
:104EF000C7F90498FFF7D4F90B98FFF7C1F90B989D
:104F0000FFF7BEF90B98FFF7BBF9EF20FFF7B8F9F1
:104F10000298FFF7C5F97820FCF72AFF2920FFF750
:104F2000BFF90798FEF7A6FC48F28420C4F240209F
:104F3000079901604FF6FF70FEF748FC16B080BD80
:104F400083B00290019102980068009002980021BD
:104F5000C4F20101884225D0FFE70298B0F1804FEA
:104F600020D0FFE7029840F20041C4F200018842DD
:104F700018D0FFE7029840F60001C4F20001884211
:104F800010D0FFE7029840F60041C4F200018842C9
:104F900008D0FFE7029840F20041C4F201018842C4
:104FA0000AD1FFE7009820F0700000900198406857
:104FB000009908430090FFE702980021C4F2010124
:104FC000884255D0FFE70298B0F1804F50D0FFE7FC
:104FD000029840F20041C4F20001884248D0FFE745
:104FE000029840F60001C4F20001884240D0FFE779
:104FF000029840F60041C4F20001884238D0FFE731
:10500000029840F20041C4F20101884230D0FFE72B
:10501000029844F20001C4F20101884228D0FFE75F
:10502000029844F20041C4F20101884220D0FFE717
:10503000029844F60001C4F20101884218D0FFE74B
:10504000029841F60001C4F20001884210D0FFE747
:10505000029841F60041C4F20001884208D0FFE7FF
:10506000029842F20001C4F2000188420AD1FFE72F
:10507000009820F4407000900198C068009908439F
:105080000090FFE7009820F08000019949690843EB
:105090000090009802990860019880680299C8629F
:1050A000019800680299886202980021C4F2010107
:1050B000884208D0FFE7029840F20041C4F20101A3
:1050C000884205D1FFE70198006902990863FFE76C
:1050D00002980121416103B07047000084B0039041
:1050E00002910192029800F01F00012101FA00F0E4
:1050F0000090009803990A6A22EA00000862019869
:10510000029901F01F01884003990A6A104308625E
:1051100004B0704785B00490039102920193049803
:1051200080680090009820F47F40009003980299D6
:10513000019A41EA0221084300990843009000982F
:105140000499886005B0704783B00290019102987D
:1051500080680090009820F07000009001980099FD
:10516000084340F00700009000980299886003B05F
:105170007047000085B0049003910498016A21F003
:10518000010101620498006A01900498406800904F
:10519000049880690290029820F0700002900298B2
:1051A00020F00300029003980068029908430290DF
:1051B000019820F00200019003988068019908434B
:1051C000019004980021C4F20101884208D0FFE751
:1051D000049840F20041C4F2010188420ED1FFE779
:1051E000019820F0080001900398C06801990843D5
:1051F0000190019820F004000190FFE7049800213D
:10520000C4F20101884208D0FFE7049840F200414F
:10521000C4F20101884213D1FFE7009820F48070A6
:105220000090009820F40070009003984069009965
:105230000843009003988069009908430090FFE7B5
:10524000009804994860029804998861039840681E
:105250000499486301980499086205B070470000FA
:1052600085B0049003910498016A21F01001016255
:105270000498006A0190049840680090049880693E
:105280000290029820F4E0400290029820F44070CE
:10529000029003980068029941EA00200290019868
:1052A00020F02000019003988068019941EA0010E5
:1052B000019004980021C4F20101884208D0FFE760
:1052C000049840F20041C4F2010188420FD1FFE787
:1052D000019820F0800001900398C068019941EA8C
:1052E00000100190019820F040000190FFE7049821
:1052F0000021C4F20101884208D0FFE7049840F27F
:105300000041C4F20101884215D1FFE7009820F462
:1053100080600090009820F400600090039840693D
:10532000009941EA8000009003988069009941EA61
:1053300080000090FFE70098049948600298049963
:105340008861039840680499886301980499086209
:1053500005B0704785B0049003910498016A21F468
:10536000807101620498006A01900498406800907E
:105370000498C0690290029820F070000290029890
:1053800020F00300029003980068029908430290FD
:10539000019820F40070019003988068019941EA17
:1053A0000020019004980021C4F20101884208D035
:1053B000FFE7049840F20041C4F2010188420FD196
:1053C000FFE7019820F4006001900398C0680199FC
:1053D00041EA00200190019820F480600190FFE7ED
:1053E00004980021C4F20101884208D0FFE7049824
:1053F00040F20041C4F20101884215D1FFE7009854
:1054000020F480500090009820F400500090039801
:105410004069009941EA0010009003988069009962
:1054200041EA00100090FFE7009804994860029854
:105430000499C861039840680499C8630198049965
:10544000086205B07047000085B00490039104988D
:10545000016A21F4805101620498006A0190049865
:10546000406800900498C0690290029820F4E040DF
:105470000290029820F4407002900398006802990C
:1054800041EA00200290019820F400500190039816
:105490008068019941EA0030019004980021C4F22B
:1054A0000101884208D0FFE7049840F20041C4F2AD
:1054B000010188420BD1FFE7009820F48040009062
:1054C00003984069009941EA80100090FFE7009836
:1054D0000499486002980499C86103984068049947
:1054E000086401980499086205B0704785B004907B
:1054F000039102920498006A00900498016A21F0D6
:1055000001010162049880690190019820F0F00087
:1055100001900298019941EA00100190009820F052
:105520000A0000900398009908430090019804999C
:10553000886100980499086205B0704785B00490AE
:10554000039102920498016A21F01001016204980B
:10555000806901900498006A0090019820F47040DE
:1055600001900298019941EA00300190009820F0E2
:10557000A00000900398009941EA00100090019863
:105580000499886100980499086205B0704700008A
:1055900070B5AEB02D902D980068006920F4405091
:1055A0002D990A68C968084310612D9881680269BD
:1055B0004369C0691143194308432C902D98006832
:1055C000C06849F20C6188432C9908432D990968F9
:1055D000C8602D980068406920F440702D990A68D1
:1055E0008969084350612D98C069B0F5004F40F0BB
:1055F000F480FFE72D98006841F20001C4F2010138
:10560000884209D0FFE72D98006841F20041C4F2BA
:105610000101884270D1FFE7FDF730F819214843B6
:105620002D9A52685200B0FBF2F048F21F52C5F2B8
:10563000EB12A0FB02036FF00F0C0CEA53032B914B
:105640002A9229902893FDF719F82B9948432D9A0F
:1056500052685200B0FBF2F02790FDF70FF82B993B
:1056600048432D9A52685200B0FBF2F02A9AA0FBF0
:1056700002035B094FF0640CDDF89CE003FB1CE3C4
:105680004FF0320E0EEBC303A3FB0234F82505EAFC
:105690005414289D05EB44042690CDF894C0CDF811
:1056A00090E023932294FCF7E9FF2B9948432D9A2D
:1056B00052685200B0FBF2F02190FCF7DFFF2B990B
:1056C00048432D9A136852685200B0FBF2F02A9AB0
:1056D000A0FB020C4FEA5C1CDDF894E0219C0CFB63
:1056E0001E4C249C04EBCC0CACFB02C5C5F342154C
:1056F000229E35449D606FE0FCF7AEFF19214843C0
:105700002D9A52685200B0FBF2F048F21F52C5F2D7
:10571000EB12A0FB02036FF00F0C0CEA5303209175
:105720001F921E901D93FCF797FF209948432D9AD6
:1057300052685200B0FBF2F01C90FCF78DFF2099EC
:1057400048432D9A52685200B0FBF2F01F9AA0FB1A
:1057500002035B094FF0640CDDF870E003FB1CE30F
:105760004FF0320E0EEBC303A3FB0234F82505EA1B
:1057700054141D9D05EB44041B90CDF868C0CDF872
:1057800064E018931794FCF767FF209948432D9A1B
:1057900052685200B0FBF2F01690FCF75DFF2099C2
:1057A00048432D9A136852685200B0FBF2F01F9ADA
:1057B000A0FB020C4FEA5C1CDDF868E0169C0CFBB9
:1057C0001E4C199C04EBCC0CACFB02C5C5F3421576
:1057D000179E35449D60FFE7F0E02D98006841F288
:1057E0000001C4F20101884209D0FFE72D9800684A
:1057F00041F20041C4F2010188426FD1FFE7FCF79A
:105800003DFF192148432D9A52689200B0FBF2F0F7
:1058100048F21F52C5F2EB12A0FB02036FF00F0C0F
:105820000CEA53031591149213901293FCF726FF80
:10583000159948432D9A52689200B0FBF2F01190EE
:10584000FCF71CFF159948432D9A52689200B0FB53
:10585000F2F0149AA0FB02035B094FF0640CDDF830
:1058600044E003FB1CE34FF0320E0EEB0313A3FBEB
:105870000234F02505EA5414129D2C441090CDF802
:105880003CC0CDF838E00D930C94FCF7F7FE159969
:1058900048432D9A52689200B0FBF2F00B90FCF74F
:1058A000EDFE159948432D9A136852689200B0FB9B
:1058B000F2F0149AA0FB020C4FEA5C1CDDF83CE00D
:1058C0000B9C0CFB1E4C0E9C04EB0C1CACFB02C591
:1058D000C5F343150C9E35449D606EE0FCF7BCFE9D
:1058E000192148432D9A52689200B0FBF2F048F219
:1058F0001F52C5F2EB12A0FB02036FF00F0C0CEA73
:1059000053030A91099208900793FCF7A5FE0A99A0
:1059100048432D9A52689200B0FBF2F00690FCF7D3
:105920009BFE0A9948432D9A52689200B0FBF2F010
:10593000099AA0FB02035B094FF0640CDDF818E044
:1059400003FB1CE34FF0320E0EEB0313A3FB0234F8
:10595000F02505EA5414079D2C440590CDF810C09D
:10596000CDF80CE002930194FCF776FE0A994843C7
:105970002D9A52689200B0FBF2F00090FCF76CFE9A
:105980000A9948432D9A136852689200B0FBF2F0CE
:10599000099AA0FB020C4FEA5C1CDDF810E0009CA9
:1059A0000CFB1E4C039C04EB0C1CACFB02C5C5F3AA
:1059B0004315019E35449D60FFE7FFE72EB070BDA3
:1059C00080B586B0DDF820C09646049003918DF82E
:1059D0000B200193FFE704980068006803990840D2
:1059E000401AB0FA80F040099DF80B10884230D17F
:1059F000FFE70898013000282AD0FFE70898002820
:105A000008D0FFE7FCF72AFC0199401A0899884260
:105A10001DD9FFE704980068C16821F4D071C16006
:105A200004980068416921F0010141610498202136
:105A300080F83910049880F83A10FFE704980021A4
:105A400080F83810FFE703208DF8170005E0FFE726
:105A5000C1E700208DF81700FFE79DF8170006B09A
:105A600080BD0000FFE7FEE780B58AB0FFF752F87F
:105A700041F21800C2F200000890FBF793FB41F2DC
:105A80003821C2F20001079008460691FDF7A8FCF4
:105A90000021069A059010460491FDF7D7FC40F2CC
:105AA0001001C2F200010122089B03901846FBF787
:105AB000C1FC41F2B811C2F2000102900846FDF7A4
:105AC000CFFA019000F02AF84FF6FF70FEF71CFCA9
:105AD00040F21200C2F200004FF4006100F036F80C
