:020000040800F2
:10000000700400209D010008F51700087515000810
:10001000F1170008A90200083520000800000000C0
:10002000000000000000000000000000951E000815
:10003000AD0200080000000079180008F51E000855
:10004000B7010008B7010008B7010008B7010008B0
:10005000B7010008B7010008B7010008B7010008A0
:10006000B7010008B7010008B7010008B701000890
:10007000B7010008B7010008B7010008B701000880
:10008000B7010008B7010008B7010008B701000870
:10009000B7010008B7010008B7010008B701000860
:1000A000B7010008B7010008B7010008B701000850
:1000B000B7010008B7010008B7010008B701000840
:1000C000B7010008B7010008B7010008B701000830
:1000D000B7010008B7010008B7010008B701000820
:1000E000B7010008B7010008B7010008B701000810
:1000F000B7010008B7010008B7010008B701000800
:10010000B7010008B7010008B7010008B7010008EF
:10011000B7010008B7010008B7010008B7010008DF
:10012000B7010008B7010008B7010008B7010008CF
:10013000B7010008B7010008B7010008B7010008BF
:10014000B7010008B7010008B7010008B7010008AF
:10015000B7010008B7010008B7010008B70100089F
:10016000B7010008B7010008B7010008B70100088F
:10017000B7010008B7010008B7010008000000003F
:10018000B7010008B7010008DFF80CD000F07AF8DA
:1001900000480047F120000870040020064880470E
:1001A00006480047FEE7FEE7FEE7FEE7FEE7FEE75C
:1001B000FEE7FEE7FEE7FEE7C51F0008890100082D
:1001C0002DE9F05F0546002092469B46884606468C
:1001D000814640241BE0284641464746224600F01F
:1001E00041F853465A46C01A914110D31146184659
:1001F000224600F028F82D1A67EB01084F462246E8
:100200000120002100F01FF817EB00094E41201ECD
:10021000A4F10104DFDC484631462A464346BDE8E6
:10022000F09FD2B201E000F8012B491EFBD27047CB
:100230000022F6E710B513460A4604461946FFF7B2
:10024000F0FF204610BD202A04DB203A00FA02F11C
:10025000002070479140C2F1200320FA03F31943B4
:1002600090407047202A04DB203A21FA02F0002156
:10027000704721FA02F3D040C2F1200291400843B6
:1002800019467047064C074D06E0E06840F0010350
:1002900094E8070098471034AC42F6D3FFF778FF94
:1002A0004021000860210008FFE7FEE770470000DA
:1002B00070470000B0B589B09C4696460C4605468E
:1002C0000890079106920593002004900598B0F5D8
:1002D000804FCDF80CC0CDF808E00194009522D1F4
:1002E000FFE70898069950F821000490049800212F
:1002F000CCF6F07108400490079801684268836862
:10030000D0F80CC041EA021141EA032141EA0C4154
:100310008069084304990843049004980899069A50
:1003200041F8220006E0089806996FF0704240F804
:100330002120FFE7002009B0B0BD000010B585B056
:100340000A46034604900391002002900498039902
:10035000096850F82100029002988021CFF6F071D0
:100360000840029003984168D0F808C0D0F80CE02B
:10037000046941EA0C0141EA0E012143D0F814C09E
:1003800041EA0C01D0F818C041EA0C01D0F81CC0B9
:1003900041EA0C01D0F820C041EA0C01D0F824C099
:1003A00041EA0C01D0F828C041EA0C01D0F82CC079
:1003B00041EA0C01D0F83CC041EA0C01006B084353
:1003C00002990843029003988068082801920093DC
:1003D00005D1FFE7029840F040000290FFE7029845
:1003E0000499039A126841F82200002005B010BD5C
:1003F00070B587B013468C468646069005910492E8
:10040000002003900699049A01EB82014968039148
:10041000039901F04041039105990A684C688D6881
:10042000CE6842EA041242EA052242EA06420C6918
:100430000025CFF6F07505EB045422434C69FE34D9
:1004400042EA046289691143039A114303910399B3
:10045000069A049C02EB840251600293CDF804C01A
:10046000CDF800E007B070BD80B584B001460390C0
:10047000009100F063FA0290039801900198013016
:10048000002809D0FFE740F20400C2F20000007823
:10049000019908440190FFE7FFE700F04FFADDF80B
:1004A00008E0A0EB0E00DDF804E0704501D2FFE7A4
:1004B000F3E704B080BD000080B58CB000200B9045
:1004C0000A9009900890079040F21400C2F20000D0
:1004D0000068002801D0FFE745E040F21400C2F2B6
:1004E000000001210160FFE70020069043F638007C
:1004F000C4F20200016841F001010160006800F0EF
:100500000100069006980590FFE74FF6807007906F
:10051000022008900021099103220A920C230B93D8
:1005200041F2000CC4F2020C0DF11C0E0490604666
:100530000391714602920193CDF800E000F016F8A5
:100540004CF6B37007900498089003990991029AA9
:100550000A92019B0B9340F60040C4F202000099FE
:1005600000F004F8FFE70CB080BD000091B00A462F
:10057000034610900F9100200D900C900B900E9060
:1005800009920893FFE70E980F2800F2D481FFE745
:100590000E98012101FA00F00D900F9800680D9956
:1005A00008400C900C980D99884240F0BF81FFE7FD
:1005B0000F984068022805D0FFE70F98406812287E
:1005C00026D1FFE710980E996FF0030202EA51015D
:1005D0000844006A0B900E9800F0070080000F217D
:1005E00001FA00F00B9921EA00000B900F980069C6
:1005F0000E9901F00701890088400B9908430B9080
:100600000B9810990E9B02EA530211440862FFE70F
:10061000109800680B900E984000032101FA00F03A
:100620000B9921EA00000B900F98406800F003003E
:100630000E99490088400B9908430B900B9810992C
:1006400008600F98406801280FD0FFE70F984068B6
:1006500002280AD0FFE70F984068112805D0FFE76D
:100660000F98406812282FD1FFE7109880680B90F0
:100670000E984000032101FA00F00B9921EA0000D6
:100680000B900F98C0680E99490088400B99084359
:100690000B900B9810998860109840680B900E98FA
:1006A000012101FA00F00B9921EA00000B900F984C
:1006B0004068C0F300100E9988400B9908430B90D6
:1006C0000B9810994860FFE71098C0680B900E983F
:1006D0004000032101FA00F00B9921EA00000B9081
:1006E0000F9880680E99490088400B9908430B9039
:1006F0000B981099C8600F984068C000002840F11E
:100700001481FFE7FFE700200A9043F64400C4F29B
:100710000200016841F480410160006800F48040FB
:100720000A900A980790FFE70E9820F0030043F61E
:100730000801C4F2010140580B900E9800F003002C
:1007400080000F2101FA00F00B9921EA00000B90C4
:1007500010980021C4F20201884203D1FFE7002073
:1007600006905EE0109840F20041C4F20201884217
:1007700003D1FFE70120059050E0109840F60001FA
:10078000C4F20201884203D1FFE70220049042E054
:10079000109840F60041C4F20201884203D1FFE7FD
:1007A0000320039034E0109841F20001C4F20201EA
:1007B000884203D1FFE70420029026E0109841F21E
:1007C0000041C4F20201884203D1FFE705200190F5
:1007D00018E0109841F60001C4F20201884203D1EA
:1007E000FFE7062000900AE0109841F60041C4F2AD
:1007F00002010822884208BF07220092FFE7009802
:100800000190FFE701980290FFE702980390FFE74D
:1008100003980490FFE704980590FFE70598069079
:10082000FFE70698C0B20E9901F0030189008840E5
:100830000B9908430B900B980E9921F0030143F696
:100840000802C4F20102885043F60040C4F20100DD
:1008500000680B900C980B9921EA00000B900F9800
:100860004068C003002805D5FFE70C980B990843A2
:100870000B90FFE70B9843F60041C4F201010860BA
:1008800043F60440C4F2010000680B900C980B99E9
:1008900021EA00000B900F9840688003002805D5DE
:1008A000FFE70C980B9908430B90FFE70B9843F672
:1008B0000441C4F20101086043F60840C4F201009B
:1008C00000680B900C980B9921EA00000B900F9890
:1008D0004068C002002805D5FFE70C980B99084333
:1008E0000B90FFE70B9843F60841C4F20101086042
:1008F00043F60C40C4F2010000680B900C980B9971
:1009000021EA00000B900F9840688002002805D56E
:10091000FFE70C980B9908430B90FFE70B9843F601
:100920000C41C4F201010860FFE7FFE7FFE70E9802
:1009300001300E9027E611B07047000040F26800C9
:10094000C2F200000068704740F20400C2F20000EA
:10095000007840F26801C2F200010A6810440860A1
:100960007047000080B582B043F60040C4F2020038
:10097000016841F400710160016841F48061016027
:10098000016841F480710160032000F095F80020B7
:10099000019000F007F8009000F040F8019802B0D4
:1009A00080BD000080B584B00146029040F2000096
:1009B000C2F20000006840F20402C2F200021278A3
:1009C0004FF47A73B3FBF2F2B0FBF2F0019100F056
:1009D000C7FD002804D0FFE701208DF80F0018E0C4
:1009E00002980F280DD8FFE702994FF0FF30002240
:1009F00000F03CF8029840F20801C2F200010860E1
:100A000003E001208DF80F0003E000208DF80F00B7
:100A1000FFE79DF80F0004B080BD000084B0FFE741
:100A20000020039043F64400C4F20200016841F440
:100A300080410160006800F48040039003980190B9
:100A4000FFE7FFE70020029043F64000C4F20200F7
:100A5000016841F080510160006800F08050029010
:100A600002980090FFE704B07047000080B58AB09C
:100A700013468C4686468DF8270008910792002081
:100A800006900593CDF810C0CDF80CE001F0E2FA25
:100A900006909DF927000699089A079B0290084640
:100AA00011461A4600F0A8FE0299019008460199E5
:100AB00001F0D8FA0AB080BD80B582B0014601903D
:100AC0000198009101F0F4FA02B080BD80B588B0C1
:100AD0000A46034606900591069800280392029361
:100AE00004D1FFE701208DF81F0025E1059843F6AA
:100AF0000041C4F20201096801F00F01884212D9D5
:100B0000FFE7059843F60041C4F202010870086847
:100B100000F00F000599884204D0FFE701208DF80E
:100B20001F0009E1FFE706980068800700282AD522
:100B3000FFE7069800684007002809D5FFE743F65D
:100B40000800C4F20200016841F4E0510160FFE7CF
:100B5000069800680007002809D5FFE743F608005B
:100B6000C4F20200016841F460410160FFE743F60E
:100B70000800C4F20200016821F0F001069A9268B0
:100B800011430160FFE706980068C007002870D095
:100B9000FFE706984068012811D1FFE743F60000FF
:100BA000C4F20200006800F400300021B1EB504FA5
:100BB00004D1FFE701208DF81F00BDE02CE006986E
:100BC0004068022805D0FFE706984068032811D145
:100BD000FFE743F60000C4F20200006800F0007076
:100BE0000021B1EB506F04D1FFE701208DF81F0009
:100BF000A2E010E043F60000C4F20200006800F03A
:100C000002000021B1EB500F04D1FFE701208DF865
:100C10001F0091E0FFE7FFE743F60800C4F202007F
:100C2000016821F00301069A526811430160FFF741
:100C300085FE0490FFE743F60800C4F20200006856
:100C400000F00C0006994968B0EB810F10D0FFE767
:100C5000FFF774FEDDF810E0A0EB0E0041F2893ED4
:100C6000704504D3FFE703208DF81F0064E0E2E73E
:100C7000FFE7059843F60041C4F20201096801F05C
:100C80000F01884212D2FFE7059843F60041C4F2F3
:100C900002010870086800F00F000599884204D02E
:100CA000FFE701208DF81F0046E0FFE70698006887
:100CB000400700280CD5FFE743F60800C4F2020005
:100CC000016821F4E051069AD26811430160FFE700
:100CD00006980068000700280DD5FFE743F60800D6
:100CE000C4F20200016821F46041069A126941EAE7
:100CF000C2010160FFE700F023F843F6080EC4F2DA
:100D0000020EDEF800E05FFA8EFE4FEA1E1E42F28F
:100D10003011C0F6000111F80E10C84040F2000179
:100D2000C2F20001086000200190FFF73BFE01992C
:100D30008DF81F100090FFE79DF81F0008B080BDE0
:100D400080B586B00020059004900390029043F691
:100D50000800C4F20200006800F00C000146002800
:100D6000019108D0FFE7019804280AD0FFE7019815
:100D700008280CD04FE042F20040C0F2F40002908C
:100D80004FE047F64000C0F27D10029049E043F684
:100D90000400C4F20200016801F03F0105910068FF
:100DA0004002002813D5FFE743F60400C4F2020016
:100DB0000068C0F3881047F64001C0F27D11A0FB27
:100DC0000101059A0023FFF7FBF9049012E043F6B6
:100DD0000400C4F202000068C0F3881042F200412F
:100DE000C0F2F401A0FB0101059A0023FFF7E8F926
:100DF0000490FFE743F60400C4F20200006800F428
:100E00004030022101EBD030039004980399B0FBED
:100E1000F1F0029005E042F20040C0F2F4000290CE
:100E2000FFE7029806B080BD80B588B00146069005
:100E300006980028029104D1FFE701208DF81F00D9
:100E400027E306980068C007002800F0AB80FFE7A2
:100E500043F60800C4F20200006800F00C00042809
:100E600013D0FFE743F60800C4F20200006800F068
:100E70000C0008281FD1FFE743F60400C4F202006B
:100E800000684002002816D5FFE743F60000C4F2D0
:100E90000200006800F400300021B1EB504F09D08F
:100EA000FFE706984068002804D1FFE701208DF88D
:100EB0001F00EEE275E0FFE706984068B0F5803F5E
:100EC00009D1FFE743F60000C4F20200016841F4D3
:100ED0008031016020E006984068B0F5A02F0DD168
:100EE000FFE743F60000C4F20200016841F48021EC
:100EF0000160016841F4803101600CE043F60000BC
:100F0000C4F20200016821F480310160016821F41B
:100F100080210160FFE7FFE7FFE7069840680028AF
:100F20001FD0FFE7FFF70AFD0590FFE743F600003B
:100F3000C4F20200006800F400300021B1EB504F11
:100F40000ED1FFE7FFF7FAFCDDF814E0A0EB0E008E
:100F5000652804D3FFE703208DF81F0099E2E5E739
:100F60001EE0FFF7EBFC0590FFE743F60000C4F23C
:100F70000200006800F400300021B1EB504F0ED0A9
:100F8000FFE7FFF7DBFCDDF814E0A0EB0E006528BF
:100F900004D3FFE703208DF81F007AE2E5E7FFE7BF
:100FA000FFE7FFE7069800688007002840F19B8074
:100FB000FFE743F60800C4F20200006810F00C0FCF
:100FC00013D0FFE743F60800C4F20200006800F007
:100FD0000C0008282CD1FFE743F60400C4F20200FD
:100FE00000684002002823D4FFE743F60000C4F263
:100FF0000200006800F002000021B1EB500F09D0A0
:10100000FFE70698C068012804D0FFE701208DF8AB
:101010001F003EE243F60000C4F20200016821F026
:10102000F801069A126941EAC2010160FFE759E03E
:101030000698C068002830D0FFE70020C4F247209F
:1010400001210160FFF77AFC0590FFE743F60000FD
:10105000C4F20200006800F002000021B1EB500F62
:101060000ED1FFE7FFF76AFCDDF814E0A0EB0E00FD
:10107000032804D3FFE703208DF81F0009E2E5E70A
:1010800043F60000C4F20200016821F0F801069A5C
:10109000126941EAC201016023E00020C4F2472046
:1010A00000210160FFF74AFC0590FFE743F60000CE
:1010B000C4F20200006800F002000021B1EB500F02
:1010C0000ED0FFE7FFF73AFCDDF814E0A0EB0E00CE
:1010D000032804D3FFE703208DF81F00D9E1E5E7DB
:1010E000FFE7FFE7FFE7069800680007002850D5F4
:1010F000FFE706984069002825D0FFE740F68060AA
:10110000C4F2472001210160FFF718FC0590FFE7BA
:1011100043F67400C4F20200006800F002000021EF
:10112000B1EB500F0ED1FFE7FFF708FCDDF814E03C
:10113000A0EB0E00032804D3FFE703208DF81F0067
:10114000A7E1E5E724E040F68060C4F247200021F3
:101150000160FFF7F3FB0590FFE743F67400C4F26C
:101160000200006800F002000021B1EB500F0ED029
:10117000FFE7FFF7E3FBDDF814E0A0EB0E00032828
:1011800004D3FFE703208DF81F0082E1E5E7FFE7C6
:10119000FFE7069800684007002840F1D680FFE787
:1011A00000208DF8130043F64000C4F202000068EE
:1011B000C000002816D4FFE7FFE70020039043F6A5
:1011C0004000C4F20200016841F0805101600068F3
:1011D00000F08050039003980190FFE701208DF804
:1011E0001300FFE747F20000C4F200000068C005EA
:1011F000002824D4FFE747F20000C4F20000016891
:1012000041F480710160FFF799FB0590FFE747F219
:101210000000C4F200000068C00500280ED4FFE7FB
:10122000FFF78CFBDDF814E0A0EB0E00032804D3DD
:10123000FFE703208DF81F002BE1E8E7FFE7FFE75A
:1012400006988068012809D1FFE743F67000C4F2D0
:101250000200016841F0010101601FE0069880680A
:1012600005280DD1FFE743F67000C4F202000168C3
:1012700041F004010160016841F0010101600CE0EE
:1012800043F67000C4F20200016821F00101016020
:10129000016821F004010160FFE7FFE7FFE706981E
:1012A0008068002821D0FFE7FFF748FB0590FFE7A3
:1012B00043F67000C4F20200006800F00200002152
:1012C000B1EB500F10D1FFE7FFF738FBDDF814E06A
:1012D000A0EB0E0041F2893E704504D3FFE70320E6
:1012E0008DF81F00D5E0E3E720E0FFF727FB05902E
:1012F000FFE743F67000C4F20200006800F002004D
:101300000021B1EB500F10D0FFE7FFF717FBDDF81E
:1013100014E0A0EB0E0041F2893E704504D3FFE7D4
:1013200003208DF81F00B4E0E3E7FFE79DF813000A
:10133000012809D1FFE743F64000C4F2020001682A
:1013400021F080510160FFE7FFE7069880690028DF
:1013500000F09B80FFE743F60800C4F2020000683B
:1013600000F00C00082800F08B80FFE706988069E9
:10137000022860D1FFE76020C4F24720002101600D
:10138000FFF7DCFA0590FFE743F60000C4F2020025
:10139000006800F000700021B1EB506F0ED0FFE745
:1013A000FFF7CCFADDF814E0A0EB0E00032804D31D
:1013B000FFE703208DF81F006BE0E5E70698C169A1
:1013C000026A436AD0F828C0114341EA83114FEA08
:1013D000CC324FF6FF739A43A2F580321143C06AB4
:1013E00041EA006043F60401C4F202010860602093
:1013F000C4F2472001210160FFF7A0FA0590FFE742
:1014000043F60000C4F20200006800F00070002102
:10141000B1EB506F0ED1FFE7FFF790FADDF814E063
:10142000A0EB0E00032804D3FFE703208DF81F0074
:101430002FE0E5E723E06020C4F2472000210160AF
:10144000FFF77CFA0590FFE743F60000C4F20200C4
:10145000006800F000700021B1EB506F0ED0FFE784
:10146000FFF76CFADDF814E0A0EB0E00032804D3BC
:10147000FFE703208DF81F000BE0E5E7FFE703E03F
:1014800001208DF81F0004E0FFE700208DF81F0009
:10149000FFE79DF81F0008B080BD000080B58EB04A
:1014A00013468C4686460C900B910A920C980028A5
:1014B0000993CDF820C0CDF81CE004D1FFE701204E
:1014C0008DF837003DE00C9890F84900002808D1CD
:1014D000FFE70C98002180F848100C9800F036F8CF
:1014E000FFE70C9850F8081B069008460699FEF78F
:1014F00025FF0C99DDF82CE00A68896805901046F4
:1015000004917146049AFEF773FF0C990A9AD1F878
:1015100004E08B68096B03907046029111461A46ED
:10152000029BFEF7C7FE0C990A68896852F82130C1
:1015300043F0010342F8213000218DF8371001906B
:10154000FFE79DF837000EB080BD000080B582B087
:10155000014601900091FEF7AFFF02B080BD000090
:1015600080B582B0014601900198009100F094FC92
:1015700002B080BDFFE7FEE780B584B00146ADF85C
:101580000E000020029040F23F120190009111469F
:1015900000F028F800F070F801980290FFE7029838
:1015A000800A4A280BD8FFE7BDF80E000221C6F6D4
:1015B00000410880FFE7029801300290EFE704B095
:1015C00080BD000082B001468DF807009DF807003D
:1015D0004FF0D84210800220C6F6004000880091EB
:1015E00002B0704780B584B00A460346ADF80E00DD
:1015F000ADF80C1040F21000C2F20000008848F66E
:1016000089118842029201930BD1FFE7BDF80E10B9
:101610004E2000F037F8BDF80C104F2000F032F8E3
:1016200028E040F21000C2F20000008849F22531A3
:1016300088420FD1FFE7BDF80E10202000F022F8FD
:10164000BDF80C0040F23F11081A81B2212000F0D1
:1016500019F80EE0BDF80C10202000F013F8BDF8CA
:101660000E0040F23F11081A81B2212000F00AF862
:10167000FFE7FFE704B080BD4FF0D8402221018092
:101680007047000083B00A4603468DF80B00ADF8A2
:1016900008109DF80B004FF0D8410880BDF80800F5
:1016A0000221C6F6004108800192009303B0704702
:1016B00080B588B0002007900690059004900390B4
:1016C0000290019040F21801C2F200014FF0204256
:1016D0000A6040F20412CAF200024A608860C860E0
:1016E000086110224A618861C861086248624FF44B
:1016F00080538B62C8620863486388634864092327
:1017000001930F230293FF23039304900592112268
:101710000692079001AA009008461146009AFFF72A
:10172000BDFE002803D0FFE7FEF7C2FDFFE708B0CB
:1017300080BD00008AB0FFE70020099043F630002A
:10174000C4F20200016841F004010160006800F089
:101750000400099009980490FFE7FFE70020089033
:1017600043F63000C4F20200016841F080010160DC
:10177000006800F08000089008980390FFE7FFE7FA
:101780000020079043F63000C4F20200016841F0E7
:1017900010010160006800F01000079007980290A7
:1017A000FFE7FFE70020069043F63000C4F2020096
:1017B000016841F008010160006800F0080006902F
:1017C00006980190FFE7FFE70020059043F6300000
:1017D000C4F20200016841F001010160006800F0FC
:1017E0000100059005980090FFE70AB070470000DF
:1017F000FFE7FEE77047000080B58BB013468C46CC
:1018000086460A90099108920A9800F0070007900E
:101810000798C0F1070005280493CDF80CC0CDF857
:1018200008E003D3FFE70420019004E00798C0F12B
:1018300007000190FFE701980690079804300628FA
:1018400003D8FFE70020009003E0079803380090DA
:10185000FFE70098059009980699012202FA01F124
:101860000139084005998840089B02FA01F10139C5
:10187000194008430BB080BD7047000080B5A2B08E
:10188000002020901F9014211E900846FEF7ECFDCA
:101890001E98FFF797FE20902098002818D0FFE7A9
:1018A000209840F6FF71884212D3FFE7209848F64F
:1018B0008911884210D0FFE7209849F220318842F0
:1018C0000AD0FFE7209849F22531884204D0FFE78B
:1018D00048F689102090FFE7209840F21001C2F2EC
:1018E00000010880209849F22031884206D0FFE7A5
:1018F0002098B0F5134F40F0F180FFE700201D90D5
:101900001D99FFF7BFFE01204FF480711C90FFF777
:10191000B9FE02204FF4E061FFF7B4FE032041F26C
:101920001801FFF7AFFE04201D99FFF7ABFE08205A
:1019300040F20221FFF7A6FE09201D99FFF7A2FE43
:101940000A201D99FFF79EFE0C201C99FFF79AFEB6
:101950000D201D99FFF796FE0F201D99FFF792FEAF
:101960004CF25030ADF88600FFE7BDF88600012844
:1019700007DBFFE7FFE7BDF886000138ADF886001A
:10198000F3E74CF25030ADF88600FFE7BDF8860073
:10199000012807DBFFE7FFE7BDF886000138ADF857
:1019A0008600F3E7072040F20111FFF76BFE4CF2CF
:1019B0005030ADF88600FFE7BDF88600012807DB50
:1019C000FFE7FFE7BDF886000138ADF88600F3E7D2
:1019D0004CF25030ADF88600FFE7BDF886000128D4
:1019E00007DBFFE7FFE7BDF886000138ADF88600AA
:1019F000F3E710204FF486511B90FFF743FE1120B0
:101A000007211A91FFF73EFE12204FF488711991B9
:101A1000FFF738FE13204FF43061FFF733FE292023
:101A200000211891FFF72EFE2B2044F21001FFF742
:101A300029FE50201899FFF725FE5120EF21FFF7CE
:101A400021FE52201899FFF71DFE532040F23F114E
:101A5000FFF718FE60204FF41C51FFF713FE6120C2
:101A600001211791FFF70EFE6A201899FFF70AFE71
:101A700080201899FFF706FE81201899FFF702FED3
:101A800082201899FFF7FEFD83201899FFF7FAFDD1
:101A900084201899FFF7F6FD85201899FFF7F2FDCD
:101AA00090201B99FFF7EEFD92201899FFF7EAFDB1
:101AB00093201799FFF7E6FD95201999FFF7E2FDAE
:101AC00097201899FFF7DEFD98201899FFF7DAFDA7
:101AD00040F273111A98FFF7D5FDD9E1209848F626
:101AE0008911884240F0CC80FFE700200121169048
:101AF0001591FFF7C7FD102014901699FFF7C2FD4E
:101B000005201390FEF7B0FC072040F2332112901D
:101B10001191FFF7B7FD112046F27801FFF7B2FDF2
:101B200002204FF4C061FFF7ADFD03204AF6A40187
:101B30001090FFF7A7FD0C201699FFF7A3FD0D20CD
:101B400040F60C01FFF79EFD0E204FF42451FFF7E5
:101B500099FD1E20B821FFF795FD42F63F1115981B
:101B6000FFF790FD14981699FFF78CFD13981699BE
:101B7000FFF788FD06201699FFF784FD16204EF624
:101B80001C71FFF77FFD17201099FFF77BFD12985E
:101B90001199FFF777FD0B20C021FFF773FD0F2090
:101BA0001699FFF76FFD41201699FFF76BFD422054
:101BB0001699FFF767FD48201699FFF763FD492046
:101BC00040F23F110F91FFF75DFD4A201699FFF794
:101BD00059FD4B201699FFF755FD44204FF46F41F6
:101BE000FFF750FD45201699FFF74CFD46200F9951
:101BF000FFF748FD302040F20771FFF743FD312029
:101C00004FF401710E91FFF73DFD32200E99FFF761
:101C100039FD332040F202510D91FFF733FD34209E
:101C200040F20751FFF72EFD35200E99FFF72AFDF0
:101C300036200E99FFF726FD37200D99FFF722FD7C
:101C40003A2040F202310C91FFF71CFD3B200C9929
:101C5000FFF718FD23201699FFF714FD242016998D
:101C6000FFF710FD25204FF40041FFF70BFD4E203C
:101C70001699FFF707FD4F201699FFF703FD06E1C0
:101C8000209849F22531884240F00081FFE700208A
:101C900001210B900A91FFF7F5FC4FF480710A982F
:101CA000FFF7F0FC02204FF4E061FFF7EBFC0320AC
:101CB00041F218010990FFF7E5FC04200B99FFF7AA
:101CC000E1FC082040F20221FFF7DCFC09200B991F
:101CD000FFF7D8FC0A200B99FFF7D4FC0C200B99D6
:101CE000FFF7D0FC0D200B99FFF7CCFC0F200B99D0
:101CF000FFF7C8FC102008900B99FFF7C3FC1120D8
:101D000007900B99FFF7BEFC122006900B99FFF786
:101D1000B9FC132005900B99FFF7B4FC1420FEF7D3
:101D2000A3FB41F2B0710898FFF7ACFC40F2371109
:101D30000798FFF7A7FC05200490FEF795FB40F2FB
:101D400039110698FFF79EFC0498FEF78DFB4FF4BF
:101D5000E8510598FFF796FC29200599FFF792FCBA
:101D60000498FEF781FB20200B99FFF78BFC2120C4
:101D70000B99FFF787FC302007210391FFF782FCC6
:101D8000312040F20231FFF77DFC322040F2051194
:101D90000291FFF777FC352040F206210191FFF711
:101DA00071FC362040F608010091FFF76BFC3720EC
:101DB0000199FFF767FC382040F20451FFF762FCFD
:101DC00039200399FFF75EFC3C200299FFF75AFC8B
:101DD0003D200099FFF756FC50200B99FFF752FC6D
:101DE0005120EF21FFF74EFC52200B99FFF74AFCE0
:101DF000532040F23F11FFF745FC60204FF427418C
:101E0000FFF740FC61200A99FFF73CFC6A200B9920
:101E1000FFF738FC80200B99FFF734FC81200B99E9
:101E2000FFF730FC82200B99FFF72CFC83200B99E5
:101E3000FFF728FC84200B99FFF724FC85200B99E1
:101E4000FFF720FC90200899FFF71CFC92200B99CB
:101E5000FFF718FC93200999FFF714FC95204FF425
:101E60008871FFF70FFC97200B99FFF70BFC982068
:101E70000B99FFF707FC41F208010998FFF702FCF4
:101E800040F233110398FFF7FDFBFFE7FFE7FFE7A1
:101E900022B080BD7047000080B584B0014602903A
:101EA00002980138B0F1807F019103D3FFE7012050
:101EB00003901BE0029801384EF21401CEF20001AB
:101EC00008604FF0FF300F2100F0CCF84EF2180000
:101ED000CEF20000002101604EF21000CEF20000B0
:101EE0004FF0070EC0F800E00391FFE7039804B03D
:101EF00080BD000080B5FEF727FD80BD80B596B09F
:101F00000AA83021FEF794F9002009900890079064
:101F100006900590FFE70020049043F64000C4F2CD
:101F20000200016841F080510160006800F08050BB
:101F3000049004980290FFE7FFE70020039047F227
:101F40000000C4F20000016841F4804101600068B3
:101F500000F48040039003980190FFE701200A906D
:101F60004FF4A0200B90022010904FF480011191AB
:101F7000192112914FF4A871139114900420159017
:101F80000AA8FEF751FF002803D0FFE7FEF790F9FB
:101F9000FFE70F20059002200690002007904FF4E5
:101FA000A05008904FF48050099005A80521FEF735
:101FB0008DFD002803D0FFE7FEF77AF9FFE716B0A2
:101FC00080BD00004EF68850CEF20000016841F45A
:101FD0007001016043F60000C4F20200016841F0A4
:101FE0000101016043F60801C4F2020100220A6007
:101FF00001684FF6FF73CFF6F6631940016043F6B0
:102000000401C4F2020143F21003C2F200430B6068
:10201000016821F48021016043F60C00C4F2020043
:1020200002604EF60850CEF200004FF000610160F1
:1020300070470000FFE7FEE780B5FFF71FFCFFE7F2
:102040004FF47840FFF798FA4FF47A70FEF70CFAE5
:10205000F6E700004EF60C50CEF200000068C0F328
:102060000220704784B00A4603468DF80F000291A3
:102070009DF90F000028019200930ADBFFE7029808
:1020800000019DF90F104EF20042CEF2000288547A
:102090000BE0029800019DF80F1001F00F014EF6C1
:1020A0001452CEF200028854FFE704B070470000DB
:1020B00084B001460390039800F0070001904EF6AB
:1020C0000C50CEF2000002680292029A4FF6FF0313
:1020D0001A400292029A019B42EA03220023C0F2B4
:1020E000FA531A430292029A0260009104B07047B8
:1020F00080B582B000200190FEF734FC0090FFF71D
:10210000FDFEFFF717FBFFF7D3FAFFE7FFF794FF9A
:10211000FCE702E008C8121F08C1002AFAD1704784
:102120007047002001E001C1121F002AFBD1704757
:102130000000000000000000010203040607080977
:10214000602100080000002010000000122100089B
:102150007021000810000020600400002221000807
:102160000024F40001000000100000000000000046
:040000050800018965
:00000001FF
