:020000040800F2
:10000000580400209D010008790F0008D90D000850
:10001000750F00088502000821110008000000008B
:10002000000000000000000000000000810F000838
:1000300089020008000000007D0F0008850F0008FD
:10004000B7010008B7010008B7010008B7010008B0
:10005000B7010008B70100088D020008B7010008C9
:10006000B7010008B7010008B7010008B701000890
:10007000B7010008B7010008B7010008B701000880
:10008000B7010008B7010008B7010008B701000870
:10009000B7010008B7010008B7010008AD02000869
:1000A000B7010008B7010008B7010008B701000850
:1000B000B7010008B7010008B7010008B701000840
:1000C000B7010008B7010008B7010008B701000830
:1000D000B7010008B7010008B7010008B701000820
:1000E00095020008B7010008B7010008B701000831
:1000F000B7010008B7010008B7010008B701000800
:10010000B7010008B7010008B7010008B7010008EF
:10011000B7010008B7010008B7010008B7010008DF
:10012000B7010008B7010008B7010008B7010008CF
:10013000B7010008B7010008B7010008B7010008BF
:10014000B7010008B7010008B7010008B7010008AF
:10015000B7010008B7010008B7010008B70100089F
:10016000B7010008B7010008B7010008B70100088F
:10017000B7010008B7010008B7010008000000003F
:10018000B7010008B7010008DFF80CD000F068F8EC
:100190000048004725110008580400200648804701
:1001A00006480047FEE7FEE7FEE7FEE7FEE7FEE75C
:1001B000FEE7FEE7FEE7FEE7890F00088901000879
:1001C0002DE9F05F0546002092469B46884606468C
:1001D000814640241BE0284641464746224600F01F
:1001E0002FF853465A46C01A914110D3114618466B
:1001F000224600F016F82D1A67EB01084F462246FA
:100200000120002100F00DF817EB00094E41201EDF
:10021000A4F10104DFDC484631462A464346BDE8E6
:10022000F09F202A04DB203A00FA02F100207047F8
:100230009140C2F1200320FA03F319439040704724
:10024000202A04DB203A21FA02F00021704721FA2B
:1002500002F3D040C2F12002914008431946704792
:10026000064C074D06E0E06840F0010394E8070003
:1002700098471034AC42F6D3FFF78AFFEC1400081D
:100280000C150008FEE7000070470000012000F098
:1002900037B8000080B54FF4006000F031F84FF43B
:1002A0000050BDE8804000F02BB80000202000F096
:1002B00027B8000070470000B0F5006F05DA01288C
:1002C00012D020281AD101F099B8B0F5005F0DD0F6
:1002D000B0F5006F18BF704741F200404FF4007155
:1002E000C4F2020000F0ECB800F06ABF41F2004036
:1002F0004FF48071C4F2020000F0E2B870470000D1
:1003000043F61441C4F201010A68024214BF0860B6
:100310007047FFF7D1BF00002DE9F04F82B041F6E2
:10032000004343F6004B08224FF0010A00264FF02D
:10033000000CC4F20203C4F2010B984200F13E43E8
:1003400008BF072203F1FF734FEAB327072F4FF0CF
:10035000000738BF4FEAB32200920A680AFA0CF885
:1003600012EA080F10D100BF0CF1010C023704365D
:10037000BCF1100F04BF02B0BDE8F08F0A680AFAA2
:100380000CF812EA080FEFD0D1F804E04EF010029A
:10039000122A12D106F01C020F2303FA02F46FF0A6
:1003A000030303EA5C0505442B6AA3430C6904FAC2
:1003B00002F21A432A62D1F804E0032304680EF023
:1003C0000302BEF1120F03FA07F302FA07F224EA5E
:1003D00003046FEA030942EA0402026014D80AFA2D
:1003E0000EF212F0061F0FD08268CB6802EA0902F3
:1003F000BB401A438260CEF30012436802FA0CF24B
:1004000023EA08031A434260C2688B6802EA0902C1
:10041000BB401A43C2605FEACE02A5D5002206F0B7
:100420000C050F24019243F64402AC40C4F20202D0
:100430001346126842F480421A601A6802F480423D
:1004400001922CF00302019B5A444FF60843CFF669
:10045000FF739E46D358A343009C04FA05F52B4333
:1004600042F80E30DBF800204D6842EA0803EC0346
:1004700058BF22EA0803CBF80030AC03DBF80420B5
:1004800042EA080358BF22EA0803CBF80430EC0222
:10049000DBF8082042EA080358BF22EA080343F6C3
:1004A0000C42CBF80830AD02C4F2010214461268C7
:1004B00042EA080358BF22EA0803236054E7000019
:1004C00042690A408A4208BF0904816170470000FE
:1004D000002A08BF090481617047000040F2500003
:1004E000C2F200000068704740F2000040F2500184
:1004F000C2F20000C2F2000100780A6810440860ED
:100500007047000080B543F60040C4F20200016865
:1005100041F400710160016841F48061016001688B
:1005200041F480710160032000F084F8002000F0A5
:1005300005F800F025F8002080BD000070B540F2FD
:10054000000604464FF47A71C2F200063078B1FB1F
:10055000F0F040F20801C2F200010968B1FBF0F0CE
:1005600000F0D6FA01250F2C08D838B94FF0FF302B
:1005700021460022002500F02FF87460284670BD47
:1005800082B043F6400100200190C4F202014A68A3
:1005900042F480424A604A6802F480420192019A21
:1005A0000090086840F080500860086800F08050B3
:1005B0000090009802B070470028B8BF704700F064
:1005C0001F010122400902FA01F14EF20012CEF29F
:1005D000000242F82010704710B500F00F034EF6ED
:1005E0000C5E00F1604CB0F1FF3FA3F10403CEF2CA
:1005F000000E734403F10C04C8BF0CF56444DEF82C
:1006000000004FF0FF3CC0F30220C31E80F0070043
:1006100038BF0023042828BF04200CFA00F021EA88
:1006200000000CFA03F1984022EA0101084300019E
:10063000207010BD4EF60C514FF6FF03CEF20001B4
:100640000A681A4060F30A2242F0806040F0FD70B0
:10065000086070472DE9F041002800F0A08043F6C3
:10066000080804460D46C4F20208D8F8F80300F062
:100670000F00884208D288F8F853D8F8F80300F041
:100680000F00A84240F08B802068810717D54107F2
:1006900042BFD8F8001041F4E051C8F8001001073B
:1006A00042BFD8F8001041F46041C8F80010D8F8F3
:1006B0000010A26821F0F0011143C8F80010C00733
:1006C00031D06068811E022904D258F8081C8901C3
:1006D00065D50AE0012804D158F8081C89035ED5C5
:1006E00003E058F8081C890759D5D8F8001021F004
:1006F00003010843C8F80000FFF7F0FE064641F288
:10070000883700BFD8F80000616800F00C00B0EB3B
:10071000810F08D0FFF7E2FE801BB842F2D9032414
:100720002046BDE8F081D8F8F80300F00F00A84299
:1007300007D988F8F853D8F8F80300F00F00A8425A
:100740002DD12068410707D5D8F80010E26821F4C0
:10075000E0511143C8F80010000708D5D8F8000090
:10076000216920F4604040EAC100C8F8000000F0B0
:100770001BF8D8F8001041F2DC420024C0F6000259
:10078000C1F30311515CC84040F20801C2F20001FC
:1007900008600020FFF7D2FE2046BDE8F08101246A
:1007A0002046BDE8F081000010B543F60404C4F211
:1007B0000204606800F00C0008280AD0042819BF61
:1007C00042F20040C0F2F40047F64000C0F27D1053
:1007D00010BD226820680023400202F03F0247F665
:1007E0004000C0F27D105CBF42F20040C0F2F40055
:1007F0002168C1F38811A0FB0101FFF7E1FC21682A
:100800000222C1F3014102EB4101B0FBF1F010BD46
:100810002DE9F04182B0002800F0188104460078EC
:1008200043F60006C4F20206C0072FD0B06800F0FD
:100830000C00042823D0B06800F00C00082802D176
:10084000706840021BD46768B7F5803F07D03068F6
:10085000B7F5A02F40F01E8140F480203060306852
:1008600040F480303060FFF739FE05463068800381
:100870000CD4FFF733FE401B6428F7D9AAE0306898
:10088000800303D56068002800F0E08020788007AE
:1008900030D5B06810F00C0F07D0B06800F00C0035
:1008A00008280AD17068400207D4306880071AD53A
:1008B000E068012840F0CA8015E0E1680020C4F239
:1008C0004720002900F08A8001210160FFF706FE21
:1008D000054600BF3068800705D4FFF7FFFD401BC9
:1008E0000228F7D976E03068216920F0F80040EA64
:1008F000C10030602078000725D5606988B10020EC
:100900000121C4F24720C0F8801EFFF7E7FD05462D
:10091000706F800717D4FFF7E1FD401B0228F7D95D
:1009200058E000200021C4F24720C0F8801EFFF7E5
:10093000D5FD0546706F800705D5FFF7CFFD401B3D
:100940000228F7D946E02078400777D5306C4FF081
:100950000008C0000CD4CDF804804FF00108306CC2
:1009600040F080503064306C00F08050019001986D
:1009700047F20007C4F200073868C0050FD4386892
:1009800040F480703860FFF7A9FD05463868C0055F
:1009900005D4FFF7A3FD401B0228F7D91AE0A7688A
:1009A000012F05D0306F052F29D140F004003067AA
:1009B000306F40F001003067FFF790FD054641F2CF
:1009C000883700BF306F800731D4FFF787FD401BA9
:1009D000B842F7D9032002B0BDE8F08100210160E0
:1009E000FFF77CFD054600BF306880077FF582AFCA
:1009F000FFF774FD411B03200229F5D981E020F0A7
:100A000001003067306F20F004003067FFF766FDAB
:100A10000546002FD3D141F28837306F800706D5C5
:100A2000FFF75CFD411B0320B942F6D969E0B8F13C
:100A3000000F1EBF306C20F080503064A769002F7B
:100A400062D0B06800F00C00082803D1012002B089
:100A5000BDE8F08140F200080020C4F24728C8F841
:100A60006000FFF73BFD0546022F09D13068800189
:100A700028D5FFF733FD411B03200229F6D940E0BA
:100A80003068800140D5FFF729FD411B0320032971
:100A9000F6D336E020F480303060306820F48020D7
:100AA0003060FFF71BFD0546002F7FF4DFAE306896
:100AB00080037FF5EBAEFFF711FD411B0320642996
:100AC000F5D91EE004F11C078FCF0843D90340EA93
:100AD00082104FF6FF72914340EA0760A1F5803122
:100AE000084370600120C8F86000FFF7F7FC044677
:100AF0003068800108D4FFF7F1FC011B03200229B4
:100B0000F6D902B0BDE8F081002002B0BDE8F08166
:100B1000411E0020B0EB116F1CBF012070474EF248
:100B20001002F023CEF2000251604EF62351CEF2B5
:100B300000010B70072190601160704790F83C3005
:100B40000222012B19D010B580F83D200268D2F89E
:100B500004E0D2F808C0D1E900342EF07001194346
:100B600051602CF08001214391600022012180F826
:100B70003C2080F83D10BDE8104010467047000052
:100B8000002804BF0120704710B5044690F83D00CE
:100B900028B9002084F83C00204600F00DF802201F
:100BA000211D84F83D00206800F01AFA012084F825
:100BB0003D00002010BD000000210068C4F20101CA
:100BC000884218BF704781B00020009043F644006F
:100BD000C4F20200016841F001010160006800F008
:100BE00001000090009801B070470000022180F8D9
:100BF0003D1001688A6802F00702062A1EBF0A68D3
:100C000042F001020A60012180F83D100020704787
:100C1000022141F2111380F83D1001680A6A1A425C
:100C200004D10A6A40F244431A4204D0012180F8F8
:100C30003D10002070470A6822F001020A6001217D
:100C400080F83D100020704790F83C300222012BC4
:100C500000F0BF8080B580F83D20012280F83C2064
:100C60004FF67772D0F800C0DCF8083023EA0202B1
:100C7000CCF808200B683F2B1BDD5F2B1FDD602BA2
:100C80004DD0B3F5005F69D0702B40F09A80D1E968
:100C90000123C9681A4342EA0121DCF8082022F442
:100CA0007F421143CCF80810DCF8081041F07701BE
:100CB00085E01F2B27DC53B3102B28D081E0402B7D
:100CC0005ED0502B7DD1D1F804E0C968DCF820302B
:100CD000DCF8202022F00102CCF82020DCF81820DB
:100CE00022F0F00242EA0111CCF8181023F00A01B8
:100CF00041EA0E01CCF82010DCF8081041F0570151
:100D000021F020015BE0202B01D0302B59D1DCF801
:100D1000081021F07001194341F007014FE04A68C3
:100D2000C968DCF8203023F01003CCF82030DCF860
:100D3000183023F4704343EA0131DCF82030CCF85A
:100D4000181023F0A00141EA0211CCF82010DCF8C1
:100D5000081041F0670121F0100130E0D1E90123D2
:100D6000C9681A4342EA0121DCF8082022F47F42D4
:100D70001143CCF80810DCF8081041F480411EE063
:100D8000D1F804E0C968DCF82030DCF8202022F03B
:100D90000102CCF82020DCF8182022F0F00242EA10
:100DA0000111CCF8181023F00A0141EA0E01CCF829
:100DB0002010DCF8081041F0470121F03001CCF898
:100DC00008100022012180F83C2080F83D10BDE889
:100DD0008040104670470000FEE700002DE9F04318
:100DE00087B043F63000002641F2004400224FF461
:100DF000F069CDE905660196C4F20200C4F202046E
:100E0000016841F004010160016801F004010191F1
:100E100001990196016841F020010160016801F02B
:100E20002001019101990196016841F08001016062
:100E3000016801F08001019101990196016841F07A
:100E4000010101604FF4F061006800F001000190C1
:100E500001982046FFF73CFB40F20008012702AD55
:100E60004FF40050C1F2110804972946CDF80C80C8
:100E70000290A4F54060FFF74FFA20462946CDE9DD
:100E80000466CDE90297FFF747FA0220A4F5A056C1
:100E9000294604903046CDE90278FFF73DFA20203C
:100EA000CDE90387294602903046FFF735FA4FF423
:100EB0000060CDE90387294602902046FFF72CFA0F
:100EC000062002210022FFF787FB0620FFF774FBB4
:100ED000172001210022FFF77FFB1720FFF76CFB93
:100EE000282003210022FFF777FB2820FFF764FB6F
:100EF00007B0BDE8F083000080B586B040F2100076
:100F0000002200214FF6FF7C5323C2F20000C4F2FE
:100F10000102CDE90411CDE90211C0E90023C0E9C5
:100F2000021CC0E904118161CDE90011FFF728FE20
:100F3000002818BFFFF7BEF94FF4805002A90290B5
:100F400040F21000C2F20000FFF77EFE002818BF3A
:100F5000FFF7B0F900206946CDE9000040F210002B
:100F6000C2F20000FFF7EAFD002818BFFFF7A2F960
:100F700006B080BDFEE7000070470000704700002B
:100F800070470000FFF7B0BA4EF688504FF0000CE3
:100F9000CEF20000016841F47001016043F60001E7
:100FA000C4F202010A6842F001020A60C1F808C0F6
:100FB0004FF6FF720B68CFF6F6621A400A6043F2F2
:100FC0001002C2F200424A600A6822F480220A60DB
:100FD000C1F80CC04FF0006140F8801C7047000061
:100FE00040F6FF3C0268C4F2000C604526DCB0F11C
:100FF000804F34D040F20043C4F2000398422ED018
:1010000040F60003C4F20003984228D041F6FF7373
:10101000C4F2000398422CDC604542DCB0F1804F02
:1010200064D040F20043C4F2000398425ED040F620
:101030000003C4F20003984258D05BE040F600433E
:10104000C4F2000398420AD040F20043C4F2010304
:10105000984204D00023C4F201039842D6D14B68D1
:1010600022F070021A4341F6FF73C4F20003984263
:10107000D2DD43F6FF73C4F20103984224DC42F24E
:101080000003C4F20003984230D00023C4F20103ED
:1010900098422BD040F20043C4F20103984225D07D
:1010A00028E040F60043C4F2000398421ED041F607
:1010B0000003C4F20003984218D041F60043C4F282
:1010C0000003984212D015E044F20003C4F2010379
:1010D00098420BD044F60003C4F20103984205D0B5
:1010E00044F20043C4F20103984203D1CB6822F4D6
:1010F00040721A434B6922F080021A4340F20043C7
:101100000260C4F201038A68C2620A68826240F423
:1011100080629A4204BF09690163012141617047FD
:10112000FEE7000092B0FFF7EDF943F6400000241F
:101130000225CDE90A44CDE908440194C4F2020035
:10114000016841F080510160006800F0805001901A
:101150000198019447F20000C4F20000016841F4D4
:1011600080410160006800F48040019001980420F3
:1011700011904FF4A87010950F9019200E904FF415
:101180008000CDE90C504FF480300790012006908C
:1011900006A8FFF73DFB4FF48050052105904FF462
:1011A000A05004900F20CDE90254019001A8FFF750
:1011B00051FAFFF713FEFFF79FFE00BFFEE70000A6
:1011C000242641F2004440F210054FF00008C4F21A
:1011D0000106C4F20204C2F200050DE02846FFF742
:1011E00017FD20464FF48061C6F80080FFF768F9CC
:1011F00020468021FFF764F920464FF48071FFF705
:101200005FF920464FF40071FFF75AF92846FFF7BF
:10121000EDFC0020C6F800803168B1F57A7F08BF88
:10122000013081B2C92917D23168B1F57A7F08BF80
:10123000013081B2C8290FD83168B1F57A7F08BF73
:10124000013081B2C82907D83168B1F57A7F08BF6B
:10125000013081B2C829DFD92846FFF7D9FC002721
:1012600020464FF480713760FFF72AF920464FF48B
:101270000071FFF725F92846FFF7B8FC376000BF7B
:101280003068B0F57A7F08BF0137B8B2C92817D2E5
:101290003068B0F57A7F08BF0137B8B2C8280FD8D8
:1012A0003068B0F57A7F08BF0137B8B2C82807D8D0
:1012B0003068B0F57A7F08BF0137B8B2C828DFD9E7
:1012C0002846FFF7A5FC002720464FF40071376041
:1012D000FFF7F6F820464FF48061FFF7F1F8284653
:1012E000FFF784FC376000BF3068B0F57A7F08BF35
:1012F0000137B8B2C92817D23068B0F57A7F08BF75
:101300000137B8B2C8280FD83068B0F57A7F08BF67
:101310000137B8B2C82807D83068B0F57A7F08BF5F
:101320000137B8B2C828DFD92846FFF771FC00277B
:1013300020464FF400713760FFF7C2F820464FF4A3
:101340008061FFF7BDF82846FFF750FC376000BF0B
:101350003068B0F57A7F08BF0137B8B2C92817D214
:101360003068B0F57A7F08BF0137B8B2C8280FD807
:101370003068B0F57A7F08BF0137B8B2C82807D8FF
:101380003068B0F57A7F08BF0137B8B2C828DFD916
:101390002846FFF73DFC002720464FF48061376068
:1013A000FFF78EF820468021FFF78AF82846FFF7DE
:1013B0001DFC37603068B0F57A7F08BF0137B8B2DE
:1013C000C928BFF40BAF3068B0F57A7F08BF01378A
:1013D000B8B2C8283FF602AF3068B0F57A7F08BFD0
:1013E0000137B8B2C8283FF6F9AE3068B0F57A7F59
:1013F00008BF0137B8B2C828DCD9EFE641F2004493
:101400004FF4806100220026C4F202042046FFF758
:101410005FF820464FF400710022FFF759F820468C
:101420004FF480710022FFF753F8204680210022FC
:10143000FFF74EF8242740F21005C4F20107C2F26C
:10144000000503E02846FFF7E3FB3E6020464FF42B
:101450008061FFF735F820464FF40071FFF730F850
:1014600020464FF48071FFF72BF820468021FFF7CC
:1014700027F82846FFF7BAFB00203E603968B1F52F
:101480007A7F08BF013081B26529DBD23968B1F5B6
:101490007A7F08BF013081B26429D3D83968B1F5A9
:1014A0007A7F08BF013081B26429CBD83968B1F5A1
:1014B0007A7F08BF013081B26429DFD9C2E702E038
:1014C00008C8121F08C1002AFAD1704770470020CF
:1014D00001E001C1121F002AFBD17047000000008B
:1014E00000000000010203040607080910150008A7
:1014F0000000002010000000BE14000820150008A5
:101500001000002048040000CE1400080000000075
:1015100001000000100000000024F40000000000A2
:040000050800018965
:00000001FF
