:020000040800F2
:10000000180400209D010008650C0008C50A0008BE
:10001000610C000885020008CD0C000800000000FB
:100020000000000000000000000000006D0C00084F
:100030008902000800000000690C0008710C00082B
:10004000B7010008B7010008B7010008B7010008B0
:10005000B7010008B7010008B7010008B7010008A0
:10006000B7010008B7010008B7010008B701000890
:10007000B7010008B7010008B7010008B701000880
:10008000B7010008B7010008B7010008B701000870
:10009000B7010008B7010008B7010008B701000860
:1000A000B7010008B7010008B7010008B701000850
:1000B000B7010008B7010008B7010008B701000840
:1000C000B7010008B7010008B7010008B701000830
:1000D000B7010008B7010008B7010008B701000820
:1000E000B7010008B7010008B7010008B701000810
:1000F000B7010008B7010008B7010008B701000800
:10010000B7010008B7010008B7010008B7010008EF
:10011000B7010008B7010008B7010008B7010008DF
:10012000B7010008B7010008B7010008B7010008CF
:10013000B7010008B7010008B7010008B7010008BF
:10014000B7010008B7010008B7010008B7010008AF
:10015000B7010008B7010008B7010008B70100089F
:10016000B7010008B7010008B7010008B70100088F
:10017000B7010008B7010008B7010008000000003F
:10018000B7010008B7010008DFF80CD000F068F8EC
:1001900000480047D10C000818040020064880479A
:1001A00006480047FEE7FEE7FEE7FEE7FEE7FEE75C
:1001B000FEE7FEE7FEE7FEE7750C00088901000890
:1001C0002DE9F05F0546002092469B46884606468C
:1001D000814640241BE0284641464746224600F01F
:1001E0002FF853465A46C01A914110D3114618466B
:1001F000224600F016F82D1A67EB01084F462246FA
:100200000120002100F00DF817EB00094E41201EDF
:10021000A4F10104DFDC484631462A464346BDE8E6
:10022000F09F202A04DB203A00FA02F100207047F8
:100230009140C2F1200320FA03F319439040704724
:10024000202A04DB203A21FA02F00021704721FA2B
:1002500002F3D040C2F12002914008431946704792
:10026000064C074D06E0E06840F0010394E8070003
:1002700098471034AC42F6D3FFF78AFFD40D00083C
:10028000F40D0008FEE7000070470000B0B504461A
:1002900000F0F8F8054640F20000611CC2F20000D0
:1002A000007818BF044400BF00F0ECF8401BA042E7
:1002B000FAD3B0BD2DE9F04F82B041F6004343F6CA
:1002C000004B08224FF0010A00264FF0000CC4F248
:1002D0000203C4F2010B984200F13E4308BF07221B
:1002E00003F1FF734FEAB327072F4FF0000738BF22
:1002F0004FEAB32200920A680AFA0CF812EA080FD1
:1003000010D100BF0CF1010C02370436BCF1100F04
:1003100004BF02B0BDE8F08F0A680AFA0CF812EACE
:10032000080FEFD0D1F804E04EF01002122A12D1DB
:1003300006F01C020F2303FA02F46FF0030303EA32
:100340005C0505442B6AA3430C6904FA02F21A43C4
:100350002A62D1F804E0032304680EF00302BEF120
:10036000120F03FA07F302FA07F224EA03046FEA12
:10037000030942EA0402026014D80AFA0EF212F0EB
:10038000061F0FD08268CB6802EA0902BB401A43FD
:100390008260CEF30012436802FA0CF223EA0803EB
:1003A0001A434260C2688B6802EA0902BB401A43E2
:1003B000C2605FEACE02A5D5002206F00C050F242C
:1003C000019243F64402AC40C4F2020213461268A2
:1003D00042F480421A601A6802F4804201922CF0C2
:1003E0000302019B5A444FF60843CFF6FF739E4623
:1003F000D358A343009C04FA05F52B4342F80E3072
:10040000DBF800204D6842EA0803EC0358BF22EAFB
:100410000803CBF80030AC03DBF8042042EA080301
:1004200058BF22EA0803CBF80430EC02DBF80820BE
:1004300042EA080358BF22EA080343F60C42CBF80D
:100440000830AD02C4F201021446126842EA080301
:1004500058BF22EA0803236054E7000000690840FF
:1004600018BF01207047000042690A408A4208BF55
:100470000904816170470000002A08BF09048161F6
:100480007047000040F21400C2F20000006870479C
:1004900040F2000040F21401C2F20000C2F200017A
:1004A00000780A68104408607047000080B543F681
:1004B0000040C4F20200016841F40071016001686B
:1004C00041F480610160016841F4807101600320A2
:1004D00000F074F8002000F005F800F025F8002086
:1004E00080BD000070B540F2000604464FF47A71FA
:1004F000C2F200063078B1FBF0F040F20801C2F21F
:1005000000010968B1FBF0F000F0C6FA01250F2CDC
:1005100008D838B94FF0FF3021460022002500F0FE
:100520001FF87460284670BD82B043F64001002079
:100530000190C4F202014A6842F480424A604A686B
:1005400002F480420192019A0090086840F08050C5
:100550000860086800F080500090009802B0704772
:1005600010B500F00F034EF60C5E00F1604CB0F1D8
:10057000FF3FA3F10403CEF2000E734403F10C0419
:10058000C8BF0CF56444DEF800004FF0FF3CC0F338
:100590000220C31E80F0070038BF0023042828BFB4
:1005A00004200CFA00F021EA00000CFA03F1984054
:1005B00022EA010108430001207010BD4EF60C51E3
:1005C0004FF6FF03CEF200010A681A4060F30A22D8
:1005D00042F0806040F0FD70086070472DE9F04106
:1005E000002800F0A08043F6080804460D46C4F237
:1005F0000208D8F8F80300F00F00884208D288F803
:10060000F853D8F8F80300F00F00A84240F08B80B0
:100610002068810717D5410742BFD8F8001041F480
:10062000E051C8F80010010742BFD8F8001041F4AB
:100630006041C8F80010D8F80010A26821F0F0015D
:100640001143C8F80010C00731D06068811E02292C
:1006500004D258F8081C890165D50AE0012804D1A4
:1006600058F8081C89035ED503E058F8081C890770
:1006700059D5D8F8001021F003010843C8F800004C
:10068000FFF700FF064641F2883700BFD8F80000A8
:10069000616800F00C00B0EB810F08D0FFF7F2FEAC
:1006A000801BB842F2D903242046BDE8F081D8F877
:1006B000F80300F00F00A84207D988F8F853D8F8DB
:1006C000F80300F00F00A8422DD12068410707D59C
:1006D000D8F80010E26821F4E0511143C8F8001086
:1006E000000708D5D8F80000216920F4604040EAEE
:1006F000C100C8F8000000F01BF8D8F8001040F660
:10070000C4520024C0F60002C1F30311515CC8407A
:1007100040F20801C2F2000108600020FFF7E2FE8B
:100720002046BDE8F08101242046BDE8F0810000AC
:1007300010B543F60404C4F20204606800F00C0033
:1007400008280AD0042819BF42F20040C0F2F40081
:1007500047F64000C0F27D1010BD226820680023DB
:10076000400202F03F0247F64000C0F27D105CBF3D
:1007700042F20040C0F2F4002168C1F38811A0FBEE
:100780000101FFF71DFD21680222C1F3014102EBC7
:100790004101B0FBF1F010BD2DE9F04182B000281D
:1007A00000F018810446007843F60006C4F2020601
:1007B000C0072FD0B06800F00C00042823D0B06828
:1007C00000F00C00082802D1706840021BD4676852
:1007D000B7F5803F07D03068B7F5A02F40F01E81F5
:1007E00040F480203060306840F480303060FFF7A3
:1007F00049FE0546306880030CD4FFF743FE401BDA
:100800006428F7D9AAE03068800303D5606800281F
:1008100000F0E0802078800730D5B06810F00C0F31
:1008200007D0B06800F00C0008280AD170684002B8
:1008300007D4306880071AD5E068012840F0CA80E4
:1008400015E0E1680020C4F24720002900F08A800A
:1008500001210160FFF716FE054600BF30688007E2
:1008600005D4FFF70FFE401B0228F7D976E0306869
:10087000216920F0F80040EAC100306020780007CC
:1008800025D5606988B100200121C4F24720C0F855
:10089000801EFFF7F7FD0546706F800717D4FFF73E
:1008A000F1FD401B0228F7D958E000200021C4F2D6
:1008B0004720C0F8801EFFF7E5FD0546706F8007F2
:1008C00005D5FFF7DFFD401B0228F7D946E0207869
:1008D000400777D5306C4FF00008C0000CD4CDF83D
:1008E00004804FF00108306C40F080503064306C70
:1008F00000F080500190019847F20007C4F2000711
:100900003868C0050FD4386840F480703860FFF74D
:10091000B9FD05463868C00505D4FFF7B3FD401B97
:100920000228F7D91AE0A768012F05D0306F052FEC
:1009300029D140F004003067306F40F0010030678B
:10094000FFF7A0FD054641F2883700BF306F8007F2
:1009500031D4FFF797FD401BB842F7D9032002B00E
:10096000BDE8F08100210160FFF78CFD054600BF66
:10097000306880077FF582AFFFF784FD411B0320BD
:100980000229F5D981E020F001003067306F20F0B6
:1009900004003067FFF776FD0546002FD3D141F202
:1009A0008837306F800706D5FFF76CFD411B0320A9
:1009B000B942F6D969E0B8F1000F1EBF306C20F0E3
:1009C00080503064A769002F62D0B06800F00C003E
:1009D000082803D1012002B0BDE8F08140F20008F0
:1009E0000020C4F24728C8F86000FFF74BFD054619
:1009F000022F09D13068800128D5FFF743FD411B44
:100A000003200229F6D940E03068800140D5FFF785
:100A100039FD411B03200329F6D336E020F4803052
:100A20003060306820F480203060FFF72BFD0546F1
:100A3000002F7FF4DFAE306880037FF5EBAEFFF769
:100A400021FD411B03206429F5D91EE004F11C0798
:100A50008FCF0843D90340EA82104FF6FF729143CB
:100A600040EA0760A1F58031084370600120C8F8B2
:100A70006000FFF707FD04463068800108D4FFF7E7
:100A800001FD011B03200229F6D902B0BDE8F08167
:100A9000002002B0BDE8F081411E0020B0EB116FD4
:100AA0001CBF012070474EF21002F023CEF200026C
:100AB00051604EF62351CEF200010B700721906079
:100AC00011607047FEE7000010B50138032888BFA9
:100AD00010BDDFE800F00241102441F20044802103
:100AE0000022C4F202042046FFF7C6FC20464FF461
:100AF000807101223DE041F2004480210122C4F2D4
:100B000002042046FFF7B8FC20464FF48071012212
:100B1000FFF7B2FC20464FF4007100222FE041F2B3
:100B2000004480210122C4F202042046FFF7A4FC05
:100B300020464FF480710122FFF79EFC20464FF4BF
:100B400000710122FFF798FC20464FF480610022DB
:100B5000BDE81040FFF790BC41F200448021012223
:100B6000C4F202042046FFF787FC20464FF4807150
:100B70000022FFF781FC20464FF400710122FFF7AD
:100B80007BFC20464FF480610122BDE81040FFF756
:100B900073BC0000F0B587B043F63000002641F288
:100BA00000440122012706960196C4F20200C4F215
:100BB0000204016841F004010160016801F00401D0
:100BC000019101990196016841F0200101600168DD
:100BD00001F02001019101990196016841F0800125
:100BE0000160016801F0800101910199019601689D
:100BF00041F001010160016801F0010101910199D9
:100C00000196016841F0020101604FF4F86100684B
:100C100000F00200019001982046FFF72DFC112002
:100C2000CDE9046602AD039040202946029020469B
:100C3000FFF740FB4FF4F0600596CDE903762946B7
:100C400002902046FFF736FB2020CDE903662946B7
:100C50000290A4F5A050FFF72DFB07B0F0BD0000F7
:100C6000FEE700007047000070470000704700007A
:100C7000FFF70EBC4EF688504FF0000CCEF200008D
:100C8000016841F47001016043F60001C4F2020101
:100C90000A6842F001020A60C1F808C04FF6FF720C
:100CA0000B68CFF6F6621A400A6043F21002C2F2F5
:100CB00000424A600A6822F480220A60C1F80CC02F
:100CC0004FF0006140F8801C70470000FEE7000014
:100CD00092B0FFF7EBFB43F64000002447F200051B
:100CE00002260B94CDE90944CDE907440194C4F2EE
:100CF0000200C4F20005016841F080510160006803
:100D000000F08050019001980194286840F48040E0
:100D10002860286800F48040019001980420119018
:100D2000A82010960F9008200E901020CDE90C649A
:100D30000A900120099006A80696FFF72DFD4FF4B2
:100D40008050052105904FF4A05004900F20CDE96C
:100D50000264019001A8FFF741FCFFF71BFF40F27E
:100D6000100605F5C83405F5D235C2F2000600BFFD
:100D70003078FFF7A9FE20462021FFF76FFB0028FF
:100D8000F6D128464021FFF76FFB6420FFF77EFA7B
:100D900030780130C1B2042988BF0020307064204F
:100DA000FFF774FAE4E702E008C8121F08C1002A3E
:100DB000FAD170477047002001E001C1121F002ADC
:100DC000FBD1704700000000000000000102030496
:100DD00006070809F80D00080000002010000000B8
:100DE000A60D0008080E00081000002008040000EE
:100DF000B60D000800000000010000001000000017
:080E00000024F40000000000D2
:040000050800018965
:00000001FF
