:020000040800F2
:10000000180400209D0100089B0A00080D0A000842
:10001000990A0008A9020008790B000800000000F6
:100020000000000000000000000000009F0A00081F
:10003000AB020008000000009D0A0008A10A0008A9
:10004000B7010008B7010008B7010008B7010008B0
:10005000B7010008B7010008B7010008B7010008A0
:10006000B7010008B7010008B7010008B701000890
:10007000B7010008B7010008B7010008B701000880
:10008000B7010008B7010008B7010008B701000870
:10009000B7010008B7010008B7010008B701000860
:1000A000B7010008B7010008B7010008B701000850
:1000B000B7010008B7010008B7010008B701000840
:1000C000B7010008B7010008B7010008B701000830
:1000D000B7010008B7010008B7010008B701000820
:1000E000B7010008B7010008B7010008B701000810
:1000F000B7010008B7010008B7010008B701000800
:10010000B7010008B7010008B7010008B7010008EF
:10011000B7010008B7010008B7010008B7010008DF
:10012000B7010008B7010008B7010008B7010008CF
:10013000B7010008B7010008B7010008B7010008BF
:10014000B7010008B7010008B7010008B7010008AF
:10015000B7010008B7010008B7010008B70100089F
:10016000B7010008B7010008B7010008B70100088F
:10017000B7010008B7010008B7010008000000003F
:10018000B7010008B7010008DFF80CD000F07AF8DA
:1001900000480047A10B00081804002006488047CB
:1001A00006480047FEE7FEE7FEE7FEE7FEE7FEE75C
:1001B000FEE7FEE7FEE7FEE72D0B000889010008D9
:1001C0002DE9F05F0546002092469B46884606468C
:1001D000814640241BE0284641464746224600F01F
:1001E00041F853465A46C01A914110D31146184659
:1001F000224600F028F82D1A67EB01084F462246E8
:100200000120002100F01FF817EB00094E41201ECD
:10021000A4F10104DFDC484631462A464346BDE8E6
:10022000F09FD2B201E000F8012B491EFBD27047CB
:100230000022F6E710B513460A4604461946FFF7B2
:10024000F0FF204610BD202A04DB203A00FA02F11C
:10025000002070479140C2F1200320FA03F31943B4
:1002600090407047202A04DB203A21FA02F0002156
:10027000704721FA02F3D040C2F1200291400843B6
:1002800019467047064C074D06E0E06840F0010350
:1002900094E8070098471034AC42F6D3FFF778FF94
:1002A000840C0008A40C0008FEE77047B0B50446B3
:1002B00000F0DEF805469048611C007818BF044441
:1002C00000F0D6F8401BA042FAD3B0BD2DE9F84F9C
:1002D0005B4A4FF0080A4FF0010B4FF000084FF057
:1002E000000E9042574A08BF4FF0070A02444FEAF7
:1002F000B223072B38BF4FEAB22A0022102A08BFC8
:10030000BDE8F88F0B680BFA02F6334200F09180DB
:100310004B6843F01004122C13D16FF003040EF05D
:100320001C030F2704EA520507FA03FC05442C6A54
:1003300024EA0C0C0C6904FA03F343EA0C032B6265
:100340004B68032703F00305122B07FA08F407682C
:1003500005FA08F56FEA040C27EA040747EA0507DF
:10036000076013D80BFA03F414F0061F0ED084684C
:10037000CD6804EA0C0405FA08F52C438460C3F345
:10038000001445689440B5432C434460C4688D68AC
:10039000DB0004EA0C0705FA08F547EA0507C76021
:1003A00047D50023284C0EF00C050093284BA4469B
:1003B0001F461B6843F480433B603B6803F4804363
:1003C000009322F003032344224C009FA1461F59AF
:1003D0000F24AC400AFA05F5A7432F4343F80970F0
:1003E000DCF800304D6843EA0607EC0358BF23EA07
:1003F0000607CCF80070AC03DCF8043043EA0607CB
:1004000058BF23EA0607CCF80470EC02DCF8083089
:1004100043EA060758BF23EA06070C4BCCF80870DE
:10042000AD021C461B6843EA060758BF23EA0607CD
:10043000276008F102080EF1040E01325EE700BFEA
:10044000001C02400000FEBF003C01400C3C01408B
:100450004438024008FCFFFF42690A408A4208BF54
:10046000090481617047002A08BF0904816170474F
:1004700005480068704700BF1F48034900780A68B4
:1004800010440860704700BF1000002080B50B4882
:10049000016841F400710160016841F4806101600C
:1004A000016841F480710160032000F061F80020D0
:1004B00000F006F800F022F8002080BD003C024069
:1004C00070B50D4E04464FF47A713078B1FBF0F000
:1004D00077490968B1FBF0F000F084FA01250F2C90
:1004E00008D838B94FF0FF3021460022002500F02F
:1004F00021F87460284670BD0000002082B0002002
:100500000B4901904A6842F480424A604A6802F40A
:1005100080420192019A0090086840F08050086083
:10052000086800F080500090009802B0704700BF4B
:100530004038024080B5144B1B68C3F3022CBCF159
:10054000030E8CF007034FF0FF3C38BF4FF0000E56
:10055000042B28BF04230CFA03F399430CFA0EF37F
:1005600001FA0EF19A431143BDE8804000F006BB4A
:1005700005494FF6FF030A681A4060F30A22034850
:1005800010430860704700BF0CED00E00000FA0562
:100590002DE9F041002800F08380434B0446884653
:1005A000D3F8000400F00F00884207D283F80084DB
:1005B000D3F8000400F00F00404571D12068810796
:1005C00011D5410742BF996841F4E0519960010794
:1005D00042BF996841F4604199609968A26821F02E
:1005E000F00111439960C0072AD06068811E02297A
:1005F00003D21968890109D452E0012803D119688E
:10060000890303D44CE01968890749D599681D46C8
:1006100021F0030108439860FFF72AFF064641F2E4
:100620008837A86861682B4600F00C00B0EB810F9A
:1006300006D0FFF71DFF801BB842F2D9032430E03B
:10064000D3F8000400F00F00404507D983F8008478
:10065000D3F8000400F00F00404521D12068410785
:1006600005D59968E26821F4E051114399600007CB
:1006700006D59868216920F4604040EAC10098607E
:100680001C4600F017F8A168084A0024C1F30311C2
:10069000515CC840064908600020FFF711FF00E0E8
:1006A00001242046BDE8F08100380240720C0008A9
:1006B0000800002010B5134C606800F00C000828FA
:1006C00004D0042814BF1048104810BD22682068C8
:1006D0000023400202F03F020C485CBF42F200409F
:1006E000C0F2F4002168C1F38811A0FB0101FFF7FB
:1006F00067FD21680222C1F3014102EB4101B0FB19
:10070000F1F010BD043802400024F40040787D016F
:100710002DE9FC41002800F0058104460078AF4E29
:10072000C0072FD0B06800F00C00042823D0B068B8
:1007300000F00C00082802D1706840021BD46768E2
:10074000B7F5803F07D03068B7F5A02F40F00B8198
:1007500040F480203060306840F480303060FFF733
:1007600087FE0546306880030CD4FFF781FE401BEE
:100770006428F7D99DE03068800303D560680028BD
:1007800000F0D080207880072BD5B06810F00C0FD7
:1007900007D0B06800F00C00082809D1706840024A
:1007A00006D43068800715D5E068012812D0B9E07A
:1007B000E1688B4800297ED001210160FFF758FED7
:1007C00005463068800705D4FFF752FE401B02281B
:1007D000F7D96EE03068216920F0F80040EAC100E6
:1007E00030602078000721D5606978B17C4801210C
:1007F000C0F8801EFFF73CFE0546706F800715D4D9
:10080000FFF736FE401B0228F7D952E0744800215A
:10081000C0F8801EFFF72CFE0546706F800705D5D7
:10082000FFF726FE401B0228F7D942E02078400758
:1008300070D5306C4FF00008C0000CD4CDF80480A7
:100840004FF00108306C40F080503064306C00F0A4
:10085000805001900198B44F3868C0050FD43868B3
:1008600040F480703860FFF703FE05463868C00525
:1008700005D4FFF7FDFD401B0228F7D919E0A76852
:10088000012F05D0306F052F25D140F004003067CF
:10089000306F40F001003067FFF7EAFD054641F296
:1008A0008837306F80072ED4FFF7E2FD401BB84237
:1008B000F7D9032037E000210160FFF7D9FD054695
:1008C000306880077FF58DAFFFF7D2FD411B032015
:1008D0000229F5D927E020F001003067306F20F0C1
:1008E00004003067FFF7C4FD0546002FD7D141F261
:1008F0008837306F800706D5FFF7BAFD411B03200C
:10090000B942F6D90FE0B8F1000F1EBF306C20F0ED
:1009100080503064A769002F5DD0B06800F00C00F3
:10092000082803D1012002B0BDE8F0812C49002045
:1009300088460866FFF79CFD0546022F09D13068FE
:10094000800128D5FFF794FD411B03200229F6D929
:10095000E9E7306880013ED5FFF78AFD411B03209F
:100960000329F6D3DFE720F480303060306820F4CC
:1009700080203060FFF77CFD0546002F7FF4F2AE4B
:10098000306880037FF5FEAEFFF772FD411B032048
:100990006429F5D9C7E704F11C078FCF0843D903B1
:1009A00040EA82104FF6FF72914340EA0760A1F5DA
:1009B0008031084370600120C8F86000FFF758FDDF
:1009C00004463068800106D4FFF752FD011B032066
:1009D0000229F6D9A7E70020A5E700BF00380240AA
:1009E00000004742411E0020B0EB116F1CBF0120E8
:1009F0007047044AF023516003490B70072190604F
:100A00001160704710E000E023ED00E0FEE7000019
:100A1000F0B587B000251F488B4C01224FF4F066DB
:100A2000012706950195016841F004010160016804
:100A300001F00401019101990195016841F0200143
:100A40000160016801F0200101910199019501689F
:100A500041F080010160016801F08001019101997C
:100A60000195016841F0010101604FF4F0610068F7
:100A700000F00100019001982046FFF7F4FC02A964
:100A80002046CDE90455CDE90267FFF71FFC07B00A
:100A9000F0BD00BF30380240FEE770477047704736
:100AA000FFF7EABC70B592B006AC1421201DFFF729
:100AB000BFFB00251B4802260195016841F08051CB
:100AC0000160006800F0805001900198019516487F
:100AD000016841F480410160006800F480400190A9
:100AE000019804201190A82010960F9008200E90D5
:100AF0001020CDE90C650A90012009902046069649
:100B0000FFF706FE4FF48050052105904FF4A050EA
:100B100004900F20CDE90265019001A8FFF738FD90
:100B200012B070BD403802400070004010B50E4851
:100B30000F4CD0F8801041F47001C0F880100B49C0
:100B40000A6842F001020A6000228A600B682340B2
:100B50000B60084B4B600B6823F480230B60CA606A
:100B60004FF00061016010BD08ED00E00038024068
:100B7000FFFFF6FE10300024FEE7000010B5074C22
:100B800000F00F03044AB0F1FF3F2344C8BF8318AD
:100B90000801187010BD00BF00E400E014ED00E093
:100BA000FFF774FCFFF77EFFFFF732FF264C274D5F
:100BB000274E20468021A84720464FF48071A84741
:100BC000C820B04720468021A84720464FF48071B6
:100BD000A847C820B04720464FF48071A847204658
:100BE0004FF40071A847C820B04720464FF48071E9
:100BF000A84720464FF40071A847C820B0472046B8
:100C00004FF40071A84720464FF48061A847C820E0
:100C1000B04720464FF40071A84720464FF480614A
:100C2000A847C820B04720464FF48061A847204617
:100C30008021A847C820B04720464FF48061A847CC
:100C400020468021A847B4E7001402405904000858
:100C5000AD02000802E008C8121F08C1002AFAD13C
:100C600070477047002001E001C1121F002AFBD12C
:100C700070470000000000000000010203040607A6
:100C800008090000A80C0008000000201000000067
:100C9000540C0008B80C00081000002008040000E4
:100CA000640C0008000000000100000010000000BB
:080CB0000024F4000000000024
:040000050800018965
:00000001FF
